{
	"data": {
		"bytecode": {
			"linkReferences": {},
			"object": "60806040523480156200001157600080fd5b50600060208181527f67be87c3ff9960ca1e9cfac5cab2ff4747269cf9ed20c9b7306235ac35a491c58054600160ff1991821681179092557ff7815fccbf112960a73756e185887fedcb9fc64ca0a16cc5923b7960ed7808008054821683179055635b5e139f60e01b9093527f9562381dfbc2d8b8b66e765249f330164b73e329e5f01670660643571d1974df80549093161790915560088054336001600160a01b0319918216811790925560098054909116909117905560408051808201909152600c8082526b2530b1b5bc93b9902934b33360a11b91909201908152620000fe916005919062000133565b5060408051808201909152600480825263252924a360e11b60209092019182526200012c9160069162000133565b5062000216565b8280546200014190620001d9565b90600052602060002090601f016020900481019282620001655760008555620001b0565b82601f106200018057805160ff1916838001178555620001b0565b82800160010185558215620001b0579182015b82811115620001b057825182559160200191906001019062000193565b50620001be929150620001c2565b5090565b5b80821115620001be5760008155600101620001c3565b600181811c90821680620001ee57607f821691505b602082108114156200021057634e487b7160e01b600052602260045260246000fd5b50919050565b613a4580620002266000396000f3fe60806040526004361061023b5760003560e01c806383f687031161012e578063baadf60e116100ab578063e84f32611161006f578063e84f3261146106df578063e985e9c51461070f578063e9d2ebaf14610758578063ee9cdfb31461078b578063fb80fe9e1461079e57600080fd5b8063baadf60e1461063c578063c87b56dd1461066a578063ceebcf291461068a578063d3fc98641461069f578063e2334497146106bf57600080fd5b8063a21bf0d5116100f2578063a21bf0d514610582578063a22cb465146105af578063b2bdfa7b146105cf578063b88d4fde146105ef578063ba82b5ac1461060f57600080fd5b806383f68703146104df57806384861e931461051a57806395d89b411461053a5780639a721a6c1461054f5780639b6fa9951461056f57600080fd5b80633b082419116101bc57806359645dc61161018057806359645dc6146104475780636352211e1461047757806370a08231146104975780637ad64057146104b75780637bb2b3c1146104cc57600080fd5b80633b082419146103ad57806342842e0e146103e057806347a0375b1461040057806351ed82881461041357806355b9d4431461043457600080fd5b806317fee5f91161020357806317fee5f91461030b5780632172d6b01461032b57806323b872dd14610358578063352f946b1461037857806338cc48311461039a57600080fd5b806301ffc9a71461024057806306fdde031461028f578063081812fc146102b1578063095ea7b3146102e957806312cccb3414610309575b600080fd5b34801561024c57600080fd5b5061027a61025b3660046134f2565b6001600160e01b03191660009081526020819052604090205460ff1690565b60405190151581526020015b60405180910390f35b34801561029b57600080fd5b506102a46107b1565b6040516102869190613849565b3480156102bd57600080fd5b506102d16102cc36600461352c565b610843565b6040516001600160a01b039091168152602001610286565b3480156102f557600080fd5b506103096103043660046133f9565b6108c5565b005b34801561031757600080fd5b506103096103263660046135ca565b610a67565b34801561033757600080fd5b5061034b61034636600461352c565b610b3c565b6040516102869190613747565b34801561036457600080fd5b50610309610373366004613317565b610bab565b34801561038457600080fd5b5061038d610e18565b60405161028691906137b2565b3480156103a657600080fd5b50306102d1565b3480156103b957600080fd5b506103cd6103c836600461352c565b610e78565b60405161028697969594939291906137f6565b3480156103ec57600080fd5b506103096103fb366004613317565b610f9a565b61030961040e3660046135ca565b610fba565b61042661042136600461352c565b6111b3565b604051908152602001610286565b61042661044236600461352c565b611453565b34801561045357600080fd5b5061042661046236600461352c565b6000908152600a602052604090206005015490565b34801561048357600080fd5b506102d161049236600461352c565b611659565b3480156104a357600080fd5b506104266104b23660046132c2565b6116b1565b3480156104c357600080fd5b5061038d611719565b6103096104da36600461352c565b611778565b3480156104eb57600080fd5b506104266104fa36600461352c565b6000908152600a6020908152604080832033845260020190915290205490565b34801561052657600080fd5b5061027a61053536600461352c565b611a5f565b34801561054657600080fd5b506102a4611acb565b34801561055b57600080fd5b5061030961056a366004613568565b611ada565b61030961057d366004613423565b611ae5565b34801561058e57600080fd5b5061042661059d36600461352c565b6000908152600a602052604090205490565b3480156105bb57600080fd5b506103096105ca3660046133c2565b611e5b565b3480156105db57600080fd5b506009546102d1906001600160a01b031681565b3480156105fb57600080fd5b5061030961060a366004613353565b611ec7565b34801561061b57600080fd5b5061062f61062a36600461352c565b611f09565b604051610286919061375a565b34801561064857600080fd5b5061065c61065736600461352c565b611f91565b60405161028692919061388a565b34801561067657600080fd5b506102a461068536600461352c565b612010565b34801561069657600080fd5b5061038d61210b565b3480156106ab57600080fd5b506103096106ba36600461347b565b61216a565b3480156106cb57600080fd5b506103096106da36600461358d565b61228d565b3480156106eb57600080fd5b506104266106fa36600461352c565b6000908152600a602052604090206004015490565b34801561071b57600080fd5b5061027a61072a3660046132e4565b6001600160a01b03918216600090815260046020908152604080832093909416825291909152205460ff1690565b34801561076457600080fd5b5061077861077336600461352c565b612338565b60405161028697969594939291906136b5565b61042661079936600461352c565b6124e1565b6103096107ac366004613545565b612872565b6060600580546107c090613956565b80601f01602080910402602001604051908101604052809291908181526020018280546107ec90613956565b80156108395780601f1061080e57610100808354040283529160200191610839565b820191906000526020600020905b81548152906001019060200180831161081c57829003601f168201915b5050505050905090565b6000818152600160209081526040808320548151808301909252600682526518181998181960d11b9282019290925283916001600160a01b03166108a35760405162461bcd60e51b815260040161089a9190613849565b60405180910390fd5b506000838152600260205260409020546001600160a01b031691505b50919050565b60008181526001602052604090205481906001600160a01b03163381148061091057506001600160a01b038116600090815260046020908152604080832033845290915290205460ff165b6040518060400160405280600681526020016530303330303360d01b8152509061094d5760405162461bcd60e51b815260040161089a9190613849565b50600083815260016020908152604091829020548251808401909352600683526518181998181960d11b918301919091528491906001600160a01b03166109a75760405162461bcd60e51b815260040161089a9190613849565b50600084815260016020908152604091829020548251808401909352600683526506060666060760d31b918301919091526001600160a01b0390811691908716821415610a075760405162461bcd60e51b815260040161089a9190613849565b5060008581526002602052604080822080546001600160a01b0319166001600160a01b038a811691821790925591518893918516917f8c5be1e5ebec7d5bd14f71427d1e84f3dd0314c0f7b2291e5b200ac8c7c3b92591a4505050505050565b60008281526001602052604090205482906001600160a01b03163314610a9f5760405162461bcd60e51b815260040161089a9061385c565b6000838152600a6020526040902060646005909101819055610acf9084903390610aca9086906138fc565b612885565b6000838152600a6020526040812054606490610aeb90856138dd565b610af591906138bb565b9050336108fc610b0d83670de0b6b3a76400006138dd565b6040518115909202916000818181858888f19350505050158015610b35573d6000803e3d6000fd5b5050505050565b6000818152600a6020908152604091829020600301805483518184028101840190945280845260609392830182828015610b9f57602002820191906000526020600020905b81546001600160a01b03168152600190910190602001808311610b81575b50505050509050919050565b60008181526001602052604090205481906001600160a01b031633811480610be957506000828152600260205260409020546001600160a01b031633145b80610c1757506001600160a01b038116600090815260046020908152604080832033845290915290205460ff165b604051806040016040528060068152602001650c0c0ccc0c0d60d21b81525090610c545760405162461bcd60e51b815260040161089a9190613849565b50600083815260016020908152604091829020548251808401909352600683526518181998181960d11b918301919091528491906001600160a01b0316610cae5760405162461bcd60e51b815260040161089a9190613849565b50600084815260016020908152604091829020548251808401909352600683526530303330303760d01b918301919091526001600160a01b03908116919088168214610d0d5760405162461bcd60e51b815260040161089a9190613849565b5060408051808201909152600681526530303330303160d01b60208201526001600160a01b038716610d525760405162461bcd60e51b815260040161089a9190613849565b506000858152600a602052604090206001015460ff1615610da75760405162461bcd60e51b815260206004820152600f60248201526e13919517d091515397d4d51052d151608a1b604482015260640161089a565b6040805180820182526001600160a01b0388811682526001602080840182815260008b8152600b83529586208054808501825590875291909520845160029092020180546001600160a01b031916919093161782559251920191909155610e0e8787612a25565b5050505050505050565b336000908152600d602090815260409182902080548351818402810184019094528084526060939283018282801561083957602002820191906000526020600020905b815481526020019060010190808311610e5b575050505050905090565b6000818152600a60209081526040808320600180820154600583015460068401546004850154600c885286892094850154600390960180548851818b0281018b019099528089528a998a998a996060998b998b9960ff9091169890979096909590949293600290920192859190830182828015610f1e57602002820191906000526020600020905b81546001600160a01b03168152600190910190602001808311610f00575b5050505050925080805480602002602001604051908101604052809291908181526020018280548015610f7a57602002820191906000526020600020905b81546001600160a01b03168152600190910190602001808311610f5c575b505050505090509650965096509650965096509650919395979092949650565b610fb583838360405180602001604052806000815250612ab0565b505050565b6000600e8381548110610fcf57610fcf6139d2565b90600052602060002090600902019050806006015482116110245760405162461bcd60e51b815260206004820152600f60248201526e09c9ea8be90928e90be8a9c9eaa8e9608b1b604482015260640161089a565b8060050154816004015461103891906138a3565b42106110745760405162461bcd60e51b815260206004820152600b60248201526a105550d51253d397d1539160aa1b604482015260640161089a565b60028101546001600160a01b031661108e81333086612d5d565b506008820154156110f657600782015460068301546110ba91839130916001600160a01b031690612d5d565b6110f65760405162461bcd60e51b815260206004820152600d60248201526c45524332302d4641494c55524560981b604482015260640161089a565b6008820180549060006111088361398b565b9091555050600682018390556007820180546001600160a01b0319163317905560088201805490600061113a8361398b565b9091555050604080516060810182529384523360208086019182524286840190815260009788526011825292872080546001808201835591895291909720955160039091029095019485555194840180546001600160a01b0319166001600160a01b039096169590951790945550509051600290910155565b6000806111c8670de0b6b3a7640000346138bb565b6000848152600a602052604090206001015490915060ff1661121f5760405162461bcd60e51b815260206004820152601060248201526f4e46545f4e4f545f5348415241424c4560801b604482015260640161089a565b6000838152600a60205260409020600501546112725760405162461bcd60e51b815260206004820152601260248201527113919517d4d210549157d4d3d31117d3d55560721b604482015260640161089a565b6000838152600a602052604090205461128d906064906138bb565b8110156112d35760405162461bcd60e51b81526020600482015260146024820152734e4f545f454e4f5547485f544f5f4255595f312560601b604482015260640161089a565b6000838152600a60205260409020600581015490546064916112f4916138dd565b6112fe91906138bb565b81111561133e5760405162461bcd60e51b815260206004820152600e60248201526d544f4f5f4d5543485f4d4f4e455960901b604482015260640161089a565b6000838152600a60205260409020546113588260646138dd565b61136291906138bb565b6000848152600a60205260409020600501549092506113829083906138fc565b6000848152600a602090815260408083206005810194909455338352600290930190522054611405576000838152600a60205260409020600401546113c89060016138a3565b6000848152600a6020908152604082206004810193909355600390920180546001810182559082529190200180546001600160a01b031916331790555b6000838152600a6020908152604080832033845260020190915290205461142d9083906138a3565b6000938452600a6020908152604080862033875260020190915290932092909255919050565b6000818152600c60205260408120828155600101805490826114748361398b565b9091555050506000818152600c6020908152604080832060020180546001810182559084528284200180546001600160a01b03191633179055838352600a9091528120600301548190815b8115611530576000858152600a602052604090206003018054849081106114e8576114e86139d2565b6000918252602090912001546001600160a01b031633141561151057506000905060016114bf565b8261151a8161398b565b93505081806115289061393f565b9250506114bf565b60008080808461164d57506000888152600a6020526040902060068101546003909101549097505b801561164d576000898152600a60205260409020600301805483908110611581576115816139d2565b60009182526020808320909101548b8352600a825260408084206001600160a01b0390921680855260029092019092529120549094509250816115c38161398b565b92505080806115d19061393f565b60008b8152600a60205260409020600601549092506001600160a01b03861691506108fc9060649061160390876138dd565b61160d91906138bb565b61161f90670de0b6b3a76400006138dd565b6040518115909202916000818181858888f19350505050158015611647573d6000803e3d6000fd5b50611558565b50505050505050919050565b600081815260016020908152604091829020548251808401909352600683526518181998181960d11b918301919091526001600160a01b031690816108bf5760405162461bcd60e51b815260040161089a9190613849565b60408051808201909152600681526530303330303160d01b60208201526000906001600160a01b0383166116f85760405162461bcd60e51b815260040161089a9190613849565b506001600160a01b0382166000908152600360205260409020545b92915050565b336000908152600f60209081526040918290208054835181840281018401909452808452606093928301828280156108395760200282019190600052602060002090815481526020019060010190808311610e5b575050505050905090565b61178181611a5f565b6117bf5760405162461bcd60e51b815260206004820152600f60248201526e105550d51253d397d393d517d15391608a1b604482015260640161089a565b336001600160a01b0316600e82815481106117dc576117dc6139d2565b60009182526020909120600760099092020101546001600160a01b0316146118305760405162461bcd60e51b81526020600482015260076024820152664e4f545f594f5560c81b604482015260640161089a565b6000600e8281548110611845576118456139d2565b906000526020600020906009020160000160009054906101000a90046001600160a01b03169050806001600160a01b03166323b872dd3033600e8681548110611890576118906139d2565b60009182526020909120600160099092020101546040516001600160e01b031960e086901b1681526001600160a01b0393841660048201529290911660248301526044820152606401600060405180830381600087803b1580156118f357600080fd5b505af1158015611907573d6000803e3d6000fd5b5050505060006040518060400160405280336001600160a01b0316815260200160028152509050600b6000600e8581548110611945576119456139d2565b9060005260206000209060090201600101548152602001908152602001600020805480611974576119746139bc565b60008281526020812060026000199093019283020180546001600160a01b03191681556001018190559155600e8054600b929190869081106119b8576119b86139d2565b6000918252602080832060016009909302018201548452838101949094526040928301822080548083018255908352848320865160029092020180546001600160a01b039092166001600160a01b03199092169190911781558585015191015533815260109092529020600e805485908110611a3657611a366139d2565b600091825260208083206001600990930201820154845492830185559383529091200155505050565b6000600e8281548110611a7457611a746139d2565b906000526020600020906009020160050154600e8381548110611a9957611a996139d2565b906000526020600020906009020160040154611ab591906138a3565b421015611ac3576000611713565b600192915050565b6060600680546107c090613956565b610fb5838383612885565b6000858152600a602052604090206001015460ff1615611b355760405162461bcd60e51b815260206004820152600b60248201526a4e4f545f53414c41424c4560a81b604482015260640161089a565b6000858152600a602052604081206003018054339290611b5757611b576139d2565b6000918252602090912001546001600160a01b031614611ba95760405162461bcd60e51b815260206004820152600d60248201526c2727aa2faa2422afa7aba722a960991b604482015260640161089a565b811580611bb65750428210155b611bf85760405162461bcd60e51b815260206004820152601360248201527253544152545f54494d455f49535f57524f4e4760681b604482015260640161089a565b81611c01574291505b6000604051806101200160405280886001600160a01b03168152602001878152602001866001600160a01b03168152602001336001600160a01b03168152602001848152602001838152602001858152602001336001600160a01b0316815260200160008152509050600e81908060018154018082558091505060019003906000526020600020906009020160009091909190915060008201518160000160006101000a8154816001600160a01b0302191690836001600160a01b031602179055506020820151816001015560408201518160020160006101000a8154816001600160a01b0302191690836001600160a01b0316021790555060608201518160030160006101000a8154816001600160a01b0302191690836001600160a01b031602179055506080820151816004015560a0820151816005015560c0820151816006015560e08201518160070160006101000a8154816001600160a01b0302191690836001600160a01b0316021790555061010082015181600801555050600f6000336001600160a01b03166001600160a01b031681526020019081526020016000208690806001815401808255809150506001900390600052602060002001600090919091909150556000879050806001600160a01b03166323b872dd33308a6040518463ffffffff1660e01b8152600401611e1f939291906001600160a01b039384168152919092166020820152604081019190915260600190565b600060405180830381600087803b158015611e3957600080fd5b505af1158015611e4d573d6000803e3d6000fd5b505050505050505050505050565b3360008181526004602090815260408083206001600160a01b03871680855290835292819020805460ff191686151590811790915590519081529192917f17307eab39ab6107e8899845ad3d59bd9653f200f220920489ca2b5937696c31910160405180910390a35050565b610b3585858585858080601f016020809104026020016040519081016040528093929190818152602001838380828437600092019190915250612ab092505050565b6060600b6000838152602001908152602001600020805480602002602001604051908101604052809291908181526020016000905b82821015611f86576000848152602090819020604080518082019091526002850290910180546001600160a01b03168252600190810154828401529083529092019101611f3e565b505050509050919050565b6000818152600c602090815260408083206001810154600290910180548351818602810186019094528084526060949293919283919083018282801561200057602002820191906000526020600020905b81546001600160a01b03168152600190910190602001808311611fe2575b5050505050905091509150915091565b600081815260016020908152604091829020548251808401909352600683526518181998181960d11b9183019190915260609183916001600160a01b031661206b5760405162461bcd60e51b815260040161089a9190613849565b506000838152600760205260409020805461208590613956565b80601f01602080910402602001604051908101604052809291908181526020018280546120b190613956565b80156120fe5780601f106120d3576101008083540402835291602001916120fe565b820191906000526020600020905b8154815290600101906020018083116120e157829003601f168201915b5050505050915050919050565b336000908152601060209081526040918290208054835181840281018401909452808452606093928301828280156108395760200282019190600052602060002090815481526020019060010190808311610e5b575050505050905090565b60085460408051808201909152600681526530313830303160d01b6020820152906001600160a01b031633146121b35760405162461bcd60e51b815260040161089a9190613849565b506121be8484612e42565b6121fe8383838080601f016020809104026020016040519081016040528093929190818152602001838380828437600092019190915250612f2592505050565b50506000818152600a602090815260408083206001908101805460ff19169055338452600d83528184208054808301825590855283852001859055815180830183526001600160a01b039687168152808401858152958552600b84529184208054808301825590855292909320905160029092020180546001600160a01b031916919094161783559051910155565b60008481526001602052604090205484906001600160a01b031633146122c55760405162461bcd60e51b815260040161089a9061385c565b600184151514156122fd576000858152600a602052604090206001908101805460ff191690911790556122f88583612f9e565b61232e565b6000858152600a6020526040902060018101805460ff191690556064600590910181905561232e9086903390612885565b610b358584612fec565b600080600060606000806000600e8054905088111561238d5760405162461bcd60e51b8152602060048201526011602482015270105550d51253d397d393d517d193d55391607a1b604482015260640161089a565b6000600e89815481106123a2576123a26139d2565b600091825260208083206040805161012081018252600990940290910180546001600160a01b0390811680865260018301548686018190526002840154831687860181905260038501548416606089015260048501546080890152600585015460a0890152600685015460c0890152600785015490931660e08801526008909301546101008701528f8752601185528387208054855181880281018801909652808652919f50929d50909b50939550909390929184015b828210156124ae5760008481526020908190206040805160608101825260038602909201805483526001808201546001600160a01b031684860152600290910154918301919091529083529092019101612459565b50505050608082015160a083015191965094506124cb90856138a3565b9250806101000151915050919395979092949650565b6000806124f6670de0b6b3a7640000346138bb565b6000848152600a6020526040902054909150612514906064906138bb565b81101561255b5760405162461bcd60e51b81526020600482015260156024820152744e4f545f454e4f5547485f544f5f53454c4c5f312560581b604482015260640161089a565b6000838152600a6020818152604080842033855260028101835290842054938790529190525460649161258d916138dd565b61259791906138bb565b8111156125e65760405162461bcd60e51b815260206004820152601a60248201527f544f4f5f4d5543485f4d4f4e45595f544f5f53454c4c5f414c4c000000000000604482015260640161089a565b6000838152600a60205260409020546126008260646138dd565b61260a91906138bb565b6000848152600a602052604090206005015490925061262a9083906138a3565b6000848152600a60208181526040808420600581019590955533845260028501825283205492879052529054606491612662916138dd565b61266c91906138bb565b8114156127f5576000838152600a6020526040902060040154612691906001906138fc565b6000848152600a60205260408120600401919091555b6000848152600a602052604090203390600301826126c48161398b565b9350815481106126d6576126d66139d2565b6000918252602090912001546001600160a01b0316146126f5576126a7565b6000848152600a60205260409020600301548110156127b1576000848152600a60205260409020600301805482908110612731576127316139d2565b6000918252602080832090910154868352600a90915260409091206001600160a01b03909116906003016127666001846138fc565b81548110612776576127766139d2565b600091825260209091200180546001600160a01b0319166001600160a01b0392909216919091179055806127a98161398b565b9150506126f5565b6000848152600a602052604090206003018054806127d1576127d16139bc565b600082815260209020810160001990810180546001600160a01b0319169055019055505b6000838152600a6020908152604080832033845260020190915290205461281d9083906138fc565b6000848152600a602090815260408083203380855260029091019092528083209390935591513480156108fc0292909190818181858888f1935050505015801561286b573d6000803e3d6000fd5b5050919050565b8061287f81333086612d5d565b50505050565b60008381526001602052604090205483906001600160a01b031633146128bd5760405162461bcd60e51b815260040161089a9061385c565b6000848152600a602090815260408083206001600160a01b0387168452600201909152902054156129235760405162461bcd60e51b815260206004820152601060248201526f20a62922a0a22cafa0afa9a420a922a960811b604482015260640161089a565b6001821015801561294557506000848152600a60205260409020600501548211155b6129815760405162461bcd60e51b815260206004820152600d60248201526c14d210549157d2539590531251609a1b604482015260640161089a565b6000848152600a602052604090206004015461299e9060016138a3565b6000858152600a6020818152604080842060048101959095556001600160a01b03881684526002850182528320869055918790529052600501546129e39083906138fc565b6000948552600a602090815260408620600581019290925560039091018054600181018255908652942090930180546001600160a01b03191633179055505050565b600081815260016020908152604080832054600290925290912080546001600160a01b03191690556001600160a01b0316612a608183613037565b612a6a83836130e0565b81836001600160a01b0316826001600160a01b03167fddf252ad1be2c89b69c2b068fc378daa952ba7f163c4a11628f55a4df523b3ef60405160405180910390a4505050565b60008281526001602052604090205482906001600160a01b031633811480612aee57506000828152600260205260409020546001600160a01b031633145b80612b1c57506001600160a01b038116600090815260046020908152604080832033845290915290205460ff165b604051806040016040528060068152602001650c0c0ccc0c0d60d21b81525090612b595760405162461bcd60e51b815260040161089a9190613849565b50600084815260016020908152604091829020548251808401909352600683526518181998181960d11b918301919091528591906001600160a01b0316612bb35760405162461bcd60e51b815260040161089a9190613849565b50600085815260016020908152604091829020548251808401909352600683526530303330303760d01b918301919091526001600160a01b03908116919089168214612c125760405162461bcd60e51b815260040161089a9190613849565b5060408051808201909152600681526530303330303160d01b60208201526001600160a01b038816612c575760405162461bcd60e51b815260040161089a9190613849565b50612c628787612a25565b612c74876001600160a01b0316613188565b15610e0e57604051630a85bd0160e11b81526000906001600160a01b0389169063150b7a0290612cae9033908d908c908c90600401613678565b602060405180830381600087803b158015612cc857600080fd5b505af1158015612cdc573d6000803e3d6000fd5b505050506040513d601f19601f82011682018060405250810190612d00919061350f565b60408051808201909152600681526530303330303560d01b60208201529091506001600160e01b03198216630a85bd0160e11b14612d515760405162461bcd60e51b815260040161089a9190613849565b50505050505050505050565b6040516001600160a01b038481166024830152838116604483015260648201839052600091829182919088169060840160408051601f198184030181529181526020820180516001600160e01b03166323b872dd60e01b17905251612dc2919061365c565b6000604051808303816000865af19150503d8060008114612dff576040519150601f19603f3d011682016040523d82523d6000602084013e612e04565b606091505b50915091506000815160001480612e2a575081806020019051810190612e2a91906134d5565b9050828015612e365750805b98975050505050505050565b60408051808201909152600681526530303330303160d01b60208201526001600160a01b038316612e865760405162461bcd60e51b815260040161089a9190613849565b50600081815260016020908152604091829020548251808401909352600683526518181998181b60d11b918301919091526001600160a01b031615612ede5760405162461bcd60e51b815260040161089a9190613849565b50612ee982826130e0565b60405181906001600160a01b038416906000907fddf252ad1be2c89b69c2b068fc378daa952ba7f163c4a11628f55a4df523b3ef908290a45050565b600082815260016020908152604091829020548251808401909352600683526518181998181960d11b918301919091528391906001600160a01b0316612f7e5760405162461bcd60e51b815260040161089a9190613849565b506000838152600760209081526040909120835161287f928501906131c4565b60008281526001602052604090205482906001600160a01b03163314612fd65760405162461bcd60e51b815260040161089a9061385c565b506000918252600a602052604090912060060155565b60008281526001602052604090205482906001600160a01b031633146130245760405162461bcd60e51b815260040161089a9061385c565b506000918252600a602052604090912055565b600081815260016020908152604091829020548251808401909352600683526530303330303760d01b918301919091526001600160a01b038481169116146130925760405162461bcd60e51b815260040161089a9190613849565b506001600160a01b03821660009081526003602052604081208054600192906130bc9084906138fc565b9091555050600090815260016020526040902080546001600160a01b031916905550565b600081815260016020908152604091829020548251808401909352600683526518181998181b60d11b918301919091526001600160a01b0316156131375760405162461bcd60e51b815260040161089a9190613849565b50600081815260016020818152604080842080546001600160a01b0319166001600160a01b03881690811790915584526003909152822080549192909161317f9084906138a3565b90915550505050565b6000813f7fc5d2460186f7233c927e7db2dcc703c0e500b653ca82273b7bfad8045d85a47081158015906131bc5750808214155b949350505050565b8280546131d090613956565b90600052602060002090601f0160209004810192826131f25760008555613238565b82601f1061320b57805160ff1916838001178555613238565b82800160010185558215613238579182015b8281111561323857825182559160200191906001019061321d565b50613244929150613248565b5090565b5b808211156132445760008155600101613249565b80356001600160a01b038116811461327457600080fd5b919050565b60008083601f84011261328b57600080fd5b50813567ffffffffffffffff8111156132a357600080fd5b6020830191508360208285010111156132bb57600080fd5b9250929050565b6000602082840312156132d457600080fd5b6132dd8261325d565b9392505050565b600080604083850312156132f757600080fd5b6133008361325d565b915061330e6020840161325d565b90509250929050565b60008060006060848603121561332c57600080fd5b6133358461325d565b92506133436020850161325d565b9150604084013590509250925092565b60008060008060006080868803121561336b57600080fd5b6133748661325d565b94506133826020870161325d565b935060408601359250606086013567ffffffffffffffff8111156133a557600080fd5b6133b188828901613279565b969995985093965092949392505050565b600080604083850312156133d557600080fd5b6133de8361325d565b915060208301356133ee816139e8565b809150509250929050565b6000806040838503121561340c57600080fd5b6134158361325d565b946020939093013593505050565b60008060008060008060c0878903121561343c57600080fd5b6134458761325d565b95506020870135945061345a6040880161325d565b9350606087013592506080870135915060a087013590509295509295509295565b6000806000806060858703121561349157600080fd5b61349a8561325d565b935060208501359250604085013567ffffffffffffffff8111156134bd57600080fd5b6134c987828801613279565b95989497509550505050565b6000602082840312156134e757600080fd5b81516132dd816139e8565b60006020828403121561350457600080fd5b81356132dd816139f9565b60006020828403121561352157600080fd5b81516132dd816139f9565b60006020828403121561353e57600080fd5b5035919050565b6000806040838503121561355857600080fd5b8235915061330e6020840161325d565b60008060006060848603121561357d57600080fd5b833592506133436020850161325d565b600080600080608085870312156135a357600080fd5b8435935060208501356135b5816139e8565b93969395505050506040820135916060013590565b600080604083850312156135dd57600080fd5b50508035926020909101359150565b600081518084526020808501945080840160005b838110156136255781516001600160a01b031687529582019590820190600101613600565b509495945050505050565b60008151808452613648816020860160208601613913565b601f01601f19169290920160200192915050565b6000825161366e818460208701613913565b9190910192915050565b6001600160a01b03858116825284166020820152604081018390526080606082018190526000906136ab90830184613630565b9695505050505050565b600060e0820160018060a01b03808b16845260208a818601526040828b1681870152606060e081880152848b5180875261010089019150848d01965060005b8181101561372357875180518452868101518816878501528501518584015296850196918301916001016136f4565b5050608088019a909a525050505060a08301949094525060c0015250949350505050565b6020815260006132dd60208301846135ec565b602080825282518282018190526000919060409081850190868401855b828110156137a557815180516001600160a01b03168552860151868501529284019290850190600101613777565b5091979650505050505050565b6020808252825182820181905260009190848201906040850190845b818110156137ea578351835292840192918401916001016137ce565b50909695505050505050565b871515815286602082015285604082015284606082015260e06080820152600061382360e08301866135ec565b8460a084015282810360c084015261383b81856135ec565b9a9950505050505050505050565b6020815260006132dd6020830184613630565b6020808252601490820152731393d517d5121157d3d5d3915497d3d197d3919560621b604082015260600190565b8281526040602082015260006131bc60408301846135ec565b600082198211156138b6576138b66139a6565b500190565b6000826138d857634e487b7160e01b600052601260045260246000fd5b500490565b60008160001904831182151516156138f7576138f76139a6565b500290565b60008282101561390e5761390e6139a6565b500390565b60005b8381101561392e578181015183820152602001613916565b8381111561287f5750506000910152565b60008161394e5761394e6139a6565b506000190190565b600181811c9082168061396a57607f821691505b602082108114156108bf57634e487b7160e01b600052602260045260246000fd5b600060001982141561399f5761399f6139a6565b5060010190565b634e487b7160e01b600052601160045260246000fd5b634e487b7160e01b600052603160045260246000fd5b634e487b7160e01b600052603260045260246000fd5b80151581146139f657600080fd5b50565b6001600160e01b0319811681146139f657600080fdfea264697066735822122069e8c803ee40b1bbd72d49f8edca1dd158caf068632129b4fdf2bcd378d424fb64736f6c63430008070033",
			"opcodes": "PUSH1 0x80 PUSH1 0x40 MSTORE CALLVALUE DUP1 ISZERO PUSH3 0x11 JUMPI PUSH1 0x0 DUP1 REVERT JUMPDEST POP PUSH1 0x0 PUSH1 0x20 DUP2 DUP2 MSTORE PUSH32 0x67BE87C3FF9960CA1E9CFAC5CAB2FF4747269CF9ED20C9B7306235AC35A491C5 DUP1 SLOAD PUSH1 0x1 PUSH1 0xFF NOT SWAP2 DUP3 AND DUP2 OR SWAP1 SWAP3 SSTORE PUSH32 0xF7815FCCBF112960A73756E185887FEDCB9FC64CA0A16CC5923B7960ED780800 DUP1 SLOAD DUP3 AND DUP4 OR SWAP1 SSTORE PUSH4 0x5B5E139F PUSH1 0xE0 SHL SWAP1 SWAP4 MSTORE PUSH32 0x9562381DFBC2D8B8B66E765249F330164B73E329E5F01670660643571D1974DF DUP1 SLOAD SWAP1 SWAP4 AND OR SWAP1 SWAP2 SSTORE PUSH1 0x8 DUP1 SLOAD CALLER PUSH1 0x1 PUSH1 0x1 PUSH1 0xA0 SHL SUB NOT SWAP2 DUP3 AND DUP2 OR SWAP1 SWAP3 SSTORE PUSH1 0x9 DUP1 SLOAD SWAP1 SWAP2 AND SWAP1 SWAP2 OR SWAP1 SSTORE PUSH1 0x40 DUP1 MLOAD DUP1 DUP3 ADD SWAP1 SWAP2 MSTORE PUSH1 0xC DUP1 DUP3 MSTORE PUSH12 0x2530B1B5BC93B9902934B333 PUSH1 0xA1 SHL SWAP2 SWAP1 SWAP3 ADD SWAP1 DUP2 MSTORE PUSH3 0xFE SWAP2 PUSH1 0x5 SWAP2 SWAP1 PUSH3 0x133 JUMP JUMPDEST POP PUSH1 0x40 DUP1 MLOAD DUP1 DUP3 ADD SWAP1 SWAP2 MSTORE PUSH1 0x4 DUP1 DUP3 MSTORE PUSH4 0x252924A3 PUSH1 0xE1 SHL PUSH1 0x20 SWAP1 SWAP3 ADD SWAP2 DUP3 MSTORE PUSH3 0x12C SWAP2 PUSH1 0x6 SWAP2 PUSH3 0x133 JUMP JUMPDEST POP PUSH3 0x216 JUMP JUMPDEST DUP3 DUP1 SLOAD PUSH3 0x141 SWAP1 PUSH3 0x1D9 JUMP JUMPDEST SWAP1 PUSH1 0x0 MSTORE PUSH1 0x20 PUSH1 0x0 KECCAK256 SWAP1 PUSH1 0x1F ADD PUSH1 0x20 SWAP1 DIV DUP2 ADD SWAP3 DUP3 PUSH3 0x165 JUMPI PUSH1 0x0 DUP6 SSTORE PUSH3 0x1B0 JUMP JUMPDEST DUP3 PUSH1 0x1F LT PUSH3 0x180 JUMPI DUP1 MLOAD PUSH1 0xFF NOT AND DUP4 DUP1 ADD OR DUP6 SSTORE PUSH3 0x1B0 JUMP JUMPDEST DUP3 DUP1 ADD PUSH1 0x1 ADD DUP6 SSTORE DUP3 ISZERO PUSH3 0x1B0 JUMPI SWAP2 DUP3 ADD JUMPDEST DUP3 DUP2 GT ISZERO PUSH3 0x1B0 JUMPI DUP3 MLOAD DUP3 SSTORE SWAP2 PUSH1 0x20 ADD SWAP2 SWAP1 PUSH1 0x1 ADD SWAP1 PUSH3 0x193 JUMP JUMPDEST POP PUSH3 0x1BE SWAP3 SWAP2 POP PUSH3 0x1C2 JUMP JUMPDEST POP SWAP1 JUMP JUMPDEST JUMPDEST DUP1 DUP3 GT ISZERO PUSH3 0x1BE JUMPI PUSH1 0x0 DUP2 SSTORE PUSH1 0x1 ADD PUSH3 0x1C3 JUMP JUMPDEST PUSH1 0x1 DUP2 DUP2 SHR SWAP1 DUP3 AND DUP1 PUSH3 0x1EE JUMPI PUSH1 0x7F DUP3 AND SWAP2 POP JUMPDEST PUSH1 0x20 DUP3 LT DUP2 EQ ISZERO PUSH3 0x210 JUMPI PUSH4 0x4E487B71 PUSH1 0xE0 SHL PUSH1 0x0 MSTORE PUSH1 0x22 PUSH1 0x4 MSTORE PUSH1 0x24 PUSH1 0x0 REVERT JUMPDEST POP SWAP2 SWAP1 POP JUMP JUMPDEST PUSH2 0x3A45 DUP1 PUSH3 0x226 PUSH1 0x0 CODECOPY PUSH1 0x0 RETURN INVALID PUSH1 0x80 PUSH1 0x40 MSTORE PUSH1 0x4 CALLDATASIZE LT PUSH2 0x23B JUMPI PUSH1 0x0 CALLDATALOAD PUSH1 0xE0 SHR DUP1 PUSH4 0x83F68703 GT PUSH2 0x12E JUMPI DUP1 PUSH4 0xBAADF60E GT PUSH2 0xAB JUMPI DUP1 PUSH4 0xE84F3261 GT PUSH2 0x6F JUMPI DUP1 PUSH4 0xE84F3261 EQ PUSH2 0x6DF JUMPI DUP1 PUSH4 0xE985E9C5 EQ PUSH2 0x70F JUMPI DUP1 PUSH4 0xE9D2EBAF EQ PUSH2 0x758 JUMPI DUP1 PUSH4 0xEE9CDFB3 EQ PUSH2 0x78B JUMPI DUP1 PUSH4 0xFB80FE9E EQ PUSH2 0x79E JUMPI PUSH1 0x0 DUP1 REVERT JUMPDEST DUP1 PUSH4 0xBAADF60E EQ PUSH2 0x63C JUMPI DUP1 PUSH4 0xC87B56DD EQ PUSH2 0x66A JUMPI DUP1 PUSH4 0xCEEBCF29 EQ PUSH2 0x68A JUMPI DUP1 PUSH4 0xD3FC9864 EQ PUSH2 0x69F JUMPI DUP1 PUSH4 0xE2334497 EQ PUSH2 0x6BF JUMPI PUSH1 0x0 DUP1 REVERT JUMPDEST DUP1 PUSH4 0xA21BF0D5 GT PUSH2 0xF2 JUMPI DUP1 PUSH4 0xA21BF0D5 EQ PUSH2 0x582 JUMPI DUP1 PUSH4 0xA22CB465 EQ PUSH2 0x5AF JUMPI DUP1 PUSH4 0xB2BDFA7B EQ PUSH2 0x5CF JUMPI DUP1 PUSH4 0xB88D4FDE EQ PUSH2 0x5EF JUMPI DUP1 PUSH4 0xBA82B5AC EQ PUSH2 0x60F JUMPI PUSH1 0x0 DUP1 REVERT JUMPDEST DUP1 PUSH4 0x83F68703 EQ PUSH2 0x4DF JUMPI DUP1 PUSH4 0x84861E93 EQ PUSH2 0x51A JUMPI DUP1 PUSH4 0x95D89B41 EQ PUSH2 0x53A JUMPI DUP1 PUSH4 0x9A721A6C EQ PUSH2 0x54F JUMPI DUP1 PUSH4 0x9B6FA995 EQ PUSH2 0x56F JUMPI PUSH1 0x0 DUP1 REVERT JUMPDEST DUP1 PUSH4 0x3B082419 GT PUSH2 0x1BC JUMPI DUP1 PUSH4 0x59645DC6 GT PUSH2 0x180 JUMPI DUP1 PUSH4 0x59645DC6 EQ PUSH2 0x447 JUMPI DUP1 PUSH4 0x6352211E EQ PUSH2 0x477 JUMPI DUP1 PUSH4 0x70A08231 EQ PUSH2 0x497 JUMPI DUP1 PUSH4 0x7AD64057 EQ PUSH2 0x4B7 JUMPI DUP1 PUSH4 0x7BB2B3C1 EQ PUSH2 0x4CC JUMPI PUSH1 0x0 DUP1 REVERT JUMPDEST DUP1 PUSH4 0x3B082419 EQ PUSH2 0x3AD JUMPI DUP1 PUSH4 0x42842E0E EQ PUSH2 0x3E0 JUMPI DUP1 PUSH4 0x47A0375B EQ PUSH2 0x400 JUMPI DUP1 PUSH4 0x51ED8288 EQ PUSH2 0x413 JUMPI DUP1 PUSH4 0x55B9D443 EQ PUSH2 0x434 JUMPI PUSH1 0x0 DUP1 REVERT JUMPDEST DUP1 PUSH4 0x17FEE5F9 GT PUSH2 0x203 JUMPI DUP1 PUSH4 0x17FEE5F9 EQ PUSH2 0x30B JUMPI DUP1 PUSH4 0x2172D6B0 EQ PUSH2 0x32B JUMPI DUP1 PUSH4 0x23B872DD EQ PUSH2 0x358 JUMPI DUP1 PUSH4 0x352F946B EQ PUSH2 0x378 JUMPI DUP1 PUSH4 0x38CC4831 EQ PUSH2 0x39A JUMPI PUSH1 0x0 DUP1 REVERT JUMPDEST DUP1 PUSH4 0x1FFC9A7 EQ PUSH2 0x240 JUMPI DUP1 PUSH4 0x6FDDE03 EQ PUSH2 0x28F JUMPI DUP1 PUSH4 0x81812FC EQ PUSH2 0x2B1 JUMPI DUP1 PUSH4 0x95EA7B3 EQ PUSH2 0x2E9 JUMPI DUP1 PUSH4 0x12CCCB34 EQ PUSH2 0x309 JUMPI JUMPDEST PUSH1 0x0 DUP1 REVERT JUMPDEST CALLVALUE DUP1 ISZERO PUSH2 0x24C JUMPI PUSH1 0x0 DUP1 REVERT JUMPDEST POP PUSH2 0x27A PUSH2 0x25B CALLDATASIZE PUSH1 0x4 PUSH2 0x34F2 JUMP JUMPDEST PUSH1 0x1 PUSH1 0x1 PUSH1 0xE0 SHL SUB NOT AND PUSH1 0x0 SWAP1 DUP2 MSTORE PUSH1 0x20 DUP2 SWAP1 MSTORE PUSH1 0x40 SWAP1 KECCAK256 SLOAD PUSH1 0xFF AND SWAP1 JUMP JUMPDEST PUSH1 0x40 MLOAD SWAP1 ISZERO ISZERO DUP2 MSTORE PUSH1 0x20 ADD JUMPDEST PUSH1 0x40 MLOAD DUP1 SWAP2 SUB SWAP1 RETURN JUMPDEST CALLVALUE DUP1 ISZERO PUSH2 0x29B JUMPI PUSH1 0x0 DUP1 REVERT JUMPDEST POP PUSH2 0x2A4 PUSH2 0x7B1 JUMP JUMPDEST PUSH1 0x40 MLOAD PUSH2 0x286 SWAP2 SWAP1 PUSH2 0x3849 JUMP JUMPDEST CALLVALUE DUP1 ISZERO PUSH2 0x2BD JUMPI PUSH1 0x0 DUP1 REVERT JUMPDEST POP PUSH2 0x2D1 PUSH2 0x2CC CALLDATASIZE PUSH1 0x4 PUSH2 0x352C JUMP JUMPDEST PUSH2 0x843 JUMP JUMPDEST PUSH1 0x40 MLOAD PUSH1 0x1 PUSH1 0x1 PUSH1 0xA0 SHL SUB SWAP1 SWAP2 AND DUP2 MSTORE PUSH1 0x20 ADD PUSH2 0x286 JUMP JUMPDEST CALLVALUE DUP1 ISZERO PUSH2 0x2F5 JUMPI PUSH1 0x0 DUP1 REVERT JUMPDEST POP PUSH2 0x309 PUSH2 0x304 CALLDATASIZE PUSH1 0x4 PUSH2 0x33F9 JUMP JUMPDEST PUSH2 0x8C5 JUMP JUMPDEST STOP JUMPDEST CALLVALUE DUP1 ISZERO PUSH2 0x317 JUMPI PUSH1 0x0 DUP1 REVERT JUMPDEST POP PUSH2 0x309 PUSH2 0x326 CALLDATASIZE PUSH1 0x4 PUSH2 0x35CA JUMP JUMPDEST PUSH2 0xA67 JUMP JUMPDEST CALLVALUE DUP1 ISZERO PUSH2 0x337 JUMPI PUSH1 0x0 DUP1 REVERT JUMPDEST POP PUSH2 0x34B PUSH2 0x346 CALLDATASIZE PUSH1 0x4 PUSH2 0x352C JUMP JUMPDEST PUSH2 0xB3C JUMP JUMPDEST PUSH1 0x40 MLOAD PUSH2 0x286 SWAP2 SWAP1 PUSH2 0x3747 JUMP JUMPDEST CALLVALUE DUP1 ISZERO PUSH2 0x364 JUMPI PUSH1 0x0 DUP1 REVERT JUMPDEST POP PUSH2 0x309 PUSH2 0x373 CALLDATASIZE PUSH1 0x4 PUSH2 0x3317 JUMP JUMPDEST PUSH2 0xBAB JUMP JUMPDEST CALLVALUE DUP1 ISZERO PUSH2 0x384 JUMPI PUSH1 0x0 DUP1 REVERT JUMPDEST POP PUSH2 0x38D PUSH2 0xE18 JUMP JUMPDEST PUSH1 0x40 MLOAD PUSH2 0x286 SWAP2 SWAP1 PUSH2 0x37B2 JUMP JUMPDEST CALLVALUE DUP1 ISZERO PUSH2 0x3A6 JUMPI PUSH1 0x0 DUP1 REVERT JUMPDEST POP ADDRESS PUSH2 0x2D1 JUMP JUMPDEST CALLVALUE DUP1 ISZERO PUSH2 0x3B9 JUMPI PUSH1 0x0 DUP1 REVERT JUMPDEST POP PUSH2 0x3CD PUSH2 0x3C8 CALLDATASIZE PUSH1 0x4 PUSH2 0x352C JUMP JUMPDEST PUSH2 0xE78 JUMP JUMPDEST PUSH1 0x40 MLOAD PUSH2 0x286 SWAP8 SWAP7 SWAP6 SWAP5 SWAP4 SWAP3 SWAP2 SWAP1 PUSH2 0x37F6 JUMP JUMPDEST CALLVALUE DUP1 ISZERO PUSH2 0x3EC JUMPI PUSH1 0x0 DUP1 REVERT JUMPDEST POP PUSH2 0x309 PUSH2 0x3FB CALLDATASIZE PUSH1 0x4 PUSH2 0x3317 JUMP JUMPDEST PUSH2 0xF9A JUMP JUMPDEST PUSH2 0x309 PUSH2 0x40E CALLDATASIZE PUSH1 0x4 PUSH2 0x35CA JUMP JUMPDEST PUSH2 0xFBA JUMP JUMPDEST PUSH2 0x426 PUSH2 0x421 CALLDATASIZE PUSH1 0x4 PUSH2 0x352C JUMP JUMPDEST PUSH2 0x11B3 JUMP JUMPDEST PUSH1 0x40 MLOAD SWAP1 DUP2 MSTORE PUSH1 0x20 ADD PUSH2 0x286 JUMP JUMPDEST PUSH2 0x426 PUSH2 0x442 CALLDATASIZE PUSH1 0x4 PUSH2 0x352C JUMP JUMPDEST PUSH2 0x1453 JUMP JUMPDEST CALLVALUE DUP1 ISZERO PUSH2 0x453 JUMPI PUSH1 0x0 DUP1 REVERT JUMPDEST POP PUSH2 0x426 PUSH2 0x462 CALLDATASIZE PUSH1 0x4 PUSH2 0x352C JUMP JUMPDEST PUSH1 0x0 SWAP1 DUP2 MSTORE PUSH1 0xA PUSH1 0x20 MSTORE PUSH1 0x40 SWAP1 KECCAK256 PUSH1 0x5 ADD SLOAD SWAP1 JUMP JUMPDEST CALLVALUE DUP1 ISZERO PUSH2 0x483 JUMPI PUSH1 0x0 DUP1 REVERT JUMPDEST POP PUSH2 0x2D1 PUSH2 0x492 CALLDATASIZE PUSH1 0x4 PUSH2 0x352C JUMP JUMPDEST PUSH2 0x1659 JUMP JUMPDEST CALLVALUE DUP1 ISZERO PUSH2 0x4A3 JUMPI PUSH1 0x0 DUP1 REVERT JUMPDEST POP PUSH2 0x426 PUSH2 0x4B2 CALLDATASIZE PUSH1 0x4 PUSH2 0x32C2 JUMP JUMPDEST PUSH2 0x16B1 JUMP JUMPDEST CALLVALUE DUP1 ISZERO PUSH2 0x4C3 JUMPI PUSH1 0x0 DUP1 REVERT JUMPDEST POP PUSH2 0x38D PUSH2 0x1719 JUMP JUMPDEST PUSH2 0x309 PUSH2 0x4DA CALLDATASIZE PUSH1 0x4 PUSH2 0x352C JUMP JUMPDEST PUSH2 0x1778 JUMP JUMPDEST CALLVALUE DUP1 ISZERO PUSH2 0x4EB JUMPI PUSH1 0x0 DUP1 REVERT JUMPDEST POP PUSH2 0x426 PUSH2 0x4FA CALLDATASIZE PUSH1 0x4 PUSH2 0x352C JUMP JUMPDEST PUSH1 0x0 SWAP1 DUP2 MSTORE PUSH1 0xA PUSH1 0x20 SWAP1 DUP2 MSTORE PUSH1 0x40 DUP1 DUP4 KECCAK256 CALLER DUP5 MSTORE PUSH1 0x2 ADD SWAP1 SWAP2 MSTORE SWAP1 KECCAK256 SLOAD SWAP1 JUMP JUMPDEST CALLVALUE DUP1 ISZERO PUSH2 0x526 JUMPI PUSH1 0x0 DUP1 REVERT JUMPDEST POP PUSH2 0x27A PUSH2 0x535 CALLDATASIZE PUSH1 0x4 PUSH2 0x352C JUMP JUMPDEST PUSH2 0x1A5F JUMP JUMPDEST CALLVALUE DUP1 ISZERO PUSH2 0x546 JUMPI PUSH1 0x0 DUP1 REVERT JUMPDEST POP PUSH2 0x2A4 PUSH2 0x1ACB JUMP JUMPDEST CALLVALUE DUP1 ISZERO PUSH2 0x55B JUMPI PUSH1 0x0 DUP1 REVERT JUMPDEST POP PUSH2 0x309 PUSH2 0x56A CALLDATASIZE PUSH1 0x4 PUSH2 0x3568 JUMP JUMPDEST PUSH2 0x1ADA JUMP JUMPDEST PUSH2 0x309 PUSH2 0x57D CALLDATASIZE PUSH1 0x4 PUSH2 0x3423 JUMP JUMPDEST PUSH2 0x1AE5 JUMP JUMPDEST CALLVALUE DUP1 ISZERO PUSH2 0x58E JUMPI PUSH1 0x0 DUP1 REVERT JUMPDEST POP PUSH2 0x426 PUSH2 0x59D CALLDATASIZE PUSH1 0x4 PUSH2 0x352C JUMP JUMPDEST PUSH1 0x0 SWAP1 DUP2 MSTORE PUSH1 0xA PUSH1 0x20 MSTORE PUSH1 0x40 SWAP1 KECCAK256 SLOAD SWAP1 JUMP JUMPDEST CALLVALUE DUP1 ISZERO PUSH2 0x5BB JUMPI PUSH1 0x0 DUP1 REVERT JUMPDEST POP PUSH2 0x309 PUSH2 0x5CA CALLDATASIZE PUSH1 0x4 PUSH2 0x33C2 JUMP JUMPDEST PUSH2 0x1E5B JUMP JUMPDEST CALLVALUE DUP1 ISZERO PUSH2 0x5DB JUMPI PUSH1 0x0 DUP1 REVERT JUMPDEST POP PUSH1 0x9 SLOAD PUSH2 0x2D1 SWAP1 PUSH1 0x1 PUSH1 0x1 PUSH1 0xA0 SHL SUB AND DUP2 JUMP JUMPDEST CALLVALUE DUP1 ISZERO PUSH2 0x5FB JUMPI PUSH1 0x0 DUP1 REVERT JUMPDEST POP PUSH2 0x309 PUSH2 0x60A CALLDATASIZE PUSH1 0x4 PUSH2 0x3353 JUMP JUMPDEST PUSH2 0x1EC7 JUMP JUMPDEST CALLVALUE DUP1 ISZERO PUSH2 0x61B JUMPI PUSH1 0x0 DUP1 REVERT JUMPDEST POP PUSH2 0x62F PUSH2 0x62A CALLDATASIZE PUSH1 0x4 PUSH2 0x352C JUMP JUMPDEST PUSH2 0x1F09 JUMP JUMPDEST PUSH1 0x40 MLOAD PUSH2 0x286 SWAP2 SWAP1 PUSH2 0x375A JUMP JUMPDEST CALLVALUE DUP1 ISZERO PUSH2 0x648 JUMPI PUSH1 0x0 DUP1 REVERT JUMPDEST POP PUSH2 0x65C PUSH2 0x657 CALLDATASIZE PUSH1 0x4 PUSH2 0x352C JUMP JUMPDEST PUSH2 0x1F91 JUMP JUMPDEST PUSH1 0x40 MLOAD PUSH2 0x286 SWAP3 SWAP2 SWAP1 PUSH2 0x388A JUMP JUMPDEST CALLVALUE DUP1 ISZERO PUSH2 0x676 JUMPI PUSH1 0x0 DUP1 REVERT JUMPDEST POP PUSH2 0x2A4 PUSH2 0x685 CALLDATASIZE PUSH1 0x4 PUSH2 0x352C JUMP JUMPDEST PUSH2 0x2010 JUMP JUMPDEST CALLVALUE DUP1 ISZERO PUSH2 0x696 JUMPI PUSH1 0x0 DUP1 REVERT JUMPDEST POP PUSH2 0x38D PUSH2 0x210B JUMP JUMPDEST CALLVALUE DUP1 ISZERO PUSH2 0x6AB JUMPI PUSH1 0x0 DUP1 REVERT JUMPDEST POP PUSH2 0x309 PUSH2 0x6BA CALLDATASIZE PUSH1 0x4 PUSH2 0x347B JUMP JUMPDEST PUSH2 0x216A JUMP JUMPDEST CALLVALUE DUP1 ISZERO PUSH2 0x6CB JUMPI PUSH1 0x0 DUP1 REVERT JUMPDEST POP PUSH2 0x309 PUSH2 0x6DA CALLDATASIZE PUSH1 0x4 PUSH2 0x358D JUMP JUMPDEST PUSH2 0x228D JUMP JUMPDEST CALLVALUE DUP1 ISZERO PUSH2 0x6EB JUMPI PUSH1 0x0 DUP1 REVERT JUMPDEST POP PUSH2 0x426 PUSH2 0x6FA CALLDATASIZE PUSH1 0x4 PUSH2 0x352C JUMP JUMPDEST PUSH1 0x0 SWAP1 DUP2 MSTORE PUSH1 0xA PUSH1 0x20 MSTORE PUSH1 0x40 SWAP1 KECCAK256 PUSH1 0x4 ADD SLOAD SWAP1 JUMP JUMPDEST CALLVALUE DUP1 ISZERO PUSH2 0x71B JUMPI PUSH1 0x0 DUP1 REVERT JUMPDEST POP PUSH2 0x27A PUSH2 0x72A CALLDATASIZE PUSH1 0x4 PUSH2 0x32E4 JUMP JUMPDEST PUSH1 0x1 PUSH1 0x1 PUSH1 0xA0 SHL SUB SWAP2 DUP3 AND PUSH1 0x0 SWAP1 DUP2 MSTORE PUSH1 0x4 PUSH1 0x20 SWAP1 DUP2 MSTORE PUSH1 0x40 DUP1 DUP4 KECCAK256 SWAP4 SWAP1 SWAP5 AND DUP3 MSTORE SWAP2 SWAP1 SWAP2 MSTORE KECCAK256 SLOAD PUSH1 0xFF AND SWAP1 JUMP JUMPDEST CALLVALUE DUP1 ISZERO PUSH2 0x764 JUMPI PUSH1 0x0 DUP1 REVERT JUMPDEST POP PUSH2 0x778 PUSH2 0x773 CALLDATASIZE PUSH1 0x4 PUSH2 0x352C JUMP JUMPDEST PUSH2 0x2338 JUMP JUMPDEST PUSH1 0x40 MLOAD PUSH2 0x286 SWAP8 SWAP7 SWAP6 SWAP5 SWAP4 SWAP3 SWAP2 SWAP1 PUSH2 0x36B5 JUMP JUMPDEST PUSH2 0x426 PUSH2 0x799 CALLDATASIZE PUSH1 0x4 PUSH2 0x352C JUMP JUMPDEST PUSH2 0x24E1 JUMP JUMPDEST PUSH2 0x309 PUSH2 0x7AC CALLDATASIZE PUSH1 0x4 PUSH2 0x3545 JUMP JUMPDEST PUSH2 0x2872 JUMP JUMPDEST PUSH1 0x60 PUSH1 0x5 DUP1 SLOAD PUSH2 0x7C0 SWAP1 PUSH2 0x3956 JUMP JUMPDEST DUP1 PUSH1 0x1F ADD PUSH1 0x20 DUP1 SWAP2 DIV MUL PUSH1 0x20 ADD PUSH1 0x40 MLOAD SWAP1 DUP2 ADD PUSH1 0x40 MSTORE DUP1 SWAP3 SWAP2 SWAP1 DUP2 DUP2 MSTORE PUSH1 0x20 ADD DUP3 DUP1 SLOAD PUSH2 0x7EC SWAP1 PUSH2 0x3956 JUMP JUMPDEST DUP1 ISZERO PUSH2 0x839 JUMPI DUP1 PUSH1 0x1F LT PUSH2 0x80E JUMPI PUSH2 0x100 DUP1 DUP4 SLOAD DIV MUL DUP4 MSTORE SWAP2 PUSH1 0x20 ADD SWAP2 PUSH2 0x839 JUMP JUMPDEST DUP3 ADD SWAP2 SWAP1 PUSH1 0x0 MSTORE PUSH1 0x20 PUSH1 0x0 KECCAK256 SWAP1 JUMPDEST DUP2 SLOAD DUP2 MSTORE SWAP1 PUSH1 0x1 ADD SWAP1 PUSH1 0x20 ADD DUP1 DUP4 GT PUSH2 0x81C JUMPI DUP3 SWAP1 SUB PUSH1 0x1F AND DUP3 ADD SWAP2 JUMPDEST POP POP POP POP POP SWAP1 POP SWAP1 JUMP JUMPDEST PUSH1 0x0 DUP2 DUP2 MSTORE PUSH1 0x1 PUSH1 0x20 SWAP1 DUP2 MSTORE PUSH1 0x40 DUP1 DUP4 KECCAK256 SLOAD DUP2 MLOAD DUP1 DUP4 ADD SWAP1 SWAP3 MSTORE PUSH1 0x6 DUP3 MSTORE PUSH6 0x181819981819 PUSH1 0xD1 SHL SWAP3 DUP3 ADD SWAP3 SWAP1 SWAP3 MSTORE DUP4 SWAP2 PUSH1 0x1 PUSH1 0x1 PUSH1 0xA0 SHL SUB AND PUSH2 0x8A3 JUMPI PUSH1 0x40 MLOAD PUSH3 0x461BCD PUSH1 0xE5 SHL DUP2 MSTORE PUSH1 0x4 ADD PUSH2 0x89A SWAP2 SWAP1 PUSH2 0x3849 JUMP JUMPDEST PUSH1 0x40 MLOAD DUP1 SWAP2 SUB SWAP1 REVERT JUMPDEST POP PUSH1 0x0 DUP4 DUP2 MSTORE PUSH1 0x2 PUSH1 0x20 MSTORE PUSH1 0x40 SWAP1 KECCAK256 SLOAD PUSH1 0x1 PUSH1 0x1 PUSH1 0xA0 SHL SUB AND SWAP2 POP JUMPDEST POP SWAP2 SWAP1 POP JUMP JUMPDEST PUSH1 0x0 DUP2 DUP2 MSTORE PUSH1 0x1 PUSH1 0x20 MSTORE PUSH1 0x40 SWAP1 KECCAK256 SLOAD DUP2 SWAP1 PUSH1 0x1 PUSH1 0x1 PUSH1 0xA0 SHL SUB AND CALLER DUP2 EQ DUP1 PUSH2 0x910 JUMPI POP PUSH1 0x1 PUSH1 0x1 PUSH1 0xA0 SHL SUB DUP2 AND PUSH1 0x0 SWAP1 DUP2 MSTORE PUSH1 0x4 PUSH1 0x20 SWAP1 DUP2 MSTORE PUSH1 0x40 DUP1 DUP4 KECCAK256 CALLER DUP5 MSTORE SWAP1 SWAP2 MSTORE SWAP1 KECCAK256 SLOAD PUSH1 0xFF AND JUMPDEST PUSH1 0x40 MLOAD DUP1 PUSH1 0x40 ADD PUSH1 0x40 MSTORE DUP1 PUSH1 0x6 DUP2 MSTORE PUSH1 0x20 ADD PUSH6 0x303033303033 PUSH1 0xD0 SHL DUP2 MSTORE POP SWAP1 PUSH2 0x94D JUMPI PUSH1 0x40 MLOAD PUSH3 0x461BCD PUSH1 0xE5 SHL DUP2 MSTORE PUSH1 0x4 ADD PUSH2 0x89A SWAP2 SWAP1 PUSH2 0x3849 JUMP JUMPDEST POP PUSH1 0x0 DUP4 DUP2 MSTORE PUSH1 0x1 PUSH1 0x20 SWAP1 DUP2 MSTORE PUSH1 0x40 SWAP2 DUP3 SWAP1 KECCAK256 SLOAD DUP3 MLOAD DUP1 DUP5 ADD SWAP1 SWAP4 MSTORE PUSH1 0x6 DUP4 MSTORE PUSH6 0x181819981819 PUSH1 0xD1 SHL SWAP2 DUP4 ADD SWAP2 SWAP1 SWAP2 MSTORE DUP5 SWAP2 SWAP1 PUSH1 0x1 PUSH1 0x1 PUSH1 0xA0 SHL SUB AND PUSH2 0x9A7 JUMPI PUSH1 0x40 MLOAD PUSH3 0x461BCD PUSH1 0xE5 SHL DUP2 MSTORE PUSH1 0x4 ADD PUSH2 0x89A SWAP2 SWAP1 PUSH2 0x3849 JUMP JUMPDEST POP PUSH1 0x0 DUP5 DUP2 MSTORE PUSH1 0x1 PUSH1 0x20 SWAP1 DUP2 MSTORE PUSH1 0x40 SWAP2 DUP3 SWAP1 KECCAK256 SLOAD DUP3 MLOAD DUP1 DUP5 ADD SWAP1 SWAP4 MSTORE PUSH1 0x6 DUP4 MSTORE PUSH6 0x60606660607 PUSH1 0xD3 SHL SWAP2 DUP4 ADD SWAP2 SWAP1 SWAP2 MSTORE PUSH1 0x1 PUSH1 0x1 PUSH1 0xA0 SHL SUB SWAP1 DUP2 AND SWAP2 SWAP1 DUP8 AND DUP3 EQ ISZERO PUSH2 0xA07 JUMPI PUSH1 0x40 MLOAD PUSH3 0x461BCD PUSH1 0xE5 SHL DUP2 MSTORE PUSH1 0x4 ADD PUSH2 0x89A SWAP2 SWAP1 PUSH2 0x3849 JUMP JUMPDEST POP PUSH1 0x0 DUP6 DUP2 MSTORE PUSH1 0x2 PUSH1 0x20 MSTORE PUSH1 0x40 DUP1 DUP3 KECCAK256 DUP1 SLOAD PUSH1 0x1 PUSH1 0x1 PUSH1 0xA0 SHL SUB NOT AND PUSH1 0x1 PUSH1 0x1 PUSH1 0xA0 SHL SUB DUP11 DUP2 AND SWAP2 DUP3 OR SWAP1 SWAP3 SSTORE SWAP2 MLOAD DUP9 SWAP4 SWAP2 DUP6 AND SWAP2 PUSH32 0x8C5BE1E5EBEC7D5BD14F71427D1E84F3DD0314C0F7B2291E5B200AC8C7C3B925 SWAP2 LOG4 POP POP POP POP POP POP JUMP JUMPDEST PUSH1 0x0 DUP3 DUP2 MSTORE PUSH1 0x1 PUSH1 0x20 MSTORE PUSH1 0x40 SWAP1 KECCAK256 SLOAD DUP3 SWAP1 PUSH1 0x1 PUSH1 0x1 PUSH1 0xA0 SHL SUB AND CALLER EQ PUSH2 0xA9F JUMPI PUSH1 0x40 MLOAD PUSH3 0x461BCD PUSH1 0xE5 SHL DUP2 MSTORE PUSH1 0x4 ADD PUSH2 0x89A SWAP1 PUSH2 0x385C JUMP JUMPDEST PUSH1 0x0 DUP4 DUP2 MSTORE PUSH1 0xA PUSH1 0x20 MSTORE PUSH1 0x40 SWAP1 KECCAK256 PUSH1 0x64 PUSH1 0x5 SWAP1 SWAP2 ADD DUP2 SWAP1 SSTORE PUSH2 0xACF SWAP1 DUP5 SWAP1 CALLER SWAP1 PUSH2 0xACA SWAP1 DUP7 SWAP1 PUSH2 0x38FC JUMP JUMPDEST PUSH2 0x2885 JUMP JUMPDEST PUSH1 0x0 DUP4 DUP2 MSTORE PUSH1 0xA PUSH1 0x20 MSTORE PUSH1 0x40 DUP2 KECCAK256 SLOAD PUSH1 0x64 SWAP1 PUSH2 0xAEB SWAP1 DUP6 PUSH2 0x38DD JUMP JUMPDEST PUSH2 0xAF5 SWAP2 SWAP1 PUSH2 0x38BB JUMP JUMPDEST SWAP1 POP CALLER PUSH2 0x8FC PUSH2 0xB0D DUP4 PUSH8 0xDE0B6B3A7640000 PUSH2 0x38DD JUMP JUMPDEST PUSH1 0x40 MLOAD DUP2 ISZERO SWAP1 SWAP3 MUL SWAP2 PUSH1 0x0 DUP2 DUP2 DUP2 DUP6 DUP9 DUP9 CALL SWAP4 POP POP POP POP ISZERO DUP1 ISZERO PUSH2 0xB35 JUMPI RETURNDATASIZE PUSH1 0x0 DUP1 RETURNDATACOPY RETURNDATASIZE PUSH1 0x0 REVERT JUMPDEST POP POP POP POP POP JUMP JUMPDEST PUSH1 0x0 DUP2 DUP2 MSTORE PUSH1 0xA PUSH1 0x20 SWAP1 DUP2 MSTORE PUSH1 0x40 SWAP2 DUP3 SWAP1 KECCAK256 PUSH1 0x3 ADD DUP1 SLOAD DUP4 MLOAD DUP2 DUP5 MUL DUP2 ADD DUP5 ADD SWAP1 SWAP5 MSTORE DUP1 DUP5 MSTORE PUSH1 0x60 SWAP4 SWAP3 DUP4 ADD DUP3 DUP3 DUP1 ISZERO PUSH2 0xB9F JUMPI PUSH1 0x20 MUL DUP3 ADD SWAP2 SWAP1 PUSH1 0x0 MSTORE PUSH1 0x20 PUSH1 0x0 KECCAK256 SWAP1 JUMPDEST DUP2 SLOAD PUSH1 0x1 PUSH1 0x1 PUSH1 0xA0 SHL SUB AND DUP2 MSTORE PUSH1 0x1 SWAP1 SWAP2 ADD SWAP1 PUSH1 0x20 ADD DUP1 DUP4 GT PUSH2 0xB81 JUMPI JUMPDEST POP POP POP POP POP SWAP1 POP SWAP2 SWAP1 POP JUMP JUMPDEST PUSH1 0x0 DUP2 DUP2 MSTORE PUSH1 0x1 PUSH1 0x20 MSTORE PUSH1 0x40 SWAP1 KECCAK256 SLOAD DUP2 SWAP1 PUSH1 0x1 PUSH1 0x1 PUSH1 0xA0 SHL SUB AND CALLER DUP2 EQ DUP1 PUSH2 0xBE9 JUMPI POP PUSH1 0x0 DUP3 DUP2 MSTORE PUSH1 0x2 PUSH1 0x20 MSTORE PUSH1 0x40 SWAP1 KECCAK256 SLOAD PUSH1 0x1 PUSH1 0x1 PUSH1 0xA0 SHL SUB AND CALLER EQ JUMPDEST DUP1 PUSH2 0xC17 JUMPI POP PUSH1 0x1 PUSH1 0x1 PUSH1 0xA0 SHL SUB DUP2 AND PUSH1 0x0 SWAP1 DUP2 MSTORE PUSH1 0x4 PUSH1 0x20 SWAP1 DUP2 MSTORE PUSH1 0x40 DUP1 DUP4 KECCAK256 CALLER DUP5 MSTORE SWAP1 SWAP2 MSTORE SWAP1 KECCAK256 SLOAD PUSH1 0xFF AND JUMPDEST PUSH1 0x40 MLOAD DUP1 PUSH1 0x40 ADD PUSH1 0x40 MSTORE DUP1 PUSH1 0x6 DUP2 MSTORE PUSH1 0x20 ADD PUSH6 0xC0C0CCC0C0D PUSH1 0xD2 SHL DUP2 MSTORE POP SWAP1 PUSH2 0xC54 JUMPI PUSH1 0x40 MLOAD PUSH3 0x461BCD PUSH1 0xE5 SHL DUP2 MSTORE PUSH1 0x4 ADD PUSH2 0x89A SWAP2 SWAP1 PUSH2 0x3849 JUMP JUMPDEST POP PUSH1 0x0 DUP4 DUP2 MSTORE PUSH1 0x1 PUSH1 0x20 SWAP1 DUP2 MSTORE PUSH1 0x40 SWAP2 DUP3 SWAP1 KECCAK256 SLOAD DUP3 MLOAD DUP1 DUP5 ADD SWAP1 SWAP4 MSTORE PUSH1 0x6 DUP4 MSTORE PUSH6 0x181819981819 PUSH1 0xD1 SHL SWAP2 DUP4 ADD SWAP2 SWAP1 SWAP2 MSTORE DUP5 SWAP2 SWAP1 PUSH1 0x1 PUSH1 0x1 PUSH1 0xA0 SHL SUB AND PUSH2 0xCAE JUMPI PUSH1 0x40 MLOAD PUSH3 0x461BCD PUSH1 0xE5 SHL DUP2 MSTORE PUSH1 0x4 ADD PUSH2 0x89A SWAP2 SWAP1 PUSH2 0x3849 JUMP JUMPDEST POP PUSH1 0x0 DUP5 DUP2 MSTORE PUSH1 0x1 PUSH1 0x20 SWAP1 DUP2 MSTORE PUSH1 0x40 SWAP2 DUP3 SWAP1 KECCAK256 SLOAD DUP3 MLOAD DUP1 DUP5 ADD SWAP1 SWAP4 MSTORE PUSH1 0x6 DUP4 MSTORE PUSH6 0x303033303037 PUSH1 0xD0 SHL SWAP2 DUP4 ADD SWAP2 SWAP1 SWAP2 MSTORE PUSH1 0x1 PUSH1 0x1 PUSH1 0xA0 SHL SUB SWAP1 DUP2 AND SWAP2 SWAP1 DUP9 AND DUP3 EQ PUSH2 0xD0D JUMPI PUSH1 0x40 MLOAD PUSH3 0x461BCD PUSH1 0xE5 SHL DUP2 MSTORE PUSH1 0x4 ADD PUSH2 0x89A SWAP2 SWAP1 PUSH2 0x3849 JUMP JUMPDEST POP PUSH1 0x40 DUP1 MLOAD DUP1 DUP3 ADD SWAP1 SWAP2 MSTORE PUSH1 0x6 DUP2 MSTORE PUSH6 0x303033303031 PUSH1 0xD0 SHL PUSH1 0x20 DUP3 ADD MSTORE PUSH1 0x1 PUSH1 0x1 PUSH1 0xA0 SHL SUB DUP8 AND PUSH2 0xD52 JUMPI PUSH1 0x40 MLOAD PUSH3 0x461BCD PUSH1 0xE5 SHL DUP2 MSTORE PUSH1 0x4 ADD PUSH2 0x89A SWAP2 SWAP1 PUSH2 0x3849 JUMP JUMPDEST POP PUSH1 0x0 DUP6 DUP2 MSTORE PUSH1 0xA PUSH1 0x20 MSTORE PUSH1 0x40 SWAP1 KECCAK256 PUSH1 0x1 ADD SLOAD PUSH1 0xFF AND ISZERO PUSH2 0xDA7 JUMPI PUSH1 0x40 MLOAD PUSH3 0x461BCD PUSH1 0xE5 SHL DUP2 MSTORE PUSH1 0x20 PUSH1 0x4 DUP3 ADD MSTORE PUSH1 0xF PUSH1 0x24 DUP3 ADD MSTORE PUSH15 0x13919517D091515397D4D51052D151 PUSH1 0x8A SHL PUSH1 0x44 DUP3 ADD MSTORE PUSH1 0x64 ADD PUSH2 0x89A JUMP JUMPDEST PUSH1 0x40 DUP1 MLOAD DUP1 DUP3 ADD DUP3 MSTORE PUSH1 0x1 PUSH1 0x1 PUSH1 0xA0 SHL SUB DUP9 DUP2 AND DUP3 MSTORE PUSH1 0x1 PUSH1 0x20 DUP1 DUP5 ADD DUP3 DUP2 MSTORE PUSH1 0x0 DUP12 DUP2 MSTORE PUSH1 0xB DUP4 MSTORE SWAP6 DUP7 KECCAK256 DUP1 SLOAD DUP1 DUP6 ADD DUP3 SSTORE SWAP1 DUP8 MSTORE SWAP2 SWAP1 SWAP6 KECCAK256 DUP5 MLOAD PUSH1 0x2 SWAP1 SWAP3 MUL ADD DUP1 SLOAD PUSH1 0x1 PUSH1 0x1 PUSH1 0xA0 SHL SUB NOT AND SWAP2 SWAP1 SWAP4 AND OR DUP3 SSTORE SWAP3 MLOAD SWAP3 ADD SWAP2 SWAP1 SWAP2 SSTORE PUSH2 0xE0E DUP8 DUP8 PUSH2 0x2A25 JUMP JUMPDEST POP POP POP POP POP POP POP POP JUMP JUMPDEST CALLER PUSH1 0x0 SWAP1 DUP2 MSTORE PUSH1 0xD PUSH1 0x20 SWAP1 DUP2 MSTORE PUSH1 0x40 SWAP2 DUP3 SWAP1 KECCAK256 DUP1 SLOAD DUP4 MLOAD DUP2 DUP5 MUL DUP2 ADD DUP5 ADD SWAP1 SWAP5 MSTORE DUP1 DUP5 MSTORE PUSH1 0x60 SWAP4 SWAP3 DUP4 ADD DUP3 DUP3 DUP1 ISZERO PUSH2 0x839 JUMPI PUSH1 0x20 MUL DUP3 ADD SWAP2 SWAP1 PUSH1 0x0 MSTORE PUSH1 0x20 PUSH1 0x0 KECCAK256 SWAP1 JUMPDEST DUP2 SLOAD DUP2 MSTORE PUSH1 0x20 ADD SWAP1 PUSH1 0x1 ADD SWAP1 DUP1 DUP4 GT PUSH2 0xE5B JUMPI POP POP POP POP POP SWAP1 POP SWAP1 JUMP JUMPDEST PUSH1 0x0 DUP2 DUP2 MSTORE PUSH1 0xA PUSH1 0x20 SWAP1 DUP2 MSTORE PUSH1 0x40 DUP1 DUP4 KECCAK256 PUSH1 0x1 DUP1 DUP3 ADD SLOAD PUSH1 0x5 DUP4 ADD SLOAD PUSH1 0x6 DUP5 ADD SLOAD PUSH1 0x4 DUP6 ADD SLOAD PUSH1 0xC DUP9 MSTORE DUP7 DUP10 KECCAK256 SWAP5 DUP6 ADD SLOAD PUSH1 0x3 SWAP1 SWAP7 ADD DUP1 SLOAD DUP9 MLOAD DUP2 DUP12 MUL DUP2 ADD DUP12 ADD SWAP1 SWAP10 MSTORE DUP1 DUP10 MSTORE DUP11 SWAP10 DUP11 SWAP10 DUP11 SWAP10 PUSH1 0x60 SWAP10 DUP12 SWAP10 DUP12 SWAP10 PUSH1 0xFF SWAP1 SWAP2 AND SWAP9 SWAP1 SWAP8 SWAP1 SWAP7 SWAP1 SWAP6 SWAP1 SWAP5 SWAP3 SWAP4 PUSH1 0x2 SWAP1 SWAP3 ADD SWAP3 DUP6 SWAP2 SWAP1 DUP4 ADD DUP3 DUP3 DUP1 ISZERO PUSH2 0xF1E JUMPI PUSH1 0x20 MUL DUP3 ADD SWAP2 SWAP1 PUSH1 0x0 MSTORE PUSH1 0x20 PUSH1 0x0 KECCAK256 SWAP1 JUMPDEST DUP2 SLOAD PUSH1 0x1 PUSH1 0x1 PUSH1 0xA0 SHL SUB AND DUP2 MSTORE PUSH1 0x1 SWAP1 SWAP2 ADD SWAP1 PUSH1 0x20 ADD DUP1 DUP4 GT PUSH2 0xF00 JUMPI JUMPDEST POP POP POP POP POP SWAP3 POP DUP1 DUP1 SLOAD DUP1 PUSH1 0x20 MUL PUSH1 0x20 ADD PUSH1 0x40 MLOAD SWAP1 DUP2 ADD PUSH1 0x40 MSTORE DUP1 SWAP3 SWAP2 SWAP1 DUP2 DUP2 MSTORE PUSH1 0x20 ADD DUP3 DUP1 SLOAD DUP1 ISZERO PUSH2 0xF7A JUMPI PUSH1 0x20 MUL DUP3 ADD SWAP2 SWAP1 PUSH1 0x0 MSTORE PUSH1 0x20 PUSH1 0x0 KECCAK256 SWAP1 JUMPDEST DUP2 SLOAD PUSH1 0x1 PUSH1 0x1 PUSH1 0xA0 SHL SUB AND DUP2 MSTORE PUSH1 0x1 SWAP1 SWAP2 ADD SWAP1 PUSH1 0x20 ADD DUP1 DUP4 GT PUSH2 0xF5C JUMPI JUMPDEST POP POP POP POP POP SWAP1 POP SWAP7 POP SWAP7 POP SWAP7 POP SWAP7 POP SWAP7 POP SWAP7 POP SWAP7 POP SWAP2 SWAP4 SWAP6 SWAP8 SWAP1 SWAP3 SWAP5 SWAP7 POP JUMP JUMPDEST PUSH2 0xFB5 DUP4 DUP4 DUP4 PUSH1 0x40 MLOAD DUP1 PUSH1 0x20 ADD PUSH1 0x40 MSTORE DUP1 PUSH1 0x0 DUP2 MSTORE POP PUSH2 0x2AB0 JUMP JUMPDEST POP POP POP JUMP JUMPDEST PUSH1 0x0 PUSH1 0xE DUP4 DUP2 SLOAD DUP2 LT PUSH2 0xFCF JUMPI PUSH2 0xFCF PUSH2 0x39D2 JUMP JUMPDEST SWAP1 PUSH1 0x0 MSTORE PUSH1 0x20 PUSH1 0x0 KECCAK256 SWAP1 PUSH1 0x9 MUL ADD SWAP1 POP DUP1 PUSH1 0x6 ADD SLOAD DUP3 GT PUSH2 0x1024 JUMPI PUSH1 0x40 MLOAD PUSH3 0x461BCD PUSH1 0xE5 SHL DUP2 MSTORE PUSH1 0x20 PUSH1 0x4 DUP3 ADD MSTORE PUSH1 0xF PUSH1 0x24 DUP3 ADD MSTORE PUSH15 0x9C9EA8BE90928E90BE8A9C9EAA8E9 PUSH1 0x8B SHL PUSH1 0x44 DUP3 ADD MSTORE PUSH1 0x64 ADD PUSH2 0x89A JUMP JUMPDEST DUP1 PUSH1 0x5 ADD SLOAD DUP2 PUSH1 0x4 ADD SLOAD PUSH2 0x1038 SWAP2 SWAP1 PUSH2 0x38A3 JUMP JUMPDEST TIMESTAMP LT PUSH2 0x1074 JUMPI PUSH1 0x40 MLOAD PUSH3 0x461BCD PUSH1 0xE5 SHL DUP2 MSTORE PUSH1 0x20 PUSH1 0x4 DUP3 ADD MSTORE PUSH1 0xB PUSH1 0x24 DUP3 ADD MSTORE PUSH11 0x105550D51253D397D15391 PUSH1 0xAA SHL PUSH1 0x44 DUP3 ADD MSTORE PUSH1 0x64 ADD PUSH2 0x89A JUMP JUMPDEST PUSH1 0x2 DUP2 ADD SLOAD PUSH1 0x1 PUSH1 0x1 PUSH1 0xA0 SHL SUB AND PUSH2 0x108E DUP2 CALLER ADDRESS DUP7 PUSH2 0x2D5D JUMP JUMPDEST POP PUSH1 0x8 DUP3 ADD SLOAD ISZERO PUSH2 0x10F6 JUMPI PUSH1 0x7 DUP3 ADD SLOAD PUSH1 0x6 DUP4 ADD SLOAD PUSH2 0x10BA SWAP2 DUP4 SWAP2 ADDRESS SWAP2 PUSH1 0x1 PUSH1 0x1 PUSH1 0xA0 SHL SUB AND SWAP1 PUSH2 0x2D5D JUMP JUMPDEST PUSH2 0x10F6 JUMPI PUSH1 0x40 MLOAD PUSH3 0x461BCD PUSH1 0xE5 SHL DUP2 MSTORE PUSH1 0x20 PUSH1 0x4 DUP3 ADD MSTORE PUSH1 0xD PUSH1 0x24 DUP3 ADD MSTORE PUSH13 0x45524332302D4641494C555245 PUSH1 0x98 SHL PUSH1 0x44 DUP3 ADD MSTORE PUSH1 0x64 ADD PUSH2 0x89A JUMP JUMPDEST PUSH1 0x8 DUP3 ADD DUP1 SLOAD SWAP1 PUSH1 0x0 PUSH2 0x1108 DUP4 PUSH2 0x398B JUMP JUMPDEST SWAP1 SWAP2 SSTORE POP POP PUSH1 0x6 DUP3 ADD DUP4 SWAP1 SSTORE PUSH1 0x7 DUP3 ADD DUP1 SLOAD PUSH1 0x1 PUSH1 0x1 PUSH1 0xA0 SHL SUB NOT AND CALLER OR SWAP1 SSTORE PUSH1 0x8 DUP3 ADD DUP1 SLOAD SWAP1 PUSH1 0x0 PUSH2 0x113A DUP4 PUSH2 0x398B JUMP JUMPDEST SWAP1 SWAP2 SSTORE POP POP PUSH1 0x40 DUP1 MLOAD PUSH1 0x60 DUP2 ADD DUP3 MSTORE SWAP4 DUP5 MSTORE CALLER PUSH1 0x20 DUP1 DUP7 ADD SWAP2 DUP3 MSTORE TIMESTAMP DUP7 DUP5 ADD SWAP1 DUP2 MSTORE PUSH1 0x0 SWAP8 DUP9 MSTORE PUSH1 0x11 DUP3 MSTORE SWAP3 DUP8 KECCAK256 DUP1 SLOAD PUSH1 0x1 DUP1 DUP3 ADD DUP4 SSTORE SWAP2 DUP10 MSTORE SWAP2 SWAP1 SWAP8 KECCAK256 SWAP6 MLOAD PUSH1 0x3 SWAP1 SWAP2 MUL SWAP1 SWAP6 ADD SWAP5 DUP6 SSTORE MLOAD SWAP5 DUP5 ADD DUP1 SLOAD PUSH1 0x1 PUSH1 0x1 PUSH1 0xA0 SHL SUB NOT AND PUSH1 0x1 PUSH1 0x1 PUSH1 0xA0 SHL SUB SWAP1 SWAP7 AND SWAP6 SWAP1 SWAP6 OR SWAP1 SWAP5 SSTORE POP POP SWAP1 MLOAD PUSH1 0x2 SWAP1 SWAP2 ADD SSTORE JUMP JUMPDEST PUSH1 0x0 DUP1 PUSH2 0x11C8 PUSH8 0xDE0B6B3A7640000 CALLVALUE PUSH2 0x38BB JUMP JUMPDEST PUSH1 0x0 DUP5 DUP2 MSTORE PUSH1 0xA PUSH1 0x20 MSTORE PUSH1 0x40 SWAP1 KECCAK256 PUSH1 0x1 ADD SLOAD SWAP1 SWAP2 POP PUSH1 0xFF AND PUSH2 0x121F JUMPI PUSH1 0x40 MLOAD PUSH3 0x461BCD PUSH1 0xE5 SHL DUP2 MSTORE PUSH1 0x20 PUSH1 0x4 DUP3 ADD MSTORE PUSH1 0x10 PUSH1 0x24 DUP3 ADD MSTORE PUSH16 0x4E46545F4E4F545F5348415241424C45 PUSH1 0x80 SHL PUSH1 0x44 DUP3 ADD MSTORE PUSH1 0x64 ADD PUSH2 0x89A JUMP JUMPDEST PUSH1 0x0 DUP4 DUP2 MSTORE PUSH1 0xA PUSH1 0x20 MSTORE PUSH1 0x40 SWAP1 KECCAK256 PUSH1 0x5 ADD SLOAD PUSH2 0x1272 JUMPI PUSH1 0x40 MLOAD PUSH3 0x461BCD PUSH1 0xE5 SHL DUP2 MSTORE PUSH1 0x20 PUSH1 0x4 DUP3 ADD MSTORE PUSH1 0x12 PUSH1 0x24 DUP3 ADD MSTORE PUSH18 0x13919517D4D210549157D4D3D31117D3D555 PUSH1 0x72 SHL PUSH1 0x44 DUP3 ADD MSTORE PUSH1 0x64 ADD PUSH2 0x89A JUMP JUMPDEST PUSH1 0x0 DUP4 DUP2 MSTORE PUSH1 0xA PUSH1 0x20 MSTORE PUSH1 0x40 SWAP1 KECCAK256 SLOAD PUSH2 0x128D SWAP1 PUSH1 0x64 SWAP1 PUSH2 0x38BB JUMP JUMPDEST DUP2 LT ISZERO PUSH2 0x12D3 JUMPI PUSH1 0x40 MLOAD PUSH3 0x461BCD PUSH1 0xE5 SHL DUP2 MSTORE PUSH1 0x20 PUSH1 0x4 DUP3 ADD MSTORE PUSH1 0x14 PUSH1 0x24 DUP3 ADD MSTORE PUSH20 0x4E4F545F454E4F5547485F544F5F4255595F3125 PUSH1 0x60 SHL PUSH1 0x44 DUP3 ADD MSTORE PUSH1 0x64 ADD PUSH2 0x89A JUMP JUMPDEST PUSH1 0x0 DUP4 DUP2 MSTORE PUSH1 0xA PUSH1 0x20 MSTORE PUSH1 0x40 SWAP1 KECCAK256 PUSH1 0x5 DUP2 ADD SLOAD SWAP1 SLOAD PUSH1 0x64 SWAP2 PUSH2 0x12F4 SWAP2 PUSH2 0x38DD JUMP JUMPDEST PUSH2 0x12FE SWAP2 SWAP1 PUSH2 0x38BB JUMP JUMPDEST DUP2 GT ISZERO PUSH2 0x133E JUMPI PUSH1 0x40 MLOAD PUSH3 0x461BCD PUSH1 0xE5 SHL DUP2 MSTORE PUSH1 0x20 PUSH1 0x4 DUP3 ADD MSTORE PUSH1 0xE PUSH1 0x24 DUP3 ADD MSTORE PUSH14 0x544F4F5F4D5543485F4D4F4E4559 PUSH1 0x90 SHL PUSH1 0x44 DUP3 ADD MSTORE PUSH1 0x64 ADD PUSH2 0x89A JUMP JUMPDEST PUSH1 0x0 DUP4 DUP2 MSTORE PUSH1 0xA PUSH1 0x20 MSTORE PUSH1 0x40 SWAP1 KECCAK256 SLOAD PUSH2 0x1358 DUP3 PUSH1 0x64 PUSH2 0x38DD JUMP JUMPDEST PUSH2 0x1362 SWAP2 SWAP1 PUSH2 0x38BB JUMP JUMPDEST PUSH1 0x0 DUP5 DUP2 MSTORE PUSH1 0xA PUSH1 0x20 MSTORE PUSH1 0x40 SWAP1 KECCAK256 PUSH1 0x5 ADD SLOAD SWAP1 SWAP3 POP PUSH2 0x1382 SWAP1 DUP4 SWAP1 PUSH2 0x38FC JUMP JUMPDEST PUSH1 0x0 DUP5 DUP2 MSTORE PUSH1 0xA PUSH1 0x20 SWAP1 DUP2 MSTORE PUSH1 0x40 DUP1 DUP4 KECCAK256 PUSH1 0x5 DUP2 ADD SWAP5 SWAP1 SWAP5 SSTORE CALLER DUP4 MSTORE PUSH1 0x2 SWAP1 SWAP4 ADD SWAP1 MSTORE KECCAK256 SLOAD PUSH2 0x1405 JUMPI PUSH1 0x0 DUP4 DUP2 MSTORE PUSH1 0xA PUSH1 0x20 MSTORE PUSH1 0x40 SWAP1 KECCAK256 PUSH1 0x4 ADD SLOAD PUSH2 0x13C8 SWAP1 PUSH1 0x1 PUSH2 0x38A3 JUMP JUMPDEST PUSH1 0x0 DUP5 DUP2 MSTORE PUSH1 0xA PUSH1 0x20 SWAP1 DUP2 MSTORE PUSH1 0x40 DUP3 KECCAK256 PUSH1 0x4 DUP2 ADD SWAP4 SWAP1 SWAP4 SSTORE PUSH1 0x3 SWAP1 SWAP3 ADD DUP1 SLOAD PUSH1 0x1 DUP2 ADD DUP3 SSTORE SWAP1 DUP3 MSTORE SWAP2 SWAP1 KECCAK256 ADD DUP1 SLOAD PUSH1 0x1 PUSH1 0x1 PUSH1 0xA0 SHL SUB NOT AND CALLER OR SWAP1 SSTORE JUMPDEST PUSH1 0x0 DUP4 DUP2 MSTORE PUSH1 0xA PUSH1 0x20 SWAP1 DUP2 MSTORE PUSH1 0x40 DUP1 DUP4 KECCAK256 CALLER DUP5 MSTORE PUSH1 0x2 ADD SWAP1 SWAP2 MSTORE SWAP1 KECCAK256 SLOAD PUSH2 0x142D SWAP1 DUP4 SWAP1 PUSH2 0x38A3 JUMP JUMPDEST PUSH1 0x0 SWAP4 DUP5 MSTORE PUSH1 0xA PUSH1 0x20 SWAP1 DUP2 MSTORE PUSH1 0x40 DUP1 DUP7 KECCAK256 CALLER DUP8 MSTORE PUSH1 0x2 ADD SWAP1 SWAP2 MSTORE SWAP1 SWAP4 KECCAK256 SWAP3 SWAP1 SWAP3 SSTORE SWAP2 SWAP1 POP JUMP JUMPDEST PUSH1 0x0 DUP2 DUP2 MSTORE PUSH1 0xC PUSH1 0x20 MSTORE PUSH1 0x40 DUP2 KECCAK256 DUP3 DUP2 SSTORE PUSH1 0x1 ADD DUP1 SLOAD SWAP1 DUP3 PUSH2 0x1474 DUP4 PUSH2 0x398B JUMP JUMPDEST SWAP1 SWAP2 SSTORE POP POP POP PUSH1 0x0 DUP2 DUP2 MSTORE PUSH1 0xC PUSH1 0x20 SWAP1 DUP2 MSTORE PUSH1 0x40 DUP1 DUP4 KECCAK256 PUSH1 0x2 ADD DUP1 SLOAD PUSH1 0x1 DUP2 ADD DUP3 SSTORE SWAP1 DUP5 MSTORE DUP3 DUP5 KECCAK256 ADD DUP1 SLOAD PUSH1 0x1 PUSH1 0x1 PUSH1 0xA0 SHL SUB NOT AND CALLER OR SWAP1 SSTORE DUP4 DUP4 MSTORE PUSH1 0xA SWAP1 SWAP2 MSTORE DUP2 KECCAK256 PUSH1 0x3 ADD SLOAD DUP2 SWAP1 DUP2 JUMPDEST DUP2 ISZERO PUSH2 0x1530 JUMPI PUSH1 0x0 DUP6 DUP2 MSTORE PUSH1 0xA PUSH1 0x20 MSTORE PUSH1 0x40 SWAP1 KECCAK256 PUSH1 0x3 ADD DUP1 SLOAD DUP5 SWAP1 DUP2 LT PUSH2 0x14E8 JUMPI PUSH2 0x14E8 PUSH2 0x39D2 JUMP JUMPDEST PUSH1 0x0 SWAP2 DUP3 MSTORE PUSH1 0x20 SWAP1 SWAP2 KECCAK256 ADD SLOAD PUSH1 0x1 PUSH1 0x1 PUSH1 0xA0 SHL SUB AND CALLER EQ ISZERO PUSH2 0x1510 JUMPI POP PUSH1 0x0 SWAP1 POP PUSH1 0x1 PUSH2 0x14BF JUMP JUMPDEST DUP3 PUSH2 0x151A DUP2 PUSH2 0x398B JUMP JUMPDEST SWAP4 POP POP DUP2 DUP1 PUSH2 0x1528 SWAP1 PUSH2 0x393F JUMP JUMPDEST SWAP3 POP POP PUSH2 0x14BF JUMP JUMPDEST PUSH1 0x0 DUP1 DUP1 DUP1 DUP5 PUSH2 0x164D JUMPI POP PUSH1 0x0 DUP9 DUP2 MSTORE PUSH1 0xA PUSH1 0x20 MSTORE PUSH1 0x40 SWAP1 KECCAK256 PUSH1 0x6 DUP2 ADD SLOAD PUSH1 0x3 SWAP1 SWAP2 ADD SLOAD SWAP1 SWAP8 POP JUMPDEST DUP1 ISZERO PUSH2 0x164D JUMPI PUSH1 0x0 DUP10 DUP2 MSTORE PUSH1 0xA PUSH1 0x20 MSTORE PUSH1 0x40 SWAP1 KECCAK256 PUSH1 0x3 ADD DUP1 SLOAD DUP4 SWAP1 DUP2 LT PUSH2 0x1581 JUMPI PUSH2 0x1581 PUSH2 0x39D2 JUMP JUMPDEST PUSH1 0x0 SWAP2 DUP3 MSTORE PUSH1 0x20 DUP1 DUP4 KECCAK256 SWAP1 SWAP2 ADD SLOAD DUP12 DUP4 MSTORE PUSH1 0xA DUP3 MSTORE PUSH1 0x40 DUP1 DUP5 KECCAK256 PUSH1 0x1 PUSH1 0x1 PUSH1 0xA0 SHL SUB SWAP1 SWAP3 AND DUP1 DUP6 MSTORE PUSH1 0x2 SWAP1 SWAP3 ADD SWAP1 SWAP3 MSTORE SWAP2 KECCAK256 SLOAD SWAP1 SWAP5 POP SWAP3 POP DUP2 PUSH2 0x15C3 DUP2 PUSH2 0x398B JUMP JUMPDEST SWAP3 POP POP DUP1 DUP1 PUSH2 0x15D1 SWAP1 PUSH2 0x393F JUMP JUMPDEST PUSH1 0x0 DUP12 DUP2 MSTORE PUSH1 0xA PUSH1 0x20 MSTORE PUSH1 0x40 SWAP1 KECCAK256 PUSH1 0x6 ADD SLOAD SWAP1 SWAP3 POP PUSH1 0x1 PUSH1 0x1 PUSH1 0xA0 SHL SUB DUP7 AND SWAP2 POP PUSH2 0x8FC SWAP1 PUSH1 0x64 SWAP1 PUSH2 0x1603 SWAP1 DUP8 PUSH2 0x38DD JUMP JUMPDEST PUSH2 0x160D SWAP2 SWAP1 PUSH2 0x38BB JUMP JUMPDEST PUSH2 0x161F SWAP1 PUSH8 0xDE0B6B3A7640000 PUSH2 0x38DD JUMP JUMPDEST PUSH1 0x40 MLOAD DUP2 ISZERO SWAP1 SWAP3 MUL SWAP2 PUSH1 0x0 DUP2 DUP2 DUP2 DUP6 DUP9 DUP9 CALL SWAP4 POP POP POP POP ISZERO DUP1 ISZERO PUSH2 0x1647 JUMPI RETURNDATASIZE PUSH1 0x0 DUP1 RETURNDATACOPY RETURNDATASIZE PUSH1 0x0 REVERT JUMPDEST POP PUSH2 0x1558 JUMP JUMPDEST POP POP POP POP POP POP POP SWAP2 SWAP1 POP JUMP JUMPDEST PUSH1 0x0 DUP2 DUP2 MSTORE PUSH1 0x1 PUSH1 0x20 SWAP1 DUP2 MSTORE PUSH1 0x40 SWAP2 DUP3 SWAP1 KECCAK256 SLOAD DUP3 MLOAD DUP1 DUP5 ADD SWAP1 SWAP4 MSTORE PUSH1 0x6 DUP4 MSTORE PUSH6 0x181819981819 PUSH1 0xD1 SHL SWAP2 DUP4 ADD SWAP2 SWAP1 SWAP2 MSTORE PUSH1 0x1 PUSH1 0x1 PUSH1 0xA0 SHL SUB AND SWAP1 DUP2 PUSH2 0x8BF JUMPI PUSH1 0x40 MLOAD PUSH3 0x461BCD PUSH1 0xE5 SHL DUP2 MSTORE PUSH1 0x4 ADD PUSH2 0x89A SWAP2 SWAP1 PUSH2 0x3849 JUMP JUMPDEST PUSH1 0x40 DUP1 MLOAD DUP1 DUP3 ADD SWAP1 SWAP2 MSTORE PUSH1 0x6 DUP2 MSTORE PUSH6 0x303033303031 PUSH1 0xD0 SHL PUSH1 0x20 DUP3 ADD MSTORE PUSH1 0x0 SWAP1 PUSH1 0x1 PUSH1 0x1 PUSH1 0xA0 SHL SUB DUP4 AND PUSH2 0x16F8 JUMPI PUSH1 0x40 MLOAD PUSH3 0x461BCD PUSH1 0xE5 SHL DUP2 MSTORE PUSH1 0x4 ADD PUSH2 0x89A SWAP2 SWAP1 PUSH2 0x3849 JUMP JUMPDEST POP PUSH1 0x1 PUSH1 0x1 PUSH1 0xA0 SHL SUB DUP3 AND PUSH1 0x0 SWAP1 DUP2 MSTORE PUSH1 0x3 PUSH1 0x20 MSTORE PUSH1 0x40 SWAP1 KECCAK256 SLOAD JUMPDEST SWAP3 SWAP2 POP POP JUMP JUMPDEST CALLER PUSH1 0x0 SWAP1 DUP2 MSTORE PUSH1 0xF PUSH1 0x20 SWAP1 DUP2 MSTORE PUSH1 0x40 SWAP2 DUP3 SWAP1 KECCAK256 DUP1 SLOAD DUP4 MLOAD DUP2 DUP5 MUL DUP2 ADD DUP5 ADD SWAP1 SWAP5 MSTORE DUP1 DUP5 MSTORE PUSH1 0x60 SWAP4 SWAP3 DUP4 ADD DUP3 DUP3 DUP1 ISZERO PUSH2 0x839 JUMPI PUSH1 0x20 MUL DUP3 ADD SWAP2 SWAP1 PUSH1 0x0 MSTORE PUSH1 0x20 PUSH1 0x0 KECCAK256 SWAP1 DUP2 SLOAD DUP2 MSTORE PUSH1 0x20 ADD SWAP1 PUSH1 0x1 ADD SWAP1 DUP1 DUP4 GT PUSH2 0xE5B JUMPI POP POP POP POP POP SWAP1 POP SWAP1 JUMP JUMPDEST PUSH2 0x1781 DUP2 PUSH2 0x1A5F JUMP JUMPDEST PUSH2 0x17BF JUMPI PUSH1 0x40 MLOAD PUSH3 0x461BCD PUSH1 0xE5 SHL DUP2 MSTORE PUSH1 0x20 PUSH1 0x4 DUP3 ADD MSTORE PUSH1 0xF PUSH1 0x24 DUP3 ADD MSTORE PUSH15 0x105550D51253D397D393D517D15391 PUSH1 0x8A SHL PUSH1 0x44 DUP3 ADD MSTORE PUSH1 0x64 ADD PUSH2 0x89A JUMP JUMPDEST CALLER PUSH1 0x1 PUSH1 0x1 PUSH1 0xA0 SHL SUB AND PUSH1 0xE DUP3 DUP2 SLOAD DUP2 LT PUSH2 0x17DC JUMPI PUSH2 0x17DC PUSH2 0x39D2 JUMP JUMPDEST PUSH1 0x0 SWAP2 DUP3 MSTORE PUSH1 0x20 SWAP1 SWAP2 KECCAK256 PUSH1 0x7 PUSH1 0x9 SWAP1 SWAP3 MUL ADD ADD SLOAD PUSH1 0x1 PUSH1 0x1 PUSH1 0xA0 SHL SUB AND EQ PUSH2 0x1830 JUMPI PUSH1 0x40 MLOAD PUSH3 0x461BCD PUSH1 0xE5 SHL DUP2 MSTORE PUSH1 0x20 PUSH1 0x4 DUP3 ADD MSTORE PUSH1 0x7 PUSH1 0x24 DUP3 ADD MSTORE PUSH7 0x4E4F545F594F55 PUSH1 0xC8 SHL PUSH1 0x44 DUP3 ADD MSTORE PUSH1 0x64 ADD PUSH2 0x89A JUMP JUMPDEST PUSH1 0x0 PUSH1 0xE DUP3 DUP2 SLOAD DUP2 LT PUSH2 0x1845 JUMPI PUSH2 0x1845 PUSH2 0x39D2 JUMP JUMPDEST SWAP1 PUSH1 0x0 MSTORE PUSH1 0x20 PUSH1 0x0 KECCAK256 SWAP1 PUSH1 0x9 MUL ADD PUSH1 0x0 ADD PUSH1 0x0 SWAP1 SLOAD SWAP1 PUSH2 0x100 EXP SWAP1 DIV PUSH1 0x1 PUSH1 0x1 PUSH1 0xA0 SHL SUB AND SWAP1 POP DUP1 PUSH1 0x1 PUSH1 0x1 PUSH1 0xA0 SHL SUB AND PUSH4 0x23B872DD ADDRESS CALLER PUSH1 0xE DUP7 DUP2 SLOAD DUP2 LT PUSH2 0x1890 JUMPI PUSH2 0x1890 PUSH2 0x39D2 JUMP JUMPDEST PUSH1 0x0 SWAP2 DUP3 MSTORE PUSH1 0x20 SWAP1 SWAP2 KECCAK256 PUSH1 0x1 PUSH1 0x9 SWAP1 SWAP3 MUL ADD ADD SLOAD PUSH1 0x40 MLOAD PUSH1 0x1 PUSH1 0x1 PUSH1 0xE0 SHL SUB NOT PUSH1 0xE0 DUP7 SWAP1 SHL AND DUP2 MSTORE PUSH1 0x1 PUSH1 0x1 PUSH1 0xA0 SHL SUB SWAP4 DUP5 AND PUSH1 0x4 DUP3 ADD MSTORE SWAP3 SWAP1 SWAP2 AND PUSH1 0x24 DUP4 ADD MSTORE PUSH1 0x44 DUP3 ADD MSTORE PUSH1 0x64 ADD PUSH1 0x0 PUSH1 0x40 MLOAD DUP1 DUP4 SUB DUP2 PUSH1 0x0 DUP8 DUP1 EXTCODESIZE ISZERO DUP1 ISZERO PUSH2 0x18F3 JUMPI PUSH1 0x0 DUP1 REVERT JUMPDEST POP GAS CALL ISZERO DUP1 ISZERO PUSH2 0x1907 JUMPI RETURNDATASIZE PUSH1 0x0 DUP1 RETURNDATACOPY RETURNDATASIZE PUSH1 0x0 REVERT JUMPDEST POP POP POP POP PUSH1 0x0 PUSH1 0x40 MLOAD DUP1 PUSH1 0x40 ADD PUSH1 0x40 MSTORE DUP1 CALLER PUSH1 0x1 PUSH1 0x1 PUSH1 0xA0 SHL SUB AND DUP2 MSTORE PUSH1 0x20 ADD PUSH1 0x2 DUP2 MSTORE POP SWAP1 POP PUSH1 0xB PUSH1 0x0 PUSH1 0xE DUP6 DUP2 SLOAD DUP2 LT PUSH2 0x1945 JUMPI PUSH2 0x1945 PUSH2 0x39D2 JUMP JUMPDEST SWAP1 PUSH1 0x0 MSTORE PUSH1 0x20 PUSH1 0x0 KECCAK256 SWAP1 PUSH1 0x9 MUL ADD PUSH1 0x1 ADD SLOAD DUP2 MSTORE PUSH1 0x20 ADD SWAP1 DUP2 MSTORE PUSH1 0x20 ADD PUSH1 0x0 KECCAK256 DUP1 SLOAD DUP1 PUSH2 0x1974 JUMPI PUSH2 0x1974 PUSH2 0x39BC JUMP JUMPDEST PUSH1 0x0 DUP3 DUP2 MSTORE PUSH1 0x20 DUP2 KECCAK256 PUSH1 0x2 PUSH1 0x0 NOT SWAP1 SWAP4 ADD SWAP3 DUP4 MUL ADD DUP1 SLOAD PUSH1 0x1 PUSH1 0x1 PUSH1 0xA0 SHL SUB NOT AND DUP2 SSTORE PUSH1 0x1 ADD DUP2 SWAP1 SSTORE SWAP2 SSTORE PUSH1 0xE DUP1 SLOAD PUSH1 0xB SWAP3 SWAP2 SWAP1 DUP7 SWAP1 DUP2 LT PUSH2 0x19B8 JUMPI PUSH2 0x19B8 PUSH2 0x39D2 JUMP JUMPDEST PUSH1 0x0 SWAP2 DUP3 MSTORE PUSH1 0x20 DUP1 DUP4 KECCAK256 PUSH1 0x1 PUSH1 0x9 SWAP1 SWAP4 MUL ADD DUP3 ADD SLOAD DUP5 MSTORE DUP4 DUP2 ADD SWAP5 SWAP1 SWAP5 MSTORE PUSH1 0x40 SWAP3 DUP4 ADD DUP3 KECCAK256 DUP1 SLOAD DUP1 DUP4 ADD DUP3 SSTORE SWAP1 DUP4 MSTORE DUP5 DUP4 KECCAK256 DUP7 MLOAD PUSH1 0x2 SWAP1 SWAP3 MUL ADD DUP1 SLOAD PUSH1 0x1 PUSH1 0x1 PUSH1 0xA0 SHL SUB SWAP1 SWAP3 AND PUSH1 0x1 PUSH1 0x1 PUSH1 0xA0 SHL SUB NOT SWAP1 SWAP3 AND SWAP2 SWAP1 SWAP2 OR DUP2 SSTORE DUP6 DUP6 ADD MLOAD SWAP2 ADD SSTORE CALLER DUP2 MSTORE PUSH1 0x10 SWAP1 SWAP3 MSTORE SWAP1 KECCAK256 PUSH1 0xE DUP1 SLOAD DUP6 SWAP1 DUP2 LT PUSH2 0x1A36 JUMPI PUSH2 0x1A36 PUSH2 0x39D2 JUMP JUMPDEST PUSH1 0x0 SWAP2 DUP3 MSTORE PUSH1 0x20 DUP1 DUP4 KECCAK256 PUSH1 0x1 PUSH1 0x9 SWAP1 SWAP4 MUL ADD DUP3 ADD SLOAD DUP5 SLOAD SWAP3 DUP4 ADD DUP6 SSTORE SWAP4 DUP4 MSTORE SWAP1 SWAP2 KECCAK256 ADD SSTORE POP POP POP JUMP JUMPDEST PUSH1 0x0 PUSH1 0xE DUP3 DUP2 SLOAD DUP2 LT PUSH2 0x1A74 JUMPI PUSH2 0x1A74 PUSH2 0x39D2 JUMP JUMPDEST SWAP1 PUSH1 0x0 MSTORE PUSH1 0x20 PUSH1 0x0 KECCAK256 SWAP1 PUSH1 0x9 MUL ADD PUSH1 0x5 ADD SLOAD PUSH1 0xE DUP4 DUP2 SLOAD DUP2 LT PUSH2 0x1A99 JUMPI PUSH2 0x1A99 PUSH2 0x39D2 JUMP JUMPDEST SWAP1 PUSH1 0x0 MSTORE PUSH1 0x20 PUSH1 0x0 KECCAK256 SWAP1 PUSH1 0x9 MUL ADD PUSH1 0x4 ADD SLOAD PUSH2 0x1AB5 SWAP2 SWAP1 PUSH2 0x38A3 JUMP JUMPDEST TIMESTAMP LT ISZERO PUSH2 0x1AC3 JUMPI PUSH1 0x0 PUSH2 0x1713 JUMP JUMPDEST PUSH1 0x1 SWAP3 SWAP2 POP POP JUMP JUMPDEST PUSH1 0x60 PUSH1 0x6 DUP1 SLOAD PUSH2 0x7C0 SWAP1 PUSH2 0x3956 JUMP JUMPDEST PUSH2 0xFB5 DUP4 DUP4 DUP4 PUSH2 0x2885 JUMP JUMPDEST PUSH1 0x0 DUP6 DUP2 MSTORE PUSH1 0xA PUSH1 0x20 MSTORE PUSH1 0x40 SWAP1 KECCAK256 PUSH1 0x1 ADD SLOAD PUSH1 0xFF AND ISZERO PUSH2 0x1B35 JUMPI PUSH1 0x40 MLOAD PUSH3 0x461BCD PUSH1 0xE5 SHL DUP2 MSTORE PUSH1 0x20 PUSH1 0x4 DUP3 ADD MSTORE PUSH1 0xB PUSH1 0x24 DUP3 ADD MSTORE PUSH11 0x4E4F545F53414C41424C45 PUSH1 0xA8 SHL PUSH1 0x44 DUP3 ADD MSTORE PUSH1 0x64 ADD PUSH2 0x89A JUMP JUMPDEST PUSH1 0x0 DUP6 DUP2 MSTORE PUSH1 0xA PUSH1 0x20 MSTORE PUSH1 0x40 DUP2 KECCAK256 PUSH1 0x3 ADD DUP1 SLOAD CALLER SWAP3 SWAP1 PUSH2 0x1B57 JUMPI PUSH2 0x1B57 PUSH2 0x39D2 JUMP JUMPDEST PUSH1 0x0 SWAP2 DUP3 MSTORE PUSH1 0x20 SWAP1 SWAP2 KECCAK256 ADD SLOAD PUSH1 0x1 PUSH1 0x1 PUSH1 0xA0 SHL SUB AND EQ PUSH2 0x1BA9 JUMPI PUSH1 0x40 MLOAD PUSH3 0x461BCD PUSH1 0xE5 SHL DUP2 MSTORE PUSH1 0x20 PUSH1 0x4 DUP3 ADD MSTORE PUSH1 0xD PUSH1 0x24 DUP3 ADD MSTORE PUSH13 0x2727AA2FAA2422AFA7ABA722A9 PUSH1 0x99 SHL PUSH1 0x44 DUP3 ADD MSTORE PUSH1 0x64 ADD PUSH2 0x89A JUMP JUMPDEST DUP2 ISZERO DUP1 PUSH2 0x1BB6 JUMPI POP TIMESTAMP DUP3 LT ISZERO JUMPDEST PUSH2 0x1BF8 JUMPI PUSH1 0x40 MLOAD PUSH3 0x461BCD PUSH1 0xE5 SHL DUP2 MSTORE PUSH1 0x20 PUSH1 0x4 DUP3 ADD MSTORE PUSH1 0x13 PUSH1 0x24 DUP3 ADD MSTORE PUSH19 0x53544152545F54494D455F49535F57524F4E47 PUSH1 0x68 SHL PUSH1 0x44 DUP3 ADD MSTORE PUSH1 0x64 ADD PUSH2 0x89A JUMP JUMPDEST DUP2 PUSH2 0x1C01 JUMPI TIMESTAMP SWAP2 POP JUMPDEST PUSH1 0x0 PUSH1 0x40 MLOAD DUP1 PUSH2 0x120 ADD PUSH1 0x40 MSTORE DUP1 DUP9 PUSH1 0x1 PUSH1 0x1 PUSH1 0xA0 SHL SUB AND DUP2 MSTORE PUSH1 0x20 ADD DUP8 DUP2 MSTORE PUSH1 0x20 ADD DUP7 PUSH1 0x1 PUSH1 0x1 PUSH1 0xA0 SHL SUB AND DUP2 MSTORE PUSH1 0x20 ADD CALLER PUSH1 0x1 PUSH1 0x1 PUSH1 0xA0 SHL SUB AND DUP2 MSTORE PUSH1 0x20 ADD DUP5 DUP2 MSTORE PUSH1 0x20 ADD DUP4 DUP2 MSTORE PUSH1 0x20 ADD DUP6 DUP2 MSTORE PUSH1 0x20 ADD CALLER PUSH1 0x1 PUSH1 0x1 PUSH1 0xA0 SHL SUB AND DUP2 MSTORE PUSH1 0x20 ADD PUSH1 0x0 DUP2 MSTORE POP SWAP1 POP PUSH1 0xE DUP2 SWAP1 DUP1 PUSH1 0x1 DUP2 SLOAD ADD DUP1 DUP3 SSTORE DUP1 SWAP2 POP POP PUSH1 0x1 SWAP1 SUB SWAP1 PUSH1 0x0 MSTORE PUSH1 0x20 PUSH1 0x0 KECCAK256 SWAP1 PUSH1 0x9 MUL ADD PUSH1 0x0 SWAP1 SWAP2 SWAP1 SWAP2 SWAP1 SWAP2 POP PUSH1 0x0 DUP3 ADD MLOAD DUP2 PUSH1 0x0 ADD PUSH1 0x0 PUSH2 0x100 EXP DUP2 SLOAD DUP2 PUSH1 0x1 PUSH1 0x1 PUSH1 0xA0 SHL SUB MUL NOT AND SWAP1 DUP4 PUSH1 0x1 PUSH1 0x1 PUSH1 0xA0 SHL SUB AND MUL OR SWAP1 SSTORE POP PUSH1 0x20 DUP3 ADD MLOAD DUP2 PUSH1 0x1 ADD SSTORE PUSH1 0x40 DUP3 ADD MLOAD DUP2 PUSH1 0x2 ADD PUSH1 0x0 PUSH2 0x100 EXP DUP2 SLOAD DUP2 PUSH1 0x1 PUSH1 0x1 PUSH1 0xA0 SHL SUB MUL NOT AND SWAP1 DUP4 PUSH1 0x1 PUSH1 0x1 PUSH1 0xA0 SHL SUB AND MUL OR SWAP1 SSTORE POP PUSH1 0x60 DUP3 ADD MLOAD DUP2 PUSH1 0x3 ADD PUSH1 0x0 PUSH2 0x100 EXP DUP2 SLOAD DUP2 PUSH1 0x1 PUSH1 0x1 PUSH1 0xA0 SHL SUB MUL NOT AND SWAP1 DUP4 PUSH1 0x1 PUSH1 0x1 PUSH1 0xA0 SHL SUB AND MUL OR SWAP1 SSTORE POP PUSH1 0x80 DUP3 ADD MLOAD DUP2 PUSH1 0x4 ADD SSTORE PUSH1 0xA0 DUP3 ADD MLOAD DUP2 PUSH1 0x5 ADD SSTORE PUSH1 0xC0 DUP3 ADD MLOAD DUP2 PUSH1 0x6 ADD SSTORE PUSH1 0xE0 DUP3 ADD MLOAD DUP2 PUSH1 0x7 ADD PUSH1 0x0 PUSH2 0x100 EXP DUP2 SLOAD DUP2 PUSH1 0x1 PUSH1 0x1 PUSH1 0xA0 SHL SUB MUL NOT AND SWAP1 DUP4 PUSH1 0x1 PUSH1 0x1 PUSH1 0xA0 SHL SUB AND MUL OR SWAP1 SSTORE POP PUSH2 0x100 DUP3 ADD MLOAD DUP2 PUSH1 0x8 ADD SSTORE POP POP PUSH1 0xF PUSH1 0x0 CALLER PUSH1 0x1 PUSH1 0x1 PUSH1 0xA0 SHL SUB AND PUSH1 0x1 PUSH1 0x1 PUSH1 0xA0 SHL SUB AND DUP2 MSTORE PUSH1 0x20 ADD SWAP1 DUP2 MSTORE PUSH1 0x20 ADD PUSH1 0x0 KECCAK256 DUP7 SWAP1 DUP1 PUSH1 0x1 DUP2 SLOAD ADD DUP1 DUP3 SSTORE DUP1 SWAP2 POP POP PUSH1 0x1 SWAP1 SUB SWAP1 PUSH1 0x0 MSTORE PUSH1 0x20 PUSH1 0x0 KECCAK256 ADD PUSH1 0x0 SWAP1 SWAP2 SWAP1 SWAP2 SWAP1 SWAP2 POP SSTORE PUSH1 0x0 DUP8 SWAP1 POP DUP1 PUSH1 0x1 PUSH1 0x1 PUSH1 0xA0 SHL SUB AND PUSH4 0x23B872DD CALLER ADDRESS DUP11 PUSH1 0x40 MLOAD DUP5 PUSH4 0xFFFFFFFF AND PUSH1 0xE0 SHL DUP2 MSTORE PUSH1 0x4 ADD PUSH2 0x1E1F SWAP4 SWAP3 SWAP2 SWAP1 PUSH1 0x1 PUSH1 0x1 PUSH1 0xA0 SHL SUB SWAP4 DUP5 AND DUP2 MSTORE SWAP2 SWAP1 SWAP3 AND PUSH1 0x20 DUP3 ADD MSTORE PUSH1 0x40 DUP2 ADD SWAP2 SWAP1 SWAP2 MSTORE PUSH1 0x60 ADD SWAP1 JUMP JUMPDEST PUSH1 0x0 PUSH1 0x40 MLOAD DUP1 DUP4 SUB DUP2 PUSH1 0x0 DUP8 DUP1 EXTCODESIZE ISZERO DUP1 ISZERO PUSH2 0x1E39 JUMPI PUSH1 0x0 DUP1 REVERT JUMPDEST POP GAS CALL ISZERO DUP1 ISZERO PUSH2 0x1E4D JUMPI RETURNDATASIZE PUSH1 0x0 DUP1 RETURNDATACOPY RETURNDATASIZE PUSH1 0x0 REVERT JUMPDEST POP POP POP POP POP POP POP POP POP POP POP POP JUMP JUMPDEST CALLER PUSH1 0x0 DUP2 DUP2 MSTORE PUSH1 0x4 PUSH1 0x20 SWAP1 DUP2 MSTORE PUSH1 0x40 DUP1 DUP4 KECCAK256 PUSH1 0x1 PUSH1 0x1 PUSH1 0xA0 SHL SUB DUP8 AND DUP1 DUP6 MSTORE SWAP1 DUP4 MSTORE SWAP3 DUP2 SWAP1 KECCAK256 DUP1 SLOAD PUSH1 0xFF NOT AND DUP7 ISZERO ISZERO SWAP1 DUP2 OR SWAP1 SWAP2 SSTORE SWAP1 MLOAD SWAP1 DUP2 MSTORE SWAP2 SWAP3 SWAP2 PUSH32 0x17307EAB39AB6107E8899845AD3D59BD9653F200F220920489CA2B5937696C31 SWAP2 ADD PUSH1 0x40 MLOAD DUP1 SWAP2 SUB SWAP1 LOG3 POP POP JUMP JUMPDEST PUSH2 0xB35 DUP6 DUP6 DUP6 DUP6 DUP6 DUP1 DUP1 PUSH1 0x1F ADD PUSH1 0x20 DUP1 SWAP2 DIV MUL PUSH1 0x20 ADD PUSH1 0x40 MLOAD SWAP1 DUP2 ADD PUSH1 0x40 MSTORE DUP1 SWAP4 SWAP3 SWAP2 SWAP1 DUP2 DUP2 MSTORE PUSH1 0x20 ADD DUP4 DUP4 DUP1 DUP3 DUP5 CALLDATACOPY PUSH1 0x0 SWAP3 ADD SWAP2 SWAP1 SWAP2 MSTORE POP PUSH2 0x2AB0 SWAP3 POP POP POP JUMP JUMPDEST PUSH1 0x60 PUSH1 0xB PUSH1 0x0 DUP4 DUP2 MSTORE PUSH1 0x20 ADD SWAP1 DUP2 MSTORE PUSH1 0x20 ADD PUSH1 0x0 KECCAK256 DUP1 SLOAD DUP1 PUSH1 0x20 MUL PUSH1 0x20 ADD PUSH1 0x40 MLOAD SWAP1 DUP2 ADD PUSH1 0x40 MSTORE DUP1 SWAP3 SWAP2 SWAP1 DUP2 DUP2 MSTORE PUSH1 0x20 ADD PUSH1 0x0 SWAP1 JUMPDEST DUP3 DUP3 LT ISZERO PUSH2 0x1F86 JUMPI PUSH1 0x0 DUP5 DUP2 MSTORE PUSH1 0x20 SWAP1 DUP2 SWAP1 KECCAK256 PUSH1 0x40 DUP1 MLOAD DUP1 DUP3 ADD SWAP1 SWAP2 MSTORE PUSH1 0x2 DUP6 MUL SWAP1 SWAP2 ADD DUP1 SLOAD PUSH1 0x1 PUSH1 0x1 PUSH1 0xA0 SHL SUB AND DUP3 MSTORE PUSH1 0x1 SWAP1 DUP2 ADD SLOAD DUP3 DUP5 ADD MSTORE SWAP1 DUP4 MSTORE SWAP1 SWAP3 ADD SWAP2 ADD PUSH2 0x1F3E JUMP JUMPDEST POP POP POP POP SWAP1 POP SWAP2 SWAP1 POP JUMP JUMPDEST PUSH1 0x0 DUP2 DUP2 MSTORE PUSH1 0xC PUSH1 0x20 SWAP1 DUP2 MSTORE PUSH1 0x40 DUP1 DUP4 KECCAK256 PUSH1 0x1 DUP2 ADD SLOAD PUSH1 0x2 SWAP1 SWAP2 ADD DUP1 SLOAD DUP4 MLOAD DUP2 DUP7 MUL DUP2 ADD DUP7 ADD SWAP1 SWAP5 MSTORE DUP1 DUP5 MSTORE PUSH1 0x60 SWAP5 SWAP3 SWAP4 SWAP2 SWAP3 DUP4 SWAP2 SWAP1 DUP4 ADD DUP3 DUP3 DUP1 ISZERO PUSH2 0x2000 JUMPI PUSH1 0x20 MUL DUP3 ADD SWAP2 SWAP1 PUSH1 0x0 MSTORE PUSH1 0x20 PUSH1 0x0 KECCAK256 SWAP1 JUMPDEST DUP2 SLOAD PUSH1 0x1 PUSH1 0x1 PUSH1 0xA0 SHL SUB AND DUP2 MSTORE PUSH1 0x1 SWAP1 SWAP2 ADD SWAP1 PUSH1 0x20 ADD DUP1 DUP4 GT PUSH2 0x1FE2 JUMPI JUMPDEST POP POP POP POP POP SWAP1 POP SWAP2 POP SWAP2 POP SWAP2 POP SWAP2 JUMP JUMPDEST PUSH1 0x0 DUP2 DUP2 MSTORE PUSH1 0x1 PUSH1 0x20 SWAP1 DUP2 MSTORE PUSH1 0x40 SWAP2 DUP3 SWAP1 KECCAK256 SLOAD DUP3 MLOAD DUP1 DUP5 ADD SWAP1 SWAP4 MSTORE PUSH1 0x6 DUP4 MSTORE PUSH6 0x181819981819 PUSH1 0xD1 SHL SWAP2 DUP4 ADD SWAP2 SWAP1 SWAP2 MSTORE PUSH1 0x60 SWAP2 DUP4 SWAP2 PUSH1 0x1 PUSH1 0x1 PUSH1 0xA0 SHL SUB AND PUSH2 0x206B JUMPI PUSH1 0x40 MLOAD PUSH3 0x461BCD PUSH1 0xE5 SHL DUP2 MSTORE PUSH1 0x4 ADD PUSH2 0x89A SWAP2 SWAP1 PUSH2 0x3849 JUMP JUMPDEST POP PUSH1 0x0 DUP4 DUP2 MSTORE PUSH1 0x7 PUSH1 0x20 MSTORE PUSH1 0x40 SWAP1 KECCAK256 DUP1 SLOAD PUSH2 0x2085 SWAP1 PUSH2 0x3956 JUMP JUMPDEST DUP1 PUSH1 0x1F ADD PUSH1 0x20 DUP1 SWAP2 DIV MUL PUSH1 0x20 ADD PUSH1 0x40 MLOAD SWAP1 DUP2 ADD PUSH1 0x40 MSTORE DUP1 SWAP3 SWAP2 SWAP1 DUP2 DUP2 MSTORE PUSH1 0x20 ADD DUP3 DUP1 SLOAD PUSH2 0x20B1 SWAP1 PUSH2 0x3956 JUMP JUMPDEST DUP1 ISZERO PUSH2 0x20FE JUMPI DUP1 PUSH1 0x1F LT PUSH2 0x20D3 JUMPI PUSH2 0x100 DUP1 DUP4 SLOAD DIV MUL DUP4 MSTORE SWAP2 PUSH1 0x20 ADD SWAP2 PUSH2 0x20FE JUMP JUMPDEST DUP3 ADD SWAP2 SWAP1 PUSH1 0x0 MSTORE PUSH1 0x20 PUSH1 0x0 KECCAK256 SWAP1 JUMPDEST DUP2 SLOAD DUP2 MSTORE SWAP1 PUSH1 0x1 ADD SWAP1 PUSH1 0x20 ADD DUP1 DUP4 GT PUSH2 0x20E1 JUMPI DUP3 SWAP1 SUB PUSH1 0x1F AND DUP3 ADD SWAP2 JUMPDEST POP POP POP POP POP SWAP2 POP POP SWAP2 SWAP1 POP JUMP JUMPDEST CALLER PUSH1 0x0 SWAP1 DUP2 MSTORE PUSH1 0x10 PUSH1 0x20 SWAP1 DUP2 MSTORE PUSH1 0x40 SWAP2 DUP3 SWAP1 KECCAK256 DUP1 SLOAD DUP4 MLOAD DUP2 DUP5 MUL DUP2 ADD DUP5 ADD SWAP1 SWAP5 MSTORE DUP1 DUP5 MSTORE PUSH1 0x60 SWAP4 SWAP3 DUP4 ADD DUP3 DUP3 DUP1 ISZERO PUSH2 0x839 JUMPI PUSH1 0x20 MUL DUP3 ADD SWAP2 SWAP1 PUSH1 0x0 MSTORE PUSH1 0x20 PUSH1 0x0 KECCAK256 SWAP1 DUP2 SLOAD DUP2 MSTORE PUSH1 0x20 ADD SWAP1 PUSH1 0x1 ADD SWAP1 DUP1 DUP4 GT PUSH2 0xE5B JUMPI POP POP POP POP POP SWAP1 POP SWAP1 JUMP JUMPDEST PUSH1 0x8 SLOAD PUSH1 0x40 DUP1 MLOAD DUP1 DUP3 ADD SWAP1 SWAP2 MSTORE PUSH1 0x6 DUP2 MSTORE PUSH6 0x303138303031 PUSH1 0xD0 SHL PUSH1 0x20 DUP3 ADD MSTORE SWAP1 PUSH1 0x1 PUSH1 0x1 PUSH1 0xA0 SHL SUB AND CALLER EQ PUSH2 0x21B3 JUMPI PUSH1 0x40 MLOAD PUSH3 0x461BCD PUSH1 0xE5 SHL DUP2 MSTORE PUSH1 0x4 ADD PUSH2 0x89A SWAP2 SWAP1 PUSH2 0x3849 JUMP JUMPDEST POP PUSH2 0x21BE DUP5 DUP5 PUSH2 0x2E42 JUMP JUMPDEST PUSH2 0x21FE DUP4 DUP4 DUP4 DUP1 DUP1 PUSH1 0x1F ADD PUSH1 0x20 DUP1 SWAP2 DIV MUL PUSH1 0x20 ADD PUSH1 0x40 MLOAD SWAP1 DUP2 ADD PUSH1 0x40 MSTORE DUP1 SWAP4 SWAP3 SWAP2 SWAP1 DUP2 DUP2 MSTORE PUSH1 0x20 ADD DUP4 DUP4 DUP1 DUP3 DUP5 CALLDATACOPY PUSH1 0x0 SWAP3 ADD SWAP2 SWAP1 SWAP2 MSTORE POP PUSH2 0x2F25 SWAP3 POP POP POP JUMP JUMPDEST POP POP PUSH1 0x0 DUP2 DUP2 MSTORE PUSH1 0xA PUSH1 0x20 SWAP1 DUP2 MSTORE PUSH1 0x40 DUP1 DUP4 KECCAK256 PUSH1 0x1 SWAP1 DUP2 ADD DUP1 SLOAD PUSH1 0xFF NOT AND SWAP1 SSTORE CALLER DUP5 MSTORE PUSH1 0xD DUP4 MSTORE DUP2 DUP5 KECCAK256 DUP1 SLOAD DUP1 DUP4 ADD DUP3 SSTORE SWAP1 DUP6 MSTORE DUP4 DUP6 KECCAK256 ADD DUP6 SWAP1 SSTORE DUP2 MLOAD DUP1 DUP4 ADD DUP4 MSTORE PUSH1 0x1 PUSH1 0x1 PUSH1 0xA0 SHL SUB SWAP7 DUP8 AND DUP2 MSTORE DUP1 DUP5 ADD DUP6 DUP2 MSTORE SWAP6 DUP6 MSTORE PUSH1 0xB DUP5 MSTORE SWAP2 DUP5 KECCAK256 DUP1 SLOAD DUP1 DUP4 ADD DUP3 SSTORE SWAP1 DUP6 MSTORE SWAP3 SWAP1 SWAP4 KECCAK256 SWAP1 MLOAD PUSH1 0x2 SWAP1 SWAP3 MUL ADD DUP1 SLOAD PUSH1 0x1 PUSH1 0x1 PUSH1 0xA0 SHL SUB NOT AND SWAP2 SWAP1 SWAP5 AND OR DUP4 SSTORE SWAP1 MLOAD SWAP2 ADD SSTORE JUMP JUMPDEST PUSH1 0x0 DUP5 DUP2 MSTORE PUSH1 0x1 PUSH1 0x20 MSTORE PUSH1 0x40 SWAP1 KECCAK256 SLOAD DUP5 SWAP1 PUSH1 0x1 PUSH1 0x1 PUSH1 0xA0 SHL SUB AND CALLER EQ PUSH2 0x22C5 JUMPI PUSH1 0x40 MLOAD PUSH3 0x461BCD PUSH1 0xE5 SHL DUP2 MSTORE PUSH1 0x4 ADD PUSH2 0x89A SWAP1 PUSH2 0x385C JUMP JUMPDEST PUSH1 0x1 DUP5 ISZERO ISZERO EQ ISZERO PUSH2 0x22FD JUMPI PUSH1 0x0 DUP6 DUP2 MSTORE PUSH1 0xA PUSH1 0x20 MSTORE PUSH1 0x40 SWAP1 KECCAK256 PUSH1 0x1 SWAP1 DUP2 ADD DUP1 SLOAD PUSH1 0xFF NOT AND SWAP1 SWAP2 OR SWAP1 SSTORE PUSH2 0x22F8 DUP6 DUP4 PUSH2 0x2F9E JUMP JUMPDEST PUSH2 0x232E JUMP JUMPDEST PUSH1 0x0 DUP6 DUP2 MSTORE PUSH1 0xA PUSH1 0x20 MSTORE PUSH1 0x40 SWAP1 KECCAK256 PUSH1 0x1 DUP2 ADD DUP1 SLOAD PUSH1 0xFF NOT AND SWAP1 SSTORE PUSH1 0x64 PUSH1 0x5 SWAP1 SWAP2 ADD DUP2 SWAP1 SSTORE PUSH2 0x232E SWAP1 DUP7 SWAP1 CALLER SWAP1 PUSH2 0x2885 JUMP JUMPDEST PUSH2 0xB35 DUP6 DUP5 PUSH2 0x2FEC JUMP JUMPDEST PUSH1 0x0 DUP1 PUSH1 0x0 PUSH1 0x60 PUSH1 0x0 DUP1 PUSH1 0x0 PUSH1 0xE DUP1 SLOAD SWAP1 POP DUP9 GT ISZERO PUSH2 0x238D JUMPI PUSH1 0x40 MLOAD PUSH3 0x461BCD PUSH1 0xE5 SHL DUP2 MSTORE PUSH1 0x20 PUSH1 0x4 DUP3 ADD MSTORE PUSH1 0x11 PUSH1 0x24 DUP3 ADD MSTORE PUSH17 0x105550D51253D397D393D517D193D55391 PUSH1 0x7A SHL PUSH1 0x44 DUP3 ADD MSTORE PUSH1 0x64 ADD PUSH2 0x89A JUMP JUMPDEST PUSH1 0x0 PUSH1 0xE DUP10 DUP2 SLOAD DUP2 LT PUSH2 0x23A2 JUMPI PUSH2 0x23A2 PUSH2 0x39D2 JUMP JUMPDEST PUSH1 0x0 SWAP2 DUP3 MSTORE PUSH1 0x20 DUP1 DUP4 KECCAK256 PUSH1 0x40 DUP1 MLOAD PUSH2 0x120 DUP2 ADD DUP3 MSTORE PUSH1 0x9 SWAP1 SWAP5 MUL SWAP1 SWAP2 ADD DUP1 SLOAD PUSH1 0x1 PUSH1 0x1 PUSH1 0xA0 SHL SUB SWAP1 DUP2 AND DUP1 DUP7 MSTORE PUSH1 0x1 DUP4 ADD SLOAD DUP7 DUP7 ADD DUP2 SWAP1 MSTORE PUSH1 0x2 DUP5 ADD SLOAD DUP4 AND DUP8 DUP7 ADD DUP2 SWAP1 MSTORE PUSH1 0x3 DUP6 ADD SLOAD DUP5 AND PUSH1 0x60 DUP10 ADD MSTORE PUSH1 0x4 DUP6 ADD SLOAD PUSH1 0x80 DUP10 ADD MSTORE PUSH1 0x5 DUP6 ADD SLOAD PUSH1 0xA0 DUP10 ADD MSTORE PUSH1 0x6 DUP6 ADD SLOAD PUSH1 0xC0 DUP10 ADD MSTORE PUSH1 0x7 DUP6 ADD SLOAD SWAP1 SWAP4 AND PUSH1 0xE0 DUP9 ADD MSTORE PUSH1 0x8 SWAP1 SWAP4 ADD SLOAD PUSH2 0x100 DUP8 ADD MSTORE DUP16 DUP8 MSTORE PUSH1 0x11 DUP6 MSTORE DUP4 DUP8 KECCAK256 DUP1 SLOAD DUP6 MLOAD DUP2 DUP9 MUL DUP2 ADD DUP9 ADD SWAP1 SWAP7 MSTORE DUP1 DUP7 MSTORE SWAP2 SWAP16 POP SWAP3 SWAP14 POP SWAP1 SWAP12 POP SWAP4 SWAP6 POP SWAP1 SWAP4 SWAP1 SWAP3 SWAP2 DUP5 ADD JUMPDEST DUP3 DUP3 LT ISZERO PUSH2 0x24AE JUMPI PUSH1 0x0 DUP5 DUP2 MSTORE PUSH1 0x20 SWAP1 DUP2 SWAP1 KECCAK256 PUSH1 0x40 DUP1 MLOAD PUSH1 0x60 DUP2 ADD DUP3 MSTORE PUSH1 0x3 DUP7 MUL SWAP1 SWAP3 ADD DUP1 SLOAD DUP4 MSTORE PUSH1 0x1 DUP1 DUP3 ADD SLOAD PUSH1 0x1 PUSH1 0x1 PUSH1 0xA0 SHL SUB AND DUP5 DUP7 ADD MSTORE PUSH1 0x2 SWAP1 SWAP2 ADD SLOAD SWAP2 DUP4 ADD SWAP2 SWAP1 SWAP2 MSTORE SWAP1 DUP4 MSTORE SWAP1 SWAP3 ADD SWAP2 ADD PUSH2 0x2459 JUMP JUMPDEST POP POP POP POP PUSH1 0x80 DUP3 ADD MLOAD PUSH1 0xA0 DUP4 ADD MLOAD SWAP2 SWAP7 POP SWAP5 POP PUSH2 0x24CB SWAP1 DUP6 PUSH2 0x38A3 JUMP JUMPDEST SWAP3 POP DUP1 PUSH2 0x100 ADD MLOAD SWAP2 POP POP SWAP2 SWAP4 SWAP6 SWAP8 SWAP1 SWAP3 SWAP5 SWAP7 POP JUMP JUMPDEST PUSH1 0x0 DUP1 PUSH2 0x24F6 PUSH8 0xDE0B6B3A7640000 CALLVALUE PUSH2 0x38BB JUMP JUMPDEST PUSH1 0x0 DUP5 DUP2 MSTORE PUSH1 0xA PUSH1 0x20 MSTORE PUSH1 0x40 SWAP1 KECCAK256 SLOAD SWAP1 SWAP2 POP PUSH2 0x2514 SWAP1 PUSH1 0x64 SWAP1 PUSH2 0x38BB JUMP JUMPDEST DUP2 LT ISZERO PUSH2 0x255B JUMPI PUSH1 0x40 MLOAD PUSH3 0x461BCD PUSH1 0xE5 SHL DUP2 MSTORE PUSH1 0x20 PUSH1 0x4 DUP3 ADD MSTORE PUSH1 0x15 PUSH1 0x24 DUP3 ADD MSTORE PUSH21 0x4E4F545F454E4F5547485F544F5F53454C4C5F3125 PUSH1 0x58 SHL PUSH1 0x44 DUP3 ADD MSTORE PUSH1 0x64 ADD PUSH2 0x89A JUMP JUMPDEST PUSH1 0x0 DUP4 DUP2 MSTORE PUSH1 0xA PUSH1 0x20 DUP2 DUP2 MSTORE PUSH1 0x40 DUP1 DUP5 KECCAK256 CALLER DUP6 MSTORE PUSH1 0x2 DUP2 ADD DUP4 MSTORE SWAP1 DUP5 KECCAK256 SLOAD SWAP4 DUP8 SWAP1 MSTORE SWAP2 SWAP1 MSTORE SLOAD PUSH1 0x64 SWAP2 PUSH2 0x258D SWAP2 PUSH2 0x38DD JUMP JUMPDEST PUSH2 0x2597 SWAP2 SWAP1 PUSH2 0x38BB JUMP JUMPDEST DUP2 GT ISZERO PUSH2 0x25E6 JUMPI PUSH1 0x40 MLOAD PUSH3 0x461BCD PUSH1 0xE5 SHL DUP2 MSTORE PUSH1 0x20 PUSH1 0x4 DUP3 ADD MSTORE PUSH1 0x1A PUSH1 0x24 DUP3 ADD MSTORE PUSH32 0x544F4F5F4D5543485F4D4F4E45595F544F5F53454C4C5F414C4C000000000000 PUSH1 0x44 DUP3 ADD MSTORE PUSH1 0x64 ADD PUSH2 0x89A JUMP JUMPDEST PUSH1 0x0 DUP4 DUP2 MSTORE PUSH1 0xA PUSH1 0x20 MSTORE PUSH1 0x40 SWAP1 KECCAK256 SLOAD PUSH2 0x2600 DUP3 PUSH1 0x64 PUSH2 0x38DD JUMP JUMPDEST PUSH2 0x260A SWAP2 SWAP1 PUSH2 0x38BB JUMP JUMPDEST PUSH1 0x0 DUP5 DUP2 MSTORE PUSH1 0xA PUSH1 0x20 MSTORE PUSH1 0x40 SWAP1 KECCAK256 PUSH1 0x5 ADD SLOAD SWAP1 SWAP3 POP PUSH2 0x262A SWAP1 DUP4 SWAP1 PUSH2 0x38A3 JUMP JUMPDEST PUSH1 0x0 DUP5 DUP2 MSTORE PUSH1 0xA PUSH1 0x20 DUP2 DUP2 MSTORE PUSH1 0x40 DUP1 DUP5 KECCAK256 PUSH1 0x5 DUP2 ADD SWAP6 SWAP1 SWAP6 SSTORE CALLER DUP5 MSTORE PUSH1 0x2 DUP6 ADD DUP3 MSTORE DUP4 KECCAK256 SLOAD SWAP3 DUP8 SWAP1 MSTORE MSTORE SWAP1 SLOAD PUSH1 0x64 SWAP2 PUSH2 0x2662 SWAP2 PUSH2 0x38DD JUMP JUMPDEST PUSH2 0x266C SWAP2 SWAP1 PUSH2 0x38BB JUMP JUMPDEST DUP2 EQ ISZERO PUSH2 0x27F5 JUMPI PUSH1 0x0 DUP4 DUP2 MSTORE PUSH1 0xA PUSH1 0x20 MSTORE PUSH1 0x40 SWAP1 KECCAK256 PUSH1 0x4 ADD SLOAD PUSH2 0x2691 SWAP1 PUSH1 0x1 SWAP1 PUSH2 0x38FC JUMP JUMPDEST PUSH1 0x0 DUP5 DUP2 MSTORE PUSH1 0xA PUSH1 0x20 MSTORE PUSH1 0x40 DUP2 KECCAK256 PUSH1 0x4 ADD SWAP2 SWAP1 SWAP2 SSTORE JUMPDEST PUSH1 0x0 DUP5 DUP2 MSTORE PUSH1 0xA PUSH1 0x20 MSTORE PUSH1 0x40 SWAP1 KECCAK256 CALLER SWAP1 PUSH1 0x3 ADD DUP3 PUSH2 0x26C4 DUP2 PUSH2 0x398B JUMP JUMPDEST SWAP4 POP DUP2 SLOAD DUP2 LT PUSH2 0x26D6 JUMPI PUSH2 0x26D6 PUSH2 0x39D2 JUMP JUMPDEST PUSH1 0x0 SWAP2 DUP3 MSTORE PUSH1 0x20 SWAP1 SWAP2 KECCAK256 ADD SLOAD PUSH1 0x1 PUSH1 0x1 PUSH1 0xA0 SHL SUB AND EQ PUSH2 0x26F5 JUMPI PUSH2 0x26A7 JUMP JUMPDEST PUSH1 0x0 DUP5 DUP2 MSTORE PUSH1 0xA PUSH1 0x20 MSTORE PUSH1 0x40 SWAP1 KECCAK256 PUSH1 0x3 ADD SLOAD DUP2 LT ISZERO PUSH2 0x27B1 JUMPI PUSH1 0x0 DUP5 DUP2 MSTORE PUSH1 0xA PUSH1 0x20 MSTORE PUSH1 0x40 SWAP1 KECCAK256 PUSH1 0x3 ADD DUP1 SLOAD DUP3 SWAP1 DUP2 LT PUSH2 0x2731 JUMPI PUSH2 0x2731 PUSH2 0x39D2 JUMP JUMPDEST PUSH1 0x0 SWAP2 DUP3 MSTORE PUSH1 0x20 DUP1 DUP4 KECCAK256 SWAP1 SWAP2 ADD SLOAD DUP7 DUP4 MSTORE PUSH1 0xA SWAP1 SWAP2 MSTORE PUSH1 0x40 SWAP1 SWAP2 KECCAK256 PUSH1 0x1 PUSH1 0x1 PUSH1 0xA0 SHL SUB SWAP1 SWAP2 AND SWAP1 PUSH1 0x3 ADD PUSH2 0x2766 PUSH1 0x1 DUP5 PUSH2 0x38FC JUMP JUMPDEST DUP2 SLOAD DUP2 LT PUSH2 0x2776 JUMPI PUSH2 0x2776 PUSH2 0x39D2 JUMP JUMPDEST PUSH1 0x0 SWAP2 DUP3 MSTORE PUSH1 0x20 SWAP1 SWAP2 KECCAK256 ADD DUP1 SLOAD PUSH1 0x1 PUSH1 0x1 PUSH1 0xA0 SHL SUB NOT AND PUSH1 0x1 PUSH1 0x1 PUSH1 0xA0 SHL SUB SWAP3 SWAP1 SWAP3 AND SWAP2 SWAP1 SWAP2 OR SWAP1 SSTORE DUP1 PUSH2 0x27A9 DUP2 PUSH2 0x398B JUMP JUMPDEST SWAP2 POP POP PUSH2 0x26F5 JUMP JUMPDEST PUSH1 0x0 DUP5 DUP2 MSTORE PUSH1 0xA PUSH1 0x20 MSTORE PUSH1 0x40 SWAP1 KECCAK256 PUSH1 0x3 ADD DUP1 SLOAD DUP1 PUSH2 0x27D1 JUMPI PUSH2 0x27D1 PUSH2 0x39BC JUMP JUMPDEST PUSH1 0x0 DUP3 DUP2 MSTORE PUSH1 0x20 SWAP1 KECCAK256 DUP2 ADD PUSH1 0x0 NOT SWAP1 DUP2 ADD DUP1 SLOAD PUSH1 0x1 PUSH1 0x1 PUSH1 0xA0 SHL SUB NOT AND SWAP1 SSTORE ADD SWAP1 SSTORE POP JUMPDEST PUSH1 0x0 DUP4 DUP2 MSTORE PUSH1 0xA PUSH1 0x20 SWAP1 DUP2 MSTORE PUSH1 0x40 DUP1 DUP4 KECCAK256 CALLER DUP5 MSTORE PUSH1 0x2 ADD SWAP1 SWAP2 MSTORE SWAP1 KECCAK256 SLOAD PUSH2 0x281D SWAP1 DUP4 SWAP1 PUSH2 0x38FC JUMP JUMPDEST PUSH1 0x0 DUP5 DUP2 MSTORE PUSH1 0xA PUSH1 0x20 SWAP1 DUP2 MSTORE PUSH1 0x40 DUP1 DUP4 KECCAK256 CALLER DUP1 DUP6 MSTORE PUSH1 0x2 SWAP1 SWAP2 ADD SWAP1 SWAP3 MSTORE DUP1 DUP4 KECCAK256 SWAP4 SWAP1 SWAP4 SSTORE SWAP2 MLOAD CALLVALUE DUP1 ISZERO PUSH2 0x8FC MUL SWAP3 SWAP1 SWAP2 SWAP1 DUP2 DUP2 DUP2 DUP6 DUP9 DUP9 CALL SWAP4 POP POP POP POP ISZERO DUP1 ISZERO PUSH2 0x286B JUMPI RETURNDATASIZE PUSH1 0x0 DUP1 RETURNDATACOPY RETURNDATASIZE PUSH1 0x0 REVERT JUMPDEST POP POP SWAP2 SWAP1 POP JUMP JUMPDEST DUP1 PUSH2 0x287F DUP2 CALLER ADDRESS DUP7 PUSH2 0x2D5D JUMP JUMPDEST POP POP POP POP JUMP JUMPDEST PUSH1 0x0 DUP4 DUP2 MSTORE PUSH1 0x1 PUSH1 0x20 MSTORE PUSH1 0x40 SWAP1 KECCAK256 SLOAD DUP4 SWAP1 PUSH1 0x1 PUSH1 0x1 PUSH1 0xA0 SHL SUB AND CALLER EQ PUSH2 0x28BD JUMPI PUSH1 0x40 MLOAD PUSH3 0x461BCD PUSH1 0xE5 SHL DUP2 MSTORE PUSH1 0x4 ADD PUSH2 0x89A SWAP1 PUSH2 0x385C JUMP JUMPDEST PUSH1 0x0 DUP5 DUP2 MSTORE PUSH1 0xA PUSH1 0x20 SWAP1 DUP2 MSTORE PUSH1 0x40 DUP1 DUP4 KECCAK256 PUSH1 0x1 PUSH1 0x1 PUSH1 0xA0 SHL SUB DUP8 AND DUP5 MSTORE PUSH1 0x2 ADD SWAP1 SWAP2 MSTORE SWAP1 KECCAK256 SLOAD ISZERO PUSH2 0x2923 JUMPI PUSH1 0x40 MLOAD PUSH3 0x461BCD PUSH1 0xE5 SHL DUP2 MSTORE PUSH1 0x20 PUSH1 0x4 DUP3 ADD MSTORE PUSH1 0x10 PUSH1 0x24 DUP3 ADD MSTORE PUSH16 0x20A62922A0A22CAFA0AFA9A420A922A9 PUSH1 0x81 SHL PUSH1 0x44 DUP3 ADD MSTORE PUSH1 0x64 ADD PUSH2 0x89A JUMP JUMPDEST PUSH1 0x1 DUP3 LT ISZERO DUP1 ISZERO PUSH2 0x2945 JUMPI POP PUSH1 0x0 DUP5 DUP2 MSTORE PUSH1 0xA PUSH1 0x20 MSTORE PUSH1 0x40 SWAP1 KECCAK256 PUSH1 0x5 ADD SLOAD DUP3 GT ISZERO JUMPDEST PUSH2 0x2981 JUMPI PUSH1 0x40 MLOAD PUSH3 0x461BCD PUSH1 0xE5 SHL DUP2 MSTORE PUSH1 0x20 PUSH1 0x4 DUP3 ADD MSTORE PUSH1 0xD PUSH1 0x24 DUP3 ADD MSTORE PUSH13 0x14D210549157D2539590531251 PUSH1 0x9A SHL PUSH1 0x44 DUP3 ADD MSTORE PUSH1 0x64 ADD PUSH2 0x89A JUMP JUMPDEST PUSH1 0x0 DUP5 DUP2 MSTORE PUSH1 0xA PUSH1 0x20 MSTORE PUSH1 0x40 SWAP1 KECCAK256 PUSH1 0x4 ADD SLOAD PUSH2 0x299E SWAP1 PUSH1 0x1 PUSH2 0x38A3 JUMP JUMPDEST PUSH1 0x0 DUP6 DUP2 MSTORE PUSH1 0xA PUSH1 0x20 DUP2 DUP2 MSTORE PUSH1 0x40 DUP1 DUP5 KECCAK256 PUSH1 0x4 DUP2 ADD SWAP6 SWAP1 SWAP6 SSTORE PUSH1 0x1 PUSH1 0x1 PUSH1 0xA0 SHL SUB DUP9 AND DUP5 MSTORE PUSH1 0x2 DUP6 ADD DUP3 MSTORE DUP4 KECCAK256 DUP7 SWAP1 SSTORE SWAP2 DUP8 SWAP1 MSTORE SWAP1 MSTORE PUSH1 0x5 ADD SLOAD PUSH2 0x29E3 SWAP1 DUP4 SWAP1 PUSH2 0x38FC JUMP JUMPDEST PUSH1 0x0 SWAP5 DUP6 MSTORE PUSH1 0xA PUSH1 0x20 SWAP1 DUP2 MSTORE PUSH1 0x40 DUP7 KECCAK256 PUSH1 0x5 DUP2 ADD SWAP3 SWAP1 SWAP3 SSTORE PUSH1 0x3 SWAP1 SWAP2 ADD DUP1 SLOAD PUSH1 0x1 DUP2 ADD DUP3 SSTORE SWAP1 DUP7 MSTORE SWAP5 KECCAK256 SWAP1 SWAP4 ADD DUP1 SLOAD PUSH1 0x1 PUSH1 0x1 PUSH1 0xA0 SHL SUB NOT AND CALLER OR SWAP1 SSTORE POP POP POP JUMP JUMPDEST PUSH1 0x0 DUP2 DUP2 MSTORE PUSH1 0x1 PUSH1 0x20 SWAP1 DUP2 MSTORE PUSH1 0x40 DUP1 DUP4 KECCAK256 SLOAD PUSH1 0x2 SWAP1 SWAP3 MSTORE SWAP1 SWAP2 KECCAK256 DUP1 SLOAD PUSH1 0x1 PUSH1 0x1 PUSH1 0xA0 SHL SUB NOT AND SWAP1 SSTORE PUSH1 0x1 PUSH1 0x1 PUSH1 0xA0 SHL SUB AND PUSH2 0x2A60 DUP2 DUP4 PUSH2 0x3037 JUMP JUMPDEST PUSH2 0x2A6A DUP4 DUP4 PUSH2 0x30E0 JUMP JUMPDEST DUP2 DUP4 PUSH1 0x1 PUSH1 0x1 PUSH1 0xA0 SHL SUB AND DUP3 PUSH1 0x1 PUSH1 0x1 PUSH1 0xA0 SHL SUB AND PUSH32 0xDDF252AD1BE2C89B69C2B068FC378DAA952BA7F163C4A11628F55A4DF523B3EF PUSH1 0x40 MLOAD PUSH1 0x40 MLOAD DUP1 SWAP2 SUB SWAP1 LOG4 POP POP POP JUMP JUMPDEST PUSH1 0x0 DUP3 DUP2 MSTORE PUSH1 0x1 PUSH1 0x20 MSTORE PUSH1 0x40 SWAP1 KECCAK256 SLOAD DUP3 SWAP1 PUSH1 0x1 PUSH1 0x1 PUSH1 0xA0 SHL SUB AND CALLER DUP2 EQ DUP1 PUSH2 0x2AEE JUMPI POP PUSH1 0x0 DUP3 DUP2 MSTORE PUSH1 0x2 PUSH1 0x20 MSTORE PUSH1 0x40 SWAP1 KECCAK256 SLOAD PUSH1 0x1 PUSH1 0x1 PUSH1 0xA0 SHL SUB AND CALLER EQ JUMPDEST DUP1 PUSH2 0x2B1C JUMPI POP PUSH1 0x1 PUSH1 0x1 PUSH1 0xA0 SHL SUB DUP2 AND PUSH1 0x0 SWAP1 DUP2 MSTORE PUSH1 0x4 PUSH1 0x20 SWAP1 DUP2 MSTORE PUSH1 0x40 DUP1 DUP4 KECCAK256 CALLER DUP5 MSTORE SWAP1 SWAP2 MSTORE SWAP1 KECCAK256 SLOAD PUSH1 0xFF AND JUMPDEST PUSH1 0x40 MLOAD DUP1 PUSH1 0x40 ADD PUSH1 0x40 MSTORE DUP1 PUSH1 0x6 DUP2 MSTORE PUSH1 0x20 ADD PUSH6 0xC0C0CCC0C0D PUSH1 0xD2 SHL DUP2 MSTORE POP SWAP1 PUSH2 0x2B59 JUMPI PUSH1 0x40 MLOAD PUSH3 0x461BCD PUSH1 0xE5 SHL DUP2 MSTORE PUSH1 0x4 ADD PUSH2 0x89A SWAP2 SWAP1 PUSH2 0x3849 JUMP JUMPDEST POP PUSH1 0x0 DUP5 DUP2 MSTORE PUSH1 0x1 PUSH1 0x20 SWAP1 DUP2 MSTORE PUSH1 0x40 SWAP2 DUP3 SWAP1 KECCAK256 SLOAD DUP3 MLOAD DUP1 DUP5 ADD SWAP1 SWAP4 MSTORE PUSH1 0x6 DUP4 MSTORE PUSH6 0x181819981819 PUSH1 0xD1 SHL SWAP2 DUP4 ADD SWAP2 SWAP1 SWAP2 MSTORE DUP6 SWAP2 SWAP1 PUSH1 0x1 PUSH1 0x1 PUSH1 0xA0 SHL SUB AND PUSH2 0x2BB3 JUMPI PUSH1 0x40 MLOAD PUSH3 0x461BCD PUSH1 0xE5 SHL DUP2 MSTORE PUSH1 0x4 ADD PUSH2 0x89A SWAP2 SWAP1 PUSH2 0x3849 JUMP JUMPDEST POP PUSH1 0x0 DUP6 DUP2 MSTORE PUSH1 0x1 PUSH1 0x20 SWAP1 DUP2 MSTORE PUSH1 0x40 SWAP2 DUP3 SWAP1 KECCAK256 SLOAD DUP3 MLOAD DUP1 DUP5 ADD SWAP1 SWAP4 MSTORE PUSH1 0x6 DUP4 MSTORE PUSH6 0x303033303037 PUSH1 0xD0 SHL SWAP2 DUP4 ADD SWAP2 SWAP1 SWAP2 MSTORE PUSH1 0x1 PUSH1 0x1 PUSH1 0xA0 SHL SUB SWAP1 DUP2 AND SWAP2 SWAP1 DUP10 AND DUP3 EQ PUSH2 0x2C12 JUMPI PUSH1 0x40 MLOAD PUSH3 0x461BCD PUSH1 0xE5 SHL DUP2 MSTORE PUSH1 0x4 ADD PUSH2 0x89A SWAP2 SWAP1 PUSH2 0x3849 JUMP JUMPDEST POP PUSH1 0x40 DUP1 MLOAD DUP1 DUP3 ADD SWAP1 SWAP2 MSTORE PUSH1 0x6 DUP2 MSTORE PUSH6 0x303033303031 PUSH1 0xD0 SHL PUSH1 0x20 DUP3 ADD MSTORE PUSH1 0x1 PUSH1 0x1 PUSH1 0xA0 SHL SUB DUP9 AND PUSH2 0x2C57 JUMPI PUSH1 0x40 MLOAD PUSH3 0x461BCD PUSH1 0xE5 SHL DUP2 MSTORE PUSH1 0x4 ADD PUSH2 0x89A SWAP2 SWAP1 PUSH2 0x3849 JUMP JUMPDEST POP PUSH2 0x2C62 DUP8 DUP8 PUSH2 0x2A25 JUMP JUMPDEST PUSH2 0x2C74 DUP8 PUSH1 0x1 PUSH1 0x1 PUSH1 0xA0 SHL SUB AND PUSH2 0x3188 JUMP JUMPDEST ISZERO PUSH2 0xE0E JUMPI PUSH1 0x40 MLOAD PUSH4 0xA85BD01 PUSH1 0xE1 SHL DUP2 MSTORE PUSH1 0x0 SWAP1 PUSH1 0x1 PUSH1 0x1 PUSH1 0xA0 SHL SUB DUP10 AND SWAP1 PUSH4 0x150B7A02 SWAP1 PUSH2 0x2CAE SWAP1 CALLER SWAP1 DUP14 SWAP1 DUP13 SWAP1 DUP13 SWAP1 PUSH1 0x4 ADD PUSH2 0x3678 JUMP JUMPDEST PUSH1 0x20 PUSH1 0x40 MLOAD DUP1 DUP4 SUB DUP2 PUSH1 0x0 DUP8 DUP1 EXTCODESIZE ISZERO DUP1 ISZERO PUSH2 0x2CC8 JUMPI PUSH1 0x0 DUP1 REVERT JUMPDEST POP GAS CALL ISZERO DUP1 ISZERO PUSH2 0x2CDC JUMPI RETURNDATASIZE PUSH1 0x0 DUP1 RETURNDATACOPY RETURNDATASIZE PUSH1 0x0 REVERT JUMPDEST POP POP POP POP PUSH1 0x40 MLOAD RETURNDATASIZE PUSH1 0x1F NOT PUSH1 0x1F DUP3 ADD AND DUP3 ADD DUP1 PUSH1 0x40 MSTORE POP DUP2 ADD SWAP1 PUSH2 0x2D00 SWAP2 SWAP1 PUSH2 0x350F JUMP JUMPDEST PUSH1 0x40 DUP1 MLOAD DUP1 DUP3 ADD SWAP1 SWAP2 MSTORE PUSH1 0x6 DUP2 MSTORE PUSH6 0x303033303035 PUSH1 0xD0 SHL PUSH1 0x20 DUP3 ADD MSTORE SWAP1 SWAP2 POP PUSH1 0x1 PUSH1 0x1 PUSH1 0xE0 SHL SUB NOT DUP3 AND PUSH4 0xA85BD01 PUSH1 0xE1 SHL EQ PUSH2 0x2D51 JUMPI PUSH1 0x40 MLOAD PUSH3 0x461BCD PUSH1 0xE5 SHL DUP2 MSTORE PUSH1 0x4 ADD PUSH2 0x89A SWAP2 SWAP1 PUSH2 0x3849 JUMP JUMPDEST POP POP POP POP POP POP POP POP POP POP JUMP JUMPDEST PUSH1 0x40 MLOAD PUSH1 0x1 PUSH1 0x1 PUSH1 0xA0 SHL SUB DUP5 DUP2 AND PUSH1 0x24 DUP4 ADD MSTORE DUP4 DUP2 AND PUSH1 0x44 DUP4 ADD MSTORE PUSH1 0x64 DUP3 ADD DUP4 SWAP1 MSTORE PUSH1 0x0 SWAP2 DUP3 SWAP2 DUP3 SWAP2 SWAP1 DUP9 AND SWAP1 PUSH1 0x84 ADD PUSH1 0x40 DUP1 MLOAD PUSH1 0x1F NOT DUP2 DUP5 SUB ADD DUP2 MSTORE SWAP2 DUP2 MSTORE PUSH1 0x20 DUP3 ADD DUP1 MLOAD PUSH1 0x1 PUSH1 0x1 PUSH1 0xE0 SHL SUB AND PUSH4 0x23B872DD PUSH1 0xE0 SHL OR SWAP1 MSTORE MLOAD PUSH2 0x2DC2 SWAP2 SWAP1 PUSH2 0x365C JUMP JUMPDEST PUSH1 0x0 PUSH1 0x40 MLOAD DUP1 DUP4 SUB DUP2 PUSH1 0x0 DUP7 GAS CALL SWAP2 POP POP RETURNDATASIZE DUP1 PUSH1 0x0 DUP2 EQ PUSH2 0x2DFF JUMPI PUSH1 0x40 MLOAD SWAP2 POP PUSH1 0x1F NOT PUSH1 0x3F RETURNDATASIZE ADD AND DUP3 ADD PUSH1 0x40 MSTORE RETURNDATASIZE DUP3 MSTORE RETURNDATASIZE PUSH1 0x0 PUSH1 0x20 DUP5 ADD RETURNDATACOPY PUSH2 0x2E04 JUMP JUMPDEST PUSH1 0x60 SWAP2 POP JUMPDEST POP SWAP2 POP SWAP2 POP PUSH1 0x0 DUP2 MLOAD PUSH1 0x0 EQ DUP1 PUSH2 0x2E2A JUMPI POP DUP2 DUP1 PUSH1 0x20 ADD SWAP1 MLOAD DUP2 ADD SWAP1 PUSH2 0x2E2A SWAP2 SWAP1 PUSH2 0x34D5 JUMP JUMPDEST SWAP1 POP DUP3 DUP1 ISZERO PUSH2 0x2E36 JUMPI POP DUP1 JUMPDEST SWAP9 SWAP8 POP POP POP POP POP POP POP POP JUMP JUMPDEST PUSH1 0x40 DUP1 MLOAD DUP1 DUP3 ADD SWAP1 SWAP2 MSTORE PUSH1 0x6 DUP2 MSTORE PUSH6 0x303033303031 PUSH1 0xD0 SHL PUSH1 0x20 DUP3 ADD MSTORE PUSH1 0x1 PUSH1 0x1 PUSH1 0xA0 SHL SUB DUP4 AND PUSH2 0x2E86 JUMPI PUSH1 0x40 MLOAD PUSH3 0x461BCD PUSH1 0xE5 SHL DUP2 MSTORE PUSH1 0x4 ADD PUSH2 0x89A SWAP2 SWAP1 PUSH2 0x3849 JUMP JUMPDEST POP PUSH1 0x0 DUP2 DUP2 MSTORE PUSH1 0x1 PUSH1 0x20 SWAP1 DUP2 MSTORE PUSH1 0x40 SWAP2 DUP3 SWAP1 KECCAK256 SLOAD DUP3 MLOAD DUP1 DUP5 ADD SWAP1 SWAP4 MSTORE PUSH1 0x6 DUP4 MSTORE PUSH6 0x18181998181B PUSH1 0xD1 SHL SWAP2 DUP4 ADD SWAP2 SWAP1 SWAP2 MSTORE PUSH1 0x1 PUSH1 0x1 PUSH1 0xA0 SHL SUB AND ISZERO PUSH2 0x2EDE JUMPI PUSH1 0x40 MLOAD PUSH3 0x461BCD PUSH1 0xE5 SHL DUP2 MSTORE PUSH1 0x4 ADD PUSH2 0x89A SWAP2 SWAP1 PUSH2 0x3849 JUMP JUMPDEST POP PUSH2 0x2EE9 DUP3 DUP3 PUSH2 0x30E0 JUMP JUMPDEST PUSH1 0x40 MLOAD DUP2 SWAP1 PUSH1 0x1 PUSH1 0x1 PUSH1 0xA0 SHL SUB DUP5 AND SWAP1 PUSH1 0x0 SWAP1 PUSH32 0xDDF252AD1BE2C89B69C2B068FC378DAA952BA7F163C4A11628F55A4DF523B3EF SWAP1 DUP3 SWAP1 LOG4 POP POP JUMP JUMPDEST PUSH1 0x0 DUP3 DUP2 MSTORE PUSH1 0x1 PUSH1 0x20 SWAP1 DUP2 MSTORE PUSH1 0x40 SWAP2 DUP3 SWAP1 KECCAK256 SLOAD DUP3 MLOAD DUP1 DUP5 ADD SWAP1 SWAP4 MSTORE PUSH1 0x6 DUP4 MSTORE PUSH6 0x181819981819 PUSH1 0xD1 SHL SWAP2 DUP4 ADD SWAP2 SWAP1 SWAP2 MSTORE DUP4 SWAP2 SWAP1 PUSH1 0x1 PUSH1 0x1 PUSH1 0xA0 SHL SUB AND PUSH2 0x2F7E JUMPI PUSH1 0x40 MLOAD PUSH3 0x461BCD PUSH1 0xE5 SHL DUP2 MSTORE PUSH1 0x4 ADD PUSH2 0x89A SWAP2 SWAP1 PUSH2 0x3849 JUMP JUMPDEST POP PUSH1 0x0 DUP4 DUP2 MSTORE PUSH1 0x7 PUSH1 0x20 SWAP1 DUP2 MSTORE PUSH1 0x40 SWAP1 SWAP2 KECCAK256 DUP4 MLOAD PUSH2 0x287F SWAP3 DUP6 ADD SWAP1 PUSH2 0x31C4 JUMP JUMPDEST PUSH1 0x0 DUP3 DUP2 MSTORE PUSH1 0x1 PUSH1 0x20 MSTORE PUSH1 0x40 SWAP1 KECCAK256 SLOAD DUP3 SWAP1 PUSH1 0x1 PUSH1 0x1 PUSH1 0xA0 SHL SUB AND CALLER EQ PUSH2 0x2FD6 JUMPI PUSH1 0x40 MLOAD PUSH3 0x461BCD PUSH1 0xE5 SHL DUP2 MSTORE PUSH1 0x4 ADD PUSH2 0x89A SWAP1 PUSH2 0x385C JUMP JUMPDEST POP PUSH1 0x0 SWAP2 DUP3 MSTORE PUSH1 0xA PUSH1 0x20 MSTORE PUSH1 0x40 SWAP1 SWAP2 KECCAK256 PUSH1 0x6 ADD SSTORE JUMP JUMPDEST PUSH1 0x0 DUP3 DUP2 MSTORE PUSH1 0x1 PUSH1 0x20 MSTORE PUSH1 0x40 SWAP1 KECCAK256 SLOAD DUP3 SWAP1 PUSH1 0x1 PUSH1 0x1 PUSH1 0xA0 SHL SUB AND CALLER EQ PUSH2 0x3024 JUMPI PUSH1 0x40 MLOAD PUSH3 0x461BCD PUSH1 0xE5 SHL DUP2 MSTORE PUSH1 0x4 ADD PUSH2 0x89A SWAP1 PUSH2 0x385C JUMP JUMPDEST POP PUSH1 0x0 SWAP2 DUP3 MSTORE PUSH1 0xA PUSH1 0x20 MSTORE PUSH1 0x40 SWAP1 SWAP2 KECCAK256 SSTORE JUMP JUMPDEST PUSH1 0x0 DUP2 DUP2 MSTORE PUSH1 0x1 PUSH1 0x20 SWAP1 DUP2 MSTORE PUSH1 0x40 SWAP2 DUP3 SWAP1 KECCAK256 SLOAD DUP3 MLOAD DUP1 DUP5 ADD SWAP1 SWAP4 MSTORE PUSH1 0x6 DUP4 MSTORE PUSH6 0x303033303037 PUSH1 0xD0 SHL SWAP2 DUP4 ADD SWAP2 SWAP1 SWAP2 MSTORE PUSH1 0x1 PUSH1 0x1 PUSH1 0xA0 SHL SUB DUP5 DUP2 AND SWAP2 AND EQ PUSH2 0x3092 JUMPI PUSH1 0x40 MLOAD PUSH3 0x461BCD PUSH1 0xE5 SHL DUP2 MSTORE PUSH1 0x4 ADD PUSH2 0x89A SWAP2 SWAP1 PUSH2 0x3849 JUMP JUMPDEST POP PUSH1 0x1 PUSH1 0x1 PUSH1 0xA0 SHL SUB DUP3 AND PUSH1 0x0 SWAP1 DUP2 MSTORE PUSH1 0x3 PUSH1 0x20 MSTORE PUSH1 0x40 DUP2 KECCAK256 DUP1 SLOAD PUSH1 0x1 SWAP3 SWAP1 PUSH2 0x30BC SWAP1 DUP5 SWAP1 PUSH2 0x38FC JUMP JUMPDEST SWAP1 SWAP2 SSTORE POP POP PUSH1 0x0 SWAP1 DUP2 MSTORE PUSH1 0x1 PUSH1 0x20 MSTORE PUSH1 0x40 SWAP1 KECCAK256 DUP1 SLOAD PUSH1 0x1 PUSH1 0x1 PUSH1 0xA0 SHL SUB NOT AND SWAP1 SSTORE POP JUMP JUMPDEST PUSH1 0x0 DUP2 DUP2 MSTORE PUSH1 0x1 PUSH1 0x20 SWAP1 DUP2 MSTORE PUSH1 0x40 SWAP2 DUP3 SWAP1 KECCAK256 SLOAD DUP3 MLOAD DUP1 DUP5 ADD SWAP1 SWAP4 MSTORE PUSH1 0x6 DUP4 MSTORE PUSH6 0x18181998181B PUSH1 0xD1 SHL SWAP2 DUP4 ADD SWAP2 SWAP1 SWAP2 MSTORE PUSH1 0x1 PUSH1 0x1 PUSH1 0xA0 SHL SUB AND ISZERO PUSH2 0x3137 JUMPI PUSH1 0x40 MLOAD PUSH3 0x461BCD PUSH1 0xE5 SHL DUP2 MSTORE PUSH1 0x4 ADD PUSH2 0x89A SWAP2 SWAP1 PUSH2 0x3849 JUMP JUMPDEST POP PUSH1 0x0 DUP2 DUP2 MSTORE PUSH1 0x1 PUSH1 0x20 DUP2 DUP2 MSTORE PUSH1 0x40 DUP1 DUP5 KECCAK256 DUP1 SLOAD PUSH1 0x1 PUSH1 0x1 PUSH1 0xA0 SHL SUB NOT AND PUSH1 0x1 PUSH1 0x1 PUSH1 0xA0 SHL SUB DUP9 AND SWAP1 DUP2 OR SWAP1 SWAP2 SSTORE DUP5 MSTORE PUSH1 0x3 SWAP1 SWAP2 MSTORE DUP3 KECCAK256 DUP1 SLOAD SWAP2 SWAP3 SWAP1 SWAP2 PUSH2 0x317F SWAP1 DUP5 SWAP1 PUSH2 0x38A3 JUMP JUMPDEST SWAP1 SWAP2 SSTORE POP POP POP POP JUMP JUMPDEST PUSH1 0x0 DUP2 EXTCODEHASH PUSH32 0xC5D2460186F7233C927E7DB2DCC703C0E500B653CA82273B7BFAD8045D85A470 DUP2 ISZERO DUP1 ISZERO SWAP1 PUSH2 0x31BC JUMPI POP DUP1 DUP3 EQ ISZERO JUMPDEST SWAP5 SWAP4 POP POP POP POP JUMP JUMPDEST DUP3 DUP1 SLOAD PUSH2 0x31D0 SWAP1 PUSH2 0x3956 JUMP JUMPDEST SWAP1 PUSH1 0x0 MSTORE PUSH1 0x20 PUSH1 0x0 KECCAK256 SWAP1 PUSH1 0x1F ADD PUSH1 0x20 SWAP1 DIV DUP2 ADD SWAP3 DUP3 PUSH2 0x31F2 JUMPI PUSH1 0x0 DUP6 SSTORE PUSH2 0x3238 JUMP JUMPDEST DUP3 PUSH1 0x1F LT PUSH2 0x320B JUMPI DUP1 MLOAD PUSH1 0xFF NOT AND DUP4 DUP1 ADD OR DUP6 SSTORE PUSH2 0x3238 JUMP JUMPDEST DUP3 DUP1 ADD PUSH1 0x1 ADD DUP6 SSTORE DUP3 ISZERO PUSH2 0x3238 JUMPI SWAP2 DUP3 ADD JUMPDEST DUP3 DUP2 GT ISZERO PUSH2 0x3238 JUMPI DUP3 MLOAD DUP3 SSTORE SWAP2 PUSH1 0x20 ADD SWAP2 SWAP1 PUSH1 0x1 ADD SWAP1 PUSH2 0x321D JUMP JUMPDEST POP PUSH2 0x3244 SWAP3 SWAP2 POP PUSH2 0x3248 JUMP JUMPDEST POP SWAP1 JUMP JUMPDEST JUMPDEST DUP1 DUP3 GT ISZERO PUSH2 0x3244 JUMPI PUSH1 0x0 DUP2 SSTORE PUSH1 0x1 ADD PUSH2 0x3249 JUMP JUMPDEST DUP1 CALLDATALOAD PUSH1 0x1 PUSH1 0x1 PUSH1 0xA0 SHL SUB DUP2 AND DUP2 EQ PUSH2 0x3274 JUMPI PUSH1 0x0 DUP1 REVERT JUMPDEST SWAP2 SWAP1 POP JUMP JUMPDEST PUSH1 0x0 DUP1 DUP4 PUSH1 0x1F DUP5 ADD SLT PUSH2 0x328B JUMPI PUSH1 0x0 DUP1 REVERT JUMPDEST POP DUP2 CALLDATALOAD PUSH8 0xFFFFFFFFFFFFFFFF DUP2 GT ISZERO PUSH2 0x32A3 JUMPI PUSH1 0x0 DUP1 REVERT JUMPDEST PUSH1 0x20 DUP4 ADD SWAP2 POP DUP4 PUSH1 0x20 DUP3 DUP6 ADD ADD GT ISZERO PUSH2 0x32BB JUMPI PUSH1 0x0 DUP1 REVERT JUMPDEST SWAP3 POP SWAP3 SWAP1 POP JUMP JUMPDEST PUSH1 0x0 PUSH1 0x20 DUP3 DUP5 SUB SLT ISZERO PUSH2 0x32D4 JUMPI PUSH1 0x0 DUP1 REVERT JUMPDEST PUSH2 0x32DD DUP3 PUSH2 0x325D JUMP JUMPDEST SWAP4 SWAP3 POP POP POP JUMP JUMPDEST PUSH1 0x0 DUP1 PUSH1 0x40 DUP4 DUP6 SUB SLT ISZERO PUSH2 0x32F7 JUMPI PUSH1 0x0 DUP1 REVERT JUMPDEST PUSH2 0x3300 DUP4 PUSH2 0x325D JUMP JUMPDEST SWAP2 POP PUSH2 0x330E PUSH1 0x20 DUP5 ADD PUSH2 0x325D JUMP JUMPDEST SWAP1 POP SWAP3 POP SWAP3 SWAP1 POP JUMP JUMPDEST PUSH1 0x0 DUP1 PUSH1 0x0 PUSH1 0x60 DUP5 DUP7 SUB SLT ISZERO PUSH2 0x332C JUMPI PUSH1 0x0 DUP1 REVERT JUMPDEST PUSH2 0x3335 DUP5 PUSH2 0x325D JUMP JUMPDEST SWAP3 POP PUSH2 0x3343 PUSH1 0x20 DUP6 ADD PUSH2 0x325D JUMP JUMPDEST SWAP2 POP PUSH1 0x40 DUP5 ADD CALLDATALOAD SWAP1 POP SWAP3 POP SWAP3 POP SWAP3 JUMP JUMPDEST PUSH1 0x0 DUP1 PUSH1 0x0 DUP1 PUSH1 0x0 PUSH1 0x80 DUP7 DUP9 SUB SLT ISZERO PUSH2 0x336B JUMPI PUSH1 0x0 DUP1 REVERT JUMPDEST PUSH2 0x3374 DUP7 PUSH2 0x325D JUMP JUMPDEST SWAP5 POP PUSH2 0x3382 PUSH1 0x20 DUP8 ADD PUSH2 0x325D JUMP JUMPDEST SWAP4 POP PUSH1 0x40 DUP7 ADD CALLDATALOAD SWAP3 POP PUSH1 0x60 DUP7 ADD CALLDATALOAD PUSH8 0xFFFFFFFFFFFFFFFF DUP2 GT ISZERO PUSH2 0x33A5 JUMPI PUSH1 0x0 DUP1 REVERT JUMPDEST PUSH2 0x33B1 DUP9 DUP3 DUP10 ADD PUSH2 0x3279 JUMP JUMPDEST SWAP7 SWAP10 SWAP6 SWAP9 POP SWAP4 SWAP7 POP SWAP3 SWAP5 SWAP4 SWAP3 POP POP POP JUMP JUMPDEST PUSH1 0x0 DUP1 PUSH1 0x40 DUP4 DUP6 SUB SLT ISZERO PUSH2 0x33D5 JUMPI PUSH1 0x0 DUP1 REVERT JUMPDEST PUSH2 0x33DE DUP4 PUSH2 0x325D JUMP JUMPDEST SWAP2 POP PUSH1 0x20 DUP4 ADD CALLDATALOAD PUSH2 0x33EE DUP2 PUSH2 0x39E8 JUMP JUMPDEST DUP1 SWAP2 POP POP SWAP3 POP SWAP3 SWAP1 POP JUMP JUMPDEST PUSH1 0x0 DUP1 PUSH1 0x40 DUP4 DUP6 SUB SLT ISZERO PUSH2 0x340C JUMPI PUSH1 0x0 DUP1 REVERT JUMPDEST PUSH2 0x3415 DUP4 PUSH2 0x325D JUMP JUMPDEST SWAP5 PUSH1 0x20 SWAP4 SWAP1 SWAP4 ADD CALLDATALOAD SWAP4 POP POP POP JUMP JUMPDEST PUSH1 0x0 DUP1 PUSH1 0x0 DUP1 PUSH1 0x0 DUP1 PUSH1 0xC0 DUP8 DUP10 SUB SLT ISZERO PUSH2 0x343C JUMPI PUSH1 0x0 DUP1 REVERT JUMPDEST PUSH2 0x3445 DUP8 PUSH2 0x325D JUMP JUMPDEST SWAP6 POP PUSH1 0x20 DUP8 ADD CALLDATALOAD SWAP5 POP PUSH2 0x345A PUSH1 0x40 DUP9 ADD PUSH2 0x325D JUMP JUMPDEST SWAP4 POP PUSH1 0x60 DUP8 ADD CALLDATALOAD SWAP3 POP PUSH1 0x80 DUP8 ADD CALLDATALOAD SWAP2 POP PUSH1 0xA0 DUP8 ADD CALLDATALOAD SWAP1 POP SWAP3 SWAP6 POP SWAP3 SWAP6 POP SWAP3 SWAP6 JUMP JUMPDEST PUSH1 0x0 DUP1 PUSH1 0x0 DUP1 PUSH1 0x60 DUP6 DUP8 SUB SLT ISZERO PUSH2 0x3491 JUMPI PUSH1 0x0 DUP1 REVERT JUMPDEST PUSH2 0x349A DUP6 PUSH2 0x325D JUMP JUMPDEST SWAP4 POP PUSH1 0x20 DUP6 ADD CALLDATALOAD SWAP3 POP PUSH1 0x40 DUP6 ADD CALLDATALOAD PUSH8 0xFFFFFFFFFFFFFFFF DUP2 GT ISZERO PUSH2 0x34BD JUMPI PUSH1 0x0 DUP1 REVERT JUMPDEST PUSH2 0x34C9 DUP8 DUP3 DUP9 ADD PUSH2 0x3279 JUMP JUMPDEST SWAP6 SWAP9 SWAP5 SWAP8 POP SWAP6 POP POP POP POP JUMP JUMPDEST PUSH1 0x0 PUSH1 0x20 DUP3 DUP5 SUB SLT ISZERO PUSH2 0x34E7 JUMPI PUSH1 0x0 DUP1 REVERT JUMPDEST DUP2 MLOAD PUSH2 0x32DD DUP2 PUSH2 0x39E8 JUMP JUMPDEST PUSH1 0x0 PUSH1 0x20 DUP3 DUP5 SUB SLT ISZERO PUSH2 0x3504 JUMPI PUSH1 0x0 DUP1 REVERT JUMPDEST DUP2 CALLDATALOAD PUSH2 0x32DD DUP2 PUSH2 0x39F9 JUMP JUMPDEST PUSH1 0x0 PUSH1 0x20 DUP3 DUP5 SUB SLT ISZERO PUSH2 0x3521 JUMPI PUSH1 0x0 DUP1 REVERT JUMPDEST DUP2 MLOAD PUSH2 0x32DD DUP2 PUSH2 0x39F9 JUMP JUMPDEST PUSH1 0x0 PUSH1 0x20 DUP3 DUP5 SUB SLT ISZERO PUSH2 0x353E JUMPI PUSH1 0x0 DUP1 REVERT JUMPDEST POP CALLDATALOAD SWAP2 SWAP1 POP JUMP JUMPDEST PUSH1 0x0 DUP1 PUSH1 0x40 DUP4 DUP6 SUB SLT ISZERO PUSH2 0x3558 JUMPI PUSH1 0x0 DUP1 REVERT JUMPDEST DUP3 CALLDATALOAD SWAP2 POP PUSH2 0x330E PUSH1 0x20 DUP5 ADD PUSH2 0x325D JUMP JUMPDEST PUSH1 0x0 DUP1 PUSH1 0x0 PUSH1 0x60 DUP5 DUP7 SUB SLT ISZERO PUSH2 0x357D JUMPI PUSH1 0x0 DUP1 REVERT JUMPDEST DUP4 CALLDATALOAD SWAP3 POP PUSH2 0x3343 PUSH1 0x20 DUP6 ADD PUSH2 0x325D JUMP JUMPDEST PUSH1 0x0 DUP1 PUSH1 0x0 DUP1 PUSH1 0x80 DUP6 DUP8 SUB SLT ISZERO PUSH2 0x35A3 JUMPI PUSH1 0x0 DUP1 REVERT JUMPDEST DUP5 CALLDATALOAD SWAP4 POP PUSH1 0x20 DUP6 ADD CALLDATALOAD PUSH2 0x35B5 DUP2 PUSH2 0x39E8 JUMP JUMPDEST SWAP4 SWAP7 SWAP4 SWAP6 POP POP POP POP PUSH1 0x40 DUP3 ADD CALLDATALOAD SWAP2 PUSH1 0x60 ADD CALLDATALOAD SWAP1 JUMP JUMPDEST PUSH1 0x0 DUP1 PUSH1 0x40 DUP4 DUP6 SUB SLT ISZERO PUSH2 0x35DD JUMPI PUSH1 0x0 DUP1 REVERT JUMPDEST POP POP DUP1 CALLDATALOAD SWAP3 PUSH1 0x20 SWAP1 SWAP2 ADD CALLDATALOAD SWAP2 POP JUMP JUMPDEST PUSH1 0x0 DUP2 MLOAD DUP1 DUP5 MSTORE PUSH1 0x20 DUP1 DUP6 ADD SWAP5 POP DUP1 DUP5 ADD PUSH1 0x0 JUMPDEST DUP4 DUP2 LT ISZERO PUSH2 0x3625 JUMPI DUP2 MLOAD PUSH1 0x1 PUSH1 0x1 PUSH1 0xA0 SHL SUB AND DUP8 MSTORE SWAP6 DUP3 ADD SWAP6 SWAP1 DUP3 ADD SWAP1 PUSH1 0x1 ADD PUSH2 0x3600 JUMP JUMPDEST POP SWAP5 SWAP6 SWAP5 POP POP POP POP POP JUMP JUMPDEST PUSH1 0x0 DUP2 MLOAD DUP1 DUP5 MSTORE PUSH2 0x3648 DUP2 PUSH1 0x20 DUP7 ADD PUSH1 0x20 DUP7 ADD PUSH2 0x3913 JUMP JUMPDEST PUSH1 0x1F ADD PUSH1 0x1F NOT AND SWAP3 SWAP1 SWAP3 ADD PUSH1 0x20 ADD SWAP3 SWAP2 POP POP JUMP JUMPDEST PUSH1 0x0 DUP3 MLOAD PUSH2 0x366E DUP2 DUP5 PUSH1 0x20 DUP8 ADD PUSH2 0x3913 JUMP JUMPDEST SWAP2 SWAP1 SWAP2 ADD SWAP3 SWAP2 POP POP JUMP JUMPDEST PUSH1 0x1 PUSH1 0x1 PUSH1 0xA0 SHL SUB DUP6 DUP2 AND DUP3 MSTORE DUP5 AND PUSH1 0x20 DUP3 ADD MSTORE PUSH1 0x40 DUP2 ADD DUP4 SWAP1 MSTORE PUSH1 0x80 PUSH1 0x60 DUP3 ADD DUP2 SWAP1 MSTORE PUSH1 0x0 SWAP1 PUSH2 0x36AB SWAP1 DUP4 ADD DUP5 PUSH2 0x3630 JUMP JUMPDEST SWAP7 SWAP6 POP POP POP POP POP POP JUMP JUMPDEST PUSH1 0x0 PUSH1 0xE0 DUP3 ADD PUSH1 0x1 DUP1 PUSH1 0xA0 SHL SUB DUP1 DUP12 AND DUP5 MSTORE PUSH1 0x20 DUP11 DUP2 DUP7 ADD MSTORE PUSH1 0x40 DUP3 DUP12 AND DUP2 DUP8 ADD MSTORE PUSH1 0x60 PUSH1 0xE0 DUP2 DUP9 ADD MSTORE DUP5 DUP12 MLOAD DUP1 DUP8 MSTORE PUSH2 0x100 DUP10 ADD SWAP2 POP DUP5 DUP14 ADD SWAP7 POP PUSH1 0x0 JUMPDEST DUP2 DUP2 LT ISZERO PUSH2 0x3723 JUMPI DUP8 MLOAD DUP1 MLOAD DUP5 MSTORE DUP7 DUP2 ADD MLOAD DUP9 AND DUP8 DUP6 ADD MSTORE DUP6 ADD MLOAD DUP6 DUP5 ADD MSTORE SWAP7 DUP6 ADD SWAP7 SWAP2 DUP4 ADD SWAP2 PUSH1 0x1 ADD PUSH2 0x36F4 JUMP JUMPDEST POP POP PUSH1 0x80 DUP9 ADD SWAP11 SWAP1 SWAP11 MSTORE POP POP POP POP PUSH1 0xA0 DUP4 ADD SWAP5 SWAP1 SWAP5 MSTORE POP PUSH1 0xC0 ADD MSTORE POP SWAP5 SWAP4 POP POP POP POP JUMP JUMPDEST PUSH1 0x20 DUP2 MSTORE PUSH1 0x0 PUSH2 0x32DD PUSH1 0x20 DUP4 ADD DUP5 PUSH2 0x35EC JUMP JUMPDEST PUSH1 0x20 DUP1 DUP3 MSTORE DUP3 MLOAD DUP3 DUP3 ADD DUP2 SWAP1 MSTORE PUSH1 0x0 SWAP2 SWAP1 PUSH1 0x40 SWAP1 DUP2 DUP6 ADD SWAP1 DUP7 DUP5 ADD DUP6 JUMPDEST DUP3 DUP2 LT ISZERO PUSH2 0x37A5 JUMPI DUP2 MLOAD DUP1 MLOAD PUSH1 0x1 PUSH1 0x1 PUSH1 0xA0 SHL SUB AND DUP6 MSTORE DUP7 ADD MLOAD DUP7 DUP6 ADD MSTORE SWAP3 DUP5 ADD SWAP3 SWAP1 DUP6 ADD SWAP1 PUSH1 0x1 ADD PUSH2 0x3777 JUMP JUMPDEST POP SWAP2 SWAP8 SWAP7 POP POP POP POP POP POP POP JUMP JUMPDEST PUSH1 0x20 DUP1 DUP3 MSTORE DUP3 MLOAD DUP3 DUP3 ADD DUP2 SWAP1 MSTORE PUSH1 0x0 SWAP2 SWAP1 DUP5 DUP3 ADD SWAP1 PUSH1 0x40 DUP6 ADD SWAP1 DUP5 JUMPDEST DUP2 DUP2 LT ISZERO PUSH2 0x37EA JUMPI DUP4 MLOAD DUP4 MSTORE SWAP3 DUP5 ADD SWAP3 SWAP2 DUP5 ADD SWAP2 PUSH1 0x1 ADD PUSH2 0x37CE JUMP JUMPDEST POP SWAP1 SWAP7 SWAP6 POP POP POP POP POP POP JUMP JUMPDEST DUP8 ISZERO ISZERO DUP2 MSTORE DUP7 PUSH1 0x20 DUP3 ADD MSTORE DUP6 PUSH1 0x40 DUP3 ADD MSTORE DUP5 PUSH1 0x60 DUP3 ADD MSTORE PUSH1 0xE0 PUSH1 0x80 DUP3 ADD MSTORE PUSH1 0x0 PUSH2 0x3823 PUSH1 0xE0 DUP4 ADD DUP7 PUSH2 0x35EC JUMP JUMPDEST DUP5 PUSH1 0xA0 DUP5 ADD MSTORE DUP3 DUP2 SUB PUSH1 0xC0 DUP5 ADD MSTORE PUSH2 0x383B DUP2 DUP6 PUSH2 0x35EC JUMP JUMPDEST SWAP11 SWAP10 POP POP POP POP POP POP POP POP POP POP JUMP JUMPDEST PUSH1 0x20 DUP2 MSTORE PUSH1 0x0 PUSH2 0x32DD PUSH1 0x20 DUP4 ADD DUP5 PUSH2 0x3630 JUMP JUMPDEST PUSH1 0x20 DUP1 DUP3 MSTORE PUSH1 0x14 SWAP1 DUP3 ADD MSTORE PUSH20 0x1393D517D5121157D3D5D3915497D3D197D39195 PUSH1 0x62 SHL PUSH1 0x40 DUP3 ADD MSTORE PUSH1 0x60 ADD SWAP1 JUMP JUMPDEST DUP3 DUP2 MSTORE PUSH1 0x40 PUSH1 0x20 DUP3 ADD MSTORE PUSH1 0x0 PUSH2 0x31BC PUSH1 0x40 DUP4 ADD DUP5 PUSH2 0x35EC JUMP JUMPDEST PUSH1 0x0 DUP3 NOT DUP3 GT ISZERO PUSH2 0x38B6 JUMPI PUSH2 0x38B6 PUSH2 0x39A6 JUMP JUMPDEST POP ADD SWAP1 JUMP JUMPDEST PUSH1 0x0 DUP3 PUSH2 0x38D8 JUMPI PUSH4 0x4E487B71 PUSH1 0xE0 SHL PUSH1 0x0 MSTORE PUSH1 0x12 PUSH1 0x4 MSTORE PUSH1 0x24 PUSH1 0x0 REVERT JUMPDEST POP DIV SWAP1 JUMP JUMPDEST PUSH1 0x0 DUP2 PUSH1 0x0 NOT DIV DUP4 GT DUP3 ISZERO ISZERO AND ISZERO PUSH2 0x38F7 JUMPI PUSH2 0x38F7 PUSH2 0x39A6 JUMP JUMPDEST POP MUL SWAP1 JUMP JUMPDEST PUSH1 0x0 DUP3 DUP3 LT ISZERO PUSH2 0x390E JUMPI PUSH2 0x390E PUSH2 0x39A6 JUMP JUMPDEST POP SUB SWAP1 JUMP JUMPDEST PUSH1 0x0 JUMPDEST DUP4 DUP2 LT ISZERO PUSH2 0x392E JUMPI DUP2 DUP2 ADD MLOAD DUP4 DUP3 ADD MSTORE PUSH1 0x20 ADD PUSH2 0x3916 JUMP JUMPDEST DUP4 DUP2 GT ISZERO PUSH2 0x287F JUMPI POP POP PUSH1 0x0 SWAP2 ADD MSTORE JUMP JUMPDEST PUSH1 0x0 DUP2 PUSH2 0x394E JUMPI PUSH2 0x394E PUSH2 0x39A6 JUMP JUMPDEST POP PUSH1 0x0 NOT ADD SWAP1 JUMP JUMPDEST PUSH1 0x1 DUP2 DUP2 SHR SWAP1 DUP3 AND DUP1 PUSH2 0x396A JUMPI PUSH1 0x7F DUP3 AND SWAP2 POP JUMPDEST PUSH1 0x20 DUP3 LT DUP2 EQ ISZERO PUSH2 0x8BF JUMPI PUSH4 0x4E487B71 PUSH1 0xE0 SHL PUSH1 0x0 MSTORE PUSH1 0x22 PUSH1 0x4 MSTORE PUSH1 0x24 PUSH1 0x0 REVERT JUMPDEST PUSH1 0x0 PUSH1 0x0 NOT DUP3 EQ ISZERO PUSH2 0x399F JUMPI PUSH2 0x399F PUSH2 0x39A6 JUMP JUMPDEST POP PUSH1 0x1 ADD SWAP1 JUMP JUMPDEST PUSH4 0x4E487B71 PUSH1 0xE0 SHL PUSH1 0x0 MSTORE PUSH1 0x11 PUSH1 0x4 MSTORE PUSH1 0x24 PUSH1 0x0 REVERT JUMPDEST PUSH4 0x4E487B71 PUSH1 0xE0 SHL PUSH1 0x0 MSTORE PUSH1 0x31 PUSH1 0x4 MSTORE PUSH1 0x24 PUSH1 0x0 REVERT JUMPDEST PUSH4 0x4E487B71 PUSH1 0xE0 SHL PUSH1 0x0 MSTORE PUSH1 0x32 PUSH1 0x4 MSTORE PUSH1 0x24 PUSH1 0x0 REVERT JUMPDEST DUP1 ISZERO ISZERO DUP2 EQ PUSH2 0x39F6 JUMPI PUSH1 0x0 DUP1 REVERT JUMPDEST POP JUMP JUMPDEST PUSH1 0x1 PUSH1 0x1 PUSH1 0xE0 SHL SUB NOT DUP2 AND DUP2 EQ PUSH2 0x39F6 JUMPI PUSH1 0x0 DUP1 REVERT INVALID LOG2 PUSH5 0x6970667358 0x22 SLT KECCAK256 PUSH10 0xE8C803EE40B1BBD72D49 0xF8 0xED 0xCA SAR 0xD1 PC 0xCA CREATE PUSH9 0x632129B4FDF2BCD378 0xD4 0x24 0xFB PUSH5 0x736F6C6343 STOP ADDMOD SMOD STOP CALLER "
		},
		"gasEstimates": {
			"creation": {
				"codeDepositCost": "2983400",
				"executionCost": "infinite",
				"totalCost": "infinite"
			},
			"external": {
				"AuctionProgression(uint256)": "infinite",
				"Bid(uint256,uint256)": "infinite",
				"Claim(uint256)": "infinite",
				"_owner()": "2426",
				"addsharers(uint256,address,uint256)": "126768",
				"approve(address,uint256)": "infinite",
				"auctionState(uint256)": "9060",
				"balanceOf(address)": "infinite",
				"buyNFT(uint256)": "infinite",
				"getAddress()": "346",
				"getApproved(uint256)": "infinite",
				"initialize(uint256,bool,uint256,uint256)": "182769",
				"isApprovedForAll(address,address)": "infinite",
				"listNFTFromAuction()": "infinite",
				"listNFTOnAuction()": "infinite",
				"mint(address,uint256,string)": "infinite",
				"name()": "infinite",
				"ownerOf(uint256)": "infinite",
				"safeTransferFrom(address,address,uint256)": "infinite",
				"safeTransferFrom(address,address,uint256,bytes)": "infinite",
				"sellNFT(uint256)": "infinite",
				"setApprovalForAll(address,bool)": "26681",
				"setSharable(uint256,uint256)": "infinite",
				"showInfoOfNFT(uint256)": "infinite",
				"showLeftShare(uint256)": "2489",
				"showMyNFT()": "infinite",
				"showMySharerOfNFT(uint256)": "2561",
				"showNumOfSharers(uint256)": "2488",
				"showOwnershipChange(uint256)": "infinite",
				"showSharers(uint256)": "infinite",
				"showUseConditionOfNFT(uint256)": "infinite",
				"showValue(uint256)": "2483",
				"startAuction(address,uint256,address,uint256,uint256,uint256)": "infinite",
				"supportsInterface(bytes4)": "2588",
				"symbol()": "infinite",
				"test(uint256,address)": "infinite",
				"tokenURI(uint256)": "infinite",
				"transferFrom(address,address,uint256)": "infinite",
				"transferToContract()": "231",
				"useNFT(uint256)": "infinite"
			},
			"internal": {
				"transferFromERC20(contract IERC20,address,address,uint256)": "infinite"
			}
		},
		"methodIdentifiers": {
			"AuctionProgression(uint256)": "e9d2ebaf",
			"Bid(uint256,uint256)": "47a0375b",
			"Claim(uint256)": "7bb2b3c1",
			"_owner()": "b2bdfa7b",
			"addsharers(uint256,address,uint256)": "9a721a6c",
			"approve(address,uint256)": "095ea7b3",
			"auctionState(uint256)": "84861e93",
			"balanceOf(address)": "70a08231",
			"buyNFT(uint256)": "51ed8288",
			"getAddress()": "38cc4831",
			"getApproved(uint256)": "081812fc",
			"initialize(uint256,bool,uint256,uint256)": "e2334497",
			"isApprovedForAll(address,address)": "e985e9c5",
			"listNFTFromAuction()": "ceebcf29",
			"listNFTOnAuction()": "7ad64057",
			"mint(address,uint256,string)": "d3fc9864",
			"name()": "06fdde03",
			"ownerOf(uint256)": "6352211e",
			"safeTransferFrom(address,address,uint256)": "42842e0e",
			"safeTransferFrom(address,address,uint256,bytes)": "b88d4fde",
			"sellNFT(uint256)": "ee9cdfb3",
			"setApprovalForAll(address,bool)": "a22cb465",
			"setSharable(uint256,uint256)": "17fee5f9",
			"showInfoOfNFT(uint256)": "3b082419",
			"showLeftShare(uint256)": "59645dc6",
			"showMyNFT()": "352f946b",
			"showMySharerOfNFT(uint256)": "83f68703",
			"showNumOfSharers(uint256)": "e84f3261",
			"showOwnershipChange(uint256)": "ba82b5ac",
			"showSharers(uint256)": "2172d6b0",
			"showUseConditionOfNFT(uint256)": "baadf60e",
			"showValue(uint256)": "a21bf0d5",
			"startAuction(address,uint256,address,uint256,uint256,uint256)": "9b6fa995",
			"supportsInterface(bytes4)": "01ffc9a7",
			"symbol()": "95d89b41",
			"test(uint256,address)": "fb80fe9e",
			"tokenURI(uint256)": "c87b56dd",
			"transferFrom(address,address,uint256)": "23b872dd",
			"transferToContract()": "12cccb34",
			"useNFT(uint256)": "55b9d443"
		}
	},
	"abi": [
		{
			"anonymous": false,
			"inputs": [
				{
					"indexed": true,
					"internalType": "address",
					"name": "_owner",
					"type": "address"
				},
				{
					"indexed": true,
					"internalType": "address",
					"name": "_approved",
					"type": "address"
				},
				{
					"indexed": true,
					"internalType": "uint256",
					"name": "_tokenId",
					"type": "uint256"
				}
			],
			"name": "Approval",
			"type": "event"
		},
		{
			"anonymous": false,
			"inputs": [
				{
					"indexed": true,
					"internalType": "address",
					"name": "_owner",
					"type": "address"
				},
				{
					"indexed": true,
					"internalType": "address",
					"name": "_operator",
					"type": "address"
				},
				{
					"indexed": false,
					"internalType": "bool",
					"name": "_approved",
					"type": "bool"
				}
			],
			"name": "ApprovalForAll",
			"type": "event"
		},
		{
			"anonymous": false,
			"inputs": [
				{
					"indexed": true,
					"internalType": "address",
					"name": "previousOwner",
					"type": "address"
				},
				{
					"indexed": true,
					"internalType": "address",
					"name": "newOwner",
					"type": "address"
				}
			],
			"name": "OwnershipTransferred",
			"type": "event"
		},
		{
			"anonymous": false,
			"inputs": [
				{
					"indexed": true,
					"internalType": "address",
					"name": "_from",
					"type": "address"
				},
				{
					"indexed": true,
					"internalType": "address",
					"name": "_to",
					"type": "address"
				},
				{
					"indexed": true,
					"internalType": "uint256",
					"name": "_tokenId",
					"type": "uint256"
				}
			],
			"name": "Transfer",
			"type": "event"
		},
		{
			"inputs": [
				{
					"internalType": "uint256",
					"name": "_index",
					"type": "uint256"
				}
			],
			"name": "AuctionProgression",
			"outputs": [
				{
					"internalType": "address",
					"name": "_nftAddress",
					"type": "address"
				},
				{
					"internalType": "uint256",
					"name": "_nftId",
					"type": "uint256"
				},
				{
					"internalType": "address",
					"name": "_tokenAddress",
					"type": "address"
				},
				{
					"components": [
						{
							"internalType": "uint256",
							"name": "offer",
							"type": "uint256"
						},
						{
							"internalType": "address",
							"name": "offerers",
							"type": "address"
						},
						{
							"internalType": "uint256",
							"name": "time",
							"type": "uint256"
						}
					],
					"internalType": "struct AuctionSystem.History[]",
					"name": "_historyOffer",
					"type": "tuple[]"
				},
				{
					"internalType": "uint256",
					"name": "_startTime",
					"type": "uint256"
				},
				{
					"internalType": "uint256",
					"name": "_endTime",
					"type": "uint256"
				},
				{
					"internalType": "uint256",
					"name": "_bidCount",
					"type": "uint256"
				}
			],
			"stateMutability": "view",
			"type": "function"
		},
		{
			"inputs": [
				{
					"internalType": "uint256",
					"name": "_index",
					"type": "uint256"
				},
				{
					"internalType": "uint256",
					"name": "_offer",
					"type": "uint256"
				}
			],
			"name": "Bid",
			"outputs": [],
			"stateMutability": "payable",
			"type": "function"
		},
		{
			"inputs": [
				{
					"internalType": "uint256",
					"name": "_index",
					"type": "uint256"
				}
			],
			"name": "Claim",
			"outputs": [],
			"stateMutability": "payable",
			"type": "function"
		},
		{
			"inputs": [],
			"name": "_owner",
			"outputs": [
				{
					"internalType": "address",
					"name": "",
					"type": "address"
				}
			],
			"stateMutability": "view",
			"type": "function"
		},
		{
			"inputs": [
				{
					"internalType": "uint256",
					"name": "_tokenId",
					"type": "uint256"
				},
				{
					"internalType": "address",
					"name": "newSharer",
					"type": "address"
				},
				{
					"internalType": "uint256",
					"name": "share",
					"type": "uint256"
				}
			],
			"name": "addsharers",
			"outputs": [],
			"stateMutability": "nonpayable",
			"type": "function"
		},
		{
			"inputs": [
				{
					"internalType": "address",
					"name": "_approved",
					"type": "address"
				},
				{
					"internalType": "uint256",
					"name": "_tokenId",
					"type": "uint256"
				}
			],
			"name": "approve",
			"outputs": [],
			"stateMutability": "nonpayable",
			"type": "function"
		},
		{
			"inputs": [
				{
					"internalType": "uint256",
					"name": "_index",
					"type": "uint256"
				}
			],
			"name": "auctionState",
			"outputs": [
				{
					"internalType": "bool",
					"name": "result",
					"type": "bool"
				}
			],
			"stateMutability": "view",
			"type": "function"
		},
		{
			"inputs": [
				{
					"internalType": "address",
					"name": "_owner",
					"type": "address"
				}
			],
			"name": "balanceOf",
			"outputs": [
				{
					"internalType": "uint256",
					"name": "",
					"type": "uint256"
				}
			],
			"stateMutability": "view",
			"type": "function"
		},
		{
			"inputs": [
				{
					"internalType": "uint256",
					"name": "_tokenId",
					"type": "uint256"
				}
			],
			"name": "buyNFT",
			"outputs": [
				{
					"internalType": "uint256",
					"name": "shareGot",
					"type": "uint256"
				}
			],
			"stateMutability": "payable",
			"type": "function"
		},
		{
			"inputs": [],
			"name": "getAddress",
			"outputs": [
				{
					"internalType": "address",
					"name": "",
					"type": "address"
				}
			],
			"stateMutability": "view",
			"type": "function"
		},
		{
			"inputs": [
				{
					"internalType": "uint256",
					"name": "_tokenId",
					"type": "uint256"
				}
			],
			"name": "getApproved",
			"outputs": [
				{
					"internalType": "address",
					"name": "",
					"type": "address"
				}
			],
			"stateMutability": "view",
			"type": "function"
		},
		{
			"inputs": [
				{
					"internalType": "uint256",
					"name": "_tokenId",
					"type": "uint256"
				},
				{
					"internalType": "bool",
					"name": "_ifSharable",
					"type": "bool"
				},
				{
					"internalType": "uint256",
					"name": "value",
					"type": "uint256"
				},
				{
					"internalType": "uint256",
					"name": "_tax",
					"type": "uint256"
				}
			],
			"name": "initialize",
			"outputs": [],
			"stateMutability": "nonpayable",
			"type": "function"
		},
		{
			"inputs": [
				{
					"internalType": "address",
					"name": "_owner",
					"type": "address"
				},
				{
					"internalType": "address",
					"name": "_operator",
					"type": "address"
				}
			],
			"name": "isApprovedForAll",
			"outputs": [
				{
					"internalType": "bool",
					"name": "",
					"type": "bool"
				}
			],
			"stateMutability": "view",
			"type": "function"
		},
		{
			"inputs": [],
			"name": "listNFTFromAuction",
			"outputs": [
				{
					"internalType": "uint256[]",
					"name": "myresult",
					"type": "uint256[]"
				}
			],
			"stateMutability": "view",
			"type": "function"
		},
		{
			"inputs": [],
			"name": "listNFTOnAuction",
			"outputs": [
				{
					"internalType": "uint256[]",
					"name": "myresult",
					"type": "uint256[]"
				}
			],
			"stateMutability": "view",
			"type": "function"
		},
		{
			"inputs": [
				{
					"internalType": "address",
					"name": "_to",
					"type": "address"
				},
				{
					"internalType": "uint256",
					"name": "_tokenId",
					"type": "uint256"
				},
				{
					"internalType": "string",
					"name": "_uri",
					"type": "string"
				}
			],
			"name": "mint",
			"outputs": [],
			"stateMutability": "nonpayable",
			"type": "function"
		},
		{
			"inputs": [],
			"name": "name",
			"outputs": [
				{
					"internalType": "string",
					"name": "_name",
					"type": "string"
				}
			],
			"stateMutability": "view",
			"type": "function"
		},
		{
			"inputs": [
				{
					"internalType": "uint256",
					"name": "_tokenId",
					"type": "uint256"
				}
			],
			"name": "ownerOf",
			"outputs": [
				{
					"internalType": "address",
					"name": "_owner",
					"type": "address"
				}
			],
			"stateMutability": "view",
			"type": "function"
		},
		{
			"inputs": [
				{
					"internalType": "address",
					"name": "_from",
					"type": "address"
				},
				{
					"internalType": "address",
					"name": "_to",
					"type": "address"
				},
				{
					"internalType": "uint256",
					"name": "_tokenId",
					"type": "uint256"
				}
			],
			"name": "safeTransferFrom",
			"outputs": [],
			"stateMutability": "nonpayable",
			"type": "function"
		},
		{
			"inputs": [
				{
					"internalType": "address",
					"name": "_from",
					"type": "address"
				},
				{
					"internalType": "address",
					"name": "_to",
					"type": "address"
				},
				{
					"internalType": "uint256",
					"name": "_tokenId",
					"type": "uint256"
				},
				{
					"internalType": "bytes",
					"name": "_data",
					"type": "bytes"
				}
			],
			"name": "safeTransferFrom",
			"outputs": [],
			"stateMutability": "nonpayable",
			"type": "function"
		},
		{
			"inputs": [
				{
					"internalType": "uint256",
					"name": "_tokenId",
					"type": "uint256"
				}
			],
			"name": "sellNFT",
			"outputs": [
				{
					"internalType": "uint256",
					"name": "shareSold",
					"type": "uint256"
				}
			],
			"stateMutability": "payable",
			"type": "function"
		},
		{
			"inputs": [
				{
					"internalType": "address",
					"name": "_operator",
					"type": "address"
				},
				{
					"internalType": "bool",
					"name": "_approved",
					"type": "bool"
				}
			],
			"name": "setApprovalForAll",
			"outputs": [],
			"stateMutability": "nonpayable",
			"type": "function"
		},
		{
			"inputs": [
				{
					"internalType": "uint256",
					"name": "_tokenId",
					"type": "uint256"
				},
				{
					"internalType": "uint256",
					"name": "amount",
					"type": "uint256"
				}
			],
			"name": "setSharable",
			"outputs": [],
			"stateMutability": "nonpayable",
			"type": "function"
		},
		{
			"inputs": [
				{
					"internalType": "uint256",
					"name": "_tokenId",
					"type": "uint256"
				}
			],
			"name": "showInfoOfNFT",
			"outputs": [
				{
					"internalType": "bool",
					"name": "ifShared",
					"type": "bool"
				},
				{
					"internalType": "uint256",
					"name": "shareLeft",
					"type": "uint256"
				},
				{
					"internalType": "uint256",
					"name": "taxToPay",
					"type": "uint256"
				},
				{
					"internalType": "uint256",
					"name": "numOfSharers",
					"type": "uint256"
				},
				{
					"internalType": "address[]",
					"name": "ownersOfNFT",
					"type": "address[]"
				},
				{
					"internalType": "uint256",
					"name": "usedTime",
					"type": "uint256"
				},
				{
					"internalType": "address[]",
					"name": "usedBy",
					"type": "address[]"
				}
			],
			"stateMutability": "view",
			"type": "function"
		},
		{
			"inputs": [
				{
					"internalType": "uint256",
					"name": "_tokenId",
					"type": "uint256"
				}
			],
			"name": "showLeftShare",
			"outputs": [
				{
					"internalType": "uint256",
					"name": "left",
					"type": "uint256"
				}
			],
			"stateMutability": "view",
			"type": "function"
		},
		{
			"inputs": [],
			"name": "showMyNFT",
			"outputs": [
				{
					"internalType": "uint256[]",
					"name": "_myNFT",
					"type": "uint256[]"
				}
			],
			"stateMutability": "view",
			"type": "function"
		},
		{
			"inputs": [
				{
					"internalType": "uint256",
					"name": "_tokenId",
					"type": "uint256"
				}
			],
			"name": "showMySharerOfNFT",
			"outputs": [
				{
					"internalType": "uint256",
					"name": "myshare",
					"type": "uint256"
				}
			],
			"stateMutability": "view",
			"type": "function"
		},
		{
			"inputs": [
				{
					"internalType": "uint256",
					"name": "_tokenId",
					"type": "uint256"
				}
			],
			"name": "showNumOfSharers",
			"outputs": [
				{
					"internalType": "uint256",
					"name": "num",
					"type": "uint256"
				}
			],
			"stateMutability": "view",
			"type": "function"
		},
		{
			"inputs": [
				{
					"internalType": "uint256",
					"name": "_nftId",
					"type": "uint256"
				}
			],
			"name": "showOwnershipChange",
			"outputs": [
				{
					"components": [
						{
							"internalType": "address",
							"name": "owner",
							"type": "address"
						},
						{
							"internalType": "uint256",
							"name": "wayOfOwn",
							"type": "uint256"
						}
					],
					"internalType": "struct MusicNFT.NFTOwnership[]",
					"name": "ChangeOfNFTOwnership",
					"type": "tuple[]"
				}
			],
			"stateMutability": "view",
			"type": "function"
		},
		{
			"inputs": [
				{
					"internalType": "uint256",
					"name": "_tokenId",
					"type": "uint256"
				}
			],
			"name": "showSharers",
			"outputs": [
				{
					"internalType": "address[]",
					"name": "",
					"type": "address[]"
				}
			],
			"stateMutability": "view",
			"type": "function"
		},
		{
			"inputs": [
				{
					"internalType": "uint256",
					"name": "_tokenId",
					"type": "uint256"
				}
			],
			"name": "showUseConditionOfNFT",
			"outputs": [
				{
					"internalType": "uint256",
					"name": "",
					"type": "uint256"
				},
				{
					"internalType": "address[]",
					"name": "",
					"type": "address[]"
				}
			],
			"stateMutability": "view",
			"type": "function"
		},
		{
			"inputs": [
				{
					"internalType": "uint256",
					"name": "_tokenId",
					"type": "uint256"
				}
			],
			"name": "showValue",
			"outputs": [
				{
					"internalType": "uint256",
					"name": "value",
					"type": "uint256"
				}
			],
			"stateMutability": "view",
			"type": "function"
		},
		{
			"inputs": [
				{
					"internalType": "address",
					"name": "_nftAddress",
					"type": "address"
				},
				{
					"internalType": "uint256",
					"name": "_nftId",
					"type": "uint256"
				},
				{
					"internalType": "address",
					"name": "_tokenAddress",
					"type": "address"
				},
				{
					"internalType": "uint256",
					"name": "_startPrice",
					"type": "uint256"
				},
				{
					"internalType": "uint256",
					"name": "_startTime",
					"type": "uint256"
				},
				{
					"internalType": "uint256",
					"name": "_duration",
					"type": "uint256"
				}
			],
			"name": "startAuction",
			"outputs": [],
			"stateMutability": "payable",
			"type": "function"
		},
		{
			"inputs": [
				{
					"internalType": "bytes4",
					"name": "_interfaceID",
					"type": "bytes4"
				}
			],
			"name": "supportsInterface",
			"outputs": [
				{
					"internalType": "bool",
					"name": "",
					"type": "bool"
				}
			],
			"stateMutability": "view",
			"type": "function"
		},
		{
			"inputs": [],
			"name": "symbol",
			"outputs": [
				{
					"internalType": "string",
					"name": "_symbol",
					"type": "string"
				}
			],
			"stateMutability": "view",
			"type": "function"
		},
		{
			"inputs": [
				{
					"internalType": "uint256",
					"name": "amount",
					"type": "uint256"
				},
				{
					"internalType": "address",
					"name": "tokenAddr",
					"type": "address"
				}
			],
			"name": "test",
			"outputs": [],
			"stateMutability": "payable",
			"type": "function"
		},
		{
			"inputs": [
				{
					"internalType": "uint256",
					"name": "_tokenId",
					"type": "uint256"
				}
			],
			"name": "tokenURI",
			"outputs": [
				{
					"internalType": "string",
					"name": "",
					"type": "string"
				}
			],
			"stateMutability": "view",
			"type": "function"
		},
		{
			"inputs": [
				{
					"internalType": "address",
					"name": "_from",
					"type": "address"
				},
				{
					"internalType": "address",
					"name": "_to",
					"type": "address"
				},
				{
					"internalType": "uint256",
					"name": "_tokenId",
					"type": "uint256"
				}
			],
			"name": "transferFrom",
			"outputs": [],
			"stateMutability": "nonpayable",
			"type": "function"
		},
		{
			"inputs": [],
			"name": "transferToContract",
			"outputs": [],
			"stateMutability": "payable",
			"type": "function"
		},
		{
			"inputs": [
				{
					"internalType": "uint256",
					"name": "_tokenId",
					"type": "uint256"
				}
			],
			"name": "useNFT",
			"outputs": [
				{
					"internalType": "uint256",
					"name": "cost",
					"type": "uint256"
				}
			],
			"stateMutability": "payable",
			"type": "function"
		}
	]
}