{
  "contractName": "AuctionSystem",
  "abi": [
    {
      "anonymous": false,
      "inputs": [
        {
          "indexed": true,
          "internalType": "address",
          "name": "_owner",
          "type": "address"
        },
        {
          "indexed": true,
          "internalType": "address",
          "name": "_approved",
          "type": "address"
        },
        {
          "indexed": true,
          "internalType": "uint256",
          "name": "_tokenId",
          "type": "uint256"
        }
      ],
      "name": "Approval",
      "type": "event"
    },
    {
      "anonymous": false,
      "inputs": [
        {
          "indexed": true,
          "internalType": "address",
          "name": "_owner",
          "type": "address"
        },
        {
          "indexed": true,
          "internalType": "address",
          "name": "_operator",
          "type": "address"
        },
        {
          "indexed": false,
          "internalType": "bool",
          "name": "_approved",
          "type": "bool"
        }
      ],
      "name": "ApprovalForAll",
      "type": "event"
    },
    {
      "anonymous": false,
      "inputs": [
        {
          "indexed": true,
          "internalType": "address",
          "name": "previousOwner",
          "type": "address"
        },
        {
          "indexed": true,
          "internalType": "address",
          "name": "newOwner",
          "type": "address"
        }
      ],
      "name": "OwnershipTransferred",
      "type": "event"
    },
    {
      "anonymous": false,
      "inputs": [
        {
          "indexed": true,
          "internalType": "address",
          "name": "_from",
          "type": "address"
        },
        {
          "indexed": true,
          "internalType": "address",
          "name": "_to",
          "type": "address"
        },
        {
          "indexed": true,
          "internalType": "uint256",
          "name": "_tokenId",
          "type": "uint256"
        }
      ],
      "name": "Transfer",
      "type": "event"
    },
    {
      "inputs": [],
      "name": "_owner",
      "outputs": [
        {
          "internalType": "address",
          "name": "",
          "type": "address"
        }
      ],
      "stateMutability": "view",
      "type": "function",
      "constant": true
    },
    {
      "inputs": [
        {
          "internalType": "uint256",
          "name": "_tokenId",
          "type": "uint256"
        },
        {
          "internalType": "address",
          "name": "newSharer",
          "type": "address"
        },
        {
          "internalType": "uint256",
          "name": "share",
          "type": "uint256"
        }
      ],
      "name": "addsharers",
      "outputs": [],
      "stateMutability": "nonpayable",
      "type": "function"
    },
    {
      "inputs": [
        {
          "internalType": "address",
          "name": "_approved",
          "type": "address"
        },
        {
          "internalType": "uint256",
          "name": "_tokenId",
          "type": "uint256"
        }
      ],
      "name": "approve",
      "outputs": [],
      "stateMutability": "nonpayable",
      "type": "function"
    },
    {
      "inputs": [
        {
          "internalType": "address",
          "name": "_owner",
          "type": "address"
        }
      ],
      "name": "balanceOf",
      "outputs": [
        {
          "internalType": "uint256",
          "name": "",
          "type": "uint256"
        }
      ],
      "stateMutability": "view",
      "type": "function",
      "constant": true
    },
    {
      "inputs": [
        {
          "internalType": "uint256",
          "name": "_tokenId",
          "type": "uint256"
        }
      ],
      "name": "buyNFT",
      "outputs": [
        {
          "internalType": "uint256",
          "name": "shareGot",
          "type": "uint256"
        }
      ],
      "stateMutability": "payable",
      "type": "function",
      "payable": true
    },
    {
      "inputs": [],
      "name": "getAddress",
      "outputs": [
        {
          "internalType": "address",
          "name": "",
          "type": "address"
        }
      ],
      "stateMutability": "view",
      "type": "function",
      "constant": true
    },
    {
      "inputs": [
        {
          "internalType": "uint256",
          "name": "_tokenId",
          "type": "uint256"
        }
      ],
      "name": "getApproved",
      "outputs": [
        {
          "internalType": "address",
          "name": "",
          "type": "address"
        }
      ],
      "stateMutability": "view",
      "type": "function",
      "constant": true
    },
    {
      "inputs": [
        {
          "internalType": "uint256",
          "name": "_tokenId",
          "type": "uint256"
        },
        {
          "internalType": "bool",
          "name": "_ifSharable",
          "type": "bool"
        },
        {
          "internalType": "uint256",
          "name": "value",
          "type": "uint256"
        },
        {
          "internalType": "uint256",
          "name": "_tax",
          "type": "uint256"
        }
      ],
      "name": "initialize",
      "outputs": [],
      "stateMutability": "nonpayable",
      "type": "function"
    },
    {
      "inputs": [
        {
          "internalType": "address",
          "name": "_owner",
          "type": "address"
        },
        {
          "internalType": "address",
          "name": "_operator",
          "type": "address"
        }
      ],
      "name": "isApprovedForAll",
      "outputs": [
        {
          "internalType": "bool",
          "name": "",
          "type": "bool"
        }
      ],
      "stateMutability": "view",
      "type": "function",
      "constant": true
    },
    {
      "inputs": [
        {
          "internalType": "address",
          "name": "_to",
          "type": "address"
        },
        {
          "internalType": "uint256",
          "name": "_tokenId",
          "type": "uint256"
        },
        {
          "internalType": "string",
          "name": "_uri",
          "type": "string"
        }
      ],
      "name": "mint",
      "outputs": [],
      "stateMutability": "nonpayable",
      "type": "function"
    },
    {
      "inputs": [],
      "name": "name",
      "outputs": [
        {
          "internalType": "string",
          "name": "_name",
          "type": "string"
        }
      ],
      "stateMutability": "view",
      "type": "function",
      "constant": true
    },
    {
      "inputs": [
        {
          "internalType": "uint256",
          "name": "_tokenId",
          "type": "uint256"
        }
      ],
      "name": "ownerOf",
      "outputs": [
        {
          "internalType": "address",
          "name": "_owner",
          "type": "address"
        }
      ],
      "stateMutability": "view",
      "type": "function",
      "constant": true
    },
    {
      "inputs": [
        {
          "internalType": "address",
          "name": "_from",
          "type": "address"
        },
        {
          "internalType": "address",
          "name": "_to",
          "type": "address"
        },
        {
          "internalType": "uint256",
          "name": "_tokenId",
          "type": "uint256"
        }
      ],
      "name": "safeTransferFrom",
      "outputs": [],
      "stateMutability": "nonpayable",
      "type": "function"
    },
    {
      "inputs": [
        {
          "internalType": "address",
          "name": "_from",
          "type": "address"
        },
        {
          "internalType": "address",
          "name": "_to",
          "type": "address"
        },
        {
          "internalType": "uint256",
          "name": "_tokenId",
          "type": "uint256"
        },
        {
          "internalType": "bytes",
          "name": "_data",
          "type": "bytes"
        }
      ],
      "name": "safeTransferFrom",
      "outputs": [],
      "stateMutability": "nonpayable",
      "type": "function"
    },
    {
      "inputs": [
        {
          "internalType": "uint256",
          "name": "_tokenId",
          "type": "uint256"
        }
      ],
      "name": "sellNFT",
      "outputs": [
        {
          "internalType": "uint256",
          "name": "shareSold",
          "type": "uint256"
        }
      ],
      "stateMutability": "payable",
      "type": "function",
      "payable": true
    },
    {
      "inputs": [
        {
          "internalType": "address",
          "name": "_operator",
          "type": "address"
        },
        {
          "internalType": "bool",
          "name": "_approved",
          "type": "bool"
        }
      ],
      "name": "setApprovalForAll",
      "outputs": [],
      "stateMutability": "nonpayable",
      "type": "function"
    },
    {
      "inputs": [
        {
          "internalType": "uint256",
          "name": "_tokenId",
          "type": "uint256"
        },
        {
          "internalType": "uint256",
          "name": "amount",
          "type": "uint256"
        }
      ],
      "name": "setSharable",
      "outputs": [],
      "stateMutability": "nonpayable",
      "type": "function"
    },
    {
      "inputs": [
        {
          "internalType": "uint256",
          "name": "_tokenId",
          "type": "uint256"
        }
      ],
      "name": "showInfoOfNFT",
      "outputs": [
        {
          "internalType": "bool",
          "name": "ifShared",
          "type": "bool"
        },
        {
          "internalType": "uint256",
          "name": "shareLeft",
          "type": "uint256"
        },
        {
          "internalType": "uint256",
          "name": "taxToPay",
          "type": "uint256"
        },
        {
          "internalType": "uint256",
          "name": "numOfSharers",
          "type": "uint256"
        },
        {
          "internalType": "address[]",
          "name": "ownersOfNFT",
          "type": "address[]"
        },
        {
          "internalType": "uint256",
          "name": "usedTime",
          "type": "uint256"
        },
        {
          "internalType": "address[]",
          "name": "usedBy",
          "type": "address[]"
        }
      ],
      "stateMutability": "view",
      "type": "function",
      "constant": true
    },
    {
      "inputs": [
        {
          "internalType": "uint256",
          "name": "_tokenId",
          "type": "uint256"
        }
      ],
      "name": "showLeftShare",
      "outputs": [
        {
          "internalType": "uint256",
          "name": "left",
          "type": "uint256"
        }
      ],
      "stateMutability": "view",
      "type": "function",
      "constant": true
    },
    {
      "inputs": [],
      "name": "showMyNFT",
      "outputs": [
        {
          "internalType": "uint256[]",
          "name": "_myNFT",
          "type": "uint256[]"
        }
      ],
      "stateMutability": "view",
      "type": "function",
      "constant": true
    },
    {
      "inputs": [
        {
          "internalType": "uint256",
          "name": "_tokenId",
          "type": "uint256"
        }
      ],
      "name": "showMySharerOfNFT",
      "outputs": [
        {
          "internalType": "uint256",
          "name": "myshare",
          "type": "uint256"
        }
      ],
      "stateMutability": "view",
      "type": "function",
      "constant": true
    },
    {
      "inputs": [
        {
          "internalType": "uint256",
          "name": "_tokenId",
          "type": "uint256"
        }
      ],
      "name": "showNumOfSharers",
      "outputs": [
        {
          "internalType": "uint256",
          "name": "num",
          "type": "uint256"
        }
      ],
      "stateMutability": "view",
      "type": "function",
      "constant": true
    },
    {
      "inputs": [
        {
          "internalType": "uint256",
          "name": "_nftId",
          "type": "uint256"
        }
      ],
      "name": "showOwnershipChange",
      "outputs": [
        {
          "components": [
            {
              "internalType": "address",
              "name": "owner",
              "type": "address"
            },
            {
              "internalType": "uint256",
              "name": "wayOfOwn",
              "type": "uint256"
            }
          ],
          "internalType": "struct MusicNFT.NFTOwnership[]",
          "name": "ChangeOfNFTOwnership",
          "type": "tuple[]"
        }
      ],
      "stateMutability": "view",
      "type": "function",
      "constant": true
    },
    {
      "inputs": [
        {
          "internalType": "uint256",
          "name": "_tokenId",
          "type": "uint256"
        }
      ],
      "name": "showSharers",
      "outputs": [
        {
          "internalType": "address[]",
          "name": "",
          "type": "address[]"
        }
      ],
      "stateMutability": "view",
      "type": "function",
      "constant": true
    },
    {
      "inputs": [
        {
          "internalType": "uint256",
          "name": "_tokenId",
          "type": "uint256"
        }
      ],
      "name": "showUseConditionOfNFT",
      "outputs": [
        {
          "internalType": "uint256",
          "name": "",
          "type": "uint256"
        },
        {
          "internalType": "address[]",
          "name": "",
          "type": "address[]"
        }
      ],
      "stateMutability": "view",
      "type": "function",
      "constant": true
    },
    {
      "inputs": [
        {
          "internalType": "uint256",
          "name": "_tokenId",
          "type": "uint256"
        }
      ],
      "name": "showValue",
      "outputs": [
        {
          "internalType": "uint256",
          "name": "value",
          "type": "uint256"
        }
      ],
      "stateMutability": "view",
      "type": "function",
      "constant": true
    },
    {
      "inputs": [
        {
          "internalType": "bytes4",
          "name": "_interfaceID",
          "type": "bytes4"
        }
      ],
      "name": "supportsInterface",
      "outputs": [
        {
          "internalType": "bool",
          "name": "",
          "type": "bool"
        }
      ],
      "stateMutability": "view",
      "type": "function",
      "constant": true
    },
    {
      "inputs": [],
      "name": "symbol",
      "outputs": [
        {
          "internalType": "string",
          "name": "_symbol",
          "type": "string"
        }
      ],
      "stateMutability": "view",
      "type": "function",
      "constant": true
    },
    {
      "inputs": [
        {
          "internalType": "uint256",
          "name": "_tokenId",
          "type": "uint256"
        }
      ],
      "name": "tokenURI",
      "outputs": [
        {
          "internalType": "string",
          "name": "",
          "type": "string"
        }
      ],
      "stateMutability": "view",
      "type": "function",
      "constant": true
    },
    {
      "inputs": [
        {
          "internalType": "address",
          "name": "_from",
          "type": "address"
        },
        {
          "internalType": "address",
          "name": "_to",
          "type": "address"
        },
        {
          "internalType": "uint256",
          "name": "_tokenId",
          "type": "uint256"
        }
      ],
      "name": "transferFrom",
      "outputs": [],
      "stateMutability": "nonpayable",
      "type": "function"
    },
    {
      "inputs": [],
      "name": "transferToContract",
      "outputs": [],
      "stateMutability": "payable",
      "type": "function",
      "payable": true
    },
    {
      "inputs": [
        {
          "internalType": "uint256",
          "name": "_tokenId",
          "type": "uint256"
        }
      ],
      "name": "useNFT",
      "outputs": [
        {
          "internalType": "uint256",
          "name": "cost",
          "type": "uint256"
        }
      ],
      "stateMutability": "payable",
      "type": "function",
      "payable": true
    },
    {
      "inputs": [],
      "name": "listNFTOnAuction",
      "outputs": [
        {
          "internalType": "uint256[]",
          "name": "myresult",
          "type": "uint256[]"
        }
      ],
      "stateMutability": "view",
      "type": "function",
      "constant": true
    },
    {
      "inputs": [],
      "name": "listNFTFromAuction",
      "outputs": [
        {
          "internalType": "uint256[]",
          "name": "myresult",
          "type": "uint256[]"
        }
      ],
      "stateMutability": "view",
      "type": "function",
      "constant": true
    },
    {
      "inputs": [
        {
          "internalType": "uint256",
          "name": "_index",
          "type": "uint256"
        }
      ],
      "name": "AuctionProgression",
      "outputs": [
        {
          "internalType": "address",
          "name": "_nftAddress",
          "type": "address"
        },
        {
          "internalType": "uint256",
          "name": "_nftId",
          "type": "uint256"
        },
        {
          "internalType": "address",
          "name": "_tokenAddress",
          "type": "address"
        },
        {
          "components": [
            {
              "internalType": "uint256",
              "name": "offer",
              "type": "uint256"
            },
            {
              "internalType": "address",
              "name": "offerers",
              "type": "address"
            },
            {
              "internalType": "uint256",
              "name": "time",
              "type": "uint256"
            }
          ],
          "internalType": "struct AuctionSystem.History[]",
          "name": "_historyOffer",
          "type": "tuple[]"
        },
        {
          "internalType": "uint256",
          "name": "_startTime",
          "type": "uint256"
        },
        {
          "internalType": "uint256",
          "name": "_endTime",
          "type": "uint256"
        },
        {
          "internalType": "uint256",
          "name": "_bidCount",
          "type": "uint256"
        }
      ],
      "stateMutability": "view",
      "type": "function",
      "constant": true
    },
    {
      "inputs": [
        {
          "internalType": "address",
          "name": "_nftAddress",
          "type": "address"
        },
        {
          "internalType": "uint256",
          "name": "_nftId",
          "type": "uint256"
        },
        {
          "internalType": "address",
          "name": "_tokenAddress",
          "type": "address"
        },
        {
          "internalType": "uint256",
          "name": "_startPrice",
          "type": "uint256"
        },
        {
          "internalType": "uint256",
          "name": "_startTime",
          "type": "uint256"
        },
        {
          "internalType": "uint256",
          "name": "_duration",
          "type": "uint256"
        }
      ],
      "name": "startAuction",
      "outputs": [],
      "stateMutability": "payable",
      "type": "function",
      "payable": true
    },
    {
      "inputs": [
        {
          "internalType": "uint256",
          "name": "amount",
          "type": "uint256"
        },
        {
          "internalType": "address",
          "name": "tokenAddr",
          "type": "address"
        }
      ],
      "name": "test",
      "outputs": [],
      "stateMutability": "payable",
      "type": "function",
      "payable": true
    },
    {
      "inputs": [
        {
          "internalType": "uint256",
          "name": "_index",
          "type": "uint256"
        },
        {
          "internalType": "uint256",
          "name": "_offer",
          "type": "uint256"
        }
      ],
      "name": "Bid",
      "outputs": [],
      "stateMutability": "payable",
      "type": "function",
      "payable": true
    },
    {
      "inputs": [
        {
          "internalType": "uint256",
          "name": "_index",
          "type": "uint256"
        }
      ],
      "name": "auctionState",
      "outputs": [
        {
          "internalType": "bool",
          "name": "result",
          "type": "bool"
        }
      ],
      "stateMutability": "view",
      "type": "function",
      "constant": true
    },
    {
      "inputs": [
        {
          "internalType": "uint256",
          "name": "_index",
          "type": "uint256"
        }
      ],
      "name": "Claim",
      "outputs": [],
      "stateMutability": "payable",
      "type": "function",
      "payable": true
    }
  ],
  "bytecode": "0x60806040523480156200001157600080fd5b50600060208181527f67be87c3ff9960ca1e9cfac5cab2ff4747269cf9ed20c9b7306235ac35a491c58054600160ff1991821681179092557ff7815fccbf112960a73756e185887fedcb9fc64ca0a16cc5923b7960ed7808008054821683179055635b5e139f60e01b9093527f9562381dfbc2d8b8b66e765249f330164b73e329e5f01670660643571d1974df80549093161790915560088054336001600160a01b0319918216811790925560098054909116909117905560408051808201909152600c8082526b2530b1b5bc93b9902934b33360a11b91909201908152620000fe916005919062000133565b5060408051808201909152600480825263252924a360e11b60209092019182526200012c9160069162000133565b5062000216565b8280546200014190620001d9565b90600052602060002090601f016020900481019282620001655760008555620001b0565b82601f106200018057805160ff1916838001178555620001b0565b82800160010185558215620001b0579182015b82811115620001b057825182559160200191906001019062000193565b50620001be929150620001c2565b5090565b5b80821115620001be5760008155600101620001c3565b600181811c90821680620001ee57607f821691505b602082108114156200021057634e487b7160e01b600052602260045260246000fd5b50919050565b613cb780620002266000396000f3fe6080604052600436106102bb5760003560e01c806383f687031161016e578063baadf60e116100cb578063e84f32611161007f578063e9d2ebaf11610064578063e9d2ebaf146107d8578063ee9cdfb31461080b578063fb80fe9e1461081e57600080fd5b8063e84f32611461075f578063e985e9c51461078f57600080fd5b8063ceebcf29116100b0578063ceebcf291461070a578063d3fc98641461071f578063e23344971461073f57600080fd5b8063baadf60e146106bc578063c87b56dd146106ea57600080fd5b8063a21bf0d511610122578063b2bdfa7b11610107578063b2bdfa7b1461064f578063b88d4fde1461066f578063ba82b5ac1461068f57600080fd5b8063a21bf0d514610602578063a22cb4651461062f57600080fd5b806395d89b411161015357806395d89b41146105ba5780639a721a6c146105cf5780639b6fa995146105ef57600080fd5b806383f687031461055f57806384861e931461059a57600080fd5b80633b0824191161021c57806359645dc6116101d057806370a08231116101b557806370a08231146105175780637ad64057146105375780637bb2b3c11461054c57600080fd5b806359645dc6146104c75780636352211e146104f757600080fd5b806347a0375b1161020157806347a0375b1461048057806351ed82881461049357806355b9d443146104b457600080fd5b80633b0824191461042d57806342842e0e1461046057600080fd5b806317fee5f91161027357806323b872dd1161025857806323b872dd146103d8578063352f946b146103f857806338cc48311461041a57600080fd5b806317fee5f91461038b5780632172d6b0146103ab57600080fd5b8063081812fc116102a4578063081812fc14610331578063095ea7b31461036957806312cccb341461038957600080fd5b806301ffc9a7146102c057806306fdde031461030f575b600080fd5b3480156102cc57600080fd5b506102fa6102db366004613792565b6001600160e01b03191660009081526020819052604090205460ff1690565b60405190151581526020015b60405180910390f35b34801561031b57600080fd5b50610324610831565b6040516103069190613ae9565b34801561033d57600080fd5b5061035161034c3660046137cc565b6108c3565b6040516001600160a01b039091168152602001610306565b34801561037557600080fd5b50610389610384366004613699565b610945565b005b34801561039757600080fd5b506103896103a636600461386a565b610b15565b3480156103b757600080fd5b506103cb6103c63660046137cc565b610c11565b60405161030691906139e7565b3480156103e457600080fd5b506103896103f33660046135b7565b610c80565b34801561040457600080fd5b5061040d610efb565b6040516103069190613a52565b34801561042657600080fd5b5030610351565b34801561043957600080fd5b5061044d6104483660046137cc565b610f5b565b6040516103069796959493929190613a96565b34801561046c57600080fd5b5061038961047b3660046135b7565b61107d565b61038961048e36600461386a565b61109d565b6104a66104a13660046137cc565b6112aa565b604051908152602001610306565b6104a66104c23660046137cc565b61157a565b3480156104d357600080fd5b506104a66104e23660046137cc565b6000908152600a602052604090206005015490565b34801561050357600080fd5b506103516105123660046137cc565b611780565b34801561052357600080fd5b506104a6610532366004613562565b6117d8565b34801561054357600080fd5b5061040d611840565b61038961055a3660046137cc565b61189f565b34801561056b57600080fd5b506104a661057a3660046137cc565b6000908152600a6020908152604080832033845260020190915290205490565b3480156105a657600080fd5b506102fa6105b53660046137cc565b611baa565b3480156105c657600080fd5b50610324611c16565b3480156105db57600080fd5b506103896105ea366004613808565b611c25565b6103896105fd3660046136c3565b611c30565b34801561060e57600080fd5b506104a661061d3660046137cc565b6000908152600a602052604090205490565b34801561063b57600080fd5b5061038961064a366004613662565b611fd2565b34801561065b57600080fd5b50600954610351906001600160a01b031681565b34801561067b57600080fd5b5061038961068a3660046135f3565b61203e565b34801561069b57600080fd5b506106af6106aa3660046137cc565b612080565b60405161030691906139fa565b3480156106c857600080fd5b506106dc6106d73660046137cc565b612108565b604051610306929190613afc565b3480156106f657600080fd5b506103246107053660046137cc565b612187565b34801561071657600080fd5b5061040d612282565b34801561072b57600080fd5b5061038961073a36600461371b565b6122e1565b34801561074b57600080fd5b5061038961075a36600461382d565b61241b565b34801561076b57600080fd5b506104a661077a3660046137cc565b6000908152600a602052604090206004015490565b34801561079b57600080fd5b506102fa6107aa366004613584565b6001600160a01b03918216600090815260046020908152604080832093909416825291909152205460ff1690565b3480156107e457600080fd5b506107f86107f33660046137cc565b6124ed565b6040516103069796959493929190613954565b6104a66108193660046137cc565b6126a2565b61038961082c3660046137e5565b612a3b565b60606005805461084090613bc8565b80601f016020809104026020016040519081016040528092919081815260200182805461086c90613bc8565b80156108b95780601f1061088e576101008083540402835291602001916108b9565b820191906000526020600020905b81548152906001019060200180831161089c57829003601f168201915b5050505050905090565b6000818152600160209081526040808320548151808301909252600682526518181998181960d11b9282019290925283916001600160a01b03166109235760405162461bcd60e51b815260040161091a9190613ae9565b60405180910390fd5b506000838152600260205260409020546001600160a01b031691505b50919050565b60008181526001602052604090205481906001600160a01b03163381148061099057506001600160a01b038116600090815260046020908152604080832033845290915290205460ff165b6040518060400160405280600681526020017f3030333030330000000000000000000000000000000000000000000000000000815250906109e45760405162461bcd60e51b815260040161091a9190613ae9565b50600083815260016020908152604091829020548251808401909352600683526518181998181960d11b918301919091528491906001600160a01b0316610a3e5760405162461bcd60e51b815260040161091a9190613ae9565b50600084815260016020908152604091829020548251808401909352600683527f3030333030380000000000000000000000000000000000000000000000000000918301919091526001600160a01b0390811691908716821415610ab55760405162461bcd60e51b815260040161091a9190613ae9565b5060008581526002602052604080822080546001600160a01b0319166001600160a01b038a811691821790925591518893918516917f8c5be1e5ebec7d5bd14f71427d1e84f3dd0314c0f7b2291e5b200ac8c7c3b92591a4505050505050565b60008281526001602052604090205482906001600160a01b03163314610b745760405162461bcd60e51b81526020600482015260146024820152731393d517d5121157d3d5d3915497d3d197d3919560621b604482015260640161091a565b6000838152600a6020526040902060646005909101819055610ba49084903390610b9f908690613b6e565b612a4e565b6000838152600a6020526040812054606490610bc09085613b4f565b610bca9190613b2d565b9050336108fc610be283670de0b6b3a7640000613b4f565b6040518115909202916000818181858888f19350505050158015610c0a573d6000803e3d6000fd5b5050505050565b6000818152600a6020908152604091829020600301805483518184028101840190945280845260609392830182828015610c7457602002820191906000526020600020905b81546001600160a01b03168152600190910190602001808311610c56575b50505050509050919050565b60008181526001602052604090205481906001600160a01b031633811480610cbe57506000828152600260205260409020546001600160a01b031633145b80610cec57506001600160a01b038116600090815260046020908152604080832033845290915290205460ff165b604051806040016040528060068152602001650c0c0ccc0c0d60d21b81525090610d295760405162461bcd60e51b815260040161091a9190613ae9565b50600083815260016020908152604091829020548251808401909352600683526518181998181960d11b918301919091528491906001600160a01b0316610d835760405162461bcd60e51b815260040161091a9190613ae9565b50600084815260016020908152604091829020548251808401909352600683526530303330303760d01b918301919091526001600160a01b03908116919088168214610de25760405162461bcd60e51b815260040161091a9190613ae9565b5060408051808201909152600681526530303330303160d01b60208201526001600160a01b038716610e275760405162461bcd60e51b815260040161091a9190613ae9565b506000858152600a602052604090206001015460ff1615610e8a5760405162461bcd60e51b815260206004820152600f60248201527f4e46545f4245454e5f5354414b45440000000000000000000000000000000000604482015260640161091a565b6040805180820182526001600160a01b0388811682526001602080840182815260008b8152600b83529586208054808501825590875291909520845160029092020180546001600160a01b031916919093161782559251920191909155610ef18787612c32565b5050505050505050565b336000908152600d60209081526040918290208054835181840281018401909452808452606093928301828280156108b957602002820191906000526020600020905b815481526020019060010190808311610f3e575050505050905090565b6000818152600a60209081526040808320600180820154600583015460068401546004850154600c885286892094850154600390960180548851818b0281018b019099528089528a998a998a996060998b998b9960ff909116989097909690959094929360029092019285919083018282801561100157602002820191906000526020600020905b81546001600160a01b03168152600190910190602001808311610fe3575b505050505092508080548060200260200160405190810160405280929190818152602001828054801561105d57602002820191906000526020600020905b81546001600160a01b0316815260019091019060200180831161103f575b505050505090509650965096509650965096509650919395979092949650565b61109883838360405180602001604052806000815250612cbd565b505050565b6000600e83815481106110b2576110b2613c44565b90600052602060002090600902019050806006015482116111155760405162461bcd60e51b815260206004820152600f60248201527f4e4f545f484947485f454e4f5547480000000000000000000000000000000000604482015260640161091a565b806005015481600401546111299190613b15565b42106111775760405162461bcd60e51b815260206004820152600b60248201527f41554354494f4e5f454e44000000000000000000000000000000000000000000604482015260640161091a565b60028101546001600160a01b031661119181333086612f81565b5060088201541561120957600782015460068301546111bd91839130916001600160a01b031690612f81565b6112095760405162461bcd60e51b815260206004820152600d60248201527f45524332302d4641494c55524500000000000000000000000000000000000000604482015260640161091a565b60088201805490600061121b83613bfd565b909155505050600681018290556007018054336001600160a01b03199182168117909255604080516060810182529384526020808501938452428583019081526000968752601182529186208054600181810183559188529190962094516003909102909401938455915193830180549091166001600160a01b03909416939093179092559051600290910155565b6000806112bf670de0b6b3a764000034613b2d565b6000848152600a602052604090206001015490915060ff166113235760405162461bcd60e51b815260206004820152601060248201527f4e46545f4e4f545f5348415241424c4500000000000000000000000000000000604482015260640161091a565b6000838152600a60205260409020600501546113815760405162461bcd60e51b815260206004820152601260248201527f4e46545f53484152455f534f4c445f4f55540000000000000000000000000000604482015260640161091a565b6000838152600a602052604090205461139c90606490613b2d565b8110156113eb5760405162461bcd60e51b815260206004820152601460248201527f4e4f545f454e4f5547485f544f5f4255595f3125000000000000000000000000604482015260640161091a565b6000838152600a602052604090206005810154905460649161140c91613b4f565b6114169190613b2d565b8111156114655760405162461bcd60e51b815260206004820152600e60248201527f544f4f5f4d5543485f4d4f4e4559000000000000000000000000000000000000604482015260640161091a565b6000838152600a602052604090205461147f826064613b4f565b6114899190613b2d565b6000848152600a60205260409020600501549092506114a9908390613b6e565b6000848152600a60209081526040808320600581019490945533835260029093019052205461152c576000838152600a60205260409020600401546114ef906001613b15565b6000848152600a6020908152604082206004810193909355600390920180546001810182559082529190200180546001600160a01b031916331790555b6000838152600a60209081526040808320338452600201909152902054611554908390613b15565b6000938452600a6020908152604080862033875260020190915290932092909255919050565b6000818152600c602052604081208281556001018054908261159b83613bfd565b9091555050506000818152600c6020908152604080832060020180546001810182559084528284200180546001600160a01b03191633179055838352600a9091528120600301548190815b8115611657576000858152600a6020526040902060030180548490811061160f5761160f613c44565b6000918252602090912001546001600160a01b031633141561163757506000905060016115e6565b8261164181613bfd565b935050818061164f90613bb1565b9250506115e6565b60008080808461177457506000888152600a6020526040902060068101546003909101549097505b8015611774576000898152600a602052604090206003018054839081106116a8576116a8613c44565b60009182526020808320909101548b8352600a825260408084206001600160a01b0390921680855260029092019092529120549094509250816116ea81613bfd565b92505080806116f890613bb1565b60008b8152600a60205260409020600601549092506001600160a01b03861691506108fc9060649061172a9087613b4f565b6117349190613b2d565b61174690670de0b6b3a7640000613b4f565b6040518115909202916000818181858888f1935050505015801561176e573d6000803e3d6000fd5b5061167f565b50505050505050919050565b600081815260016020908152604091829020548251808401909352600683526518181998181960d11b918301919091526001600160a01b0316908161093f5760405162461bcd60e51b815260040161091a9190613ae9565b60408051808201909152600681526530303330303160d01b60208201526000906001600160a01b03831661181f5760405162461bcd60e51b815260040161091a9190613ae9565b506001600160a01b0382166000908152600360205260409020545b92915050565b336000908152600f60209081526040918290208054835181840281018401909452808452606093928301828280156108b95760200282019190600052602060002090815481526020019060010190808311610f3e575050505050905090565b6118a881611baa565b6118f45760405162461bcd60e51b815260206004820152600f60248201527f41554354494f4e5f4e4f545f454e440000000000000000000000000000000000604482015260640161091a565b336001600160a01b0316600e828154811061191157611911613c44565b60009182526020909120600760099092020101546001600160a01b03161461197b5760405162461bcd60e51b815260206004820152600760248201527f4e4f545f594f5500000000000000000000000000000000000000000000000000604482015260640161091a565b6000600e828154811061199057611990613c44565b906000526020600020906009020160000160009054906101000a90046001600160a01b03169050806001600160a01b03166323b872dd3033600e86815481106119db576119db613c44565b60009182526020909120600160099092020101546040516001600160e01b031960e086901b1681526001600160a01b0393841660048201529290911660248301526044820152606401600060405180830381600087803b158015611a3e57600080fd5b505af1158015611a52573d6000803e3d6000fd5b5050505060006040518060400160405280336001600160a01b0316815260200160028152509050600b6000600e8581548110611a9057611a90613c44565b9060005260206000209060090201600101548152602001908152602001600020805480611abf57611abf613c2e565b60008281526020812060026000199093019283020180546001600160a01b03191681556001018190559155600e8054600b92919086908110611b0357611b03613c44565b6000918252602080832060016009909302018201548452838101949094526040928301822080548083018255908352848320865160029092020180546001600160a01b039092166001600160a01b03199092169190911781558585015191015533815260109092529020600e805485908110611b8157611b81613c44565b600091825260208083206001600990930201820154845492830185559383529091200155505050565b6000600e8281548110611bbf57611bbf613c44565b906000526020600020906009020160050154600e8381548110611be457611be4613c44565b906000526020600020906009020160040154611c009190613b15565b421015611c0e57600061183a565b600192915050565b60606006805461084090613bc8565b611098838383612a4e565b6000858152600a602052604090206001015460ff1615611c925760405162461bcd60e51b815260206004820152600b60248201527f4e4f545f53414c41424c45000000000000000000000000000000000000000000604482015260640161091a565b6000858152600a602052604081206003018054339290611cb457611cb4613c44565b6000918252602090912001546001600160a01b031614611d165760405162461bcd60e51b815260206004820152600d60248201527f4e4f545f5448455f4f574e455200000000000000000000000000000000000000604482015260640161091a565b811580611d235750428210155b611d6f5760405162461bcd60e51b815260206004820152601360248201527f53544152545f54494d455f49535f57524f4e4700000000000000000000000000604482015260640161091a565b81611d78574291505b6000604051806101200160405280886001600160a01b03168152602001878152602001866001600160a01b03168152602001336001600160a01b03168152602001848152602001838152602001858152602001336001600160a01b0316815260200160008152509050600e81908060018154018082558091505060019003906000526020600020906009020160009091909190915060008201518160000160006101000a8154816001600160a01b0302191690836001600160a01b031602179055506020820151816001015560408201518160020160006101000a8154816001600160a01b0302191690836001600160a01b0316021790555060608201518160030160006101000a8154816001600160a01b0302191690836001600160a01b031602179055506080820151816004015560a0820151816005015560c0820151816006015560e08201518160070160006101000a8154816001600160a01b0302191690836001600160a01b0316021790555061010082015181600801555050600f6000336001600160a01b03166001600160a01b031681526020019081526020016000208690806001815401808255809150506001900390600052602060002001600090919091909150556000879050806001600160a01b03166323b872dd33308a6040518463ffffffff1660e01b8152600401611f96939291906001600160a01b039384168152919092166020820152604081019190915260600190565b600060405180830381600087803b158015611fb057600080fd5b505af1158015611fc4573d6000803e3d6000fd5b505050505050505050505050565b3360008181526004602090815260408083206001600160a01b03871680855290835292819020805460ff191686151590811790915590519081529192917f17307eab39ab6107e8899845ad3d59bd9653f200f220920489ca2b5937696c31910160405180910390a35050565b610c0a85858585858080601f016020809104026020016040519081016040528093929190818152602001838380828437600092019190915250612cbd92505050565b6060600b6000838152602001908152602001600020805480602002602001604051908101604052809291908181526020016000905b828210156120fd576000848152602090819020604080518082019091526002850290910180546001600160a01b031682526001908101548284015290835290920191016120b5565b505050509050919050565b6000818152600c602090815260408083206001810154600290910180548351818602810186019094528084526060949293919283919083018282801561217757602002820191906000526020600020905b81546001600160a01b03168152600190910190602001808311612159575b5050505050905091509150915091565b600081815260016020908152604091829020548251808401909352600683526518181998181960d11b9183019190915260609183916001600160a01b03166121e25760405162461bcd60e51b815260040161091a9190613ae9565b50600083815260076020526040902080546121fc90613bc8565b80601f016020809104026020016040519081016040528092919081815260200182805461222890613bc8565b80156122755780601f1061224a57610100808354040283529160200191612275565b820191906000526020600020905b81548152906001019060200180831161225857829003601f168201915b5050505050915050919050565b336000908152601060209081526040918290208054835181840281018401909452808452606093928301828280156108b95760200282019190600052602060002090815481526020019060010190808311610f3e575050505050905090565b60085460408051808201909152600681527f30313830303100000000000000000000000000000000000000000000000000006020820152906001600160a01b031633146123415760405162461bcd60e51b815260040161091a9190613ae9565b5061234c8484613094565b61238c8383838080601f01602080910402602001604051908101604052809392919081815260200183838082843760009201919091525061317792505050565b50506000818152600a602090815260408083206001908101805460ff19169055338452600d83528184208054808301825590855283852001859055815180830183526001600160a01b039687168152808401858152958552600b84529184208054808301825590855292909320905160029092020180546001600160a01b031916919094161783559051910155565b60008481526001602052604090205484906001600160a01b0316331461247a5760405162461bcd60e51b81526020600482015260146024820152731393d517d5121157d3d5d3915497d3d197d3919560621b604482015260640161091a565b600184151514156124b2576000858152600a602052604090206001908101805460ff191690911790556124ad85836131f0565b6124e3565b6000858152600a6020526040902060018101805460ff19169055606460059091018190556124e39086903390612a4e565b610c0a8584613265565b600080600060606000806000600e8054905088111561254e5760405162461bcd60e51b815260206004820152601160248201527f41554354494f4e5f4e4f545f464f554e44000000000000000000000000000000604482015260640161091a565b6000600e898154811061256357612563613c44565b600091825260208083206040805161012081018252600990940290910180546001600160a01b0390811680865260018301548686018190526002840154831687860181905260038501548416606089015260048501546080890152600585015460a0890152600685015460c0890152600785015490931660e08801526008909301546101008701528f8752601185528387208054855181880281018801909652808652919f50929d50909b50939550909390929184015b8282101561266f5760008481526020908190206040805160608101825260038602909201805483526001808201546001600160a01b03168486015260029091015491830191909152908352909201910161261a565b50505050608082015160a0830151919650945061268c9085613b15565b9250806101000151915050919395979092949650565b6000806126b7670de0b6b3a764000034613b2d565b6000848152600a60205260409020549091506126d590606490613b2d565b8110156127245760405162461bcd60e51b815260206004820152601560248201527f4e4f545f454e4f5547485f544f5f53454c4c5f31250000000000000000000000604482015260640161091a565b6000838152600a6020818152604080842033855260028101835290842054938790529190525460649161275691613b4f565b6127609190613b2d565b8111156127af5760405162461bcd60e51b815260206004820152601a60248201527f544f4f5f4d5543485f4d4f4e45595f544f5f53454c4c5f414c4c000000000000604482015260640161091a565b6000838152600a60205260409020546127c9826064613b4f565b6127d39190613b2d565b6000848152600a60205260409020600501549092506127f3908390613b15565b6000848152600a6020818152604080842060058101959095553384526002850182528320549287905252905460649161282b91613b4f565b6128359190613b2d565b8114156129be576000838152600a602052604090206004015461285a90600190613b6e565b6000848152600a60205260408120600401919091555b6000848152600a6020526040902033906003018261288d81613bfd565b93508154811061289f5761289f613c44565b6000918252602090912001546001600160a01b0316146128be57612870565b6000848152600a602052604090206003015481101561297a576000848152600a602052604090206003018054829081106128fa576128fa613c44565b6000918252602080832090910154868352600a90915260409091206001600160a01b039091169060030161292f600184613b6e565b8154811061293f5761293f613c44565b600091825260209091200180546001600160a01b0319166001600160a01b03929092169190911790558061297281613bfd565b9150506128be565b6000848152600a6020526040902060030180548061299a5761299a613c2e565b600082815260209020810160001990810180546001600160a01b0319169055019055505b6000838152600a602090815260408083203384526002019091529020546129e6908390613b6e565b6000848152600a602090815260408083203380855260029091019092528083209390935591513480156108fc0292909190818181858888f19350505050158015612a34573d6000803e3d6000fd5b5050919050565b80612a4881333086612f81565b50505050565b60008381526001602052604090205483906001600160a01b03163314612aad5760405162461bcd60e51b81526020600482015260146024820152731393d517d5121157d3d5d3915497d3d197d3919560621b604482015260640161091a565b6000848152600a602090815260408083206001600160a01b038716845260020190915290205415612b205760405162461bcd60e51b815260206004820152601060248201527f414c52454144595f415f53484152455200000000000000000000000000000000604482015260640161091a565b60018210158015612b4257506000848152600a60205260409020600501548211155b612b8e5760405162461bcd60e51b815260206004820152600d60248201527f53484152455f494e56414c494400000000000000000000000000000000000000604482015260640161091a565b6000848152600a6020526040902060040154612bab906001613b15565b6000858152600a6020818152604080842060048101959095556001600160a01b0388168452600285018252832086905591879052905260050154612bf0908390613b6e565b6000948552600a602090815260408620600581019290925560039091018054600181018255908652942090930180546001600160a01b03191633179055505050565b600081815260016020908152604080832054600290925290912080546001600160a01b03191690556001600160a01b0316612c6d81836132d7565b612c778383613380565b81836001600160a01b0316826001600160a01b03167fddf252ad1be2c89b69c2b068fc378daa952ba7f163c4a11628f55a4df523b3ef60405160405180910390a4505050565b60008281526001602052604090205482906001600160a01b031633811480612cfb57506000828152600260205260409020546001600160a01b031633145b80612d2957506001600160a01b038116600090815260046020908152604080832033845290915290205460ff165b604051806040016040528060068152602001650c0c0ccc0c0d60d21b81525090612d665760405162461bcd60e51b815260040161091a9190613ae9565b50600084815260016020908152604091829020548251808401909352600683526518181998181960d11b918301919091528591906001600160a01b0316612dc05760405162461bcd60e51b815260040161091a9190613ae9565b50600085815260016020908152604091829020548251808401909352600683526530303330303760d01b918301919091526001600160a01b03908116919089168214612e1f5760405162461bcd60e51b815260040161091a9190613ae9565b5060408051808201909152600681526530303330303160d01b60208201526001600160a01b038816612e645760405162461bcd60e51b815260040161091a9190613ae9565b50612e6f8787612c32565b612e81876001600160a01b0316613428565b15610ef157604051630a85bd0160e11b81526000906001600160a01b0389169063150b7a0290612ebb9033908d908c908c90600401613918565b602060405180830381600087803b158015612ed557600080fd5b505af1158015612ee9573d6000803e3d6000fd5b505050506040513d601f19601f82011682018060405250810190612f0d91906137af565b60408051808201909152600681527f303033303035000000000000000000000000000000000000000000000000000060208201529091506001600160e01b03198216630a85bd0160e11b14612f755760405162461bcd60e51b815260040161091a9190613ae9565b50505050505050505050565b6040516001600160a01b038481166024830152838116604483015260648201839052600091829182919088169060840160408051601f198184030181529181526020820180517bffffffffffffffffffffffffffffffffffffffffffffffffffffffff167f23b872dd000000000000000000000000000000000000000000000000000000001790525161301491906138fc565b6000604051808303816000865af19150503d8060008114613051576040519150601f19603f3d011682016040523d82523d6000602084013e613056565b606091505b5091509150600081516000148061307c57508180602001905181019061307c9190613775565b90508280156130885750805b98975050505050505050565b60408051808201909152600681526530303330303160d01b60208201526001600160a01b0383166130d85760405162461bcd60e51b815260040161091a9190613ae9565b50600081815260016020908152604091829020548251808401909352600683526518181998181b60d11b918301919091526001600160a01b0316156131305760405162461bcd60e51b815260040161091a9190613ae9565b5061313b8282613380565b60405181906001600160a01b038416906000907fddf252ad1be2c89b69c2b068fc378daa952ba7f163c4a11628f55a4df523b3ef908290a45050565b600082815260016020908152604091829020548251808401909352600683526518181998181960d11b918301919091528391906001600160a01b03166131d05760405162461bcd60e51b815260040161091a9190613ae9565b5060008381526007602090815260409091208351612a4892850190613464565b60008281526001602052604090205482906001600160a01b0316331461324f5760405162461bcd60e51b81526020600482015260146024820152731393d517d5121157d3d5d3915497d3d197d3919560621b604482015260640161091a565b506000918252600a602052604090912060060155565b60008281526001602052604090205482906001600160a01b031633146132c45760405162461bcd60e51b81526020600482015260146024820152731393d517d5121157d3d5d3915497d3d197d3919560621b604482015260640161091a565b506000918252600a602052604090912055565b600081815260016020908152604091829020548251808401909352600683526530303330303760d01b918301919091526001600160a01b038481169116146133325760405162461bcd60e51b815260040161091a9190613ae9565b506001600160a01b038216600090815260036020526040812080546001929061335c908490613b6e565b9091555050600090815260016020526040902080546001600160a01b031916905550565b600081815260016020908152604091829020548251808401909352600683526518181998181b60d11b918301919091526001600160a01b0316156133d75760405162461bcd60e51b815260040161091a9190613ae9565b50600081815260016020818152604080842080546001600160a01b0319166001600160a01b03881690811790915584526003909152822080549192909161341f908490613b15565b90915550505050565b6000813f7fc5d2460186f7233c927e7db2dcc703c0e500b653ca82273b7bfad8045d85a470811580159061345c5750808214155b949350505050565b82805461347090613bc8565b90600052602060002090601f01602090048101928261349257600085556134d8565b82601f106134ab57805160ff19168380011785556134d8565b828001600101855582156134d8579182015b828111156134d85782518255916020019190600101906134bd565b506134e49291506134e8565b5090565b5b808211156134e457600081556001016134e9565b80356001600160a01b038116811461351457600080fd5b919050565b60008083601f84011261352b57600080fd5b50813567ffffffffffffffff81111561354357600080fd5b60208301915083602082850101111561355b57600080fd5b9250929050565b60006020828403121561357457600080fd5b61357d826134fd565b9392505050565b6000806040838503121561359757600080fd5b6135a0836134fd565b91506135ae602084016134fd565b90509250929050565b6000806000606084860312156135cc57600080fd5b6135d5846134fd565b92506135e3602085016134fd565b9150604084013590509250925092565b60008060008060006080868803121561360b57600080fd5b613614866134fd565b9450613622602087016134fd565b935060408601359250606086013567ffffffffffffffff81111561364557600080fd5b61365188828901613519565b969995985093965092949392505050565b6000806040838503121561367557600080fd5b61367e836134fd565b9150602083013561368e81613c5a565b809150509250929050565b600080604083850312156136ac57600080fd5b6136b5836134fd565b946020939093013593505050565b60008060008060008060c087890312156136dc57600080fd5b6136e5876134fd565b9550602087013594506136fa604088016134fd565b9350606087013592506080870135915060a087013590509295509295509295565b6000806000806060858703121561373157600080fd5b61373a856134fd565b935060208501359250604085013567ffffffffffffffff81111561375d57600080fd5b61376987828801613519565b95989497509550505050565b60006020828403121561378757600080fd5b815161357d81613c5a565b6000602082840312156137a457600080fd5b813561357d81613c6b565b6000602082840312156137c157600080fd5b815161357d81613c6b565b6000602082840312156137de57600080fd5b5035919050565b600080604083850312156137f857600080fd5b823591506135ae602084016134fd565b60008060006060848603121561381d57600080fd5b833592506135e3602085016134fd565b6000806000806080858703121561384357600080fd5b84359350602085013561385581613c5a565b93969395505050506040820135916060013590565b6000806040838503121561387d57600080fd5b50508035926020909101359150565b600081518084526020808501945080840160005b838110156138c55781516001600160a01b0316875295820195908201906001016138a0565b509495945050505050565b600081518084526138e8816020860160208601613b85565b601f01601f19169290920160200192915050565b6000825161390e818460208701613b85565b9190910192915050565b60006001600160a01b0380871683528086166020840152508360408301526080606083015261394a60808301846138d0565b9695505050505050565b600060e082016001600160a01b03808b16845260208a818601526040828b1681870152606060e081880152848b5180875261010089019150848d01965060005b818110156139c35787518051845286810151881687850152850151858401529685019691830191600101613994565b5050608088019a909a525050505060a08301949094525060c0015250949350505050565b60208152600061357d602083018461388c565b602080825282518282018190526000919060409081850190868401855b82811015613a4557815180516001600160a01b03168552860151868501529284019290850190600101613a17565b5091979650505050505050565b6020808252825182820181905260009190848201906040850190845b81811015613a8a57835183529284019291840191600101613a6e565b50909695505050505050565b871515815286602082015285604082015284606082015260e060808201526000613ac360e083018661388c565b8460a084015282810360c0840152613adb818561388c565b9a9950505050505050505050565b60208152600061357d60208301846138d0565b82815260406020820152600061345c604083018461388c565b60008219821115613b2857613b28613c18565b500190565b600082613b4a57634e487b7160e01b600052601260045260246000fd5b500490565b6000816000190483118215151615613b6957613b69613c18565b500290565b600082821015613b8057613b80613c18565b500390565b60005b83811015613ba0578181015183820152602001613b88565b83811115612a485750506000910152565b600081613bc057613bc0613c18565b506000190190565b600181811c90821680613bdc57607f821691505b6020821081141561093f57634e487b7160e01b600052602260045260246000fd5b6000600019821415613c1157613c11613c18565b5060010190565b634e487b7160e01b600052601160045260246000fd5b634e487b7160e01b600052603160045260246000fd5b634e487b7160e01b600052603260045260246000fd5b8015158114613c6857600080fd5b50565b6001600160e01b031981168114613c6857600080fdfea2646970667358221220d14f859bc0d7e85b75e9da3b48909f1c193d2c40fb11483b9af3fbce2e5ab89864736f6c63430008060033",
  "immutableReferences": {},
  "source": "// SPDX-License-Identifier: MIT\r\npragma solidity ^0.8.0;\r\n\r\nimport \"./MusicNFT.sol\";\r\nimport \"./MyToken.sol\";\r\n// import \"../node_modules/@openzeppelin/contracts/utils/math/SafeMath.sol\";\r\nimport \"./ERC20/IERC20.sol\";\r\n\r\ncontract AuctionSystem is MusicNFT{\r\n    \r\n   \r\n    struct Auction{\r\n        address nftAddress;\r\n        uint256 nftId;\r\n        address tokenAddress;\r\n        address creator;\r\n        uint256 startTime;\r\n        uint256 duration;\r\n        uint256 currentBidAmount;\r\n        address currentBidOwner;\r\n        uint256 bidCount;\r\n        // mapping(uint256 => History) historyOffer;\r\n        // History[] historyOffer;\r\n    }\r\n    Auction[] private auctions;\r\n\r\n    mapping(address=>uint256[]) myNFTOnAuction;\r\n    function listNFTOnAuction()\r\n    public\r\n    view\r\n    returns(uint256[] memory myresult)\r\n    {\r\n        return(myNFTOnAuction[msg.sender]);\r\n    }\r\n\r\n    mapping(address => uint256[]) myNFTFromAuction;\r\n    function listNFTFromAuction()\r\n    public\r\n    view\r\n    returns(uint256[] memory myresult)\r\n    {\r\n        return(myNFTFromAuction[msg.sender]);\r\n    }\r\n    \r\n    mapping(uint256 => History[]) historyOffer;\r\n    struct History{\r\n        uint256 offer;\r\n        address offerers;\r\n        uint256 time;\r\n    }\r\n\r\n    function AuctionProgression(\r\n        uint256 _index\r\n    )\r\n    public\r\n    view\r\n    returns(\r\n        address _nftAddress,\r\n        uint256 _nftId,\r\n        address _tokenAddress,\r\n        History[] memory _historyOffer,\r\n        uint256 _startTime,\r\n        uint256 _endTime,\r\n        uint256 _bidCount\r\n    )\r\n    {\r\n        require(_index <= auctions.length,\"AUCTION_NOT_FOUND\");\r\n        Auction memory auction = auctions[_index];\r\n        _nftAddress = auction.nftAddress;\r\n        _nftId = auction.nftId;\r\n        _tokenAddress = auction.tokenAddress;\r\n        _historyOffer = historyOffer[_index];\r\n        _startTime = auction.startTime;\r\n        _endTime = auction.startTime+auction.duration;\r\n        _bidCount = auction.bidCount;\r\n    }\r\n\r\n    function startAuction(\r\n        address _nftAddress,\r\n        uint256 _nftId,\r\n        address _tokenAddress,\r\n        uint256 _startPrice,\r\n        uint256 _startTime,\r\n        uint256 _duration\r\n    )\r\n    public\r\n    payable\r\n    {\r\n        require(idToNFT[_nftId].ifShared == false,\"NOT_SALABLE\");\r\n        require(idToNFT[_nftId].owners[0] == msg.sender,\"NOT_THE_OWNER\");\r\n        require(_startTime == 0 || _startTime >=block.timestamp,\"START_TIME_IS_WRONG\");\r\n        if(_startTime == 0)\r\n            _startTime = block.timestamp;\r\n\r\n        Auction memory auction = Auction({\r\n            creator: msg.sender,\r\n            nftAddress: _nftAddress,\r\n            nftId: _nftId,\r\n            tokenAddress: _tokenAddress,\r\n            startTime: _startTime,\r\n            duration: _duration,\r\n            currentBidAmount: _startPrice,\r\n            currentBidOwner: msg.sender,\r\n            bidCount: 0\r\n            // historyOffer: _history\r\n        });\r\n        auctions.push(auction);\r\n        myNFTOnAuction[msg.sender].push(_nftId);\r\n\r\n        /*msg.senderallowance*/\r\n        ERC721 myERC721 = ERC721(_nftAddress);\r\n        myERC721.transferFrom(payable(msg.sender), address(this), _nftId);\r\n    }\r\n\r\n\r\n        \r\n    function test(uint256 amount, address tokenAddr)\r\n    public\r\n    payable\r\n    {\r\n        IERC20 token = IERC20(tokenAddr);\r\n        transferFromERC20(token,payable(msg.sender),address(this),amount);\r\n        // token.approve(msg.sender,amount);\r\n        // token.transferFrom(payable(msg.sender),payable(address(this)),amount);\r\n        // payable(address(this)).transfer(amount);\r\n    }\r\n    \r\n    \r\n    function Bid(\r\n        uint256 _index,\r\n        uint256 _offer\r\n    )\r\n    public\r\n    payable\r\n    {\r\n        Auction storage auction = auctions[_index];\r\n        require(_offer > auction.currentBidAmount,\"NOT_HIGH_ENOUGH\");\r\n        require(block.timestamp < auction.startTime+auction.duration,\"AUCTION_END\");\r\n\r\n        /*msg.senderallowance*/\r\n        IERC20 token = IERC20(auction.tokenAddress);\r\n        transferFromERC20(token,payable(msg.sender),address(this),_offer);\r\n        // token.transferFrom(msg.sender,address(this),_offer);\r\n\r\n        if(auction.bidCount!=0)\r\n            require(transferFromERC20(token,payable(address(this)),auction.currentBidOwner,auction.currentBidAmount),\"ERC20-FAILURE\");\r\n            // require(token.transferFrom(address(this), auction.currentBidOwner, auction.currentBidAmount*10**2),\"ERC20-ERROR\");\r\n\r\n        auction.bidCount++;\r\n        auction.currentBidAmount = _offer;\r\n        auction.currentBidOwner = msg.sender;\r\n\r\n        History memory history = History({\r\n            offer: _offer,\r\n            offerers: msg.sender,\r\n            time: block.timestamp\r\n        });\r\n        historyOffer[_index].push(history);\r\n    }\r\n    \r\n    function auctionState(\r\n        uint256 _index\r\n    )\r\n    public\r\n    view\r\n    returns(bool result)\r\n    {\r\n        result = block.timestamp>=auctions[_index].startTime+auctions[_index].duration? true : false;\r\n    }\r\n    \r\n    function Claim(\r\n        uint256 _index\r\n    )\r\n    public\r\n    payable\r\n    {\r\n        require(auctionState(_index),\"AUCTION_NOT_END\");\r\n        require(auctions[_index].currentBidOwner == msg.sender,\"NOT_YOU\");\r\n\r\n        ERC721 myERC721 = ERC721(auctions[_index].nftAddress);\r\n        myERC721.transferFrom(payable(address(this)), msg.sender, auctions[_index].nftId);\r\n\r\n        NFTOwnership memory temp = NFTOwnership({owner:msg.sender,wayOfOwn:2});\r\n        OwnershipChange[auctions[_index].nftId].pop();\r\n        OwnershipChange[auctions[_index].nftId].push(temp);\r\n        myNFTFromAuction[msg.sender].push(auctions[_index].nftId);\r\n    }\r\n    \r\n\r\n    function transferFromERC20(\r\n        IERC20 _token,\r\n        address _from,\r\n        address _to,\r\n        uint256 _amount\r\n    )\r\n    internal\r\n    returns (bool)\r\n    {\r\n        (bool callSuccess, bytes memory callReturnValueEncoded) = address(_token).call(\r\n            abi.encodeWithSignature(\"transferFrom(address,address,uint256)\", _from, _to, _amount)\r\n        );\r\n        // `transferFrom` method may return (bool) or nothing.\r\n        bool returnedSuccess = callReturnValueEncoded.length == 0 || abi.decode(callReturnValueEncoded, (bool));\r\n        return callSuccess && returnedSuccess;\r\n    }\r\n}",
  "sourcePath": "C:\\Users\\jacky\\Desktop\\JRiffAuction\\contracts\\AuctionSystem.sol",
  "compiler": {
    "name": "solc",
    "version": "0.8.6+commit.11564f7e.Emscripten.clang"
  },
  "schemaVersion": "3.4.3",
  "updatedAt": "2021-11-06T16:31:00.246Z",
  "networkType": "ethereum",
  "devdoc": {
    "kind": "dev",
    "methods": {
      "approve(address,uint256)": {
        "details": "Set or reaffirm the approved address for an NFT. This function can be changed to payable.",
        "params": {
          "_approved": "Address to be approved for the given NFT ID.",
          "_tokenId": "ID of the token to be approved."
        }
      },
      "balanceOf(address)": {
        "details": "Returns the number of NFTs owned by `_owner`. NFTs assigned to the zero address are considered invalid, and this function throws for queries about the zero address.",
        "params": {
          "_owner": "Address for whom to query the balance."
        },
        "returns": {
          "_0": "Balance of _owner."
        }
      },
      "getApproved(uint256)": {
        "details": "Get the approved address for a single NFT.",
        "params": {
          "_tokenId": "ID of the NFT to query the approval of."
        },
        "returns": {
          "_0": "Address that _tokenId is approved for."
        }
      },
      "isApprovedForAll(address,address)": {
        "details": "Checks if `_operator` is an approved operator for `_owner`.",
        "params": {
          "_operator": "The address that acts on behalf of the owner.",
          "_owner": "The address that owns the NFTs."
        },
        "returns": {
          "_0": "True if approved for all, false otherwise."
        }
      },
      "mint(address,uint256,string)": {
        "details": "Mints a new NFT.",
        "params": {
          "_to": "The address that will own the minted NFT.",
          "_tokenId": "of the NFT to be minted by the msg.sender.",
          "_uri": "String representing RFC 3986 URI."
        }
      },
      "name()": {
        "details": "Returns a descriptive name for a collection of NFTokens.",
        "returns": {
          "_name": "Representing name."
        }
      },
      "ownerOf(uint256)": {
        "details": "Returns the address of the owner of the NFT. NFTs assigned to the zero address are considered invalid, and queries about them do throw.",
        "params": {
          "_tokenId": "The identifier for an NFT."
        },
        "returns": {
          "_owner": "Address of _tokenId owner."
        }
      },
      "safeTransferFrom(address,address,uint256)": {
        "details": "Transfers the ownership of an NFT from one address to another address. This function can be changed to payable.",
        "params": {
          "_from": "The current owner of the NFT.",
          "_to": "The new owner.",
          "_tokenId": "The NFT to transfer."
        }
      },
      "safeTransferFrom(address,address,uint256,bytes)": {
        "details": "Transfers the ownership of an NFT from one address to another address. This function can be changed to payable.",
        "params": {
          "_data": "Additional data with no specified format, sent in call to `_to`.",
          "_from": "The current owner of the NFT.",
          "_to": "The new owner.",
          "_tokenId": "The NFT to transfer."
        }
      },
      "setApprovalForAll(address,bool)": {
        "details": "Enables or disables approval for a third party (\"operator\") to manage all of `msg.sender`'s assets. It also emits the ApprovalForAll event.",
        "params": {
          "_approved": "True if the operators is approved, false to revoke approval.",
          "_operator": "Address to add to the set of authorized operators."
        }
      },
      "supportsInterface(bytes4)": {
        "details": "Function to check which interfaces are suported by this contract.",
        "params": {
          "_interfaceID": "Id of the interface."
        },
        "returns": {
          "_0": "True if _interfaceID is supported, false otherwise."
        }
      },
      "symbol()": {
        "details": "Returns an abbreviated name for NFTokens.",
        "returns": {
          "_symbol": "Representing symbol."
        }
      },
      "tokenURI(uint256)": {
        "details": "A distinct URI (RFC 3986) for a given NFT.",
        "params": {
          "_tokenId": "Id for which we want uri."
        },
        "returns": {
          "_0": "URI of _tokenId."
        }
      }
    },
    "version": 1
  },
  "userdoc": {
    "kind": "user",
    "methods": {
      "addsharers(uint256,address,uint256)": {
        "notice": "NFT holder can add sharers himself without having buyer conduct a transaction"
      },
      "approve(address,uint256)": {
        "notice": "The zero address indicates there is no approved address. Throws unless `msg.sender` is the current NFT owner, or an authorized operator of the current owner."
      },
      "buyNFT(uint256)": {
        "notice": "Buy some share of a certain NFT "
      },
      "getApproved(uint256)": {
        "notice": "Throws if `_tokenId` is not a valid NFT."
      },
      "initialize(uint256,bool,uint256,uint256)": {
        "notice": "Execution Function"
      },
      "safeTransferFrom(address,address,uint256)": {
        "notice": "This works identically to the other function with an extra data parameter, except this function just sets data to \"\"."
      },
      "safeTransferFrom(address,address,uint256,bytes)": {
        "notice": "Throws unless `msg.sender` is the current owner, an authorized operator, or the approved address for this NFT. Throws if `_from` is not the current owner. Throws if `_to` is the zero address. Throws if `_tokenId` is not a valid NFT. When transfer is complete, this function checks if `_to` is a smart contract (code size > 0). If so, it calls `onERC721Received` on `_to` and throws if the return value is not `bytes4(keccak256(\"onERC721Received(address,uint256,bytes)\"))`."
      },
      "setApprovalForAll(address,bool)": {
        "notice": "This works even if sender doesn't own any tokens at the time."
      },
      "showInfoOfNFT(uint256)": {
        "notice": "View Function"
      },
      "showValue(uint256)": {
        "notice": "show the value of each NFT can be seen by everyone"
      },
      "transferFrom(address,address,uint256)": {
        "notice": "Execution Function"
      }
    },
    "version": 1
  }
}