{
  "contractName": "MusicNFT",
  "abi": [
    {
      "inputs": [],
      "stateMutability": "payable",
      "type": "constructor"
    },
    {
      "anonymous": false,
      "inputs": [
        {
          "indexed": true,
          "internalType": "address",
          "name": "_owner",
          "type": "address"
        },
        {
          "indexed": true,
          "internalType": "address",
          "name": "_approved",
          "type": "address"
        },
        {
          "indexed": true,
          "internalType": "uint256",
          "name": "_tokenId",
          "type": "uint256"
        }
      ],
      "name": "Approval",
      "type": "event"
    },
    {
      "anonymous": false,
      "inputs": [
        {
          "indexed": true,
          "internalType": "address",
          "name": "_owner",
          "type": "address"
        },
        {
          "indexed": true,
          "internalType": "address",
          "name": "_operator",
          "type": "address"
        },
        {
          "indexed": false,
          "internalType": "bool",
          "name": "_approved",
          "type": "bool"
        }
      ],
      "name": "ApprovalForAll",
      "type": "event"
    },
    {
      "anonymous": false,
      "inputs": [
        {
          "indexed": true,
          "internalType": "address",
          "name": "previousOwner",
          "type": "address"
        },
        {
          "indexed": true,
          "internalType": "address",
          "name": "newOwner",
          "type": "address"
        }
      ],
      "name": "OwnershipTransferred",
      "type": "event"
    },
    {
      "anonymous": false,
      "inputs": [
        {
          "indexed": true,
          "internalType": "address",
          "name": "_from",
          "type": "address"
        },
        {
          "indexed": true,
          "internalType": "address",
          "name": "_to",
          "type": "address"
        },
        {
          "indexed": true,
          "internalType": "uint256",
          "name": "_tokenId",
          "type": "uint256"
        }
      ],
      "name": "Transfer",
      "type": "event"
    },
    {
      "inputs": [],
      "name": "_owner",
      "outputs": [
        {
          "internalType": "address",
          "name": "",
          "type": "address"
        }
      ],
      "stateMutability": "view",
      "type": "function"
    },
    {
      "inputs": [
        {
          "internalType": "address",
          "name": "_approved",
          "type": "address"
        },
        {
          "internalType": "uint256",
          "name": "_tokenId",
          "type": "uint256"
        }
      ],
      "name": "approve",
      "outputs": [],
      "stateMutability": "nonpayable",
      "type": "function"
    },
    {
      "inputs": [
        {
          "internalType": "address",
          "name": "_owner",
          "type": "address"
        }
      ],
      "name": "balanceOf",
      "outputs": [
        {
          "internalType": "uint256",
          "name": "",
          "type": "uint256"
        }
      ],
      "stateMutability": "view",
      "type": "function"
    },
    {
      "inputs": [
        {
          "internalType": "uint256",
          "name": "_tokenId",
          "type": "uint256"
        }
      ],
      "name": "getApproved",
      "outputs": [
        {
          "internalType": "address",
          "name": "",
          "type": "address"
        }
      ],
      "stateMutability": "view",
      "type": "function"
    },
    {
      "inputs": [
        {
          "internalType": "address",
          "name": "_owner",
          "type": "address"
        },
        {
          "internalType": "address",
          "name": "_operator",
          "type": "address"
        }
      ],
      "name": "isApprovedForAll",
      "outputs": [
        {
          "internalType": "bool",
          "name": "",
          "type": "bool"
        }
      ],
      "stateMutability": "view",
      "type": "function"
    },
    {
      "inputs": [],
      "name": "name",
      "outputs": [
        {
          "internalType": "string",
          "name": "_name",
          "type": "string"
        }
      ],
      "stateMutability": "view",
      "type": "function"
    },
    {
      "inputs": [
        {
          "internalType": "uint256",
          "name": "_tokenId",
          "type": "uint256"
        }
      ],
      "name": "ownerOf",
      "outputs": [
        {
          "internalType": "address",
          "name": "_owner",
          "type": "address"
        }
      ],
      "stateMutability": "view",
      "type": "function"
    },
    {
      "inputs": [
        {
          "internalType": "address",
          "name": "_from",
          "type": "address"
        },
        {
          "internalType": "address",
          "name": "_to",
          "type": "address"
        },
        {
          "internalType": "uint256",
          "name": "_tokenId",
          "type": "uint256"
        }
      ],
      "name": "safeTransferFrom",
      "outputs": [],
      "stateMutability": "nonpayable",
      "type": "function"
    },
    {
      "inputs": [
        {
          "internalType": "address",
          "name": "_from",
          "type": "address"
        },
        {
          "internalType": "address",
          "name": "_to",
          "type": "address"
        },
        {
          "internalType": "uint256",
          "name": "_tokenId",
          "type": "uint256"
        },
        {
          "internalType": "bytes",
          "name": "_data",
          "type": "bytes"
        }
      ],
      "name": "safeTransferFrom",
      "outputs": [],
      "stateMutability": "nonpayable",
      "type": "function"
    },
    {
      "inputs": [
        {
          "internalType": "address",
          "name": "_operator",
          "type": "address"
        },
        {
          "internalType": "bool",
          "name": "_approved",
          "type": "bool"
        }
      ],
      "name": "setApprovalForAll",
      "outputs": [],
      "stateMutability": "nonpayable",
      "type": "function"
    },
    {
      "inputs": [
        {
          "internalType": "bytes4",
          "name": "_interfaceID",
          "type": "bytes4"
        }
      ],
      "name": "supportsInterface",
      "outputs": [
        {
          "internalType": "bool",
          "name": "",
          "type": "bool"
        }
      ],
      "stateMutability": "view",
      "type": "function"
    },
    {
      "inputs": [],
      "name": "symbol",
      "outputs": [
        {
          "internalType": "string",
          "name": "_symbol",
          "type": "string"
        }
      ],
      "stateMutability": "view",
      "type": "function"
    },
    {
      "inputs": [
        {
          "internalType": "uint256",
          "name": "_tokenId",
          "type": "uint256"
        }
      ],
      "name": "tokenURI",
      "outputs": [
        {
          "internalType": "string",
          "name": "",
          "type": "string"
        }
      ],
      "stateMutability": "view",
      "type": "function"
    },
    {
      "inputs": [],
      "name": "transferToContract",
      "outputs": [],
      "stateMutability": "payable",
      "type": "function"
    },
    {
      "inputs": [
        {
          "internalType": "address",
          "name": "_to",
          "type": "address"
        },
        {
          "internalType": "uint256",
          "name": "_tokenId",
          "type": "uint256"
        },
        {
          "internalType": "string",
          "name": "_uri",
          "type": "string"
        }
      ],
      "name": "mint",
      "outputs": [],
      "stateMutability": "nonpayable",
      "type": "function"
    },
    {
      "inputs": [
        {
          "internalType": "uint256",
          "name": "_nftId",
          "type": "uint256"
        }
      ],
      "name": "showOwnershipChange",
      "outputs": [
        {
          "components": [
            {
              "internalType": "address",
              "name": "owner",
              "type": "address"
            },
            {
              "internalType": "uint256",
              "name": "wayOfOwn",
              "type": "uint256"
            }
          ],
          "internalType": "struct MusicNFT.NFTOwnership[]",
          "name": "ChangeOfNFTOwnership",
          "type": "tuple[]"
        }
      ],
      "stateMutability": "view",
      "type": "function"
    },
    {
      "inputs": [
        {
          "internalType": "uint256",
          "name": "_tokenId",
          "type": "uint256"
        }
      ],
      "name": "showValue",
      "outputs": [
        {
          "internalType": "uint256",
          "name": "value",
          "type": "uint256"
        }
      ],
      "stateMutability": "view",
      "type": "function"
    },
    {
      "inputs": [],
      "name": "showMyNFT",
      "outputs": [
        {
          "internalType": "uint256[]",
          "name": "_myNFT",
          "type": "uint256[]"
        }
      ],
      "stateMutability": "view",
      "type": "function"
    },
    {
      "inputs": [
        {
          "internalType": "address",
          "name": "_from",
          "type": "address"
        },
        {
          "internalType": "address",
          "name": "_to",
          "type": "address"
        },
        {
          "internalType": "uint256",
          "name": "_tokenId",
          "type": "uint256"
        }
      ],
      "name": "transferFrom",
      "outputs": [],
      "stateMutability": "nonpayable",
      "type": "function"
    },
    {
      "inputs": [
        {
          "internalType": "uint256",
          "name": "_tokenId",
          "type": "uint256"
        }
      ],
      "name": "showInfoOfNFT",
      "outputs": [
        {
          "internalType": "bool",
          "name": "ifShared",
          "type": "bool"
        },
        {
          "internalType": "uint256",
          "name": "shareLeft",
          "type": "uint256"
        },
        {
          "internalType": "uint256",
          "name": "taxToPay",
          "type": "uint256"
        },
        {
          "internalType": "uint256",
          "name": "numOfSharers",
          "type": "uint256"
        },
        {
          "internalType": "address[]",
          "name": "ownersOfNFT",
          "type": "address[]"
        },
        {
          "internalType": "uint256",
          "name": "usedTime",
          "type": "uint256"
        },
        {
          "internalType": "address[]",
          "name": "usedBy",
          "type": "address[]"
        }
      ],
      "stateMutability": "view",
      "type": "function"
    },
    {
      "inputs": [
        {
          "internalType": "uint256",
          "name": "_tokenId",
          "type": "uint256"
        }
      ],
      "name": "showMySharerOfNFT",
      "outputs": [
        {
          "internalType": "uint256",
          "name": "myshare",
          "type": "uint256"
        }
      ],
      "stateMutability": "view",
      "type": "function"
    },
    {
      "inputs": [
        {
          "internalType": "uint256",
          "name": "_tokenId",
          "type": "uint256"
        }
      ],
      "name": "showLeftShare",
      "outputs": [
        {
          "internalType": "uint256",
          "name": "left",
          "type": "uint256"
        }
      ],
      "stateMutability": "view",
      "type": "function"
    },
    {
      "inputs": [
        {
          "internalType": "uint256",
          "name": "_tokenId",
          "type": "uint256"
        }
      ],
      "name": "showNumOfSharers",
      "outputs": [
        {
          "internalType": "uint256",
          "name": "num",
          "type": "uint256"
        }
      ],
      "stateMutability": "view",
      "type": "function"
    },
    {
      "inputs": [
        {
          "internalType": "uint256",
          "name": "_tokenId",
          "type": "uint256"
        }
      ],
      "name": "showSharers",
      "outputs": [
        {
          "internalType": "address[]",
          "name": "",
          "type": "address[]"
        }
      ],
      "stateMutability": "view",
      "type": "function"
    },
    {
      "inputs": [
        {
          "internalType": "uint256",
          "name": "_tokenId",
          "type": "uint256"
        }
      ],
      "name": "showUseConditionOfNFT",
      "outputs": [
        {
          "internalType": "uint256",
          "name": "",
          "type": "uint256"
        },
        {
          "internalType": "address[]",
          "name": "",
          "type": "address[]"
        }
      ],
      "stateMutability": "view",
      "type": "function"
    },
    {
      "inputs": [
        {
          "internalType": "uint256",
          "name": "_tokenId",
          "type": "uint256"
        },
        {
          "internalType": "bool",
          "name": "_ifSharable",
          "type": "bool"
        },
        {
          "internalType": "uint256",
          "name": "value",
          "type": "uint256"
        },
        {
          "internalType": "uint256",
          "name": "_tax",
          "type": "uint256"
        }
      ],
      "name": "initialize",
      "outputs": [],
      "stateMutability": "nonpayable",
      "type": "function"
    },
    {
      "inputs": [
        {
          "internalType": "uint256",
          "name": "_tokenId",
          "type": "uint256"
        },
        {
          "internalType": "uint256",
          "name": "amount",
          "type": "uint256"
        }
      ],
      "name": "setSharable",
      "outputs": [],
      "stateMutability": "nonpayable",
      "type": "function"
    },
    {
      "inputs": [
        {
          "internalType": "uint256",
          "name": "_tokenId",
          "type": "uint256"
        },
        {
          "internalType": "address",
          "name": "newSharer",
          "type": "address"
        },
        {
          "internalType": "uint256",
          "name": "share",
          "type": "uint256"
        }
      ],
      "name": "addsharers",
      "outputs": [],
      "stateMutability": "nonpayable",
      "type": "function"
    },
    {
      "inputs": [
        {
          "internalType": "uint256",
          "name": "_tokenId",
          "type": "uint256"
        }
      ],
      "name": "buyNFT",
      "outputs": [
        {
          "internalType": "uint256",
          "name": "shareGot",
          "type": "uint256"
        }
      ],
      "stateMutability": "payable",
      "type": "function"
    },
    {
      "inputs": [
        {
          "internalType": "uint256",
          "name": "_tokenId",
          "type": "uint256"
        }
      ],
      "name": "sellNFT",
      "outputs": [
        {
          "internalType": "uint256",
          "name": "shareSold",
          "type": "uint256"
        }
      ],
      "stateMutability": "payable",
      "type": "function"
    },
    {
      "inputs": [
        {
          "internalType": "uint256",
          "name": "_tokenId",
          "type": "uint256"
        }
      ],
      "name": "useNFT",
      "outputs": [
        {
          "internalType": "uint256",
          "name": "cost",
          "type": "uint256"
        }
      ],
      "stateMutability": "payable",
      "type": "function"
    },
    {
      "inputs": [],
      "name": "getAddress",
      "outputs": [
        {
          "internalType": "address",
          "name": "",
          "type": "address"
        }
      ],
      "stateMutability": "view",
      "type": "function"
    }
  ],
  "bytecode": "0x600060208190527f67be87c3ff9960ca1e9cfac5cab2ff4747269cf9ed20c9b7306235ac35a491c58054600160ff1991821681179092557ff7815fccbf112960a73756e185887fedcb9fc64ca0a16cc5923b7960ed7808008054821683179055635b5e139f60e01b9092527f9562381dfbc2d8b8b66e765249f330164b73e329e5f01670660643571d1974df805490921617905560088054336001600160a01b0319918216811790925560098054909116909117905560c0604052600c60808190526b2530b1b5bc93b9902934b33360a11b60a0908152620000e591600591906200011a565b5060408051808201909152600480825263252924a360e11b602090920191825262000113916006916200011a565b50620001fd565b8280546200012890620001c0565b90600052602060002090601f0160209004810192826200014c576000855562000197565b82601f106200016757805160ff191683800117855562000197565b8280016001018555821562000197579182015b82811115620001975782518255916020019190600101906200017a565b50620001a5929150620001a9565b5090565b5b80821115620001a55760008155600101620001aa565b600181811c90821680620001d557607f821691505b60208210811415620001f757634e487b7160e01b600052602260045260246000fd5b50919050565b612d42806200020d6000396000f3fe6080604052600436106101e35760003560e01c806370a0823111610102578063ba82b5ac11610095578063e233449711610064578063e2334497146105fc578063e84f32611461061c578063e985e9c51461064c578063ee9cdfb31461069557600080fd5b8063ba82b5ac14610561578063baadf60e1461058e578063c87b56dd146105bc578063d3fc9864146105dc57600080fd5b8063a21bf0d5116100d1578063a21bf0d5146104d4578063a22cb46514610501578063b2bdfa7b14610521578063b88d4fde1461054157600080fd5b806370a082311461044457806383f687031461046457806395d89b411461049f5780639a721a6c146104b457600080fd5b8063352f946b1161017a57806351ed82881161014957806351ed8288146103c057806355b9d443146103e157806359645dc6146103f45780636352211e1461042457600080fd5b8063352f946b1461033857806338cc48311461035a5780633b0824191461036d57806342842e0e146103a057600080fd5b806312cccb34116101b657806312cccb34146102c957806317fee5f9146102cb5780632172d6b0146102eb57806323b872dd1461031857600080fd5b806301ffc9a7146101e857806306fdde031461024f578063081812fc14610271578063095ea7b3146102a9575b600080fd5b3480156101f457600080fd5b5061023a6102033660046128f2565b7fffffffff000000000000000000000000000000000000000000000000000000001660009081526020819052604090205460ff1690565b60405190151581526020015b60405180910390f35b34801561025b57600080fd5b506102646106a8565b6040516102469190612b96565b34801561027d57600080fd5b5061029161028c36600461292c565b61073a565b6040516001600160a01b039091168152602001610246565b3480156102b557600080fd5b506102c96102c436600461286e565b6107bc565b005b3480156102d757600080fd5b506102c96102e63660046129a5565b61098c565b3480156102f757600080fd5b5061030b61030636600461292c565b610a88565b6040516102469190612a94565b34801561032457600080fd5b506102c9610333366004612799565b610af7565b34801561034457600080fd5b5061034d610d72565b6040516102469190612aff565b34801561036657600080fd5b5030610291565b34801561037957600080fd5b5061038d61038836600461292c565b610dd2565b6040516102469796959493929190612b43565b3480156103ac57600080fd5b506102c96103bb366004612799565b610ef4565b6103d36103ce36600461292c565b610f14565b604051908152602001610246565b6103d36103ef36600461292c565b6111e4565b34801561040057600080fd5b506103d361040f36600461292c565b6000908152600a602052604090206005015490565b34801561043057600080fd5b5061029161043f36600461292c565b6113ea565b34801561045057600080fd5b506103d361045f366004612744565b611442565b34801561047057600080fd5b506103d361047f36600461292c565b6000908152600a6020908152604080832033845260020190915290205490565b3480156104ab57600080fd5b506102646114a6565b3480156104c057600080fd5b506102c96104cf366004612945565b6114b5565b3480156104e057600080fd5b506103d36104ef36600461292c565b6000908152600a602052604090205490565b34801561050d57600080fd5b506102c961051c366004612844565b6114c0565b34801561052d57600080fd5b50600954610291906001600160a01b031681565b34801561054d57600080fd5b506102c961055c3660046127d5565b61152c565b34801561056d57600080fd5b5061058161057c36600461292c565b61156e565b6040516102469190612aa7565b34801561059a57600080fd5b506105ae6105a936600461292c565b6115f6565b604051610246929190612ba9565b3480156105c857600080fd5b506102646105d736600461292c565b611675565b3480156105e857600080fd5b506102c96105f7366004612898565b611770565b34801561060857600080fd5b506102c961061736600461296a565b6118aa565b34801561062857600080fd5b506103d361063736600461292c565b6000908152600a602052604090206004015490565b34801561065857600080fd5b5061023a610667366004612766565b6001600160a01b03918216600090815260046020908152604080832093909416825291909152205460ff1690565b6103d36106a336600461292c565b61197c565b6060600580546106b790612c49565b80601f01602080910402602001604051908101604052809291908181526020018280546106e390612c49565b80156107305780601f1061070557610100808354040283529160200191610730565b820191906000526020600020905b81548152906001019060200180831161071357829003601f168201915b5050505050905090565b6000818152600160209081526040808320548151808301909252600682526518181998181960d11b9282019290925283916001600160a01b031661079a5760405162461bcd60e51b81526004016107919190612b96565b60405180910390fd5b506000838152600260205260409020546001600160a01b031691505b50919050565b60008181526001602052604090205481906001600160a01b03163381148061080757506001600160a01b038116600090815260046020908152604080832033845290915290205460ff165b6040518060400160405280600681526020017f30303330303300000000000000000000000000000000000000000000000000008152509061085b5760405162461bcd60e51b81526004016107919190612b96565b50600083815260016020908152604091829020548251808401909352600683526518181998181960d11b918301919091528491906001600160a01b03166108b55760405162461bcd60e51b81526004016107919190612b96565b50600084815260016020908152604091829020548251808401909352600683527f3030333030380000000000000000000000000000000000000000000000000000918301919091526001600160a01b039081169190871682141561092c5760405162461bcd60e51b81526004016107919190612b96565b5060008581526002602052604080822080546001600160a01b0319166001600160a01b038a811691821790925591518893918516917f8c5be1e5ebec7d5bd14f71427d1e84f3dd0314c0f7b2291e5b200ac8c7c3b92591a4505050505050565b60008281526001602052604090205482906001600160a01b031633146109eb5760405162461bcd60e51b81526020600482015260146024820152731393d517d5121157d3d5d3915497d3d197d3919560621b6044820152606401610791565b6000838152600a6020526040902060646005909101819055610a1b9084903390610a16908690612c1b565b611d15565b6000838152600a6020526040812054606490610a379085612bfc565b610a419190612bda565b9050336108fc610a5983670de0b6b3a7640000612bfc565b6040518115909202916000818181858888f19350505050158015610a81573d6000803e3d6000fd5b5050505050565b6000818152600a6020908152604091829020600301805483518184028101840190945280845260609392830182828015610aeb57602002820191906000526020600020905b81546001600160a01b03168152600190910190602001808311610acd575b50505050509050919050565b60008181526001602052604090205481906001600160a01b031633811480610b3557506000828152600260205260409020546001600160a01b031633145b80610b6357506001600160a01b038116600090815260046020908152604080832033845290915290205460ff165b604051806040016040528060068152602001650c0c0ccc0c0d60d21b81525090610ba05760405162461bcd60e51b81526004016107919190612b96565b50600083815260016020908152604091829020548251808401909352600683526518181998181960d11b918301919091528491906001600160a01b0316610bfa5760405162461bcd60e51b81526004016107919190612b96565b50600084815260016020908152604091829020548251808401909352600683526530303330303760d01b918301919091526001600160a01b03908116919088168214610c595760405162461bcd60e51b81526004016107919190612b96565b5060408051808201909152600681526530303330303160d01b60208201526001600160a01b038716610c9e5760405162461bcd60e51b81526004016107919190612b96565b506000858152600a602052604090206001015460ff1615610d015760405162461bcd60e51b815260206004820152600f60248201527f4e46545f4245454e5f5354414b454400000000000000000000000000000000006044820152606401610791565b6040805180820182526001600160a01b0388811682526001602080840182815260008b8152600b83529586208054808501825590875291909520845160029092020180546001600160a01b031916919093161782559251920191909155610d688787611ef9565b5050505050505050565b336000908152600d602090815260409182902080548351818402810184019094528084526060939283018282801561073057602002820191906000526020600020905b815481526020019060010190808311610db5575050505050905090565b6000818152600a60209081526040808320600180820154600583015460068401546004850154600c885286892094850154600390960180548851818b0281018b019099528089528a998a998a996060998b998b9960ff9091169890979096909590949293600290920192859190830182828015610e7857602002820191906000526020600020905b81546001600160a01b03168152600190910190602001808311610e5a575b5050505050925080805480602002602001604051908101604052809291908181526020018280548015610ed457602002820191906000526020600020905b81546001600160a01b03168152600190910190602001808311610eb6575b505050505090509650965096509650965096509650919395979092949650565b610f0f83838360405180602001604052806000815250611f84565b505050565b600080610f29670de0b6b3a764000034612bda565b6000848152600a602052604090206001015490915060ff16610f8d5760405162461bcd60e51b815260206004820152601060248201527f4e46545f4e4f545f5348415241424c45000000000000000000000000000000006044820152606401610791565b6000838152600a6020526040902060050154610feb5760405162461bcd60e51b815260206004820152601260248201527f4e46545f53484152455f534f4c445f4f555400000000000000000000000000006044820152606401610791565b6000838152600a602052604090205461100690606490612bda565b8110156110555760405162461bcd60e51b815260206004820152601460248201527f4e4f545f454e4f5547485f544f5f4255595f31250000000000000000000000006044820152606401610791565b6000838152600a602052604090206005810154905460649161107691612bfc565b6110809190612bda565b8111156110cf5760405162461bcd60e51b815260206004820152600e60248201527f544f4f5f4d5543485f4d4f4e45590000000000000000000000000000000000006044820152606401610791565b6000838152600a60205260409020546110e9826064612bfc565b6110f39190612bda565b6000848152600a6020526040902060050154909250611113908390612c1b565b6000848152600a602090815260408083206005810194909455338352600290930190522054611196576000838152600a6020526040902060040154611159906001612bc2565b6000848152600a6020908152604082206004810193909355600390920180546001810182559082529190200180546001600160a01b031916331790555b6000838152600a602090815260408083203384526002019091529020546111be908390612bc2565b6000938452600a6020908152604080862033875260020190915290932092909255919050565b6000818152600c602052604081208281556001018054908261120583612c7e565b9091555050506000818152600c6020908152604080832060020180546001810182559084528284200180546001600160a01b03191633179055838352600a9091528120600301548190815b81156112c1576000858152600a6020526040902060030180548490811061127957611279612cc5565b6000918252602090912001546001600160a01b03163314156112a15750600090506001611250565b826112ab81612c7e565b93505081806112b990612c32565b925050611250565b6000808080846113de57506000888152600a6020526040902060068101546003909101549097505b80156113de576000898152600a6020526040902060030180548390811061131257611312612cc5565b60009182526020808320909101548b8352600a825260408084206001600160a01b03909216808552600290920190925291205490945092508161135481612c7e565b925050808061136290612c32565b60008b8152600a60205260409020600601549092506001600160a01b03861691506108fc906064906113949087612bfc565b61139e9190612bda565b6113b090670de0b6b3a7640000612bfc565b6040518115909202916000818181858888f193505050501580156113d8573d6000803e3d6000fd5b506112e9565b50505050505050919050565b600081815260016020908152604091829020548251808401909352600683526518181998181960d11b918301919091526001600160a01b031690816107b65760405162461bcd60e51b81526004016107919190612b96565b60408051808201909152600681526530303330303160d01b60208201526000906001600160a01b0383166114895760405162461bcd60e51b81526004016107919190612b96565b50506001600160a01b031660009081526003602052604090205490565b6060600680546106b790612c49565b610f0f838383611d15565b3360008181526004602090815260408083206001600160a01b03871680855290835292819020805460ff191686151590811790915590519081529192917f17307eab39ab6107e8899845ad3d59bd9653f200f220920489ca2b5937696c31910160405180910390a35050565b610a8185858585858080601f016020809104026020016040519081016040528093929190818152602001838380828437600092019190915250611f8492505050565b6060600b6000838152602001908152602001600020805480602002602001604051908101604052809291908181526020016000905b828210156115eb576000848152602090819020604080518082019091526002850290910180546001600160a01b031682526001908101548284015290835290920191016115a3565b505050509050919050565b6000818152600c602090815260408083206001810154600290910180548351818602810186019094528084526060949293919283919083018282801561166557602002820191906000526020600020905b81546001600160a01b03168152600190910190602001808311611647575b5050505050905091509150915091565b600081815260016020908152604091829020548251808401909352600683526518181998181960d11b9183019190915260609183916001600160a01b03166116d05760405162461bcd60e51b81526004016107919190612b96565b50600083815260076020526040902080546116ea90612c49565b80601f016020809104026020016040519081016040528092919081815260200182805461171690612c49565b80156117635780601f1061173857610100808354040283529160200191611763565b820191906000526020600020905b81548152906001019060200180831161174657829003601f168201915b5050505050915050919050565b60085460408051808201909152600681527f30313830303100000000000000000000000000000000000000000000000000006020820152906001600160a01b031633146117d05760405162461bcd60e51b81526004016107919190612b96565b506117db8484612260565b61181b8383838080601f01602080910402602001604051908101604052809392919081815260200183838082843760009201919091525061234392505050565b50506000818152600a602090815260408083206001908101805460ff19169055338452600d83528184208054808301825590855283852001859055815180830183526001600160a01b039687168152808401858152958552600b84529184208054808301825590855292909320905160029092020180546001600160a01b031916919094161783559051910155565b60008481526001602052604090205484906001600160a01b031633146119095760405162461bcd60e51b81526020600482015260146024820152731393d517d5121157d3d5d3915497d3d197d3919560621b6044820152606401610791565b60018415151415611941576000858152600a602052604090206001908101805460ff1916909117905561193c85836123c2565b611972565b6000858152600a6020526040902060018101805460ff19169055606460059091018190556119729086903390611d15565b610a818584612437565b600080611991670de0b6b3a764000034612bda565b6000848152600a60205260409020549091506119af90606490612bda565b8110156119fe5760405162461bcd60e51b815260206004820152601560248201527f4e4f545f454e4f5547485f544f5f53454c4c5f312500000000000000000000006044820152606401610791565b6000838152600a60208181526040808420338552600281018352908420549387905291905254606491611a3091612bfc565b611a3a9190612bda565b811115611a895760405162461bcd60e51b815260206004820152601a60248201527f544f4f5f4d5543485f4d4f4e45595f544f5f53454c4c5f414c4c0000000000006044820152606401610791565b6000838152600a6020526040902054611aa3826064612bfc565b611aad9190612bda565b6000848152600a6020526040902060050154909250611acd908390612bc2565b6000848152600a60208181526040808420600581019590955533845260028501825283205492879052529054606491611b0591612bfc565b611b0f9190612bda565b811415611c98576000838152600a6020526040902060040154611b3490600190612c1b565b6000848152600a60205260408120600401919091555b6000848152600a60205260409020339060030182611b6781612c7e565b935081548110611b7957611b79612cc5565b6000918252602090912001546001600160a01b031614611b9857611b4a565b6000848152600a6020526040902060030154811015611c54576000848152600a60205260409020600301805482908110611bd457611bd4612cc5565b6000918252602080832090910154868352600a90915260409091206001600160a01b0390911690600301611c09600184612c1b565b81548110611c1957611c19612cc5565b600091825260209091200180546001600160a01b0319166001600160a01b039290921691909117905580611c4c81612c7e565b915050611b98565b6000848152600a60205260409020600301805480611c7457611c74612caf565b600082815260209020810160001990810180546001600160a01b0319169055019055505b6000838152600a60209081526040808320338452600201909152902054611cc0908390612c1b565b6000848152600a602090815260408083203380855260029091019092528083209390935591513480156108fc0292909190818181858888f19350505050158015611d0e573d6000803e3d6000fd5b5050919050565b60008381526001602052604090205483906001600160a01b03163314611d745760405162461bcd60e51b81526020600482015260146024820152731393d517d5121157d3d5d3915497d3d197d3919560621b6044820152606401610791565b6000848152600a602090815260408083206001600160a01b038716845260020190915290205415611de75760405162461bcd60e51b815260206004820152601060248201527f414c52454144595f415f534841524552000000000000000000000000000000006044820152606401610791565b60018210158015611e0957506000848152600a60205260409020600501548211155b611e555760405162461bcd60e51b815260206004820152600d60248201527f53484152455f494e56414c4944000000000000000000000000000000000000006044820152606401610791565b6000848152600a6020526040902060040154611e72906001612bc2565b6000858152600a6020818152604080842060048101959095556001600160a01b0388168452600285018252832086905591879052905260050154611eb7908390612c1b565b6000948552600a602090815260408620600581019290925560039091018054600181018255908652942090930180546001600160a01b03191633179055505050565b600081815260016020908152604080832054600290925290912080546001600160a01b03191690556001600160a01b0316611f3481836124a9565b611f3e8383612552565b81836001600160a01b0316826001600160a01b03167fddf252ad1be2c89b69c2b068fc378daa952ba7f163c4a11628f55a4df523b3ef60405160405180910390a4505050565b60008281526001602052604090205482906001600160a01b031633811480611fc257506000828152600260205260409020546001600160a01b031633145b80611ff057506001600160a01b038116600090815260046020908152604080832033845290915290205460ff165b604051806040016040528060068152602001650c0c0ccc0c0d60d21b8152509061202d5760405162461bcd60e51b81526004016107919190612b96565b50600084815260016020908152604091829020548251808401909352600683526518181998181960d11b918301919091528591906001600160a01b03166120875760405162461bcd60e51b81526004016107919190612b96565b50600085815260016020908152604091829020548251808401909352600683526530303330303760d01b918301919091526001600160a01b039081169190891682146120e65760405162461bcd60e51b81526004016107919190612b96565b5060408051808201909152600681526530303330303160d01b60208201526001600160a01b03881661212b5760405162461bcd60e51b81526004016107919190612b96565b506121368787611ef9565b612148876001600160a01b03166125fa565b15610d6857604051630a85bd0160e11b81526000906001600160a01b0389169063150b7a02906121829033908d908c908c90600401612a58565b602060405180830381600087803b15801561219c57600080fd5b505af11580156121b0573d6000803e3d6000fd5b505050506040513d601f19601f820116820180604052508101906121d4919061290f565b60408051808201909152600681527f303033303035000000000000000000000000000000000000000000000000000060208201529091507fffffffff000000000000000000000000000000000000000000000000000000008216630a85bd0160e11b146122545760405162461bcd60e51b81526004016107919190612b96565b50505050505050505050565b60408051808201909152600681526530303330303160d01b60208201526001600160a01b0383166122a45760405162461bcd60e51b81526004016107919190612b96565b50600081815260016020908152604091829020548251808401909352600683526518181998181b60d11b918301919091526001600160a01b0316156122fc5760405162461bcd60e51b81526004016107919190612b96565b506123078282612552565b60405181906001600160a01b038416906000907fddf252ad1be2c89b69c2b068fc378daa952ba7f163c4a11628f55a4df523b3ef908290a45050565b600082815260016020908152604091829020548251808401909352600683526518181998181960d11b918301919091528391906001600160a01b031661239c5760405162461bcd60e51b81526004016107919190612b96565b50600083815260076020908152604090912083516123bc92850190612636565b50505050565b60008281526001602052604090205482906001600160a01b031633146124215760405162461bcd60e51b81526020600482015260146024820152731393d517d5121157d3d5d3915497d3d197d3919560621b6044820152606401610791565b506000918252600a602052604090912060060155565b60008281526001602052604090205482906001600160a01b031633146124965760405162461bcd60e51b81526020600482015260146024820152731393d517d5121157d3d5d3915497d3d197d3919560621b6044820152606401610791565b506000918252600a602052604090912055565b600081815260016020908152604091829020548251808401909352600683526530303330303760d01b918301919091526001600160a01b038481169116146125045760405162461bcd60e51b81526004016107919190612b96565b506001600160a01b038216600090815260036020526040812080546001929061252e908490612c1b565b9091555050600090815260016020526040902080546001600160a01b031916905550565b600081815260016020908152604091829020548251808401909352600683526518181998181b60d11b918301919091526001600160a01b0316156125a95760405162461bcd60e51b81526004016107919190612b96565b50600081815260016020818152604080842080546001600160a01b0319166001600160a01b0388169081179091558452600390915282208054919290916125f1908490612bc2565b90915550505050565b6000813f7fc5d2460186f7233c927e7db2dcc703c0e500b653ca82273b7bfad8045d85a470811580159061262e5750808214155b949350505050565b82805461264290612c49565b90600052602060002090601f01602090048101928261266457600085556126aa565b82601f1061267d57805160ff19168380011785556126aa565b828001600101855582156126aa579182015b828111156126aa57825182559160200191906001019061268f565b506126b69291506126ba565b5090565b5b808211156126b657600081556001016126bb565b80356001600160a01b03811681146126e657600080fd5b919050565b803580151581146126e657600080fd5b60008083601f84011261270d57600080fd5b50813567ffffffffffffffff81111561272557600080fd5b60208301915083602082850101111561273d57600080fd5b9250929050565b60006020828403121561275657600080fd5b61275f826126cf565b9392505050565b6000806040838503121561277957600080fd5b612782836126cf565b9150612790602084016126cf565b90509250929050565b6000806000606084860312156127ae57600080fd5b6127b7846126cf565b92506127c5602085016126cf565b9150604084013590509250925092565b6000806000806000608086880312156127ed57600080fd5b6127f6866126cf565b9450612804602087016126cf565b935060408601359250606086013567ffffffffffffffff81111561282757600080fd5b612833888289016126fb565b969995985093965092949392505050565b6000806040838503121561285757600080fd5b612860836126cf565b9150612790602084016126eb565b6000806040838503121561288157600080fd5b61288a836126cf565b946020939093013593505050565b600080600080606085870312156128ae57600080fd5b6128b7856126cf565b935060208501359250604085013567ffffffffffffffff8111156128da57600080fd5b6128e6878288016126fb565b95989497509550505050565b60006020828403121561290457600080fd5b813561275f81612cdb565b60006020828403121561292157600080fd5b815161275f81612cdb565b60006020828403121561293e57600080fd5b5035919050565b60008060006060848603121561295a57600080fd5b833592506127c5602085016126cf565b6000806000806080858703121561298057600080fd5b84359350612990602086016126eb565b93969395505050506040820135916060013590565b600080604083850312156129b857600080fd5b50508035926020909101359150565b600081518084526020808501945080840160005b83811015612a005781516001600160a01b0316875295820195908201906001016129db565b509495945050505050565b6000815180845260005b81811015612a3157602081850181015186830182015201612a15565b81811115612a43576000602083870101525b50601f01601f19169290920160200192915050565b60006001600160a01b03808716835280861660208401525083604083015260806060830152612a8a6080830184612a0b565b9695505050505050565b60208152600061275f60208301846129c7565b602080825282518282018190526000919060409081850190868401855b82811015612af257815180516001600160a01b03168552860151868501529284019290850190600101612ac4565b5091979650505050505050565b6020808252825182820181905260009190848201906040850190845b81811015612b3757835183529284019291840191600101612b1b565b50909695505050505050565b871515815286602082015285604082015284606082015260e060808201526000612b7060e08301866129c7565b8460a084015282810360c0840152612b8881856129c7565b9a9950505050505050505050565b60208152600061275f6020830184612a0b565b82815260406020820152600061262e60408301846129c7565b60008219821115612bd557612bd5612c99565b500190565b600082612bf757634e487b7160e01b600052601260045260246000fd5b500490565b6000816000190483118215151615612c1657612c16612c99565b500290565b600082821015612c2d57612c2d612c99565b500390565b600081612c4157612c41612c99565b506000190190565b600181811c90821680612c5d57607f821691505b602082108114156107b657634e487b7160e01b600052602260045260246000fd5b6000600019821415612c9257612c92612c99565b5060010190565b634e487b7160e01b600052601160045260246000fd5b634e487b7160e01b600052603160045260246000fd5b634e487b7160e01b600052603260045260246000fd5b7fffffffff0000000000000000000000000000000000000000000000000000000081168114612d0957600080fd5b5056fea264697066735822122006e90436b2f230a2b969ad39c1c0d7acd42b765c0b7901c050544711e4f6fa2564736f6c63430008060033",
  "immutableReferences": {},
  "source": "// SPDX-License-Identifier: MIT\npragma solidity ^0.8.0;\n\nimport \"./tokens/nf-token-metadata.sol\";\nimport \"./ownership/ownable.sol\";\n\n\ncontract MusicNFT is\n  NFTokenMetadata,\n  Ownable\n{\n\n  address public _owner;  // ()\n\n  /**\n   * @dev Contract constructor. Sets metadata extension `name` and `symbol`.\n   */\n  constructor() payable\n  {\n    _owner = msg.sender;\n    nftName = \"Jacky's Riff\";\n    nftSymbol = \"JRIF\";\n  }\n\n  function transferToContract()\n    external\n    payable\n  {}\n\n  /**\n   * @dev Mints a new NFT.\n   * @param _to The address that will own the minted NFT.\n   * @param _tokenId of the NFT to be minted by the msg.sender.\n   * @param _uri String representing RFC 3986 URI.\n   */\n  function mint(\n    address _to,\n    uint256 _tokenId,\n    string calldata _uri\n  )\n    external\n    onlyOwner()\n  {\n    super._mint(_to, _tokenId);\n    super._setTokenUri(_tokenId, _uri);\n    idToNFT[_tokenId].ifShared = false;\n    myNFT[msg.sender].push(_tokenId);\n    NFTOwnership memory temp = NFTOwnership({owner:_to,wayOfOwn:0});\n    OwnershipChange[_tokenId].push(temp);\n  }\n\n/*************************************************************************************************************************/\n  /**\n   *Basic data structure\n   *Would be better if it's in a struct\n   */\n\n  mapping (uint256 => NFT) internal idToNFT;  \n  struct NFT{\n    uint256 valueOfNFT;\n    bool ifShared;\n    mapping(address => uint256) amountOfEachSharer;\n    address [] owners;\n    uint256 sharersCount;\n    uint256 leftShare;\n    uint256 tax;\n  }\n\n  struct NFTOwnership{\n    address owner;\n    uint256 wayOfOwn;//0:minter,1:transfer,2:auction\n  }\n  mapping (uint256 => NFTOwnership[]) OwnershipChange;\n  function showOwnershipChange(\n    uint256 _nftId\n  )\n  public\n  view\n  returns(NFTOwnership[] memory ChangeOfNFTOwnership)\n  {\n    ChangeOfNFTOwnership = OwnershipChange[_nftId];\n  }\n\n  \n  // mapping (uint256 => uint256) internal valueOfNFT;\n\n  // mapping (uint256 => bool) internal ifShared;//if a token is shared, it is also not transactable\n\n  // mapping (uint256 => mapping(address => uint256)) internal sharers;///each sharers of an NFT has a certain amount of share\n\n  // mapping (uint256 => address []) internal owners;//each NFT has some sharers\n\n  // mapping (uint256 => uint256) internal sharersCount;//number of sharers in each mapping ( address => uint256)\n\n  // mapping (uint256 => uint256) internal leftShare;//amount of an NFT's share having been held\n\n  // mapping (uint256 => uint256) internal tax;//user need to pay if they want a use of an NFT\n\n  struct MusicUseInstance{\n    uint256 tokenId;\n    uint256 timeOfUse;\n    address[] user;\n  }\n\n  mapping (uint256 => MusicUseInstance) internal useOfNFT;\n\n  mapping (address => uint256[]) internal myNFT;\n\n\n/*************************************************************************************************************************/\n  /**\n   *Modifier\n   */\n  modifier ifOwner(uint256 _tokenId){\n    require(msg.sender == idToOwner[_tokenId],\"NOT_THE_OWNER_OF_NFT\");\n    _;\n  }\n\n/*************************************************************************************************************************/\n  /**\n   *Basic transaction\n   */\n  \n   /**\n   *View Function\n   */\n\n   /**show the value of each NFT\n    *can be seen by everyone\n    */\n  function showValue (\n    uint256 _tokenId\n  )\n    external\n    view\n    returns(uint256 value)\n  {\n    value = idToNFT[_tokenId].valueOfNFT;\n  }\n\n  function showMyNFT ()\n    public\n    view\n    returns(uint256[] memory _myNFT)\n  {\n    _myNFT = myNFT[msg.sender];\n  }\n\n/*************************************************************************************************************************/\n  /**\n   *Execution Function\n   */\n\n\n  function transferFrom(\n    address _from,\n    address _to,\n    uint256 _tokenId\n  )\n    public\n    override\n    canTransfer(_tokenId)\n    validNFToken(_tokenId)\n  {\n    address tokenOwner = idToOwner[_tokenId];\n    require(tokenOwner == _from, NOT_OWNER);\n    require(_to != address(0), ZERO_ADDRESS);\n    require(idToNFT[_tokenId].ifShared == false,\"NFT_BEEN_STAKED\");\n    NFTOwnership memory temp = NFTOwnership({owner:_to,wayOfOwn:1});\n    OwnershipChange[_tokenId].push(temp);\n    _transfer(_to, _tokenId);\n  }\n/*************************************************************************************************************************/\n  /**\n   *Advanced transcation\n   */\n  \n  /**\n   *View Function\n   */\n\n  /*show all the information of an NFT*/\n  function showInfoOfNFT(\n    uint256 _tokenId\n  )\n    public\n    view\n    returns(bool ifShared,\n    uint256 shareLeft,\n    uint256 taxToPay,\n    uint256 numOfSharers,\n    address[] memory ownersOfNFT,\n    uint256 usedTime,\n    address[] memory usedBy)\n  {\n    return(idToNFT[_tokenId].ifShared,\n    idToNFT[_tokenId].leftShare,\n    idToNFT[_tokenId].tax,\n    idToNFT[_tokenId].sharersCount,\n    idToNFT[_tokenId].owners,\n    useOfNFT[_tokenId].timeOfUse,\n    useOfNFT[_tokenId].user);\n  }\n\n\n  /*show the sharability of NFT*/\n  function ifSharable(\n    uint256 _tokenId\n  )\n    internal\n    view\n    returns(bool result)\n  {\n    result = idToNFT[_tokenId].ifShared;\n  }\n\n  function showMySharerOfNFT(\n    uint256 _tokenId\n  )\n    external\n    view\n    returns (uint256 myshare)\n  {\n    myshare = idToNFT[_tokenId].amountOfEachSharer[msg.sender];\n  }\n\n\n  function showLeftShare(\n    uint256 _tokenId\n  )\n    external\n    view\n    returns(uint256 left)\n  {\n    left = idToNFT[_tokenId].leftShare;\n  }\n\n  function showNumOfSharers(\n    uint256 _tokenId\n  )\n    external\n    view\n    returns(uint256 num)\n  {\n    num = idToNFT[_tokenId].sharersCount;\n  }\n\n  function showSharers(\n    uint256 _tokenId\n  )\n    external\n    view\n    returns (address[] memory)\n  {\n    return idToNFT[_tokenId].owners;\n  }\n\n  function showUseConditionOfNFT (\n    uint256 _tokenId\n  )\n    external\n    view\n    returns(uint256, address[] memory)\n  {\n    return(useOfNFT[_tokenId].timeOfUse, useOfNFT[_tokenId].user);\n  }\n/*************************************************************************************************************************/\n  /**\n   *Execution Function\n   */\n  \n  function initialize(\n    uint256 _tokenId,\n    bool _ifSharable,\n    uint256 value,\n    uint256 _tax\n  )\n    external\n    ifOwner(_tokenId)\n  {\n    if(_ifSharable == true){\n      idToNFT[_tokenId].ifShared = true;\n      _setTax(_tokenId,_tax);\n    }\n    else{\n      idToNFT[_tokenId].ifShared = false;\n      idToNFT[_tokenId].leftShare = 100;\n      _addsharers(_tokenId, msg.sender, 100);\n    }\n      \n    _setValue(_tokenId,value);\n  }\n\n  function setSharable(\n    uint256 _tokenId,\n    uint256 amount\n  )\n    external\n    ifOwner(_tokenId)\n  {\n    idToNFT[_tokenId].leftShare = 100;\n    // uint256 amount = (msg.value / 1 ether) * valueOfNFT[_tokenId] / 100;\n    _addsharers(_tokenId, msg.sender, 100-amount);\n    uint256 fee = amount*(idToNFT[_tokenId].valueOfNFT)/100;\n    payable(msg.sender).transfer(fee * 1 ether);\n  }\n\n  /**\n   *NFT holder can add sharers himself without having buyer conduct a transaction\n   */\n  function addsharers(\n    uint256 _tokenId,\n    address newSharer,\n    uint256 share\n  )\n    external\n  {\n    _addsharers(_tokenId, newSharer, share);\n  }\n\n  /**\n   *Buy some share of a certain NFT */\n  function buyNFT(\n    uint256 _tokenId\n  )\n    external\n    payable\n    returns(uint256 shareGot)\n  {\n    uint256 fee = msg.value/ 1 ether;\n    require(ifSharable(_tokenId),\"NFT_NOT_SHARABLE\");\n    require(idToNFT[_tokenId].leftShare>0,\"NFT_SHARE_SOLD_OUT\");\n    require(fee >= idToNFT[_tokenId].valueOfNFT/100,\"NOT_ENOUGH_TO_BUY_1%\");\n    require(fee <= (idToNFT[_tokenId].valueOfNFT*idToNFT[_tokenId].leftShare/100),\"TOO_MUCH_MONEY\");\n    shareGot = fee * 100 / idToNFT[_tokenId].valueOfNFT;\n    idToNFT[_tokenId].leftShare = idToNFT[_tokenId].leftShare - shareGot;\n    if(idToNFT[_tokenId].amountOfEachSharer[msg.sender] == 0){\n      idToNFT[_tokenId].sharersCount = idToNFT[_tokenId].sharersCount + 1;\n      idToNFT[_tokenId].owners.push(msg.sender);\n    }//if sharers already, don't add\n    idToNFT[_tokenId].amountOfEachSharer[msg.sender] = idToNFT[_tokenId].amountOfEachSharer[msg.sender] + shareGot;\n    // address owner = idToOwner[_tokenId];\n    // payable(owner).transfer(msg.value);//transfer to owner msg.value's CFX\n  }\n\n  function sellNFT(\n    uint256 _tokenId\n  )\n    external\n    payable\n    returns(uint256 shareSold)\n  {\n    uint256 fee = msg.value/ 1 ether;\n    require(fee >= idToNFT[_tokenId].valueOfNFT/100,\"NOT_ENOUGH_TO_SELL_1%\");\n    require(fee <= (idToNFT[_tokenId].valueOfNFT*idToNFT[_tokenId].amountOfEachSharer[msg.sender]/100),\"TOO_MUCH_MONEY_TO_SELL_ALL\");\n    shareSold = fee * 100 / idToNFT[_tokenId].valueOfNFT;\n    idToNFT[_tokenId].leftShare = idToNFT[_tokenId].leftShare + shareSold;\n    if(fee == idToNFT[_tokenId].valueOfNFT*idToNFT[_tokenId].amountOfEachSharer[msg.sender]/100){//sell all\n      idToNFT[_tokenId].sharersCount = idToNFT[_tokenId].sharersCount - 1;\n      uint256 i = 0;\n      while(idToNFT[_tokenId].owners[i++] != msg.sender){}\n      for(i; i<idToNFT[_tokenId].owners.length; i++){\n        idToNFT[_tokenId].owners[i-1] = idToNFT[_tokenId].owners[i];\n      }\n      idToNFT[_tokenId].owners.pop();\n    }//if sell all, delete from the seller\n\n    idToNFT[_tokenId].amountOfEachSharer[msg.sender] = idToNFT[_tokenId].amountOfEachSharer[msg.sender] - shareSold;\n    payable(msg.sender).transfer(msg.value);\n  }\n\n  function useNFT(\n    uint256 _tokenId\n  )\n    external\n    payable\n    returns(uint256 cost)\n  {\n    /*store the use information in the mapping and struct*/\n    useOfNFT[_tokenId].tokenId = _tokenId;\n    useOfNFT[_tokenId].timeOfUse++;\n    useOfNFT[_tokenId].user.push(msg.sender);\n\n    /*judge if the user is a sharer*/\n    cost = 0;\n    uint256 i = 0;\n    uint256 j = idToNFT[_tokenId].owners.length;\n    bool flag = false;\n    while(j!=0){\n      if(msg.sender == idToNFT[_tokenId].owners[i]){\n        flag = true;\n        j=0;\n      }\n      else{\n        i++;\n        j--;\n      }\n    }\n    \n    /*distribute tax*/\n    address temp;\n    uint256 share;\n    uint256 m=0;\n    uint256 n;\n    if(flag == false){\n      // _distributeTax(_tokenId,tax[_tokenId]);\n      cost = idToNFT[_tokenId].tax;\n      n = idToNFT[_tokenId].owners.length;\n      while(n!=0){\n        temp = idToNFT[_tokenId].owners[m];\n        share = idToNFT[_tokenId].amountOfEachSharer[temp];\n        m++;\n        n--;\n        // mapping (uint256 => mapping(address => uint256)) internal sharers;\n        payable(temp).transfer( (share * idToNFT[_tokenId].tax / 100) * 1 ether);\n      }\n    }\n      \n  }\n\n\n/*************************************************************************************************************************/\n  /**\n   *Internal Functions\n   */\n\n  /*add a sharer of a NFT*/\n  function _addsharers(\n    uint256 _tokenId, \n    address newSharer, \n    uint256 share\n    )\n      internal\n      ifOwner(_tokenId)\n    {\n    // require(ifSharable(_tokenId),\"TOKEN_UNSHARABLE\");\n    require(idToNFT[_tokenId].amountOfEachSharer[newSharer]==0,\"ALREADY_A_SHARER\");\n    require(share >=1 && share <=idToNFT[_tokenId].leftShare,\"SHARE_INVALID\");\n    idToNFT[_tokenId].sharersCount = idToNFT[_tokenId].sharersCount + 1;\n    idToNFT[_tokenId].amountOfEachSharer[newSharer] = share;\n    idToNFT[_tokenId].leftShare = idToNFT[_tokenId].leftShare - share;\n    idToNFT[_tokenId].owners.push(msg.sender);\n  }\n\n  // function _distributeTax(\n  //   uint256 _tokenId,\n  //   uint256 amount\n  // )\n  //   internal\n  // {\n  //   address temp;\n  //   uint256 share;\n  //   uint256 i = 0;\n  //   uint256 j = owners[_tokenId].length;\n  //   while(j!=0){\n  //     temp = owners[_tokenId][i];\n  //     share = sharers[_tokenId][temp];\n  //     i++;\n  //     j--;\n  //     // mapping (uint256 => mapping(address => uint256)) internal sharers;\n  //     payable(temp).transfer(share*amount/100 * 1 ether);\n  //   }\n  // }\n\n  // function _setSharable(\n  //   uint256 _tokenId,\n  //   uint256 subscribableAmount\n  // )\n  //   internal\n  //   ifOwner(_tokenId)\n  // {\n  //   ifShared[_tokenId] = true;\n  //   leftShare[_tokenId] = 100;\n  //   _addsharers(_tokenId, msg.sender, 100-subscribableAmount);\n  // }\n\n  /*set the value of each NFT by owner*/\n  function _setValue(\n    uint256 _tokenId,\n    uint256 value\n  )\n    internal\n    ifOwner(_tokenId)\n  {\n    idToNFT[_tokenId].valueOfNFT = value;\n  }\n\n   function _setTax(\n    uint256 _tokenId,\n    uint256 _tax\n  )\n    internal\n    ifOwner(_tokenId)\n  {\n    idToNFT[_tokenId].tax = _tax;\n  }\n\n  // \n\tfunction getAddress() \n    public \n    view \n    returns (address) {\n\t\treturn address(this);\n\t}\n\n}",
  "sourcePath": "C:\\Users\\jacky\\Desktop\\JRiffAuction\\contracts\\MusicNFT.sol",
  "compiler": {
    "name": "solc",
    "version": "0.8.6+commit.11564f7e.Emscripten.clang"
  },
  "schemaVersion": "3.4.3",
  "updatedAt": "2021-11-06T16:30:51.476Z",
  "devdoc": {
    "kind": "dev",
    "methods": {
      "approve(address,uint256)": {
        "details": "Set or reaffirm the approved address for an NFT. This function can be changed to payable.",
        "params": {
          "_approved": "Address to be approved for the given NFT ID.",
          "_tokenId": "ID of the token to be approved."
        }
      },
      "balanceOf(address)": {
        "details": "Returns the number of NFTs owned by `_owner`. NFTs assigned to the zero address are considered invalid, and this function throws for queries about the zero address.",
        "params": {
          "_owner": "Address for whom to query the balance."
        },
        "returns": {
          "_0": "Balance of _owner."
        }
      },
      "constructor": {
        "details": "Contract constructor. Sets metadata extension `name` and `symbol`."
      },
      "getApproved(uint256)": {
        "details": "Get the approved address for a single NFT.",
        "params": {
          "_tokenId": "ID of the NFT to query the approval of."
        },
        "returns": {
          "_0": "Address that _tokenId is approved for."
        }
      },
      "isApprovedForAll(address,address)": {
        "details": "Checks if `_operator` is an approved operator for `_owner`.",
        "params": {
          "_operator": "The address that acts on behalf of the owner.",
          "_owner": "The address that owns the NFTs."
        },
        "returns": {
          "_0": "True if approved for all, false otherwise."
        }
      },
      "mint(address,uint256,string)": {
        "details": "Mints a new NFT.",
        "params": {
          "_to": "The address that will own the minted NFT.",
          "_tokenId": "of the NFT to be minted by the msg.sender.",
          "_uri": "String representing RFC 3986 URI."
        }
      },
      "name()": {
        "details": "Returns a descriptive name for a collection of NFTokens.",
        "returns": {
          "_name": "Representing name."
        }
      },
      "ownerOf(uint256)": {
        "details": "Returns the address of the owner of the NFT. NFTs assigned to the zero address are considered invalid, and queries about them do throw.",
        "params": {
          "_tokenId": "The identifier for an NFT."
        },
        "returns": {
          "_owner": "Address of _tokenId owner."
        }
      },
      "safeTransferFrom(address,address,uint256)": {
        "details": "Transfers the ownership of an NFT from one address to another address. This function can be changed to payable.",
        "params": {
          "_from": "The current owner of the NFT.",
          "_to": "The new owner.",
          "_tokenId": "The NFT to transfer."
        }
      },
      "safeTransferFrom(address,address,uint256,bytes)": {
        "details": "Transfers the ownership of an NFT from one address to another address. This function can be changed to payable.",
        "params": {
          "_data": "Additional data with no specified format, sent in call to `_to`.",
          "_from": "The current owner of the NFT.",
          "_to": "The new owner.",
          "_tokenId": "The NFT to transfer."
        }
      },
      "setApprovalForAll(address,bool)": {
        "details": "Enables or disables approval for a third party (\"operator\") to manage all of `msg.sender`'s assets. It also emits the ApprovalForAll event.",
        "params": {
          "_approved": "True if the operators is approved, false to revoke approval.",
          "_operator": "Address to add to the set of authorized operators."
        }
      },
      "supportsInterface(bytes4)": {
        "details": "Function to check which interfaces are suported by this contract.",
        "params": {
          "_interfaceID": "Id of the interface."
        },
        "returns": {
          "_0": "True if _interfaceID is supported, false otherwise."
        }
      },
      "symbol()": {
        "details": "Returns an abbreviated name for NFTokens.",
        "returns": {
          "_symbol": "Representing symbol."
        }
      },
      "tokenURI(uint256)": {
        "details": "A distinct URI (RFC 3986) for a given NFT.",
        "params": {
          "_tokenId": "Id for which we want uri."
        },
        "returns": {
          "_0": "URI of _tokenId."
        }
      }
    },
    "version": 1
  },
  "userdoc": {
    "kind": "user",
    "methods": {
      "addsharers(uint256,address,uint256)": {
        "notice": "NFT holder can add sharers himself without having buyer conduct a transaction"
      },
      "approve(address,uint256)": {
        "notice": "The zero address indicates there is no approved address. Throws unless `msg.sender` is the current NFT owner, or an authorized operator of the current owner."
      },
      "buyNFT(uint256)": {
        "notice": "Buy some share of a certain NFT "
      },
      "getApproved(uint256)": {
        "notice": "Throws if `_tokenId` is not a valid NFT."
      },
      "initialize(uint256,bool,uint256,uint256)": {
        "notice": "Execution Function"
      },
      "safeTransferFrom(address,address,uint256)": {
        "notice": "This works identically to the other function with an extra data parameter, except this function just sets data to \"\"."
      },
      "safeTransferFrom(address,address,uint256,bytes)": {
        "notice": "Throws unless `msg.sender` is the current owner, an authorized operator, or the approved address for this NFT. Throws if `_from` is not the current owner. Throws if `_to` is the zero address. Throws if `_tokenId` is not a valid NFT. When transfer is complete, this function checks if `_to` is a smart contract (code size > 0). If so, it calls `onERC721Received` on `_to` and throws if the return value is not `bytes4(keccak256(\"onERC721Received(address,uint256,bytes)\"))`."
      },
      "setApprovalForAll(address,bool)": {
        "notice": "This works even if sender doesn't own any tokens at the time."
      },
      "showInfoOfNFT(uint256)": {
        "notice": "View Function"
      },
      "showValue(uint256)": {
        "notice": "show the value of each NFT can be seen by everyone"
      },
      "transferFrom(address,address,uint256)": {
        "notice": "Execution Function"
      }
    },
    "version": 1
  }
}