{
  "contractName": "MyNFT",
  "abi": [
    {
      "inputs": [],
      "stateMutability": "payable",
      "type": "constructor"
    },
    {
      "anonymous": false,
      "inputs": [
        {
          "indexed": true,
          "internalType": "address",
          "name": "_owner",
          "type": "address"
        },
        {
          "indexed": true,
          "internalType": "address",
          "name": "_approved",
          "type": "address"
        },
        {
          "indexed": true,
          "internalType": "uint256",
          "name": "_tokenId",
          "type": "uint256"
        }
      ],
      "name": "Approval",
      "type": "event"
    },
    {
      "anonymous": false,
      "inputs": [
        {
          "indexed": true,
          "internalType": "address",
          "name": "_owner",
          "type": "address"
        },
        {
          "indexed": true,
          "internalType": "address",
          "name": "_operator",
          "type": "address"
        },
        {
          "indexed": false,
          "internalType": "bool",
          "name": "_approved",
          "type": "bool"
        }
      ],
      "name": "ApprovalForAll",
      "type": "event"
    },
    {
      "anonymous": false,
      "inputs": [
        {
          "indexed": true,
          "internalType": "address",
          "name": "previousOwner",
          "type": "address"
        },
        {
          "indexed": true,
          "internalType": "address",
          "name": "newOwner",
          "type": "address"
        }
      ],
      "name": "OwnershipTransferred",
      "type": "event"
    },
    {
      "anonymous": false,
      "inputs": [
        {
          "indexed": true,
          "internalType": "address",
          "name": "_from",
          "type": "address"
        },
        {
          "indexed": true,
          "internalType": "address",
          "name": "_to",
          "type": "address"
        },
        {
          "indexed": true,
          "internalType": "uint256",
          "name": "_tokenId",
          "type": "uint256"
        }
      ],
      "name": "Transfer",
      "type": "event"
    },
    {
      "inputs": [],
      "name": "_owner",
      "outputs": [
        {
          "internalType": "address",
          "name": "",
          "type": "address"
        }
      ],
      "stateMutability": "view",
      "type": "function"
    },
    {
      "inputs": [
        {
          "internalType": "address",
          "name": "_approved",
          "type": "address"
        },
        {
          "internalType": "uint256",
          "name": "_tokenId",
          "type": "uint256"
        }
      ],
      "name": "approve",
      "outputs": [],
      "stateMutability": "nonpayable",
      "type": "function"
    },
    {
      "inputs": [
        {
          "internalType": "address",
          "name": "_owner",
          "type": "address"
        }
      ],
      "name": "balanceOf",
      "outputs": [
        {
          "internalType": "uint256",
          "name": "",
          "type": "uint256"
        }
      ],
      "stateMutability": "view",
      "type": "function"
    },
    {
      "inputs": [
        {
          "internalType": "uint256",
          "name": "_tokenId",
          "type": "uint256"
        }
      ],
      "name": "getApproved",
      "outputs": [
        {
          "internalType": "address",
          "name": "",
          "type": "address"
        }
      ],
      "stateMutability": "view",
      "type": "function"
    },
    {
      "inputs": [
        {
          "internalType": "address",
          "name": "_owner",
          "type": "address"
        },
        {
          "internalType": "address",
          "name": "_operator",
          "type": "address"
        }
      ],
      "name": "isApprovedForAll",
      "outputs": [
        {
          "internalType": "bool",
          "name": "",
          "type": "bool"
        }
      ],
      "stateMutability": "view",
      "type": "function"
    },
    {
      "inputs": [],
      "name": "name",
      "outputs": [
        {
          "internalType": "string",
          "name": "_name",
          "type": "string"
        }
      ],
      "stateMutability": "view",
      "type": "function"
    },
    {
      "inputs": [
        {
          "internalType": "uint256",
          "name": "_tokenId",
          "type": "uint256"
        }
      ],
      "name": "ownerOf",
      "outputs": [
        {
          "internalType": "address",
          "name": "_owner",
          "type": "address"
        }
      ],
      "stateMutability": "view",
      "type": "function"
    },
    {
      "inputs": [
        {
          "internalType": "address",
          "name": "_from",
          "type": "address"
        },
        {
          "internalType": "address",
          "name": "_to",
          "type": "address"
        },
        {
          "internalType": "uint256",
          "name": "_tokenId",
          "type": "uint256"
        }
      ],
      "name": "safeTransferFrom",
      "outputs": [],
      "stateMutability": "nonpayable",
      "type": "function"
    },
    {
      "inputs": [
        {
          "internalType": "address",
          "name": "_from",
          "type": "address"
        },
        {
          "internalType": "address",
          "name": "_to",
          "type": "address"
        },
        {
          "internalType": "uint256",
          "name": "_tokenId",
          "type": "uint256"
        },
        {
          "internalType": "bytes",
          "name": "_data",
          "type": "bytes"
        }
      ],
      "name": "safeTransferFrom",
      "outputs": [],
      "stateMutability": "nonpayable",
      "type": "function"
    },
    {
      "inputs": [
        {
          "internalType": "address",
          "name": "_operator",
          "type": "address"
        },
        {
          "internalType": "bool",
          "name": "_approved",
          "type": "bool"
        }
      ],
      "name": "setApprovalForAll",
      "outputs": [],
      "stateMutability": "nonpayable",
      "type": "function"
    },
    {
      "inputs": [
        {
          "internalType": "bytes4",
          "name": "_interfaceID",
          "type": "bytes4"
        }
      ],
      "name": "supportsInterface",
      "outputs": [
        {
          "internalType": "bool",
          "name": "",
          "type": "bool"
        }
      ],
      "stateMutability": "view",
      "type": "function"
    },
    {
      "inputs": [],
      "name": "symbol",
      "outputs": [
        {
          "internalType": "string",
          "name": "_symbol",
          "type": "string"
        }
      ],
      "stateMutability": "view",
      "type": "function"
    },
    {
      "inputs": [
        {
          "internalType": "uint256",
          "name": "_tokenId",
          "type": "uint256"
        }
      ],
      "name": "tokenURI",
      "outputs": [
        {
          "internalType": "string",
          "name": "",
          "type": "string"
        }
      ],
      "stateMutability": "view",
      "type": "function"
    },
    {
      "inputs": [
        {
          "internalType": "address",
          "name": "_from",
          "type": "address"
        },
        {
          "internalType": "address",
          "name": "_to",
          "type": "address"
        },
        {
          "internalType": "uint256",
          "name": "_tokenId",
          "type": "uint256"
        }
      ],
      "name": "transferFrom",
      "outputs": [],
      "stateMutability": "nonpayable",
      "type": "function"
    },
    {
      "inputs": [
        {
          "internalType": "address",
          "name": "_to",
          "type": "address"
        },
        {
          "internalType": "uint256",
          "name": "_tokenId",
          "type": "uint256"
        },
        {
          "internalType": "string",
          "name": "_uri",
          "type": "string"
        }
      ],
      "name": "mint",
      "outputs": [],
      "stateMutability": "nonpayable",
      "type": "function"
    }
  ],
  "bytecode": "0x600060208190527f67be87c3ff9960ca1e9cfac5cab2ff4747269cf9ed20c9b7306235ac35a491c58054600160ff1991821681179092557ff7815fccbf112960a73756e185887fedcb9fc64ca0a16cc5923b7960ed7808008054821683179055635b5e139f60e01b9092527f9562381dfbc2d8b8b66e765249f330164b73e329e5f01670660643571d1974df805490921617905560088054336001600160a01b0319918216811783556009805490921617905560c0604052608081905267129858dade53919560c21b60a0908152620000dc916005919062000110565b506040805180820190915260038082526212919560ea1b6020909201918252620001099160069162000110565b50620001f3565b8280546200011e90620001b6565b90600052602060002090601f0160209004810192826200014257600085556200018d565b82601f106200015d57805160ff19168380011785556200018d565b828001600101855582156200018d579182015b828111156200018d57825182559160200191906001019062000170565b506200019b9291506200019f565b5090565b5b808211156200019b5760008155600101620001a0565b600181811c90821680620001cb57607f821691505b60208210811415620001ed57634e487b7160e01b600052602260045260246000fd5b50919050565b6115a480620002036000396000f3fe608060405234801561001057600080fd5b50600436106100f55760003560e01c806370a0823111610097578063b88d4fde11610066578063b88d4fde14610231578063c87b56dd14610244578063d3fc986414610257578063e985e9c51461026a57600080fd5b806370a08231146101e257806395d89b4114610203578063a22cb4651461020b578063b2bdfa7b1461021e57600080fd5b8063095ea7b3116100d3578063095ea7b31461019457806323b872dd146101a957806342842e0e146101bc5780636352211e146101cf57600080fd5b806301ffc9a7146100fa57806306fdde0314610154578063081812fc14610169575b600080fd5b61013f6101083660046113d4565b7fffffffff000000000000000000000000000000000000000000000000000000001660009081526020819052604090205460ff1690565b60405190151581526020015b60405180910390f35b61015c6102a6565b60405161014b91906114b0565b61017c61017736600461140e565b610338565b6040516001600160a01b03909116815260200161014b565b6101a76101a2366004611350565b6103ba565b005b6101a76101b7366004611269565b610597565b6101a76101ca366004611269565b610752565b61017c6101dd36600461140e565b610772565b6101f56101f0366004611214565b6107ca565b60405190815260200161014b565b61015c61082e565b6101a7610219366004611314565b61083d565b60095461017c906001600160a01b031681565b6101a761023f3660046112a5565b6108a9565b61015c61025236600461140e565b6108f2565b6101a761026536600461137a565b6109ed565b61013f610278366004611236565b6001600160a01b03918216600090815260046020908152604080832093909416825291909152205460ff1690565b6060600580546102b5906114f2565b80601f01602080910402602001604051908101604052809291908181526020018280546102e1906114f2565b801561032e5780601f106103035761010080835404028352916020019161032e565b820191906000526020600020905b81548152906001019060200180831161031157829003601f168201915b5050505050905090565b6000818152600160209081526040808320548151808301909252600682526518181998181960d11b9282019290925283916001600160a01b03166103985760405162461bcd60e51b815260040161038f91906114b0565b60405180910390fd5b506000838152600260205260409020546001600160a01b031691505b50919050565b60008181526001602052604090205481906001600160a01b03163381148061040557506001600160a01b038116600090815260046020908152604080832033845290915290205460ff165b6040518060400160405280600681526020017f3030333030330000000000000000000000000000000000000000000000000000815250906104595760405162461bcd60e51b815260040161038f91906114b0565b50600083815260016020908152604091829020548251808401909352600683526518181998181960d11b918301919091528491906001600160a01b03166104b35760405162461bcd60e51b815260040161038f91906114b0565b50600084815260016020908152604091829020548251808401909352600683527f3030333030380000000000000000000000000000000000000000000000000000918301919091526001600160a01b039081169190871682141561052a5760405162461bcd60e51b815260040161038f91906114b0565b50600085815260026020526040808220805473ffffffffffffffffffffffffffffffffffffffff19166001600160a01b038a811691821790925591518893918516917f8c5be1e5ebec7d5bd14f71427d1e84f3dd0314c0f7b2291e5b200ac8c7c3b92591a4505050505050565b60008181526001602052604090205481906001600160a01b0316338114806105d557506000828152600260205260409020546001600160a01b031633145b8061060357506001600160a01b038116600090815260046020908152604080832033845290915290205460ff165b604051806040016040528060068152602001650c0c0ccc0c0d60d21b815250906106405760405162461bcd60e51b815260040161038f91906114b0565b50600083815260016020908152604091829020548251808401909352600683526518181998181960d11b918301919091528491906001600160a01b031661069a5760405162461bcd60e51b815260040161038f91906114b0565b50600084815260016020908152604091829020548251808401909352600683526530303330303760d01b918301919091526001600160a01b039081169190881682146106f95760405162461bcd60e51b815260040161038f91906114b0565b5060408051808201909152600681526530303330303160d01b60208201526001600160a01b03871661073e5760405162461bcd60e51b815260040161038f91906114b0565b506107498686610a9e565b50505050505050565b61076d83838360405180602001604052806000815250610b36565b505050565b600081815260016020908152604091829020548251808401909352600683526518181998181960d11b918301919091526001600160a01b031690816103b45760405162461bcd60e51b815260040161038f91906114b0565b60408051808201909152600681526530303330303160d01b60208201526000906001600160a01b0383166108115760405162461bcd60e51b815260040161038f91906114b0565b50506001600160a01b031660009081526003602052604090205490565b6060600680546102b5906114f2565b3360008181526004602090815260408083206001600160a01b03871680855290835292819020805460ff191686151590811790915590519081529192917f17307eab39ab6107e8899845ad3d59bd9653f200f220920489ca2b5937696c31910160405180910390a35050565b6108eb85858585858080601f016020809104026020016040519081016040528093929190818152602001838380828437600092019190915250610b3692505050565b5050505050565b600081815260016020908152604091829020548251808401909352600683526518181998181960d11b9183019190915260609183916001600160a01b031661094d5760405162461bcd60e51b815260040161038f91906114b0565b5060008381526007602052604090208054610967906114f2565b80601f0160208091040260200160405190810160405280929190818152602001828054610993906114f2565b80156109e05780601f106109b5576101008083540402835291602001916109e0565b820191906000526020600020905b8154815290600101906020018083116109c357829003601f168201915b5050505050915050919050565b60085460408051808201909152600681527f30313830303100000000000000000000000000000000000000000000000000006020820152906001600160a01b03163314610a4d5760405162461bcd60e51b815260040161038f91906114b0565b50610a588484610e13565b610a988383838080601f016020809104026020016040519081016040528093929190818152602001838380828437600092019190915250610ef692505050565b50505050565b6000818152600160209081526040808320546002909252909120805473ffffffffffffffffffffffffffffffffffffffff191690556001600160a01b0316610ae68183610f6f565b610af08383611025565b81836001600160a01b0316826001600160a01b03167fddf252ad1be2c89b69c2b068fc378daa952ba7f163c4a11628f55a4df523b3ef60405160405180910390a4505050565b60008281526001602052604090205482906001600160a01b031633811480610b7457506000828152600260205260409020546001600160a01b031633145b80610ba257506001600160a01b038116600090815260046020908152604080832033845290915290205460ff165b604051806040016040528060068152602001650c0c0ccc0c0d60d21b81525090610bdf5760405162461bcd60e51b815260040161038f91906114b0565b50600084815260016020908152604091829020548251808401909352600683526518181998181960d11b918301919091528591906001600160a01b0316610c395760405162461bcd60e51b815260040161038f91906114b0565b50600085815260016020908152604091829020548251808401909352600683526530303330303760d01b918301919091526001600160a01b03908116919089168214610c985760405162461bcd60e51b815260040161038f91906114b0565b5060408051808201909152600681526530303330303160d01b60208201526001600160a01b038816610cdd5760405162461bcd60e51b815260040161038f91906114b0565b50610ce88787610a9e565b610cfa876001600160a01b03166110da565b15610e0957604051630a85bd0160e11b81526000906001600160a01b0389169063150b7a0290610d349033908d908c908c90600401611474565b602060405180830381600087803b158015610d4e57600080fd5b505af1158015610d62573d6000803e3d6000fd5b505050506040513d601f19601f82011682018060405250810190610d8691906113f1565b60408051808201909152600681527f303033303035000000000000000000000000000000000000000000000000000060208201529091507fffffffff000000000000000000000000000000000000000000000000000000008216630a85bd0160e11b14610e065760405162461bcd60e51b815260040161038f91906114b0565b50505b5050505050505050565b60408051808201909152600681526530303330303160d01b60208201526001600160a01b038316610e575760405162461bcd60e51b815260040161038f91906114b0565b50600081815260016020908152604091829020548251808401909352600683526518181998181b60d11b918301919091526001600160a01b031615610eaf5760405162461bcd60e51b815260040161038f91906114b0565b50610eba8282611025565b60405181906001600160a01b038416906000907fddf252ad1be2c89b69c2b068fc378daa952ba7f163c4a11628f55a4df523b3ef908290a45050565b600082815260016020908152604091829020548251808401909352600683526518181998181960d11b918301919091528391906001600160a01b0316610f4f5760405162461bcd60e51b815260040161038f91906114b0565b5060008381526007602090815260409091208351610a9892850190611116565b600081815260016020908152604091829020548251808401909352600683526530303330303760d01b918301919091526001600160a01b03848116911614610fca5760405162461bcd60e51b815260040161038f91906114b0565b506001600160a01b0382166000908152600360205260408120805460019290610ff49084906114db565b90915550506000908152600160205260409020805473ffffffffffffffffffffffffffffffffffffffff1916905550565b600081815260016020908152604091829020548251808401909352600683526518181998181b60d11b918301919091526001600160a01b03161561107c5760405162461bcd60e51b815260040161038f91906114b0565b506000818152600160208181526040808420805473ffffffffffffffffffffffffffffffffffffffff19166001600160a01b0388169081179091558452600390915282208054919290916110d19084906114c3565b90915550505050565b6000813f7fc5d2460186f7233c927e7db2dcc703c0e500b653ca82273b7bfad8045d85a470811580159061110e5750808214155b949350505050565b828054611122906114f2565b90600052602060002090601f016020900481019282611144576000855561118a565b82601f1061115d57805160ff191683800117855561118a565b8280016001018555821561118a579182015b8281111561118a57825182559160200191906001019061116f565b5061119692915061119a565b5090565b5b80821115611196576000815560010161119b565b80356001600160a01b03811681146111c657600080fd5b919050565b60008083601f8401126111dd57600080fd5b50813567ffffffffffffffff8111156111f557600080fd5b60208301915083602082850101111561120d57600080fd5b9250929050565b60006020828403121561122657600080fd5b61122f826111af565b9392505050565b6000806040838503121561124957600080fd5b611252836111af565b9150611260602084016111af565b90509250929050565b60008060006060848603121561127e57600080fd5b611287846111af565b9250611295602085016111af565b9150604084013590509250925092565b6000806000806000608086880312156112bd57600080fd5b6112c6866111af565b94506112d4602087016111af565b935060408601359250606086013567ffffffffffffffff8111156112f757600080fd5b611303888289016111cb565b969995985093965092949392505050565b6000806040838503121561132757600080fd5b611330836111af565b91506020830135801515811461134557600080fd5b809150509250929050565b6000806040838503121561136357600080fd5b61136c836111af565b946020939093013593505050565b6000806000806060858703121561139057600080fd5b611399856111af565b935060208501359250604085013567ffffffffffffffff8111156113bc57600080fd5b6113c8878288016111cb565b95989497509550505050565b6000602082840312156113e657600080fd5b813561122f8161153d565b60006020828403121561140357600080fd5b815161122f8161153d565b60006020828403121561142057600080fd5b5035919050565b6000815180845260005b8181101561144d57602081850181015186830182015201611431565b8181111561145f576000602083870101525b50601f01601f19169290920160200192915050565b60006001600160a01b038087168352808616602084015250836040830152608060608301526114a66080830184611427565b9695505050505050565b60208152600061122f6020830184611427565b600082198211156114d6576114d6611527565b500190565b6000828210156114ed576114ed611527565b500390565b600181811c9082168061150657607f821691505b602082108114156103b457634e487b7160e01b600052602260045260246000fd5b634e487b7160e01b600052601160045260246000fd5b7fffffffff000000000000000000000000000000000000000000000000000000008116811461156b57600080fd5b5056fea2646970667358221220b0d5540bc7f8eefb0c3bc9aec79a7403c02f053c55ed12bab292ba46acb1737b64736f6c63430008060033",
  "immutableReferences": {},
  "source": "// SPDX-License-Identifier: MIT\r\npragma solidity ^0.8.0;\r\n\r\nimport \"./tokens/nf-token-metadata.sol\";\r\nimport \"./ownership/ownable.sol\";\r\n\r\n\r\ncontract MyNFT is \r\n    NFTokenMetadata,\r\n    Ownable\r\n{\r\n\r\n    address public _owner;  // ()\r\n    constructor() payable{\r\n        _owner = msg.sender;\r\n        nftName = \"JackyNFT\";\r\n        nftSymbol = \"JFT\";\r\n    }\r\n\r\n    function mint(\r\n    address _to,\r\n    uint256 _tokenId,\r\n    string calldata _uri\r\n  )\r\n    external\r\n    onlyOwner()\r\n  {\r\n    super._mint(_to, _tokenId);\r\n    super._setTokenUri(_tokenId, _uri);\r\n  }\r\n    \r\n}",
  "sourcePath": "C:\\Users\\jacky\\Desktop\\JRiffAuction\\contracts\\MyNFT.sol",
  "compiler": {
    "name": "solc",
    "version": "0.8.6+commit.11564f7e.Emscripten.clang"
  },
  "schemaVersion": "3.4.3",
  "updatedAt": "2021-11-06T16:30:51.491Z",
  "devdoc": {
    "kind": "dev",
    "methods": {
      "approve(address,uint256)": {
        "details": "Set or reaffirm the approved address for an NFT. This function can be changed to payable.",
        "params": {
          "_approved": "Address to be approved for the given NFT ID.",
          "_tokenId": "ID of the token to be approved."
        }
      },
      "balanceOf(address)": {
        "details": "Returns the number of NFTs owned by `_owner`. NFTs assigned to the zero address are considered invalid, and this function throws for queries about the zero address.",
        "params": {
          "_owner": "Address for whom to query the balance."
        },
        "returns": {
          "_0": "Balance of _owner."
        }
      },
      "getApproved(uint256)": {
        "details": "Get the approved address for a single NFT.",
        "params": {
          "_tokenId": "ID of the NFT to query the approval of."
        },
        "returns": {
          "_0": "Address that _tokenId is approved for."
        }
      },
      "isApprovedForAll(address,address)": {
        "details": "Checks if `_operator` is an approved operator for `_owner`.",
        "params": {
          "_operator": "The address that acts on behalf of the owner.",
          "_owner": "The address that owns the NFTs."
        },
        "returns": {
          "_0": "True if approved for all, false otherwise."
        }
      },
      "name()": {
        "details": "Returns a descriptive name for a collection of NFTokens.",
        "returns": {
          "_name": "Representing name."
        }
      },
      "ownerOf(uint256)": {
        "details": "Returns the address of the owner of the NFT. NFTs assigned to the zero address are considered invalid, and queries about them do throw.",
        "params": {
          "_tokenId": "The identifier for an NFT."
        },
        "returns": {
          "_owner": "Address of _tokenId owner."
        }
      },
      "safeTransferFrom(address,address,uint256)": {
        "details": "Transfers the ownership of an NFT from one address to another address. This function can be changed to payable.",
        "params": {
          "_from": "The current owner of the NFT.",
          "_to": "The new owner.",
          "_tokenId": "The NFT to transfer."
        }
      },
      "safeTransferFrom(address,address,uint256,bytes)": {
        "details": "Transfers the ownership of an NFT from one address to another address. This function can be changed to payable.",
        "params": {
          "_data": "Additional data with no specified format, sent in call to `_to`.",
          "_from": "The current owner of the NFT.",
          "_to": "The new owner.",
          "_tokenId": "The NFT to transfer."
        }
      },
      "setApprovalForAll(address,bool)": {
        "details": "Enables or disables approval for a third party (\"operator\") to manage all of `msg.sender`'s assets. It also emits the ApprovalForAll event.",
        "params": {
          "_approved": "True if the operators is approved, false to revoke approval.",
          "_operator": "Address to add to the set of authorized operators."
        }
      },
      "supportsInterface(bytes4)": {
        "details": "Function to check which interfaces are suported by this contract.",
        "params": {
          "_interfaceID": "Id of the interface."
        },
        "returns": {
          "_0": "True if _interfaceID is supported, false otherwise."
        }
      },
      "symbol()": {
        "details": "Returns an abbreviated name for NFTokens.",
        "returns": {
          "_symbol": "Representing symbol."
        }
      },
      "tokenURI(uint256)": {
        "details": "A distinct URI (RFC 3986) for a given NFT.",
        "params": {
          "_tokenId": "Id for which we want uri."
        },
        "returns": {
          "_0": "URI of _tokenId."
        }
      },
      "transferFrom(address,address,uint256)": {
        "details": "Throws unless `msg.sender` is the current owner, an authorized operator, or the approved address for this NFT. Throws if `_from` is not the current owner. Throws if `_to` is the zero address. Throws if `_tokenId` is not a valid NFT. This function can be changed to payable.",
        "params": {
          "_from": "The current owner of the NFT.",
          "_to": "The new owner.",
          "_tokenId": "The NFT to transfer."
        }
      }
    },
    "version": 1
  },
  "userdoc": {
    "kind": "user",
    "methods": {
      "approve(address,uint256)": {
        "notice": "The zero address indicates there is no approved address. Throws unless `msg.sender` is the current NFT owner, or an authorized operator of the current owner."
      },
      "getApproved(uint256)": {
        "notice": "Throws if `_tokenId` is not a valid NFT."
      },
      "safeTransferFrom(address,address,uint256)": {
        "notice": "This works identically to the other function with an extra data parameter, except this function just sets data to \"\"."
      },
      "safeTransferFrom(address,address,uint256,bytes)": {
        "notice": "Throws unless `msg.sender` is the current owner, an authorized operator, or the approved address for this NFT. Throws if `_from` is not the current owner. Throws if `_to` is the zero address. Throws if `_tokenId` is not a valid NFT. When transfer is complete, this function checks if `_to` is a smart contract (code size > 0). If so, it calls `onERC721Received` on `_to` and throws if the return value is not `bytes4(keccak256(\"onERC721Received(address,uint256,bytes)\"))`."
      },
      "setApprovalForAll(address,bool)": {
        "notice": "This works even if sender doesn't own any tokens at the time."
      },
      "transferFrom(address,address,uint256)": {
        "notice": "The caller is responsible to confirm that `_to` is capable of receiving NFTs or else they may be permanently lost."
      }
    },
    "version": 1
  }
}