{
  "contractName": "NFTokenMetadataEnumerableMock",
  "abi": [
    {
      "inputs": [
        {
          "internalType": "string",
          "name": "_name",
          "type": "string"
        },
        {
          "internalType": "string",
          "name": "_symbol",
          "type": "string"
        }
      ],
      "stateMutability": "nonpayable",
      "type": "constructor"
    },
    {
      "anonymous": false,
      "inputs": [
        {
          "indexed": true,
          "internalType": "address",
          "name": "_owner",
          "type": "address"
        },
        {
          "indexed": true,
          "internalType": "address",
          "name": "_approved",
          "type": "address"
        },
        {
          "indexed": true,
          "internalType": "uint256",
          "name": "_tokenId",
          "type": "uint256"
        }
      ],
      "name": "Approval",
      "type": "event"
    },
    {
      "anonymous": false,
      "inputs": [
        {
          "indexed": true,
          "internalType": "address",
          "name": "_owner",
          "type": "address"
        },
        {
          "indexed": true,
          "internalType": "address",
          "name": "_operator",
          "type": "address"
        },
        {
          "indexed": false,
          "internalType": "bool",
          "name": "_approved",
          "type": "bool"
        }
      ],
      "name": "ApprovalForAll",
      "type": "event"
    },
    {
      "anonymous": false,
      "inputs": [
        {
          "indexed": true,
          "internalType": "address",
          "name": "previousOwner",
          "type": "address"
        },
        {
          "indexed": true,
          "internalType": "address",
          "name": "newOwner",
          "type": "address"
        }
      ],
      "name": "OwnershipTransferred",
      "type": "event"
    },
    {
      "anonymous": false,
      "inputs": [
        {
          "indexed": true,
          "internalType": "address",
          "name": "_from",
          "type": "address"
        },
        {
          "indexed": true,
          "internalType": "address",
          "name": "_to",
          "type": "address"
        },
        {
          "indexed": true,
          "internalType": "uint256",
          "name": "_tokenId",
          "type": "uint256"
        }
      ],
      "name": "Transfer",
      "type": "event"
    },
    {
      "inputs": [
        {
          "internalType": "address",
          "name": "_approved",
          "type": "address"
        },
        {
          "internalType": "uint256",
          "name": "_tokenId",
          "type": "uint256"
        }
      ],
      "name": "approve",
      "outputs": [],
      "stateMutability": "nonpayable",
      "type": "function"
    },
    {
      "inputs": [
        {
          "internalType": "address",
          "name": "_owner",
          "type": "address"
        }
      ],
      "name": "balanceOf",
      "outputs": [
        {
          "internalType": "uint256",
          "name": "",
          "type": "uint256"
        }
      ],
      "stateMutability": "view",
      "type": "function"
    },
    {
      "inputs": [
        {
          "internalType": "uint256",
          "name": "_tokenId",
          "type": "uint256"
        }
      ],
      "name": "getApproved",
      "outputs": [
        {
          "internalType": "address",
          "name": "",
          "type": "address"
        }
      ],
      "stateMutability": "view",
      "type": "function"
    },
    {
      "inputs": [
        {
          "internalType": "address",
          "name": "_owner",
          "type": "address"
        },
        {
          "internalType": "address",
          "name": "_operator",
          "type": "address"
        }
      ],
      "name": "isApprovedForAll",
      "outputs": [
        {
          "internalType": "bool",
          "name": "",
          "type": "bool"
        }
      ],
      "stateMutability": "view",
      "type": "function"
    },
    {
      "inputs": [],
      "name": "name",
      "outputs": [
        {
          "internalType": "string",
          "name": "_name",
          "type": "string"
        }
      ],
      "stateMutability": "view",
      "type": "function"
    },
    {
      "inputs": [
        {
          "internalType": "uint256",
          "name": "_tokenId",
          "type": "uint256"
        }
      ],
      "name": "ownerOf",
      "outputs": [
        {
          "internalType": "address",
          "name": "_owner",
          "type": "address"
        }
      ],
      "stateMutability": "view",
      "type": "function"
    },
    {
      "inputs": [
        {
          "internalType": "address",
          "name": "_from",
          "type": "address"
        },
        {
          "internalType": "address",
          "name": "_to",
          "type": "address"
        },
        {
          "internalType": "uint256",
          "name": "_tokenId",
          "type": "uint256"
        }
      ],
      "name": "safeTransferFrom",
      "outputs": [],
      "stateMutability": "nonpayable",
      "type": "function"
    },
    {
      "inputs": [
        {
          "internalType": "address",
          "name": "_from",
          "type": "address"
        },
        {
          "internalType": "address",
          "name": "_to",
          "type": "address"
        },
        {
          "internalType": "uint256",
          "name": "_tokenId",
          "type": "uint256"
        },
        {
          "internalType": "bytes",
          "name": "_data",
          "type": "bytes"
        }
      ],
      "name": "safeTransferFrom",
      "outputs": [],
      "stateMutability": "nonpayable",
      "type": "function"
    },
    {
      "inputs": [
        {
          "internalType": "address",
          "name": "_operator",
          "type": "address"
        },
        {
          "internalType": "bool",
          "name": "_approved",
          "type": "bool"
        }
      ],
      "name": "setApprovalForAll",
      "outputs": [],
      "stateMutability": "nonpayable",
      "type": "function"
    },
    {
      "inputs": [
        {
          "internalType": "bytes4",
          "name": "_interfaceID",
          "type": "bytes4"
        }
      ],
      "name": "supportsInterface",
      "outputs": [
        {
          "internalType": "bool",
          "name": "",
          "type": "bool"
        }
      ],
      "stateMutability": "view",
      "type": "function"
    },
    {
      "inputs": [],
      "name": "symbol",
      "outputs": [
        {
          "internalType": "string",
          "name": "_symbol",
          "type": "string"
        }
      ],
      "stateMutability": "view",
      "type": "function"
    },
    {
      "inputs": [
        {
          "internalType": "uint256",
          "name": "_index",
          "type": "uint256"
        }
      ],
      "name": "tokenByIndex",
      "outputs": [
        {
          "internalType": "uint256",
          "name": "",
          "type": "uint256"
        }
      ],
      "stateMutability": "view",
      "type": "function"
    },
    {
      "inputs": [
        {
          "internalType": "address",
          "name": "_owner",
          "type": "address"
        },
        {
          "internalType": "uint256",
          "name": "_index",
          "type": "uint256"
        }
      ],
      "name": "tokenOfOwnerByIndex",
      "outputs": [
        {
          "internalType": "uint256",
          "name": "",
          "type": "uint256"
        }
      ],
      "stateMutability": "view",
      "type": "function"
    },
    {
      "inputs": [
        {
          "internalType": "uint256",
          "name": "_tokenId",
          "type": "uint256"
        }
      ],
      "name": "tokenURI",
      "outputs": [
        {
          "internalType": "string",
          "name": "",
          "type": "string"
        }
      ],
      "stateMutability": "view",
      "type": "function"
    },
    {
      "inputs": [],
      "name": "totalSupply",
      "outputs": [
        {
          "internalType": "uint256",
          "name": "",
          "type": "uint256"
        }
      ],
      "stateMutability": "view",
      "type": "function"
    },
    {
      "inputs": [
        {
          "internalType": "address",
          "name": "_from",
          "type": "address"
        },
        {
          "internalType": "address",
          "name": "_to",
          "type": "address"
        },
        {
          "internalType": "uint256",
          "name": "_tokenId",
          "type": "uint256"
        }
      ],
      "name": "transferFrom",
      "outputs": [],
      "stateMutability": "nonpayable",
      "type": "function"
    },
    {
      "inputs": [
        {
          "internalType": "address",
          "name": "_to",
          "type": "address"
        },
        {
          "internalType": "uint256",
          "name": "_tokenId",
          "type": "uint256"
        },
        {
          "internalType": "string",
          "name": "_uri",
          "type": "string"
        }
      ],
      "name": "mint",
      "outputs": [],
      "stateMutability": "nonpayable",
      "type": "function"
    },
    {
      "inputs": [
        {
          "internalType": "uint256",
          "name": "_tokenId",
          "type": "uint256"
        }
      ],
      "name": "burn",
      "outputs": [],
      "stateMutability": "nonpayable",
      "type": "function"
    }
  ],
  "bytecode": "0x60806040523480156200001157600080fd5b5060405162001ddd38038062001ddd833981016040819052620000349162000295565b600060208181527f67be87c3ff9960ca1e9cfac5cab2ff4747269cf9ed20c9b7306235ac35a491c5805460ff1990811660019081179092557ff7815fccbf112960a73756e185887fedcb9fc64ca0a16cc5923b7960ed78080080548216831790557f77b7bbe0e49b76487c9476b5db3354cf5270619d0037ccb899c2a4c4a75b43188054821683179055635b5e139f60e01b9093527f9562381dfbc2d8b8b66e765249f330164b73e329e5f01670660643571d1974df805490931617909155600c80546001600160a01b03191633179055825162000119916009919085019062000138565b5080516200012f90600a90602084019062000138565b50505062000352565b8280546200014690620002ff565b90600052602060002090601f0160209004810192826200016a5760008555620001b5565b82601f106200018557805160ff1916838001178555620001b5565b82800160010185558215620001b5579182015b82811115620001b557825182559160200191906001019062000198565b50620001c3929150620001c7565b5090565b5b80821115620001c35760008155600101620001c8565b600082601f830112620001f057600080fd5b81516001600160401b03808211156200020d576200020d6200033c565b604051601f8301601f19908116603f011681019082821181831017156200023857620002386200033c565b816040528381526020925086838588010111156200025557600080fd5b600091505b838210156200027957858201830151818301840152908201906200025a565b838211156200028b5760008385830101525b9695505050505050565b60008060408385031215620002a957600080fd5b82516001600160401b0380821115620002c157600080fd5b620002cf86838701620001de565b93506020850151915080821115620002e657600080fd5b50620002f585828601620001de565b9150509250929050565b600181811c908216806200031457607f821691505b602082108114156200033657634e487b7160e01b600052602260045260246000fd5b50919050565b634e487b7160e01b600052604160045260246000fd5b611a7b80620003626000396000f3fe608060405234801561001057600080fd5b50600436106101365760003560e01c80634f6ccce7116100b2578063a22cb46511610081578063c87b56dd11610066578063c87b56dd146102af578063d3fc9864146102c2578063e985e9c5146102d557600080fd5b8063a22cb46514610289578063b88d4fde1461029c57600080fd5b80634f6ccce7146102485780636352211e1461025b57806370a082311461026e57806395d89b411461028157600080fd5b806318160ddd116101095780632f745c59116100ee5780632f745c591461020f57806342842e0e1461022257806342966c681461023557600080fd5b806318160ddd146101ea57806323b872dd146101fc57600080fd5b806301ffc9a71461013b57806306fdde0314610195578063081812fc146101aa578063095ea7b3146101d5575b600080fd5b6101806101493660046118a2565b7fffffffff000000000000000000000000000000000000000000000000000000001660009081526020819052604090205460ff1690565b60405190151581526020015b60405180910390f35b61019d610311565b60405161018c919061197e565b6101bd6101b83660046118dc565b6103a3565b6040516001600160a01b03909116815260200161018c565b6101e86101e336600461181e565b610425565b005b6005545b60405190815260200161018c565b6101e861020a366004611737565b6105f5565b6101ee61021d36600461181e565b6107b0565b6101e8610230366004611737565b610847565b6101e86102433660046118dc565b610867565b6101ee6102563660046118dc565b6108bd565b6101bd6102693660046118dc565b610925565b6101ee61027c3660046116e2565b61097d565b61019d6109d4565b6101e86102973660046117e2565b6109e3565b6101e86102aa366004611773565b610a4f565b61019d6102bd3660046118dc565b610a98565b6101e86102d0366004611848565b610b93565b6101806102e3366004611704565b6001600160a01b03918216600090815260046020908152604080832093909416825291909152205460ff1690565b606060098054610320906119b6565b80601f016020809104026020016040519081016040528092919081815260200182805461034c906119b6565b80156103995780601f1061036e57610100808354040283529160200191610399565b820191906000526020600020905b81548152906001019060200180831161037c57829003601f168201915b5050505050905090565b6000818152600160209081526040808320548151808301909252600682526518181998181960d11b9282019290925283916001600160a01b03166104035760405162461bcd60e51b81526004016103fa919061197e565b60405180910390fd5b506000838152600260205260409020546001600160a01b031691505b50919050565b60008181526001602052604090205481906001600160a01b03163381148061047057506001600160a01b038116600090815260046020908152604080832033845290915290205460ff165b6040518060400160405280600681526020017f3030333030330000000000000000000000000000000000000000000000000000815250906104c45760405162461bcd60e51b81526004016103fa919061197e565b50600083815260016020908152604091829020548251808401909352600683526518181998181960d11b918301919091528491906001600160a01b031661051e5760405162461bcd60e51b81526004016103fa919061197e565b50600084815260016020908152604091829020548251808401909352600683527f3030333030380000000000000000000000000000000000000000000000000000918301919091526001600160a01b03908116919087168214156105955760405162461bcd60e51b81526004016103fa919061197e565b5060008581526002602052604080822080546001600160a01b0319166001600160a01b038a811691821790925591518893918516917f8c5be1e5ebec7d5bd14f71427d1e84f3dd0314c0f7b2291e5b200ac8c7c3b92591a4505050505050565b60008181526001602052604090205481906001600160a01b03163381148061063357506000828152600260205260409020546001600160a01b031633145b8061066157506001600160a01b038116600090815260046020908152604080832033845290915290205460ff165b604051806040016040528060068152602001650c0c0ccc0c0d60d21b8152509061069e5760405162461bcd60e51b81526004016103fa919061197e565b50600083815260016020908152604091829020548251808401909352600683526518181998181960d11b918301919091528491906001600160a01b03166106f85760405162461bcd60e51b81526004016103fa919061197e565b50600084815260016020908152604091829020548251808401909352600683526530303330303760d01b918301919091526001600160a01b039081169190881682146107575760405162461bcd60e51b81526004016103fa919061197e565b5060408051808201909152600681526530303330303160d01b60208201526001600160a01b03871661079c5760405162461bcd60e51b81526004016103fa919061197e565b506107a78686610c2d565b50505050505050565b6001600160a01b0382166000908152600760209081526040808320548151808301909252600682526530303530303760d01b928201929092529083106108095760405162461bcd60e51b81526004016103fa919061197e565b506001600160a01b038316600090815260076020526040902080548390811061083457610834611a01565b9060005260206000200154905092915050565b61086283838360405180602001604052806000815250610cb8565b505050565b600c5460408051808201909152600681526530313830303160d01b6020820152906001600160a01b031633146108b05760405162461bcd60e51b81526004016103fa919061197e565b506108ba81610f95565b50565b60055460408051808201909152600681526530303530303760d01b602082015260009183106108ff5760405162461bcd60e51b81526004016103fa919061197e565b506005828154811061091357610913611a01565b90600052602060002001549050919050565b600081815260016020908152604091829020548251808401909352600683526518181998181960d11b918301919091526001600160a01b0316908161041f5760405162461bcd60e51b81526004016103fa919061197e565b60408051808201909152600681526530303330303160d01b60208201526000906001600160a01b0383166109c45760405162461bcd60e51b81526004016103fa919061197e565b506109ce82610fb5565b92915050565b6060600a8054610320906119b6565b3360008181526004602090815260408083206001600160a01b03871680855290835292819020805460ff191686151590811790915590519081529192917f17307eab39ab6107e8899845ad3d59bd9653f200f220920489ca2b5937696c31910160405180910390a35050565b610a9185858585858080601f016020809104026020016040519081016040528093929190818152602001838380828437600092019190915250610cb892505050565b5050505050565b600081815260016020908152604091829020548251808401909352600683526518181998181960d11b9183019190915260609183916001600160a01b0316610af35760405162461bcd60e51b81526004016103fa919061197e565b506000838152600b602052604090208054610b0d906119b6565b80601f0160208091040260200160405190810160405280929190818152602001828054610b39906119b6565b8015610b865780601f10610b5b57610100808354040283529160200191610b86565b820191906000526020600020905b815481529060010190602001808311610b6957829003601f168201915b5050505050915050919050565b600c5460408051808201909152600681526530313830303160d01b6020820152906001600160a01b03163314610bdc5760405162461bcd60e51b81526004016103fa919061197e565b50610be78484610fd3565b610c278383838080601f01602080910402602001604051908101604052809392919081815260200183838082843760009201919091525061103392505050565b50505050565b600081815260016020908152604080832054600290925290912080546001600160a01b03191690556001600160a01b0316610c6881836110ac565b610c7283836110ba565b81836001600160a01b0316826001600160a01b03167fddf252ad1be2c89b69c2b068fc378daa952ba7f163c4a11628f55a4df523b3ef60405160405180910390a4505050565b60008281526001602052604090205482906001600160a01b031633811480610cf657506000828152600260205260409020546001600160a01b031633145b80610d2457506001600160a01b038116600090815260046020908152604080832033845290915290205460ff165b604051806040016040528060068152602001650c0c0ccc0c0d60d21b81525090610d615760405162461bcd60e51b81526004016103fa919061197e565b50600084815260016020908152604091829020548251808401909352600683526518181998181960d11b918301919091528591906001600160a01b0316610dbb5760405162461bcd60e51b81526004016103fa919061197e565b50600085815260016020908152604091829020548251808401909352600683526530303330303760d01b918301919091526001600160a01b03908116919089168214610e1a5760405162461bcd60e51b81526004016103fa919061197e565b5060408051808201909152600681526530303330303160d01b60208201526001600160a01b038816610e5f5760405162461bcd60e51b81526004016103fa919061197e565b50610e6a8787610c2d565b610e7c876001600160a01b03166110c4565b15610f8b57604051630a85bd0160e11b81526000906001600160a01b0389169063150b7a0290610eb69033908d908c908c90600401611942565b602060405180830381600087803b158015610ed057600080fd5b505af1158015610ee4573d6000803e3d6000fd5b505050506040513d601f19601f82011682018060405250810190610f0891906118bf565b60408051808201909152600681527f303033303035000000000000000000000000000000000000000000000000000060208201529091507fffffffff000000000000000000000000000000000000000000000000000000008216630a85bd0160e11b14610f885760405162461bcd60e51b81526004016103fa919061197e565b50505b5050505050505050565b610f9e81611100565b6000818152600b602052604081206108ba916115aa565b6001600160a01b0381166000908152600760205260408120546109ce565b610fdd82826111b4565b600580546001818101835560008390527f036b6384b5eca791c62761152d0c79bb0604c104a5fb6f4eb0703f3154bb3db090910183905590546110209190611991565b6000918252600660205260409091205550565b600082815260016020908152604091829020548251808401909352600683526518181998181960d11b918301919091528391906001600160a01b031661108c5760405162461bcd60e51b81526004016103fa919061197e565b506000838152600b602090815260409091208351610c27928501906115e4565b6110b68282611297565b5050565b6110b68282611414565b6000813f7fc5d2460186f7233c927e7db2dcc703c0e500b653ca82273b7bfad8045d85a47081158015906110f85750808214155b949350505050565b611109816114d8565b60008181526006602052604081205460055490919061112a90600190611991565b905060006005828154811061114157611141611a01565b90600052602060002001549050806005848154811061116257611162611a01565b600091825260209091200155600580548061117f5761117f6119eb565b600082815260208082208301600019908101839055909201909255918152600690915260408082209390935592835250812055565b60408051808201909152600681526530303330303160d01b60208201526001600160a01b0383166111f85760405162461bcd60e51b81526004016103fa919061197e565b50600081815260016020908152604091829020548251808401909352600683526518181998181b60d11b918301919091526001600160a01b0316156112505760405162461bcd60e51b81526004016103fa919061197e565b5061125b82826110ba565b60405181906001600160a01b038416906000907fddf252ad1be2c89b69c2b068fc378daa952ba7f163c4a11628f55a4df523b3ef908290a45050565b600081815260016020908152604091829020548251808401909352600683526530303330303760d01b918301919091526001600160a01b038481169116146112f25760405162461bcd60e51b81526004016103fa919061197e565b50600081815260016020818152604080842080546001600160a01b031916905560088252808420546001600160a01b0387168552600790925283205490929161133a91611991565b90508181146113d1576001600160a01b038416600090815260076020526040812080548390811061136d5761136d611a01565b906000526020600020015490508060076000876001600160a01b03166001600160a01b0316815260200190815260200160002084815481106113b1576113b1611a01565b600091825260208083209091019290925591825260089052604090208290555b6001600160a01b03841660009081526007602052604090208054806113f8576113f86119eb565b6001900381819060005260206000200160009055905550505050565b600081815260016020908152604091829020548251808401909352600683526518181998181b60d11b918301919091526001600160a01b03161561146b5760405162461bcd60e51b81526004016103fa919061197e565b50600081815260016020818152604080842080546001600160a01b0319166001600160a01b038816908117909155808552600783529084208054808501825581865292852090920185905590925290546114c59190611991565b6000918252600860205260409091205550565b600081815260016020908152604091829020548251808401909352600683526518181998181960d11b918301919091528291906001600160a01b03166115315760405162461bcd60e51b81526004016103fa919061197e565b50600082815260016020908152604080832054600290925290912080546001600160a01b03191690556001600160a01b031661156d81846110ac565b60405183906000906001600160a01b038416907fddf252ad1be2c89b69c2b068fc378daa952ba7f163c4a11628f55a4df523b3ef908390a4505050565b5080546115b6906119b6565b6000825580601f106115c6575050565b601f0160209004906000526020600020908101906108ba9190611668565b8280546115f0906119b6565b90600052602060002090601f0160209004810192826116125760008555611658565b82601f1061162b57805160ff1916838001178555611658565b82800160010185558215611658579182015b8281111561165857825182559160200191906001019061163d565b50611664929150611668565b5090565b5b808211156116645760008155600101611669565b80356001600160a01b038116811461169457600080fd5b919050565b60008083601f8401126116ab57600080fd5b50813567ffffffffffffffff8111156116c357600080fd5b6020830191508360208285010111156116db57600080fd5b9250929050565b6000602082840312156116f457600080fd5b6116fd8261167d565b9392505050565b6000806040838503121561171757600080fd5b6117208361167d565b915061172e6020840161167d565b90509250929050565b60008060006060848603121561174c57600080fd5b6117558461167d565b92506117636020850161167d565b9150604084013590509250925092565b60008060008060006080868803121561178b57600080fd5b6117948661167d565b94506117a26020870161167d565b935060408601359250606086013567ffffffffffffffff8111156117c557600080fd5b6117d188828901611699565b969995985093965092949392505050565b600080604083850312156117f557600080fd5b6117fe8361167d565b91506020830135801515811461181357600080fd5b809150509250929050565b6000806040838503121561183157600080fd5b61183a8361167d565b946020939093013593505050565b6000806000806060858703121561185e57600080fd5b6118678561167d565b935060208501359250604085013567ffffffffffffffff81111561188a57600080fd5b61189687828801611699565b95989497509550505050565b6000602082840312156118b457600080fd5b81356116fd81611a17565b6000602082840312156118d157600080fd5b81516116fd81611a17565b6000602082840312156118ee57600080fd5b5035919050565b6000815180845260005b8181101561191b576020818501810151868301820152016118ff565b8181111561192d576000602083870101525b50601f01601f19169290920160200192915050565b60006001600160a01b0380871683528086166020840152508360408301526080606083015261197460808301846118f5565b9695505050505050565b6020815260006116fd60208301846118f5565b6000828210156119b157634e487b7160e01b600052601160045260246000fd5b500390565b600181811c908216806119ca57607f821691505b6020821081141561041f57634e487b7160e01b600052602260045260246000fd5b634e487b7160e01b600052603160045260246000fd5b634e487b7160e01b600052603260045260246000fd5b7fffffffff00000000000000000000000000000000000000000000000000000000811681146108ba57600080fdfea264697066735822122035d31d03413cb41fdd949ab0ed21590d73be751b95b2f6af7a0fde2cf171230964736f6c63430008060033",
  "immutableReferences": {},
  "source": "// SPDX-License-Identifier: MIT\r\npragma solidity 0.8.6;\r\n\r\nimport \"../tokens/nf-token-metadata.sol\";\r\nimport \"../tokens/nf-token-enumerable.sol\";\r\nimport \"../ownership/ownable.sol\";\r\n\r\n/**\r\n * @dev This is an example contract implementation of NFToken with enumerable and metadata\r\n * extensions.\r\n */\r\ncontract NFTokenMetadataEnumerableMock is\r\n  NFTokenEnumerable,\r\n  NFTokenMetadata,\r\n  Ownable\r\n{\r\n\r\n  /**\r\n   * @dev Contract constructor.\r\n   * @param _name A descriptive name for a collection of NFTs.\r\n   * @param _symbol An abbreviated name for NFTokens.\r\n   */\r\n  constructor(\r\n    string memory _name,\r\n    string memory _symbol\r\n  )\r\n  {\r\n    nftName = _name;\r\n    nftSymbol = _symbol;\r\n  }\r\n\r\n  /**\r\n   * @dev Mints a new NFT.\r\n   * @param _to The address that will own the minted NFT.\r\n   * @param _tokenId of the NFT to be minted by the msg.sender.\r\n   * @param _uri String representing RFC 3986 URI.\r\n   */\r\n  function mint(\r\n    address _to,\r\n    uint256 _tokenId,\r\n    string calldata _uri\r\n  )\r\n    external\r\n    onlyOwner\r\n  {\r\n    super._mint(_to, _tokenId);\r\n    super._setTokenUri(_tokenId, _uri);\r\n  }\r\n\r\n  /**\r\n   * @dev Removes a NFT from owner.\r\n   * @param _tokenId Which NFT we want to remove.\r\n   */\r\n  function burn(\r\n    uint256 _tokenId\r\n  )\r\n    external\r\n    onlyOwner\r\n  {\r\n    super._burn(_tokenId);\r\n  }\r\n\r\n  /**\r\n   * @dev Mints a new NFT.\r\n   * @notice This is an internal function which should be called from user-implemented external\r\n   * mint function. Its purpose is to show and properly initialize data structures when using this\r\n   * implementation.\r\n   * @param _to The address that will own the minted NFT.\r\n   * @param _tokenId of the NFT to be minted by the msg.sender.\r\n   */\r\n  function _mint(\r\n    address _to,\r\n    uint256 _tokenId\r\n  )\r\n    internal\r\n    override(NFToken, NFTokenEnumerable)\r\n    virtual\r\n  {\r\n    NFTokenEnumerable._mint(_to, _tokenId);\r\n  }\r\n\r\n  /**\r\n   * @dev Burns a NFT.\r\n   * @notice This is an internal function which should be called from user-implemented external\r\n   * burn function. Its purpose is to show and properly initialize data structures when using this\r\n   * implementation. Also, note that this burn implementation allows the minter to re-mint a burned\r\n   * NFT.\r\n   * @param _tokenId ID of the NFT to be burned.\r\n   */\r\n  function _burn(\r\n    uint256 _tokenId\r\n  )\r\n    internal\r\n    override(NFTokenMetadata, NFTokenEnumerable)\r\n    virtual\r\n  {\r\n    NFTokenEnumerable._burn(_tokenId);\r\n    if (bytes(idToUri[_tokenId]).length != 0)\r\n    {\r\n      delete idToUri[_tokenId];\r\n    }\r\n  }\r\n\r\n  /**\r\n   * @notice Use and override this function with caution. Wrong usage can have serious consequences.\r\n   * @dev Removes a NFT from an address.\r\n   * @param _from Address from wich we want to remove the NFT.\r\n   * @param _tokenId Which NFT we want to remove.\r\n   */\r\n  function _removeNFToken(\r\n    address _from,\r\n    uint256 _tokenId\r\n  )\r\n    internal\r\n    override(NFToken, NFTokenEnumerable)\r\n  {\r\n    NFTokenEnumerable._removeNFToken(_from, _tokenId);\r\n  }\r\n\r\n  /**\r\n   * @notice Use and override this function with caution. Wrong usage can have serious consequences.\r\n   * @dev Assigns a new NFT to an address.\r\n   * @param _to Address to wich we want to add the NFT.\r\n   * @param _tokenId Which NFT we want to add.\r\n   */\r\n  function _addNFToken(\r\n    address _to,\r\n    uint256 _tokenId\r\n  )\r\n    internal\r\n    override(NFToken, NFTokenEnumerable)\r\n  {\r\n    NFTokenEnumerable._addNFToken(_to, _tokenId);\r\n  }\r\n\r\n   /**\r\n   *@dev Helper function that gets NFT count of owner. This is needed for overriding in enumerable\r\n   * extension to remove double storage(gas optimization) of owner nft count.\r\n   * @param _owner Address for whom to query the count.\r\n   * @return Number of _owner NFTs.\r\n   */\r\n  function _getOwnerNFTCount(\r\n    address _owner\r\n  )\r\n    internal\r\n    override(NFToken, NFTokenEnumerable)\r\n    view\r\n    returns (uint256)\r\n  {\r\n    return NFTokenEnumerable._getOwnerNFTCount(_owner);\r\n  }\r\n\r\n}\r\n",
  "sourcePath": "C:\\Users\\jacky\\Desktop\\JRiffAuction\\contracts\\mocks\\nf-token-metadata-enumerable-mock.sol",
  "compiler": {
    "name": "solc",
    "version": "0.8.6+commit.11564f7e.Emscripten.clang"
  },
  "schemaVersion": "3.4.3",
  "updatedAt": "2021-11-06T16:30:51.508Z",
  "devdoc": {
    "details": "This is an example contract implementation of NFToken with enumerable and metadata extensions.",
    "kind": "dev",
    "methods": {
      "approve(address,uint256)": {
        "details": "Set or reaffirm the approved address for an NFT. This function can be changed to payable.",
        "params": {
          "_approved": "Address to be approved for the given NFT ID.",
          "_tokenId": "ID of the token to be approved."
        }
      },
      "balanceOf(address)": {
        "details": "Returns the number of NFTs owned by `_owner`. NFTs assigned to the zero address are considered invalid, and this function throws for queries about the zero address.",
        "params": {
          "_owner": "Address for whom to query the balance."
        },
        "returns": {
          "_0": "Balance of _owner."
        }
      },
      "burn(uint256)": {
        "details": "Removes a NFT from owner.",
        "params": {
          "_tokenId": "Which NFT we want to remove."
        }
      },
      "constructor": {
        "details": "Contract constructor.",
        "params": {
          "_name": "A descriptive name for a collection of NFTs.",
          "_symbol": "An abbreviated name for NFTokens."
        }
      },
      "getApproved(uint256)": {
        "details": "Get the approved address for a single NFT.",
        "params": {
          "_tokenId": "ID of the NFT to query the approval of."
        },
        "returns": {
          "_0": "Address that _tokenId is approved for."
        }
      },
      "isApprovedForAll(address,address)": {
        "details": "Checks if `_operator` is an approved operator for `_owner`.",
        "params": {
          "_operator": "The address that acts on behalf of the owner.",
          "_owner": "The address that owns the NFTs."
        },
        "returns": {
          "_0": "True if approved for all, false otherwise."
        }
      },
      "mint(address,uint256,string)": {
        "details": "Mints a new NFT.",
        "params": {
          "_to": "The address that will own the minted NFT.",
          "_tokenId": "of the NFT to be minted by the msg.sender.",
          "_uri": "String representing RFC 3986 URI."
        }
      },
      "name()": {
        "details": "Returns a descriptive name for a collection of NFTokens.",
        "returns": {
          "_name": "Representing name."
        }
      },
      "ownerOf(uint256)": {
        "details": "Returns the address of the owner of the NFT. NFTs assigned to the zero address are considered invalid, and queries about them do throw.",
        "params": {
          "_tokenId": "The identifier for an NFT."
        },
        "returns": {
          "_owner": "Address of _tokenId owner."
        }
      },
      "safeTransferFrom(address,address,uint256)": {
        "details": "Transfers the ownership of an NFT from one address to another address. This function can be changed to payable.",
        "params": {
          "_from": "The current owner of the NFT.",
          "_to": "The new owner.",
          "_tokenId": "The NFT to transfer."
        }
      },
      "safeTransferFrom(address,address,uint256,bytes)": {
        "details": "Transfers the ownership of an NFT from one address to another address. This function can be changed to payable.",
        "params": {
          "_data": "Additional data with no specified format, sent in call to `_to`.",
          "_from": "The current owner of the NFT.",
          "_to": "The new owner.",
          "_tokenId": "The NFT to transfer."
        }
      },
      "setApprovalForAll(address,bool)": {
        "details": "Enables or disables approval for a third party (\"operator\") to manage all of `msg.sender`'s assets. It also emits the ApprovalForAll event.",
        "params": {
          "_approved": "True if the operators is approved, false to revoke approval.",
          "_operator": "Address to add to the set of authorized operators."
        }
      },
      "supportsInterface(bytes4)": {
        "details": "Function to check which interfaces are suported by this contract.",
        "params": {
          "_interfaceID": "Id of the interface."
        },
        "returns": {
          "_0": "True if _interfaceID is supported, false otherwise."
        }
      },
      "symbol()": {
        "details": "Returns an abbreviated name for NFTokens.",
        "returns": {
          "_symbol": "Representing symbol."
        }
      },
      "tokenByIndex(uint256)": {
        "details": "Returns NFT ID by its index.",
        "params": {
          "_index": "A counter less than `totalSupply()`."
        },
        "returns": {
          "_0": "Token id."
        }
      },
      "tokenOfOwnerByIndex(address,uint256)": {
        "details": "returns the n-th NFT ID from a list of owner's tokens.",
        "params": {
          "_index": "Index number representing n-th token in owner's list of tokens.",
          "_owner": "Token owner's address."
        },
        "returns": {
          "_0": "Token id."
        }
      },
      "tokenURI(uint256)": {
        "details": "A distinct URI (RFC 3986) for a given NFT.",
        "params": {
          "_tokenId": "Id for which we want uri."
        },
        "returns": {
          "_0": "URI of _tokenId."
        }
      },
      "totalSupply()": {
        "details": "Returns the count of all existing NFTokens.",
        "returns": {
          "_0": "Total supply of NFTs."
        }
      },
      "transferFrom(address,address,uint256)": {
        "details": "Throws unless `msg.sender` is the current owner, an authorized operator, or the approved address for this NFT. Throws if `_from` is not the current owner. Throws if `_to` is the zero address. Throws if `_tokenId` is not a valid NFT. This function can be changed to payable.",
        "params": {
          "_from": "The current owner of the NFT.",
          "_to": "The new owner.",
          "_tokenId": "The NFT to transfer."
        }
      }
    },
    "version": 1
  },
  "userdoc": {
    "kind": "user",
    "methods": {
      "approve(address,uint256)": {
        "notice": "The zero address indicates there is no approved address. Throws unless `msg.sender` is the current NFT owner, or an authorized operator of the current owner."
      },
      "getApproved(uint256)": {
        "notice": "Throws if `_tokenId` is not a valid NFT."
      },
      "safeTransferFrom(address,address,uint256)": {
        "notice": "This works identically to the other function with an extra data parameter, except this function just sets data to \"\"."
      },
      "safeTransferFrom(address,address,uint256,bytes)": {
        "notice": "Throws unless `msg.sender` is the current owner, an authorized operator, or the approved address for this NFT. Throws if `_from` is not the current owner. Throws if `_to` is the zero address. Throws if `_tokenId` is not a valid NFT. When transfer is complete, this function checks if `_to` is a smart contract (code size > 0). If so, it calls `onERC721Received` on `_to` and throws if the return value is not `bytes4(keccak256(\"onERC721Received(address,uint256,bytes)\"))`."
      },
      "setApprovalForAll(address,bool)": {
        "notice": "This works even if sender doesn't own any tokens at the time."
      },
      "transferFrom(address,address,uint256)": {
        "notice": "The caller is responsible to confirm that `_to` is capable of receiving NFTs or else they may be permanently lost."
      }
    },
    "version": 1
  }
}