{
  "contractName": "NFTokenEnumerableMock",
  "abi": [
    {
      "anonymous": false,
      "inputs": [
        {
          "indexed": true,
          "internalType": "address",
          "name": "_owner",
          "type": "address"
        },
        {
          "indexed": true,
          "internalType": "address",
          "name": "_approved",
          "type": "address"
        },
        {
          "indexed": true,
          "internalType": "uint256",
          "name": "_tokenId",
          "type": "uint256"
        }
      ],
      "name": "Approval",
      "type": "event"
    },
    {
      "anonymous": false,
      "inputs": [
        {
          "indexed": true,
          "internalType": "address",
          "name": "_owner",
          "type": "address"
        },
        {
          "indexed": true,
          "internalType": "address",
          "name": "_operator",
          "type": "address"
        },
        {
          "indexed": false,
          "internalType": "bool",
          "name": "_approved",
          "type": "bool"
        }
      ],
      "name": "ApprovalForAll",
      "type": "event"
    },
    {
      "anonymous": false,
      "inputs": [
        {
          "indexed": true,
          "internalType": "address",
          "name": "previousOwner",
          "type": "address"
        },
        {
          "indexed": true,
          "internalType": "address",
          "name": "newOwner",
          "type": "address"
        }
      ],
      "name": "OwnershipTransferred",
      "type": "event"
    },
    {
      "anonymous": false,
      "inputs": [
        {
          "indexed": true,
          "internalType": "address",
          "name": "_from",
          "type": "address"
        },
        {
          "indexed": true,
          "internalType": "address",
          "name": "_to",
          "type": "address"
        },
        {
          "indexed": true,
          "internalType": "uint256",
          "name": "_tokenId",
          "type": "uint256"
        }
      ],
      "name": "Transfer",
      "type": "event"
    },
    {
      "inputs": [
        {
          "internalType": "address",
          "name": "_approved",
          "type": "address"
        },
        {
          "internalType": "uint256",
          "name": "_tokenId",
          "type": "uint256"
        }
      ],
      "name": "approve",
      "outputs": [],
      "stateMutability": "nonpayable",
      "type": "function"
    },
    {
      "inputs": [
        {
          "internalType": "address",
          "name": "_owner",
          "type": "address"
        }
      ],
      "name": "balanceOf",
      "outputs": [
        {
          "internalType": "uint256",
          "name": "",
          "type": "uint256"
        }
      ],
      "stateMutability": "view",
      "type": "function"
    },
    {
      "inputs": [
        {
          "internalType": "uint256",
          "name": "_tokenId",
          "type": "uint256"
        }
      ],
      "name": "getApproved",
      "outputs": [
        {
          "internalType": "address",
          "name": "",
          "type": "address"
        }
      ],
      "stateMutability": "view",
      "type": "function"
    },
    {
      "inputs": [
        {
          "internalType": "address",
          "name": "_owner",
          "type": "address"
        },
        {
          "internalType": "address",
          "name": "_operator",
          "type": "address"
        }
      ],
      "name": "isApprovedForAll",
      "outputs": [
        {
          "internalType": "bool",
          "name": "",
          "type": "bool"
        }
      ],
      "stateMutability": "view",
      "type": "function"
    },
    {
      "inputs": [
        {
          "internalType": "uint256",
          "name": "_tokenId",
          "type": "uint256"
        }
      ],
      "name": "ownerOf",
      "outputs": [
        {
          "internalType": "address",
          "name": "_owner",
          "type": "address"
        }
      ],
      "stateMutability": "view",
      "type": "function"
    },
    {
      "inputs": [
        {
          "internalType": "address",
          "name": "_from",
          "type": "address"
        },
        {
          "internalType": "address",
          "name": "_to",
          "type": "address"
        },
        {
          "internalType": "uint256",
          "name": "_tokenId",
          "type": "uint256"
        }
      ],
      "name": "safeTransferFrom",
      "outputs": [],
      "stateMutability": "nonpayable",
      "type": "function"
    },
    {
      "inputs": [
        {
          "internalType": "address",
          "name": "_from",
          "type": "address"
        },
        {
          "internalType": "address",
          "name": "_to",
          "type": "address"
        },
        {
          "internalType": "uint256",
          "name": "_tokenId",
          "type": "uint256"
        },
        {
          "internalType": "bytes",
          "name": "_data",
          "type": "bytes"
        }
      ],
      "name": "safeTransferFrom",
      "outputs": [],
      "stateMutability": "nonpayable",
      "type": "function"
    },
    {
      "inputs": [
        {
          "internalType": "address",
          "name": "_operator",
          "type": "address"
        },
        {
          "internalType": "bool",
          "name": "_approved",
          "type": "bool"
        }
      ],
      "name": "setApprovalForAll",
      "outputs": [],
      "stateMutability": "nonpayable",
      "type": "function"
    },
    {
      "inputs": [
        {
          "internalType": "bytes4",
          "name": "_interfaceID",
          "type": "bytes4"
        }
      ],
      "name": "supportsInterface",
      "outputs": [
        {
          "internalType": "bool",
          "name": "",
          "type": "bool"
        }
      ],
      "stateMutability": "view",
      "type": "function"
    },
    {
      "inputs": [
        {
          "internalType": "uint256",
          "name": "_index",
          "type": "uint256"
        }
      ],
      "name": "tokenByIndex",
      "outputs": [
        {
          "internalType": "uint256",
          "name": "",
          "type": "uint256"
        }
      ],
      "stateMutability": "view",
      "type": "function"
    },
    {
      "inputs": [
        {
          "internalType": "address",
          "name": "_owner",
          "type": "address"
        },
        {
          "internalType": "uint256",
          "name": "_index",
          "type": "uint256"
        }
      ],
      "name": "tokenOfOwnerByIndex",
      "outputs": [
        {
          "internalType": "uint256",
          "name": "",
          "type": "uint256"
        }
      ],
      "stateMutability": "view",
      "type": "function"
    },
    {
      "inputs": [],
      "name": "totalSupply",
      "outputs": [
        {
          "internalType": "uint256",
          "name": "",
          "type": "uint256"
        }
      ],
      "stateMutability": "view",
      "type": "function"
    },
    {
      "inputs": [
        {
          "internalType": "address",
          "name": "_from",
          "type": "address"
        },
        {
          "internalType": "address",
          "name": "_to",
          "type": "address"
        },
        {
          "internalType": "uint256",
          "name": "_tokenId",
          "type": "uint256"
        }
      ],
      "name": "transferFrom",
      "outputs": [],
      "stateMutability": "nonpayable",
      "type": "function"
    },
    {
      "inputs": [
        {
          "internalType": "address",
          "name": "_to",
          "type": "address"
        },
        {
          "internalType": "uint256",
          "name": "_tokenId",
          "type": "uint256"
        }
      ],
      "name": "mint",
      "outputs": [],
      "stateMutability": "nonpayable",
      "type": "function"
    },
    {
      "inputs": [
        {
          "internalType": "uint256",
          "name": "_tokenId",
          "type": "uint256"
        }
      ],
      "name": "burn",
      "outputs": [],
      "stateMutability": "nonpayable",
      "type": "function"
    }
  ],
  "bytecode": "0x608060405234801561001057600080fd5b50600060208190527f67be87c3ff9960ca1e9cfac5cab2ff4747269cf9ed20c9b7306235ac35a491c5805460ff1990811660019081179092557ff7815fccbf112960a73756e185887fedcb9fc64ca0a16cc5923b7960ed780800805482168317905563780e9d6360e01b9092527f77b7bbe0e49b76487c9476b5db3354cf5270619d0037ccb899c2a4c4a75b43188054909216179055600980546001600160a01b031916331790556115eb806100c76000396000f3fe608060405234801561001057600080fd5b50600436106100f55760003560e01c806342842e0e1161009757806370a082311161006657806370a082311461022b578063a22cb4651461023e578063b88d4fde14610251578063e985e9c51461026457600080fd5b806342842e0e146101df57806342966c68146101f25780634f6ccce7146102055780636352211e1461021857600080fd5b806318160ddd116100d357806318160ddd1461019457806323b872dd146101a65780632f745c59146101b957806340c10f19146101cc57600080fd5b806301ffc9a7146100fa578063081812fc14610154578063095ea7b31461017f575b600080fd5b61013f610108366004611447565b7fffffffff000000000000000000000000000000000000000000000000000000001660009081526020819052604090205460ff1690565b60405190151581526020015b60405180910390f35b610167610162366004611481565b6102a0565b6040516001600160a01b03909116815260200161014b565b61019261018d36600461141d565b610322565b005b6005545b60405190815260200161014b565b6101926101b436600461130a565b6104f2565b6101986101c736600461141d565b6106ad565b6101926101da36600461141d565b610744565b6101926101ed36600461130a565b61079c565b610192610200366004611481565b6107bc565b610198610213366004611481565b610812565b610167610226366004611481565b61087a565b6101986102393660046112b5565b6108d2565b61019261024c3660046113e1565b610936565b61019261025f366004611346565b6109a2565b61013f6102723660046112d7565b6001600160a01b03918216600090815260046020908152604080832093909416825291909152205460ff1690565b6000818152600160209081526040808320548151808301909252600682526518181998181960d11b9282019290925283916001600160a01b03166103005760405162461bcd60e51b81526004016102f79190611523565b60405180910390fd5b506000838152600260205260409020546001600160a01b031691505b50919050565b60008181526001602052604090205481906001600160a01b03163381148061036d57506001600160a01b038116600090815260046020908152604080832033845290915290205460ff165b6040518060400160405280600681526020017f3030333030330000000000000000000000000000000000000000000000000000815250906103c15760405162461bcd60e51b81526004016102f79190611523565b50600083815260016020908152604091829020548251808401909352600683526518181998181960d11b918301919091528491906001600160a01b031661041b5760405162461bcd60e51b81526004016102f79190611523565b50600084815260016020908152604091829020548251808401909352600683527f3030333030380000000000000000000000000000000000000000000000000000918301919091526001600160a01b03908116919087168214156104925760405162461bcd60e51b81526004016102f79190611523565b5060008581526002602052604080822080546001600160a01b0319166001600160a01b038a811691821790925591518893918516917f8c5be1e5ebec7d5bd14f71427d1e84f3dd0314c0f7b2291e5b200ac8c7c3b92591a4505050505050565b60008181526001602052604090205481906001600160a01b03163381148061053057506000828152600260205260409020546001600160a01b031633145b8061055e57506001600160a01b038116600090815260046020908152604080832033845290915290205460ff165b604051806040016040528060068152602001650c0c0ccc0c0d60d21b8152509061059b5760405162461bcd60e51b81526004016102f79190611523565b50600083815260016020908152604091829020548251808401909352600683526518181998181960d11b918301919091528491906001600160a01b03166105f55760405162461bcd60e51b81526004016102f79190611523565b50600084815260016020908152604091829020548251808401909352600683526530303330303760d01b918301919091526001600160a01b039081169190881682146106545760405162461bcd60e51b81526004016102f79190611523565b5060408051808201909152600681526530303330303160d01b60208201526001600160a01b0387166106995760405162461bcd60e51b81526004016102f79190611523565b506106a486866109eb565b50505050505050565b6001600160a01b0382166000908152600760209081526040808320548151808301909252600682526530303530303760d01b928201929092529083106107065760405162461bcd60e51b81526004016102f79190611523565b506001600160a01b038316600090815260076020526040902080548390811061073157610731611571565b9060005260206000200154905092915050565b60095460408051808201909152600681526530313830303160d01b6020820152906001600160a01b0316331461078d5760405162461bcd60e51b81526004016102f79190611523565b506107988282610a76565b5050565b6107b783838360405180602001604052806000815250610ad6565b505050565b60095460408051808201909152600681526530313830303160d01b6020820152906001600160a01b031633146108055760405162461bcd60e51b81526004016102f79190611523565b5061080f81610db3565b50565b60055460408051808201909152600681526530303530303760d01b602082015260009183106108545760405162461bcd60e51b81526004016102f79190611523565b506005828154811061086857610868611571565b90600052602060002001549050919050565b600081815260016020908152604091829020548251808401909352600683526518181998181960d11b918301919091526001600160a01b0316908161031c5760405162461bcd60e51b81526004016102f79190611523565b60408051808201909152600681526530303330303160d01b60208201526000906001600160a01b0383166109195760405162461bcd60e51b81526004016102f79190611523565b50506001600160a01b031660009081526007602052604090205490565b3360008181526004602090815260408083206001600160a01b03871680855290835292819020805460ff191686151590811790915590519081529192917f17307eab39ab6107e8899845ad3d59bd9653f200f220920489ca2b5937696c31910160405180910390a35050565b6109e485858585858080601f016020809104026020016040519081016040528093929190818152602001838380828437600092019190915250610ad692505050565b5050505050565b600081815260016020908152604080832054600290925290912080546001600160a01b03191690556001600160a01b0316610a268183610e67565b610a308383610fe4565b81836001600160a01b0316826001600160a01b03167fddf252ad1be2c89b69c2b068fc378daa952ba7f163c4a11628f55a4df523b3ef60405160405180910390a4505050565b610a8082826110a8565b600580546001818101835560008390527f036b6384b5eca791c62761152d0c79bb0604c104a5fb6f4eb0703f3154bb3db09091018390559054610ac39190611536565b6000918252600660205260409091205550565b60008281526001602052604090205482906001600160a01b031633811480610b1457506000828152600260205260409020546001600160a01b031633145b80610b4257506001600160a01b038116600090815260046020908152604080832033845290915290205460ff165b604051806040016040528060068152602001650c0c0ccc0c0d60d21b81525090610b7f5760405162461bcd60e51b81526004016102f79190611523565b50600084815260016020908152604091829020548251808401909352600683526518181998181960d11b918301919091528591906001600160a01b0316610bd95760405162461bcd60e51b81526004016102f79190611523565b50600085815260016020908152604091829020548251808401909352600683526530303330303760d01b918301919091526001600160a01b03908116919089168214610c385760405162461bcd60e51b81526004016102f79190611523565b5060408051808201909152600681526530303330303160d01b60208201526001600160a01b038816610c7d5760405162461bcd60e51b81526004016102f79190611523565b50610c8887876109eb565b610c9a876001600160a01b031661118b565b15610da957604051630a85bd0160e11b81526000906001600160a01b0389169063150b7a0290610cd49033908d908c908c906004016114e7565b602060405180830381600087803b158015610cee57600080fd5b505af1158015610d02573d6000803e3d6000fd5b505050506040513d601f19601f82011682018060405250810190610d269190611464565b60408051808201909152600681527f303033303035000000000000000000000000000000000000000000000000000060208201529091507fffffffff000000000000000000000000000000000000000000000000000000008216630a85bd0160e11b14610da65760405162461bcd60e51b81526004016102f79190611523565b50505b5050505050505050565b610dbc816111c7565b600081815260066020526040812054600554909190610ddd90600190611536565b9050600060058281548110610df457610df4611571565b906000526020600020015490508060058481548110610e1557610e15611571565b6000918252602090912001556005805480610e3257610e3261155b565b600082815260208082208301600019908101839055909201909255918152600690915260408082209390935592835250812055565b600081815260016020908152604091829020548251808401909352600683526530303330303760d01b918301919091526001600160a01b03848116911614610ec25760405162461bcd60e51b81526004016102f79190611523565b50600081815260016020818152604080842080546001600160a01b031916905560088252808420546001600160a01b03871685526007909252832054909291610f0a91611536565b9050818114610fa1576001600160a01b0384166000908152600760205260408120805483908110610f3d57610f3d611571565b906000526020600020015490508060076000876001600160a01b03166001600160a01b031681526020019081526020016000208481548110610f8157610f81611571565b600091825260208083209091019290925591825260089052604090208290555b6001600160a01b0384166000908152600760205260409020805480610fc857610fc861155b565b6001900381819060005260206000200160009055905550505050565b600081815260016020908152604091829020548251808401909352600683526518181998181b60d11b918301919091526001600160a01b03161561103b5760405162461bcd60e51b81526004016102f79190611523565b50600081815260016020818152604080842080546001600160a01b0319166001600160a01b038816908117909155808552600783529084208054808501825581865292852090920185905590925290546110959190611536565b6000918252600860205260409091205550565b60408051808201909152600681526530303330303160d01b60208201526001600160a01b0383166110ec5760405162461bcd60e51b81526004016102f79190611523565b50600081815260016020908152604091829020548251808401909352600683526518181998181b60d11b918301919091526001600160a01b0316156111445760405162461bcd60e51b81526004016102f79190611523565b5061114f8282610fe4565b60405181906001600160a01b038416906000907fddf252ad1be2c89b69c2b068fc378daa952ba7f163c4a11628f55a4df523b3ef908290a45050565b6000813f7fc5d2460186f7233c927e7db2dcc703c0e500b653ca82273b7bfad8045d85a47081158015906111bf5750808214155b949350505050565b600081815260016020908152604091829020548251808401909352600683526518181998181960d11b918301919091528291906001600160a01b03166112205760405162461bcd60e51b81526004016102f79190611523565b50600082815260016020908152604080832054600290925290912080546001600160a01b03191690556001600160a01b031661125c8184610e67565b60405183906000906001600160a01b038416907fddf252ad1be2c89b69c2b068fc378daa952ba7f163c4a11628f55a4df523b3ef908390a4505050565b80356001600160a01b03811681146112b057600080fd5b919050565b6000602082840312156112c757600080fd5b6112d082611299565b9392505050565b600080604083850312156112ea57600080fd5b6112f383611299565b915061130160208401611299565b90509250929050565b60008060006060848603121561131f57600080fd5b61132884611299565b925061133660208501611299565b9150604084013590509250925092565b60008060008060006080868803121561135e57600080fd5b61136786611299565b945061137560208701611299565b935060408601359250606086013567ffffffffffffffff8082111561139957600080fd5b818801915088601f8301126113ad57600080fd5b8135818111156113bc57600080fd5b8960208285010111156113ce57600080fd5b9699959850939650602001949392505050565b600080604083850312156113f457600080fd5b6113fd83611299565b91506020830135801515811461141257600080fd5b809150509250929050565b6000806040838503121561143057600080fd5b61143983611299565b946020939093013593505050565b60006020828403121561145957600080fd5b81356112d081611587565b60006020828403121561147657600080fd5b81516112d081611587565b60006020828403121561149357600080fd5b5035919050565b6000815180845260005b818110156114c0576020818501810151868301820152016114a4565b818111156114d2576000602083870101525b50601f01601f19169290920160200192915050565b60006001600160a01b03808716835280861660208401525083604083015260806060830152611519608083018461149a565b9695505050505050565b6020815260006112d0602083018461149a565b60008282101561155657634e487b7160e01b600052601160045260246000fd5b500390565b634e487b7160e01b600052603160045260246000fd5b634e487b7160e01b600052603260045260246000fd5b7fffffffff000000000000000000000000000000000000000000000000000000008116811461080f57600080fdfea2646970667358221220c8857928c5af67cce70f2bb1d0c789b5eed3b507756146fa42c079757513423e64736f6c63430008060033",
  "immutableReferences": {},
  "source": "// SPDX-License-Identifier: MIT\r\npragma solidity 0.8.6;\r\n\r\nimport \"../../contracts/tokens/nf-token-enumerable.sol\";\r\nimport \"../ownership/ownable.sol\";\r\n\r\n/**\r\n * @dev This is an example contract implementation of NFToken with enumerable extension.\r\n */\r\ncontract NFTokenEnumerableMock is\r\n  NFTokenEnumerable,\r\n  Ownable\r\n{\r\n\r\n  /**\r\n   * @dev Mints a new NFT.\r\n   * @param _to The address that will own the minted NFT.\r\n   * @param _tokenId of the NFT to be minted by the msg.sender.\r\n   */\r\n  function mint(\r\n    address _to,\r\n    uint256 _tokenId\r\n  )\r\n    external\r\n    onlyOwner\r\n  {\r\n    super._mint(_to, _tokenId);\r\n  }\r\n\r\n  /**\r\n   * @dev Removes a NFT from owner.\r\n   * @param _tokenId Which NFT we want to remove.\r\n   */\r\n  function burn(\r\n    uint256 _tokenId\r\n  )\r\n    external\r\n    onlyOwner\r\n  {\r\n    super._burn(_tokenId);\r\n  }\r\n\r\n}\r\n",
  "sourcePath": "C:\\Users\\jacky\\Desktop\\JRiffAuction\\contracts\\mocks\\nf-token-enumerable-mock.sol",
  "compiler": {
    "name": "solc",
    "version": "0.8.6+commit.11564f7e.Emscripten.clang"
  },
  "schemaVersion": "3.4.3",
  "updatedAt": "2021-11-06T16:30:51.502Z",
  "devdoc": {
    "details": "This is an example contract implementation of NFToken with enumerable extension.",
    "kind": "dev",
    "methods": {
      "approve(address,uint256)": {
        "details": "Set or reaffirm the approved address for an NFT. This function can be changed to payable.",
        "params": {
          "_approved": "Address to be approved for the given NFT ID.",
          "_tokenId": "ID of the token to be approved."
        }
      },
      "balanceOf(address)": {
        "details": "Returns the number of NFTs owned by `_owner`. NFTs assigned to the zero address are considered invalid, and this function throws for queries about the zero address.",
        "params": {
          "_owner": "Address for whom to query the balance."
        },
        "returns": {
          "_0": "Balance of _owner."
        }
      },
      "burn(uint256)": {
        "details": "Removes a NFT from owner.",
        "params": {
          "_tokenId": "Which NFT we want to remove."
        }
      },
      "getApproved(uint256)": {
        "details": "Get the approved address for a single NFT.",
        "params": {
          "_tokenId": "ID of the NFT to query the approval of."
        },
        "returns": {
          "_0": "Address that _tokenId is approved for."
        }
      },
      "isApprovedForAll(address,address)": {
        "details": "Checks if `_operator` is an approved operator for `_owner`.",
        "params": {
          "_operator": "The address that acts on behalf of the owner.",
          "_owner": "The address that owns the NFTs."
        },
        "returns": {
          "_0": "True if approved for all, false otherwise."
        }
      },
      "mint(address,uint256)": {
        "details": "Mints a new NFT.",
        "params": {
          "_to": "The address that will own the minted NFT.",
          "_tokenId": "of the NFT to be minted by the msg.sender."
        }
      },
      "ownerOf(uint256)": {
        "details": "Returns the address of the owner of the NFT. NFTs assigned to the zero address are considered invalid, and queries about them do throw.",
        "params": {
          "_tokenId": "The identifier for an NFT."
        },
        "returns": {
          "_owner": "Address of _tokenId owner."
        }
      },
      "safeTransferFrom(address,address,uint256)": {
        "details": "Transfers the ownership of an NFT from one address to another address. This function can be changed to payable.",
        "params": {
          "_from": "The current owner of the NFT.",
          "_to": "The new owner.",
          "_tokenId": "The NFT to transfer."
        }
      },
      "safeTransferFrom(address,address,uint256,bytes)": {
        "details": "Transfers the ownership of an NFT from one address to another address. This function can be changed to payable.",
        "params": {
          "_data": "Additional data with no specified format, sent in call to `_to`.",
          "_from": "The current owner of the NFT.",
          "_to": "The new owner.",
          "_tokenId": "The NFT to transfer."
        }
      },
      "setApprovalForAll(address,bool)": {
        "details": "Enables or disables approval for a third party (\"operator\") to manage all of `msg.sender`'s assets. It also emits the ApprovalForAll event.",
        "params": {
          "_approved": "True if the operators is approved, false to revoke approval.",
          "_operator": "Address to add to the set of authorized operators."
        }
      },
      "supportsInterface(bytes4)": {
        "details": "Function to check which interfaces are suported by this contract.",
        "params": {
          "_interfaceID": "Id of the interface."
        },
        "returns": {
          "_0": "True if _interfaceID is supported, false otherwise."
        }
      },
      "tokenByIndex(uint256)": {
        "details": "Returns NFT ID by its index.",
        "params": {
          "_index": "A counter less than `totalSupply()`."
        },
        "returns": {
          "_0": "Token id."
        }
      },
      "tokenOfOwnerByIndex(address,uint256)": {
        "details": "returns the n-th NFT ID from a list of owner's tokens.",
        "params": {
          "_index": "Index number representing n-th token in owner's list of tokens.",
          "_owner": "Token owner's address."
        },
        "returns": {
          "_0": "Token id."
        }
      },
      "totalSupply()": {
        "details": "Returns the count of all existing NFTokens.",
        "returns": {
          "_0": "Total supply of NFTs."
        }
      },
      "transferFrom(address,address,uint256)": {
        "details": "Throws unless `msg.sender` is the current owner, an authorized operator, or the approved address for this NFT. Throws if `_from` is not the current owner. Throws if `_to` is the zero address. Throws if `_tokenId` is not a valid NFT. This function can be changed to payable.",
        "params": {
          "_from": "The current owner of the NFT.",
          "_to": "The new owner.",
          "_tokenId": "The NFT to transfer."
        }
      }
    },
    "version": 1
  },
  "userdoc": {
    "kind": "user",
    "methods": {
      "approve(address,uint256)": {
        "notice": "The zero address indicates there is no approved address. Throws unless `msg.sender` is the current NFT owner, or an authorized operator of the current owner."
      },
      "getApproved(uint256)": {
        "notice": "Throws if `_tokenId` is not a valid NFT."
      },
      "safeTransferFrom(address,address,uint256)": {
        "notice": "This works identically to the other function with an extra data parameter, except this function just sets data to \"\"."
      },
      "safeTransferFrom(address,address,uint256,bytes)": {
        "notice": "Throws unless `msg.sender` is the current owner, an authorized operator, or the approved address for this NFT. Throws if `_from` is not the current owner. Throws if `_to` is the zero address. Throws if `_tokenId` is not a valid NFT. When transfer is complete, this function checks if `_to` is a smart contract (code size > 0). If so, it calls `onERC721Received` on `_to` and throws if the return value is not `bytes4(keccak256(\"onERC721Received(address,uint256,bytes)\"))`."
      },
      "setApprovalForAll(address,bool)": {
        "notice": "This works even if sender doesn't own any tokens at the time."
      },
      "transferFrom(address,address,uint256)": {
        "notice": "The caller is responsible to confirm that `_to` is capable of receiving NFTs or else they may be permanently lost."
      }
    },
    "version": 1
  }
}