{
  "contractName": "NFTokenMock",
  "abi": [
    {
      "anonymous": false,
      "inputs": [
        {
          "indexed": true,
          "internalType": "address",
          "name": "_owner",
          "type": "address"
        },
        {
          "indexed": true,
          "internalType": "address",
          "name": "_approved",
          "type": "address"
        },
        {
          "indexed": true,
          "internalType": "uint256",
          "name": "_tokenId",
          "type": "uint256"
        }
      ],
      "name": "Approval",
      "type": "event"
    },
    {
      "anonymous": false,
      "inputs": [
        {
          "indexed": true,
          "internalType": "address",
          "name": "_owner",
          "type": "address"
        },
        {
          "indexed": true,
          "internalType": "address",
          "name": "_operator",
          "type": "address"
        },
        {
          "indexed": false,
          "internalType": "bool",
          "name": "_approved",
          "type": "bool"
        }
      ],
      "name": "ApprovalForAll",
      "type": "event"
    },
    {
      "anonymous": false,
      "inputs": [
        {
          "indexed": true,
          "internalType": "address",
          "name": "previousOwner",
          "type": "address"
        },
        {
          "indexed": true,
          "internalType": "address",
          "name": "newOwner",
          "type": "address"
        }
      ],
      "name": "OwnershipTransferred",
      "type": "event"
    },
    {
      "anonymous": false,
      "inputs": [
        {
          "indexed": true,
          "internalType": "address",
          "name": "_from",
          "type": "address"
        },
        {
          "indexed": true,
          "internalType": "address",
          "name": "_to",
          "type": "address"
        },
        {
          "indexed": true,
          "internalType": "uint256",
          "name": "_tokenId",
          "type": "uint256"
        }
      ],
      "name": "Transfer",
      "type": "event"
    },
    {
      "inputs": [
        {
          "internalType": "address",
          "name": "_approved",
          "type": "address"
        },
        {
          "internalType": "uint256",
          "name": "_tokenId",
          "type": "uint256"
        }
      ],
      "name": "approve",
      "outputs": [],
      "stateMutability": "nonpayable",
      "type": "function"
    },
    {
      "inputs": [
        {
          "internalType": "address",
          "name": "_owner",
          "type": "address"
        }
      ],
      "name": "balanceOf",
      "outputs": [
        {
          "internalType": "uint256",
          "name": "",
          "type": "uint256"
        }
      ],
      "stateMutability": "view",
      "type": "function"
    },
    {
      "inputs": [
        {
          "internalType": "uint256",
          "name": "_tokenId",
          "type": "uint256"
        }
      ],
      "name": "getApproved",
      "outputs": [
        {
          "internalType": "address",
          "name": "",
          "type": "address"
        }
      ],
      "stateMutability": "view",
      "type": "function"
    },
    {
      "inputs": [
        {
          "internalType": "address",
          "name": "_owner",
          "type": "address"
        },
        {
          "internalType": "address",
          "name": "_operator",
          "type": "address"
        }
      ],
      "name": "isApprovedForAll",
      "outputs": [
        {
          "internalType": "bool",
          "name": "",
          "type": "bool"
        }
      ],
      "stateMutability": "view",
      "type": "function"
    },
    {
      "inputs": [
        {
          "internalType": "uint256",
          "name": "_tokenId",
          "type": "uint256"
        }
      ],
      "name": "ownerOf",
      "outputs": [
        {
          "internalType": "address",
          "name": "_owner",
          "type": "address"
        }
      ],
      "stateMutability": "view",
      "type": "function"
    },
    {
      "inputs": [
        {
          "internalType": "address",
          "name": "_from",
          "type": "address"
        },
        {
          "internalType": "address",
          "name": "_to",
          "type": "address"
        },
        {
          "internalType": "uint256",
          "name": "_tokenId",
          "type": "uint256"
        }
      ],
      "name": "safeTransferFrom",
      "outputs": [],
      "stateMutability": "nonpayable",
      "type": "function"
    },
    {
      "inputs": [
        {
          "internalType": "address",
          "name": "_from",
          "type": "address"
        },
        {
          "internalType": "address",
          "name": "_to",
          "type": "address"
        },
        {
          "internalType": "uint256",
          "name": "_tokenId",
          "type": "uint256"
        },
        {
          "internalType": "bytes",
          "name": "_data",
          "type": "bytes"
        }
      ],
      "name": "safeTransferFrom",
      "outputs": [],
      "stateMutability": "nonpayable",
      "type": "function"
    },
    {
      "inputs": [
        {
          "internalType": "address",
          "name": "_operator",
          "type": "address"
        },
        {
          "internalType": "bool",
          "name": "_approved",
          "type": "bool"
        }
      ],
      "name": "setApprovalForAll",
      "outputs": [],
      "stateMutability": "nonpayable",
      "type": "function"
    },
    {
      "inputs": [
        {
          "internalType": "bytes4",
          "name": "_interfaceID",
          "type": "bytes4"
        }
      ],
      "name": "supportsInterface",
      "outputs": [
        {
          "internalType": "bool",
          "name": "",
          "type": "bool"
        }
      ],
      "stateMutability": "view",
      "type": "function"
    },
    {
      "inputs": [
        {
          "internalType": "address",
          "name": "_from",
          "type": "address"
        },
        {
          "internalType": "address",
          "name": "_to",
          "type": "address"
        },
        {
          "internalType": "uint256",
          "name": "_tokenId",
          "type": "uint256"
        }
      ],
      "name": "transferFrom",
      "outputs": [],
      "stateMutability": "nonpayable",
      "type": "function"
    },
    {
      "inputs": [
        {
          "internalType": "address",
          "name": "_to",
          "type": "address"
        },
        {
          "internalType": "uint256",
          "name": "_tokenId",
          "type": "uint256"
        }
      ],
      "name": "mint",
      "outputs": [],
      "stateMutability": "nonpayable",
      "type": "function"
    }
  ],
  "bytecode": "0x608060405234801561001057600080fd5b50600060208190527f67be87c3ff9960ca1e9cfac5cab2ff4747269cf9ed20c9b7306235ac35a491c5805460ff1990811660019081179092556380ac58cd60e01b9092527ff7815fccbf112960a73756e185887fedcb9fc64ca0a16cc5923b7960ed7808008054909216179055600580546001600160a01b031916331790556111b28061009e6000396000f3fe608060405234801561001057600080fd5b50600436106100c95760003560e01c806342842e0e11610081578063a22cb4651161005b578063a22cb465146101d5578063b88d4fde146101e8578063e985e9c5146101fb57600080fd5b806342842e0e1461018e5780636352211e146101a157806370a08231146101b457600080fd5b8063095ea7b3116100b2578063095ea7b31461015357806323b872dd1461016857806340c10f191461017b57600080fd5b806301ffc9a7146100ce578063081812fc14610128575b600080fd5b6101136100dc366004610ffe565b7fffffffff000000000000000000000000000000000000000000000000000000001660009081526020819052604090205460ff1690565b60405190151581526020015b60405180910390f35b61013b610136366004611038565b610237565b6040516001600160a01b03909116815260200161011f565b610166610161366004610fd4565b6102b9565b005b610166610176366004610ec1565b610496565b610166610189366004610fd4565b610651565b61016661019c366004610ec1565b6106c0565b61013b6101af366004611038565b6106e0565b6101c76101c2366004610e6c565b610738565b60405190815260200161011f565b6101666101e3366004610f98565b61079c565b6101666101f6366004610efd565b610808565b610113610209366004610e8e565b6001600160a01b03918216600090815260046020908152604080832093909416825291909152205460ff1690565b6000818152600160209081526040808320548151808301909252600682526518181998181960d11b9282019290925283916001600160a01b03166102975760405162461bcd60e51b815260040161028e91906110da565b60405180910390fd5b506000838152600260205260409020546001600160a01b031691505b50919050565b60008181526001602052604090205481906001600160a01b03163381148061030457506001600160a01b038116600090815260046020908152604080832033845290915290205460ff165b6040518060400160405280600681526020017f3030333030330000000000000000000000000000000000000000000000000000815250906103585760405162461bcd60e51b815260040161028e91906110da565b50600083815260016020908152604091829020548251808401909352600683526518181998181960d11b918301919091528491906001600160a01b03166103b25760405162461bcd60e51b815260040161028e91906110da565b50600084815260016020908152604091829020548251808401909352600683527f3030333030380000000000000000000000000000000000000000000000000000918301919091526001600160a01b03908116919087168214156104295760405162461bcd60e51b815260040161028e91906110da565b50600085815260026020526040808220805473ffffffffffffffffffffffffffffffffffffffff19166001600160a01b038a811691821790925591518893918516917f8c5be1e5ebec7d5bd14f71427d1e84f3dd0314c0f7b2291e5b200ac8c7c3b92591a4505050505050565b60008181526001602052604090205481906001600160a01b0316338114806104d457506000828152600260205260409020546001600160a01b031633145b8061050257506001600160a01b038116600090815260046020908152604080832033845290915290205460ff165b604051806040016040528060068152602001650c0c0ccc0c0d60d21b8152509061053f5760405162461bcd60e51b815260040161028e91906110da565b50600083815260016020908152604091829020548251808401909352600683526518181998181960d11b918301919091528491906001600160a01b03166105995760405162461bcd60e51b815260040161028e91906110da565b50600084815260016020908152604091829020548251808401909352600683526530303330303760d01b918301919091526001600160a01b039081169190881682146105f85760405162461bcd60e51b815260040161028e91906110da565b5060408051808201909152600681526530303330303160d01b60208201526001600160a01b03871661063d5760405162461bcd60e51b815260040161028e91906110da565b506106488686610851565b50505050505050565b60055460408051808201909152600681527f30313830303100000000000000000000000000000000000000000000000000006020820152906001600160a01b031633146106b15760405162461bcd60e51b815260040161028e91906110da565b506106bc82826108e9565b5050565b6106db838383604051806020016040528060008152506109cc565b505050565b600081815260016020908152604091829020548251808401909352600683526518181998181960d11b918301919091526001600160a01b031690816102b35760405162461bcd60e51b815260040161028e91906110da565b60408051808201909152600681526530303330303160d01b60208201526000906001600160a01b03831661077f5760405162461bcd60e51b815260040161028e91906110da565b50506001600160a01b031660009081526003602052604090205490565b3360008181526004602090815260408083206001600160a01b03871680855290835292819020805460ff191686151590811790915590519081529192917f17307eab39ab6107e8899845ad3d59bd9653f200f220920489ca2b5937696c31910160405180910390a35050565b61084a85858585858080601f0160208091040260200160405190810160405280939291908181526020018383808284376000920191909152506109cc92505050565b5050505050565b6000818152600160209081526040808320546002909252909120805473ffffffffffffffffffffffffffffffffffffffff191690556001600160a01b03166108998183610ca9565b6108a38383610d5f565b81836001600160a01b0316826001600160a01b03167fddf252ad1be2c89b69c2b068fc378daa952ba7f163c4a11628f55a4df523b3ef60405160405180910390a4505050565b60408051808201909152600681526530303330303160d01b60208201526001600160a01b03831661092d5760405162461bcd60e51b815260040161028e91906110da565b50600081815260016020908152604091829020548251808401909352600683526518181998181b60d11b918301919091526001600160a01b0316156109855760405162461bcd60e51b815260040161028e91906110da565b506109908282610d5f565b60405181906001600160a01b038416906000907fddf252ad1be2c89b69c2b068fc378daa952ba7f163c4a11628f55a4df523b3ef908290a45050565b60008281526001602052604090205482906001600160a01b031633811480610a0a57506000828152600260205260409020546001600160a01b031633145b80610a3857506001600160a01b038116600090815260046020908152604080832033845290915290205460ff165b604051806040016040528060068152602001650c0c0ccc0c0d60d21b81525090610a755760405162461bcd60e51b815260040161028e91906110da565b50600084815260016020908152604091829020548251808401909352600683526518181998181960d11b918301919091528591906001600160a01b0316610acf5760405162461bcd60e51b815260040161028e91906110da565b50600085815260016020908152604091829020548251808401909352600683526530303330303760d01b918301919091526001600160a01b03908116919089168214610b2e5760405162461bcd60e51b815260040161028e91906110da565b5060408051808201909152600681526530303330303160d01b60208201526001600160a01b038816610b735760405162461bcd60e51b815260040161028e91906110da565b50610b7e8787610851565b610b90876001600160a01b0316610e14565b15610c9f57604051630a85bd0160e11b81526000906001600160a01b0389169063150b7a0290610bca9033908d908c908c9060040161109e565b602060405180830381600087803b158015610be457600080fd5b505af1158015610bf8573d6000803e3d6000fd5b505050506040513d601f19601f82011682018060405250810190610c1c919061101b565b60408051808201909152600681527f303033303035000000000000000000000000000000000000000000000000000060208201529091507fffffffff000000000000000000000000000000000000000000000000000000008216630a85bd0160e11b14610c9c5760405162461bcd60e51b815260040161028e91906110da565b50505b5050505050505050565b600081815260016020908152604091829020548251808401909352600683526530303330303760d01b918301919091526001600160a01b03848116911614610d045760405162461bcd60e51b815260040161028e91906110da565b506001600160a01b0382166000908152600360205260408120805460019290610d2e908490611105565b90915550506000908152600160205260409020805473ffffffffffffffffffffffffffffffffffffffff1916905550565b600081815260016020908152604091829020548251808401909352600683526518181998181b60d11b918301919091526001600160a01b031615610db65760405162461bcd60e51b815260040161028e91906110da565b506000818152600160208181526040808420805473ffffffffffffffffffffffffffffffffffffffff19166001600160a01b038816908117909155845260039091528220805491929091610e0b9084906110ed565b90915550505050565b6000813f7fc5d2460186f7233c927e7db2dcc703c0e500b653ca82273b7bfad8045d85a4708115801590610e485750808214155b949350505050565b80356001600160a01b0381168114610e6757600080fd5b919050565b600060208284031215610e7e57600080fd5b610e8782610e50565b9392505050565b60008060408385031215610ea157600080fd5b610eaa83610e50565b9150610eb860208401610e50565b90509250929050565b600080600060608486031215610ed657600080fd5b610edf84610e50565b9250610eed60208501610e50565b9150604084013590509250925092565b600080600080600060808688031215610f1557600080fd5b610f1e86610e50565b9450610f2c60208701610e50565b935060408601359250606086013567ffffffffffffffff80821115610f5057600080fd5b818801915088601f830112610f6457600080fd5b813581811115610f7357600080fd5b896020828501011115610f8557600080fd5b9699959850939650602001949392505050565b60008060408385031215610fab57600080fd5b610fb483610e50565b915060208301358015158114610fc957600080fd5b809150509250929050565b60008060408385031215610fe757600080fd5b610ff083610e50565b946020939093013593505050565b60006020828403121561101057600080fd5b8135610e878161114b565b60006020828403121561102d57600080fd5b8151610e878161114b565b60006020828403121561104a57600080fd5b5035919050565b6000815180845260005b818110156110775760208185018101518683018201520161105b565b81811115611089576000602083870101525b50601f01601f19169290920160200192915050565b60006001600160a01b038087168352808616602084015250836040830152608060608301526110d06080830184611051565b9695505050505050565b602081526000610e876020830184611051565b600082198211156111005761110061111c565b500190565b6000828210156111175761111761111c565b500390565b7f4e487b7100000000000000000000000000000000000000000000000000000000600052601160045260246000fd5b7fffffffff000000000000000000000000000000000000000000000000000000008116811461117957600080fd5b5056fea264697066735822122085fad58cbe8d92dd132e22349b21f92bf3908bed64e10dd77ef60bc95cb271c864736f6c63430008060033",
  "immutableReferences": {},
  "source": "// SPDX-License-Identifier: MIT\r\npragma solidity 0.8.6;\r\n\r\nimport \"../../contracts/tokens/nf-token.sol\";\r\nimport \"../ownership/ownable.sol\";\r\n\r\n/**\r\n * @dev This is an example contract implementation of NFToken.\r\n */\r\ncontract NFTokenMock is\r\n  NFToken,\r\n  Ownable\r\n{\r\n\r\n  /**\r\n   * @dev Mints a new NFT.\r\n   * @param _to The address that will own the minted NFT.\r\n   * @param _tokenId of the NFT to be minted by the msg.sender.\r\n   */\r\n  function mint(\r\n    address _to,\r\n    uint256 _tokenId\r\n  )\r\n    external\r\n    onlyOwner\r\n  {\r\n    super._mint(_to, _tokenId);\r\n  }\r\n\r\n}\r\n",
  "sourcePath": "C:\\Users\\jacky\\Desktop\\JRiffAuction\\contracts\\mocks\\nf-token-mock.sol",
  "compiler": {
    "name": "solc",
    "version": "0.8.6+commit.11564f7e.Emscripten.clang"
  },
  "schemaVersion": "3.4.3",
  "updatedAt": "2021-11-06T16:30:51.518Z",
  "devdoc": {
    "details": "This is an example contract implementation of NFToken.",
    "kind": "dev",
    "methods": {
      "approve(address,uint256)": {
        "details": "Set or reaffirm the approved address for an NFT. This function can be changed to payable.",
        "params": {
          "_approved": "Address to be approved for the given NFT ID.",
          "_tokenId": "ID of the token to be approved."
        }
      },
      "balanceOf(address)": {
        "details": "Returns the number of NFTs owned by `_owner`. NFTs assigned to the zero address are considered invalid, and this function throws for queries about the zero address.",
        "params": {
          "_owner": "Address for whom to query the balance."
        },
        "returns": {
          "_0": "Balance of _owner."
        }
      },
      "getApproved(uint256)": {
        "details": "Get the approved address for a single NFT.",
        "params": {
          "_tokenId": "ID of the NFT to query the approval of."
        },
        "returns": {
          "_0": "Address that _tokenId is approved for."
        }
      },
      "isApprovedForAll(address,address)": {
        "details": "Checks if `_operator` is an approved operator for `_owner`.",
        "params": {
          "_operator": "The address that acts on behalf of the owner.",
          "_owner": "The address that owns the NFTs."
        },
        "returns": {
          "_0": "True if approved for all, false otherwise."
        }
      },
      "mint(address,uint256)": {
        "details": "Mints a new NFT.",
        "params": {
          "_to": "The address that will own the minted NFT.",
          "_tokenId": "of the NFT to be minted by the msg.sender."
        }
      },
      "ownerOf(uint256)": {
        "details": "Returns the address of the owner of the NFT. NFTs assigned to the zero address are considered invalid, and queries about them do throw.",
        "params": {
          "_tokenId": "The identifier for an NFT."
        },
        "returns": {
          "_owner": "Address of _tokenId owner."
        }
      },
      "safeTransferFrom(address,address,uint256)": {
        "details": "Transfers the ownership of an NFT from one address to another address. This function can be changed to payable.",
        "params": {
          "_from": "The current owner of the NFT.",
          "_to": "The new owner.",
          "_tokenId": "The NFT to transfer."
        }
      },
      "safeTransferFrom(address,address,uint256,bytes)": {
        "details": "Transfers the ownership of an NFT from one address to another address. This function can be changed to payable.",
        "params": {
          "_data": "Additional data with no specified format, sent in call to `_to`.",
          "_from": "The current owner of the NFT.",
          "_to": "The new owner.",
          "_tokenId": "The NFT to transfer."
        }
      },
      "setApprovalForAll(address,bool)": {
        "details": "Enables or disables approval for a third party (\"operator\") to manage all of `msg.sender`'s assets. It also emits the ApprovalForAll event.",
        "params": {
          "_approved": "True if the operators is approved, false to revoke approval.",
          "_operator": "Address to add to the set of authorized operators."
        }
      },
      "supportsInterface(bytes4)": {
        "details": "Function to check which interfaces are suported by this contract.",
        "params": {
          "_interfaceID": "Id of the interface."
        },
        "returns": {
          "_0": "True if _interfaceID is supported, false otherwise."
        }
      },
      "transferFrom(address,address,uint256)": {
        "details": "Throws unless `msg.sender` is the current owner, an authorized operator, or the approved address for this NFT. Throws if `_from` is not the current owner. Throws if `_to` is the zero address. Throws if `_tokenId` is not a valid NFT. This function can be changed to payable.",
        "params": {
          "_from": "The current owner of the NFT.",
          "_to": "The new owner.",
          "_tokenId": "The NFT to transfer."
        }
      }
    },
    "version": 1
  },
  "userdoc": {
    "kind": "user",
    "methods": {
      "approve(address,uint256)": {
        "notice": "The zero address indicates there is no approved address. Throws unless `msg.sender` is the current NFT owner, or an authorized operator of the current owner."
      },
      "getApproved(uint256)": {
        "notice": "Throws if `_tokenId` is not a valid NFT."
      },
      "safeTransferFrom(address,address,uint256)": {
        "notice": "This works identically to the other function with an extra data parameter, except this function just sets data to \"\"."
      },
      "safeTransferFrom(address,address,uint256,bytes)": {
        "notice": "Throws unless `msg.sender` is the current owner, an authorized operator, or the approved address for this NFT. Throws if `_from` is not the current owner. Throws if `_to` is the zero address. Throws if `_tokenId` is not a valid NFT. When transfer is complete, this function checks if `_to` is a smart contract (code size > 0). If so, it calls `onERC721Received` on `_to` and throws if the return value is not `bytes4(keccak256(\"onERC721Received(address,uint256,bytes)\"))`."
      },
      "setApprovalForAll(address,bool)": {
        "notice": "This works even if sender doesn't own any tokens at the time."
      },
      "transferFrom(address,address,uint256)": {
        "notice": "The caller is responsible to confirm that `_to` is capable of receiving NFTs or else they may be permanently lost."
      }
    },
    "version": 1
  }
}