{
  "contractName": "SupportsInterface",
  "abi": [
    {
      "inputs": [],
      "stateMutability": "nonpayable",
      "type": "constructor"
    },
    {
      "inputs": [
        {
          "internalType": "bytes4",
          "name": "_interfaceID",
          "type": "bytes4"
        }
      ],
      "name": "supportsInterface",
      "outputs": [
        {
          "internalType": "bool",
          "name": "",
          "type": "bool"
        }
      ],
      "stateMutability": "view",
      "type": "function"
    }
  ],
  "bytecode": "0x608060405234801561001057600080fd5b506301ffc9a760e01b60009081526020527f67be87c3ff9960ca1e9cfac5cab2ff4747269cf9ed20c9b7306235ac35a491c5805460ff191660011790556101008061005c6000396000f3fe6080604052348015600f57600080fd5b506004361060285760003560e01c806301ffc9a714602d575b600080fd5b606f60383660046083565b7fffffffff000000000000000000000000000000000000000000000000000000001660009081526020819052604090205460ff1690565b604051901515815260200160405180910390f35b600060208284031215609457600080fd5b81357fffffffff000000000000000000000000000000000000000000000000000000008116811460c357600080fd5b939250505056fea2646970667358221220d016478fc00fc572548a6139ecd60af6616ed6af3b5f0d1851cb7c6a1dc95ccd64736f6c63430008060033",
  "immutableReferences": {},
  "source": "// SPDX-License-Identifier: MIT\r\npragma solidity ^0.8.0;\r\n\r\nimport \"./erc165.sol\";\r\n\r\n/**\r\n * @dev Implementation of standard for detect smart contract interfaces.\r\n */\r\ncontract SupportsInterface is\r\n  ERC165\r\n{\r\n\r\n  /**\r\n   * @dev Mapping of supported intefraces. You must not set element 0xffffffff to true.\r\n   */\r\n  mapping(bytes4 => bool) internal supportedInterfaces;\r\n\r\n  /**\r\n   * @dev Contract constructor.\r\n   */\r\n  constructor()\r\n  {\r\n    supportedInterfaces[0x01ffc9a7] = true; // ERC165\r\n  }\r\n\r\n  /**\r\n   * @dev Function to check which interfaces are suported by this contract.\r\n   * @param _interfaceID Id of the interface.\r\n   * @return True if _interfaceID is supported, false otherwise.\r\n   */\r\n  function supportsInterface(\r\n    bytes4 _interfaceID\r\n  )\r\n    external\r\n    override\r\n    view\r\n    returns (bool)\r\n  {\r\n    return supportedInterfaces[_interfaceID];\r\n  }\r\n\r\n}\r\n",
  "sourcePath": "C:\\Users\\jacky\\Desktop\\JRiffAuction\\contracts\\utils\\supports-interface.sol",
  "compiler": {
    "name": "solc",
    "version": "0.8.6+commit.11564f7e.Emscripten.clang"
  },
  "schemaVersion": "3.4.3",
  "updatedAt": "2021-11-06T16:30:51.558Z",
  "devdoc": {
    "details": "Implementation of standard for detect smart contract interfaces.",
    "kind": "dev",
    "methods": {
      "constructor": {
        "details": "Contract constructor."
      },
      "supportsInterface(bytes4)": {
        "details": "Function to check which interfaces are suported by this contract.",
        "params": {
          "_interfaceID": "Id of the interface."
        },
        "returns": {
          "_0": "True if _interfaceID is supported, false otherwise."
        }
      }
    },
    "stateVariables": {
      "supportedInterfaces": {
        "details": "Mapping of supported intefraces. You must not set element 0xffffffff to true."
      }
    },
    "version": 1
  },
  "userdoc": {
    "kind": "user",
    "methods": {},
    "version": 1
  }
}